:020000040800F2
:10000000202A00200101000805010008070100085E
:10001000090100080B0100080D01000800000000A4
:100020000000000000000000000000000F010008B8
:10003000110100080000000013010008FB0D00087A
:100040001701000817010008170100081701000830
:100050001701000817010008170100081701000820
:100060001701000817010008170100081701000810
:100070001701000817010008170100081701000800
:1000800017010008170100081701000817010008F0
:1000900017010008170100081701000817010008E0
:1000A00017010008170100081701000817010008D0
:1000B00017010008170100081701000817010008C0
:1000C00017010008170100081701000817010008B0
:1000D00017010008A58A00082D8C000817010008E8
:1000E000170100081701000817010008DFF80CD0FD
:1000F0000CF094F800480047B90F0008202A0020AF
:1001000005480047FEE7FEE7FEE7FEE7FEE7FEE7FD
:10011000FEE7FEE7FEE7FEE7ED000008D248806953
:1001200040F00100D0498861D048406820F00400C8
:10013000CE494860CC48806940F00400CA498861D3
:10014000CB48006820F47F60C849C1F8040808461D
:10015000D0F8040840F0B000C1F804080846D0F810
:10016000040840F48060C1F80408BF48806940F486
:100170008040BD49886141F66A00BE4908804FF061
:10018000000001F104010880BB49A1F81008BB4838
:100190000088BA4908804FF00000B749A1F8140858
:1001A0000846B0F80C0840F00C00A1F80C0808460E
:1001B000B0F80C0840F0E000A1F80C08B048008846
:1001C000A1F81008AF480088AE4908804FF0200021
:1001D0004FF0E021C1F80401A748B0F80C0840F442
:1001E0000050A549A1F80C089F48806940F0010023
:1001F0009D4988619D48406820F008009B494860FF
:100200009948806940F00400974988619748D0F880
:10021000000820F47F409549C1F800080846D0F84E
:10022000000840F43060C1F800080846D0F8000823
:1002300040F48040C1F800088B48C06940F40030A9
:100240008949C8614FF075008F4908804FF0000060
:1002500001F1040108804FF04021A1F810048B48FF
:1002600000888A4908804FF000004FF04021A1F833
:1002700014040846B0F80C0440F00C00A1F80C047B
:100280000846B0F80C0440F0E000A1F80C048048E7
:100290000088A1F810047F4800887E4908804FF04C
:1002A00040004FF0E021C1F804014FF04020B0F8C9
:1002B0000C0440F400504FF04021A1F80C047047AA
:1002C00010B500BF4FF012007349086000BF00BFB7
:1002D0007248654948607248086000BF00BF6248C4
:1002E000006810F4003FFAD000BF5F48006810F0CB
:1002F000007FFAD000BF5C48406800F00C0008287E
:10030000F9D100BF00BF4EF65F204FF0E0214861F9
:100310004FF0060008614FF0000088610846006950
:1003200040F00100086100BF00F04EF800BF4E48E9
:10033000806940F400604C4988614FF000005949E1
:10034000088041F26F705849A1F82C0C4FF0000062
:1003500056490880564908805349A1F8040C0846BC
:10036000B0F8000C40F00100A1F8000C00BF00BF85
:100370003D48806940F004003B4988614FF000002F
:100380004C4908604FF440503849C1F804083648D9
:10039000806940F00800344988614748474908604F
:1003A00047483249C1F8040C2F48806940F01000DA
:1003B0002D4988614348444908604FF04000486037
:1003C00000BFFFF7ABFE10BD2748C06940F080506A
:1003D0002549C8610846C06940F00060C8613B48D3
:1003E000006840F48070394908601F48006A40F096
:1003F00001001D49086200BF1B48006A10F0020F8F
:10040000FAD01948006A40F40140174908623048A0
:10041000008840F010002F49A1F804084FF00000B8
:100420002D49088047F6FF7001F1040108804FF064
:1004300000002A4908804FF03C002649A1F8240812
:100440000846B0F8040820F01000A1F8040800BF26
:100450001F48008810F0200FFAD01C48006820F4D4
:1004600080701A4908607047001002400000014087
:100470000408014008380140003001400C380140B8
:100480001038014014380140084400400C4400403A
:100490001044004014440040002002400284110037
:1004A00082000901282C014000200140302C01402D
:1004B000002C014000080140110000EE000C01403A
:1004C00040118100400011110010014000700040F7
:1004D0000428004000200040082800402028004058
:1004E00010B50446E0B208F07BFB002010BD70B5EB
:1004F00004460D462046FFF7F3FF70BDFF4909880B
:1005000008464FEA00410846FD49B1F81C1801446D
:1005100008469AE04FF01F010A46FA49A0EB010194
:100520000846F949098804290BD0F74909880629A2
:1005300007D0F5490988092903D0F34909880B290F
:1005400002D14FF01E010A46EF490988022913D152
:10055000ED4B1B1F1B8819464FEAE37301EB9373A6
:100560004FEAA303B1EB830303D04FF01C010A460B
:1005700002E04FF01D010A46E4490988914213DA6E
:10058000E349096841F48071E14B1960DF4909884A
:1005900001F10101DF4BA3F80C1CDD49096821F4CE
:1005A0008071DB4B196028E0D949096841F48071FA
:1005B000D74B19604FF00101D44B1980D549B1F8E0
:1005C000081C01F10101D34BA3F8081C1946B1F82E
:1005D000081C0C290BDD4FF00101CB4B1980CD49D4
:1005E000B1F8041C01F10101A3F104031980C84909
:1005F000096821F48071C64B1960C549096841F446
:100600008071C34B1960C449098841F01001BC4B8B
:10061000A3F804184FEA1041B84B1980B84BA3F85F
:100620001C081946B1F8041821F01001A3F80418A9
:1006300000BFB949098811F0200FFAD0B449096800
:1006400021F48071B24B196000BFAE498842BFF6F9
:1006500061AF704710B5B1480088AE49B1F8101CC1
:10066000A0EB010000B20446072C19DD0E2C17DAAE
:10067000AB480088A0B9A648006840F48070A4493F
:1006800008604FF00100A6490880A148006820F4E6
:1006900080709F4908604FF00800A249087044E04C
:1006A000072C1ADD0E2C18DA9D480088012814D179
:1006B0009748006840F48070954908604FF0020048
:1006C000974908809248006820F48070904908603B
:1006D0004FF008009349087027E0072C25DD0E2C09
:1006E00023DA8F48008802281FD18948006840F427
:1006F0008070874908604FF003008949088084486A
:10070000006820F48070824908604FF001014FF4C6
:10071000457000F051FF4FF4707140F2163000F058
:100720004BFF4FF00600804908707948006840F49C
:10073000807077490860794800887649A1F8100CE4
:100740007348006820F48070714908607748B0F9F8
:100750000000B0F57A7F06DA7448008800F10100E5
:1007600000B2724908807148008864280FD1684837
:10077000006840F48070664908604FF000006849E6
:1007800008806348006820F480706149086010BDEB
:1007900070B588B06648008800F10100644908809F
:1007A0006448008800287EDB624800883F287ADCA5
:1007B0004FF4606000F0FDFD06B25E480088A6EBD5
:1007C000000005B2002D03DA05F13F0000B2054636
:1007D0004FF4806000EB451000B2044669462046A5
:1007E00000F077FE04F1040000B2044601A920469F
:1007F00000F06FFE04F1040000B2044602A9204696
:1008000000F067FE04F1040000B2044603A920468C
:1008100000F05FFE04F1040000B2044604A9204683
:1008200000F057FE04F1040000B2044605A920467A
:1008300000F04FFE04F1040000B2044606A9204671
:1008400000F047FE04F1040000B2044607A9204668
:1008500000F03FFE9DF80000374908809DF8010038
:1008600048809DF8020088809DF809009DF80810D6
:1008700000EB01203049C8809DF80C009DF80A105B
:1008800000EB01202C4908819DF80E009DF80D1009
:1008900000EB0120284948819DF809009DF80810C7
:1008A00000EB012000E053E0234988819DF80C0013
:1008B0009DF80A1000EB01201F49C8819DF80E0029
:1008C0009DF80D1000EB01201B4908829DF80400E3
:1008D0009DF8051000EB0120174948829DF818008B
:1008E0009DF8191000EB0120134988829DF806003D
:1008F0009DF8071000EB01200F491FE01828004069
:100900000020004080510100086C00400C6C004049
:100910000070004000600040042800401C28004097
:10092000146C00408C0200208D0200208A020020FE
:10093000AE020020AC020020FC150020C8829DF809
:100940000F009DF80B1000EB0120FC49088378E0B4
:10095000FB480088B0F5FA6F0AD140F6026000F05B
:1009600028FDF84908804FF00000F549088068E04C
:10097000F3480088B0F57A7F14D1002140F6026078
:1009800000F0E5FD00214FF4606000F0E0FD40F66E
:10099000026000F00EFDEB4908804FF00000E849CE
:1009A00008804EE0E6480088A0F51C5111390DD1B1
:1009B000012006F02FFC40F6026000F0FAFCE1494D
:1009C00008804FF00000DE4908803AE0DC480088EB
:1009D000A0F59C4121390DD1002006F01BFC40F60A
:1009E000026000F0E6FCD74908804FF00000D449CF
:1009F000088026E0D2480088A0F51C5112390DD19C
:100A0000022006F007FC40F6026000F0D2FCCD495F
:100A100008804FF00000CA49088012E0C8480088EA
:100A2000A0F59C4122390CD1002006F0F3FB40F6E2
:100A3000026000F0BEFCC34908804FF00000C049CE
:100A4000088008B070BD2DE9F0410646C6F30720C6
:100A50000746F0B20546012F24D11C2000F0A9FC66
:100A600000B20446112D04D104F1010000B2044685
:100A700013E0122D04D104F10A0000B204460CE088
:100A8000212D04D1A4F1010000B2044605E0222D7D
:100A900003D1A4F10A0000B2044621461C2000F054
:100AA0008BFD00BFBDE8F0811FB5A748B0F900007D
:100AB000B0F57A7F06DAA448008800F1010000B2A0
:100AC000A14908804FF02000A0490870A048008884
:100AD00000F1010000B29E4908809C4909788842D3
:100AE00003DD6FF003009A4908809948B0F90000CF
:100AF00000287DDB9648B0F90000042878DC21202E
:100B000006F09FF820B193480068222800D11FBD4D
:100B100091480078F0BB8E48B0F9000000EBC001AE
:100B200001EB00108D4901EB800090F835108848EA
:100B3000B0F9000000EBC00202EB0010874A02EBA4
:100B4000800090F834208248B0F9000000EBC00328
:100B500003EB0010814B03EB800090F831007C4BDD
:100B6000B3F9003003EBC30404EB03137B4C04EB39
:100B7000830393F83030CDE90030CDE90221744889
:100B8000B0F9000000EBC00101EB0010214601EBC1
:100B9000800000E00BE090F82C000346ED226C484A
:100BA0000088C1B26A480088C0B206F04DFA6848B1
:100BB000B0F9000020287DDC6548B0F9000000EBAA
:100BC000C00101EB0010654901EB8000C0783C28B2
:100BD00047DA5F48B0F9000000EBC00101EB0010FC
:100BE0005E4901EB8000C07800F10100584900E047
:100BF0008FE0B1F9001001EBC10202EB0111574A7D
:100C000002EB8101C8705248B0F9000000EBC0014E
:100C100001EB0010114601EB8000C0783C282DDB71
:100C20004F48007850BB4A48B0F9000000EBC001C3
:100C300001EB0010114601EB8000407810F0080F26
:100C40001CD14348B0F900004649B1F90010884270
:100C500014DA012203213E480088C0B206F0BFFE2C
:100C60000CE04FF03C003A49B1F9001001EBC10231
:100C700002EB0111394A02EB8101C8703448B0F926
:100C8000000000EBC00101EB0010344901EB8000D3
:100C9000C078032826DB2E48B0F9000000EBC00125
:100CA00001EB00102D4901EB80000079032819DACF
:100CB000274800E040E0B0F9000000EBC00101EB84
:100CC0000010264901EB8000407900F10100204925
:100CD000B1F9001001EBC10202EB01111F4A02EB56
:100CE000810148711A48B0F9000000EBC00101EB26
:100CF00000101A4901EB8000C0781549B1F90010C5
:100D000001EBC10202EB0111144A02EB81010871EF
:100D100071E00F48B0F90000001D25D10E480078A1
:100D2000002868D1009001900290034602461D21E0
:100D30000390084606F088F95DE00000FC150020ED
:100D4000AC020020AA0200205A0500207A000020F0
:100D500078000020440400207B0000205C06002076
:100D60004400002048010020FF48B0F90000401C6A
:100D700041D0FD48B0F90000C01C16D1FB480078F6
:100D8000B8BB0023FA484078F9490978F94A527803
:100D9000CDE90203CDE90021F6480078034662223E
:100DA000FF21084606F050F925E0EF4800880D289D
:100DB00021D0ED4800880E281DD0EB48B0F9000086
:100DC000801C17D1E948007898B9EB480088C1B277
:100DD000EA4842780078EA4B5B78CDE90030CDE90B
:100DE0000221E748007803462622FF21084606F044
:100DF0002BF900E000BF00BF89E610B54FF00100FD
:100E0000E0490870E048806810F00200DE49886020
:100E100004D04FF00100DD49087003E04FF00000FE
:100E2000DA490870D9480078D9490978884206D04B
:100E3000D848008800F1010000B2D6490880D348A4
:100E40000078D3490870D4480078401CC0B2D24919
:100E50000870142806DB4FF0000008704FF0010006
:100E6000CE490870CE480078401CC0B2CC4908700A
:100E70000A287EDB4FF0000008704FF00100C949DE
:100E80000870C948007800F10100C0B2C649087076
:100E90000A2808DB4FF0000008704FF00100C3493A
:100EA000087007F0DDFBC2480078401CC0B2C049A2
:100EB0000870142812DB4FF0000008704FF001009A
:100EC000BC490870BC48007820B14FF00000BA4916
:100ED000087003E04FF00100B7490870B748007888
:100EE000401CC0B2B5490870322812DB4FF0000038
:100EF00008704FF00100B2490870B248007820B184
:100F00004FF00000AF49087003E04FF00100AD4919
:100F10000870AD480078401CC0B2AB490870642826
:100F200020DB4FF0000008704FF00100A749087067
:100F3000A748007820B14FF00000A549087003E0F1
:100F40004FF00100A2490870A248B0F9000042F237
:100F50001071884206DA9F48008800F1010000B253
:100F60009C4908809C48008800F1010000B29A4921
:100F700000E012E008800846B0F90000B0F5FA7F02
:100F80000BDB4FF0000008808248B0F90000934965
:100F900008804FF000007F4908809148007850B1E8
:100FA0008F480078A0F101008D490870084600784C
:100FB00008B909F0BCFB10BD1FB5FFF781F900F0BF
:100FC0008AF94FF001008749087007F071FC00F0C2
:100FD000D1FB00F0E8FB8449096801EB810149007D
:100FE000084607F067FC6421102000F0E5FA01F0E4
:100FF0005BFF05F086FF05F0BAFBFFF72BFBFFF761
:101000007DFA31E17948007808B109F090FB5D483C
:10101000007828B14FF000005A49087006F086F8B1
:101020007248007808B109F082FB5E480078A0B1F0
:101030004FF000005B49087001F079FEFFF734FDC6
:101040006B48B0F90000B0F57A7F06DA684800888E
:1010500000F1010000B2664908806448007808B1D8
:1010600009F065FB5148007860B34FF000004F492C
:10107000087003F03BFF03F0F1FC04F04AFF4FF06F
:101080000000044606E0204603F02CF904F10100BC
:10109000C0B204465748B0F900008442F3DB02F0C6
:1010A00030FE01F021FC01F0B9FD04F0B0FE04F0C7
:1010B00061FE04F087FC05F057FD03F0F9FD03F035
:1010C000A2FF00BF3B480078E0B14FF00000394973
:1010D000087000F068FB02F0E4FB27480088C0B20B
:1010E00026494978254A1278254B5B78CDE90032AC
:1010F000CDE902102248007803462622FF21084647
:1011000005F0A2FF2E48007828B14FF000002C49CE
:10111000087001F01BFF2D480078002872D04FF0B6
:1011200000002A4908703448008800F1010000B22C
:10113000314908800846B0F90000B0F57A7F02DD39
:101140004FF00000088003F00BFD05F01CFB04F0DD
:1011500059F804F0F9F92948007800F1010027490D
:101160000870274803784EE0780000207B000020BC
:1011700006010020DA000020FE000020E20000202E
:10118000E00000201A00002000100140380000207C
:10119000390000203C000020140000201C0000202A
:1011A000150000201B000020160000201E0000205B
:1011B000170000201F00002023000020180000203E
:1011C0002000002022000020190000201D00002027
:1011D00021000020260000203E0000203A000020D0
:1011E000E6040020C202002004000020E7040020E2
:1011F000E20400204801002028000020C302002053
:101200004204002016E01948B0F900201848B0F94F
:10121000001018A00BF032F81C48B0F900101CA008
:101220000BF02CF801F0F8F907F08CFAFFF712FA3E
:1012300004F070F81848007808B109F078FA1748F7
:10124000007828B14FF00000144908700AF01AFE27
:101250001348007840B14FF0000011490870114860
:10126000017811A00BF00AF8CCE600004004002041
:101270003E0400202533643B202533643B20253386
:10128000643B202533643B0D0A0000000000002071
:10129000253564200D0A0000E70400204F040020DB
:1012A000CD020020CC02002025643B0D0A00000086
:1012B000014600BFFF48008810F0020FFAD0FE4838
:1012C000018000BFFB48008810F0010FFAD0FA48F7
:1012D0000088C0B27047F948C06940F08050F749B3
:1012E000C8610846806940F0190088610846C069F5
:1012F00040F48040C861F2484068F1494860F148D4
:10130000006880B2C1F8040CEE480068EE4940EA7B
:101310000100EB49C1F8040CEC48406820F470600F
:10132000EA4948600846406840F44070486040F22E
:101330006F30E74908804FF00000E649A1F8040843
:101340007047DE48C06920F48060DC49C86170479E
:1013500000B5FFF7C0FFDD48C06820F48060DB49BE
:10136000C8604FF00600FFF7A3FFD848C06840F4FC
:101370008060D649C860FFF7E4FF00BD00B5FFF705
:10138000AAFFD248C06820F48060D049C8604FF0FE
:101390000500FFF78DFFFF20FFF78AFF0246CB48CD
:1013A000C06840F48060C949C860FFF7CAFF1046B2
:1013B00000BD11B500BFFFF7E1FF10F0010FFAD13A
:1013C000FFF789FFC148C06820F48060BF49C8604A
:1013D0004FF00300FFF76CFF9DF801000446204624
:1013E000FFF766FF9DF8000004462046FFF760FF08
:1013F000FF20FFF75DFF04464FF0FF00FFF758FFA7
:1014000003464FEA0320034603EB04000346AF48BC
:10141000C06840F48060AD49C8600846C06840F4C8
:101420008060C860FFF78DFF184618BD71B500BF1A
:10143000FFF7A4FF10F0010FFAD1FFF74CFFA3480C
:10144000C06820F48060A149C8604FF00300FFF736
:101450002FFF9DF8010004462046FFF729FF9DF865
:10146000000004462046FFF723FFFF20FFF720FF80
:1014700004464FF0FF00FFF71BFF06464FF0FF004A
:10148000FFF716FF05464FF0FF00FFF711FF034679
:101490004FEA0320034603EB050003464FEA03200F
:1014A000034603EB060003464FEA0320034603EB23
:1014B000040003468548C06840F480608349C860E2
:1014C0000846C06840F48060C860FFF73AFF1846DD
:1014D00078BD13B50B4600BFFFF750FF10F0010FAA
:1014E000FAD1FFF7F8FE7948C06820F480607749A8
:1014F000C8604FF00300FFF7DBFE9DF801000446D3
:101500002046FFF7D5FE9DF8000004462046FFF771
:10151000CFFEFF20FFF7CCFE1870FF20FFF7C8FEBC
:101520005870FF20FFF7C4FE9870FF20FFF7C0FE41
:10153000D8706648C06840F480606449C860084656
:10154000C06840F48060C860FFF7FBFE1CBD13B5A7
:101550000B4600BFFFF712FF10F0010FFAD1FFF7A3
:10156000F7FEFFF7B8FE5948C06820F4806057497D
:10157000C8604FF00200FFF79BFE9DF80100044693
:101580002046FFF795FE9DF8000004462046FFF731
:101590008FFE1846FFF78CFE04464C48C06840F4A6
:1015A00080604A49C8600846C06840F48060C860EE
:1015B000FFF7C7FE20461CBD03B500BFFFF7DEFEE8
:1015C00010F0010FFAD1FFF7C3FEFFF784FE3F488A
:1015D000C06820F480603D49C8604FF00200FFF70A
:1015E00067FE9DF8010003461846FFF761FE9DF86F
:1015F000000003461846FFF75BFE9DF80400034613
:101600001846FFF755FE9DF8050003461846FFF7FC
:101610004FFE2E48C06840F480602C49C8600846E0
:10162000C06840F48060C860FFF78BFE18460CBDB0
:1016300003B500BFFFF7A2FE10F0010FFAD1FFF7CC
:1016400087FEFFF748FE2148C06820F480601F49EC
:10165000C8604FF00200FFF72BFE9DF80100034623
:101660001846FFF725FE9DF8000003461846FFF7D1
:101670001FFE9DF8040003461846FFF719FE9DF86B
:10168000050003461846FFF713FE9DF806000346C3
:101690001846FFF70DFE9DF8070003461846FFF7B2
:1016A00007FE0A48C06840F480600849C8600846E0
:1016B000C06811E0083800400C38004000100240BB
:1016C00000000140040C01400000B3B800100140CC
:1016D000003800400030004040F48060C860FFF7F0
:1016E00030FE18460CBD13B50B4600BFFFF746FE93
:1016F00010F0010FFAD1FFF72BFEFFF7ECFD1C48AD
:10170000C06820F480601A49C8604FF00200FFF7FB
:10171000CFFD9DF8010004462046FFF7C9FD9DF866
:10172000000004462046FFF7C3FD18780446204613
:10173000FFF7BEFD587804462046FFF7B9FD9878BC
:1017400004462046FFF7B4FDD87804462046FFF74C
:10175000AFFD0748C06840F480600549C86008468E
:10176000C06840F48060C860FFF7EBFD20461CBDF8
:101770000010014010B50420FFF71BFEA0F59051AA
:1017800034390FD001214FF44570FFF715FF4FF4A6
:10179000707140F21630FFF70FFF41F23421042040
:1017A000FFF70AFF10BD10B51020FFF702FE00B2D0
:1017B000FF4908801220FFF7FCFD00B2FC49488079
:1017C0002C20FFF7F6FD00B2FA4908802E20FFF723
:1017D000F0FD00B2F74948801420FFF7EAFDF64912
:1017E00008801620FFF7E5FDF34948801820FFF731
:1017F000E0FD00B2F14908801A20FFF7DAFD00B2DF
:10180000EE4948801C20FFF7D4FD00B2EC49088067
:101810001E20FFF7CEFD00B2E94948802020FFF7E7
:10182000C8FD00B2E74908802420FFF7C2FD00B2DE
:10183000E54908802620FFF7BCFD00B2E349088097
:101840002820FFF7B6FD00B2E04948802A20FFF7C4
:10185000B0FD00B2DD4988803C20FFF7AAFD00B250
:10186000DB4908803E20FFF7A4FD00B2D94908807B
:101870004020FFF79EFD00B2D74908804220FFF7C5
:1018800098FD00B2D54908804420FFF792FD00B2D0
:10189000D3490880A620FFF78CFD00B2D14908800B
:1018A000A820FFF786FD00B2CE494880AA20FFF7A6
:1018B00080FD00B2CB4988807620FFF77AFD00B228
:1018C000C94908807820FFF774FD00B2C749088035
:1018D0007A20FFF76EFD00B2C54908807C20FFF733
:1018E00068FD00B2C34908807E20FFF762FD00B2A8
:1018F000C1490880C620FFF75CFD00B2BF490880DF
:10190000C820FFF756FD00B2BD4908808220FFF7CE
:1019100050FD00B2BB4908808420FFF74AFD00B2A9
:10192000B94908804FF48270FFF743FD00B2B74910
:1019300008808620FFF73DFD00B2B5490880882069
:10194000FFF737FD00B2B3490880DE20FFF731FD15
:1019500000B2B14908804FF4D270FFF72AFD00B2FF
:10196000AE4908804FF4D370FFF723FD00B2AC49B5
:1019700008808C20FFF71DFD00B2AA4908808E2048
:10198000FFF717FD00B2A84908809020FFF711FD6E
:1019900000B2A64908804FF4AD70FFF70AFD00B20F
:1019A000A34908804FF4C470FFF703FD00B2A149BA
:1019B00008804FF4C570FFF7FCFC00B29E49088018
:1019C0004FF4C670FFF7F5FC00B29C4908804FF455
:1019D000C770FFF7EEFC00B2994908804FF4C87059
:1019E000FFF7E7FC00B2974908804FF4CB70FFF790
:1019F000E0FC00B2944908804FF4CC70FFF7D9FCAA
:101A000000B2924908804FF4CD70FFF7D2FC00B2CB
:101A10008F4908804FF4CE70FFF7CBFC00B28D49A0
:101A200008804FF4CF70FFF7C4FC00B28A490880E9
:101A30004FF4D070FFF7BDFC00B2884908804FF426
:101A4000D170FFF7B6FC00B2854908804FF4B27040
:101A5000FFF7AFFC00B2834908809220FFF7A9FC92
:101A600000B2814908809420FFF7A3FC00B27F49AF
:101A700008809620FFF79DFC00B27D4908809820E1
:101A8000FFF797FC00B27B4908804FF49B70FFF78B
:101A900090FC00B2784908809A20FFF78AFC00B2D7
:101AA000764908800F220021744800F0A9FD4FF408
:101AB0001770FFF77EFC00B27149088040F25E208B
:101AC000FFF777FC00B26F49088040F26620FFF70D
:101AD00070FC00B26C4908804FF41A70FFF769FC83
:101AE00000B26A4908806648008866490988084447
:101AF00000B2674908804FF41B70FFF75AFC00B230
:101B0000644908804FF48850FFF753FC00B26249E3
:101B1000088041F20210FFF74CFC00B25F490880D8
:101B20008020FFF746FC00B25D490880C420FFF723
:101B300040FC00B25B490880CA20FFF73AFC00B2C3
:101B400059490880CC20FFF734FC00B2574908807F
:101B5000CE20FFF72EFC00B2554908804FF41970D3
:101B6000FFF727FC00B25349088040F26A20FFF7D4
:101B700020FC00B250490880D020FFF71AFC00B2C8
:101B80004E490880D220FFF714FC00B24C4908806F
:101B9000D420FFF70EFC00B24A490880D620FFF798
:101BA00008FC00B248490880D820FFF702FC8DE00D
:101BB000AC000020B0000020B4000020B8000020DD
:101BC000BC000020C0000020CE000020C200002089
:101BD000D0000020D2000020D4000020D600002039
:101BE0000E000020C8000020D8000020DA000020ED
:101BF000DC000020DE000020E0000020E2000020E9
:101C000006010020E6000020E8000020EA00002095
:101C1000EC000020EE000020F0000020F200002088
:101C200010000020F4000020F6000020F800002042
:101C3000860100208C0100208E01002096010020EA
:101C4000980100209A0100209C0100209E010020A4
:101C5000A0010020A2010020A4010020A601002074
:101C6000A801002088010020FA000020FC000020CC
:101C7000FE00002048010020460100204A0100200B
:101C80004E0100204C010020520100205401002090
:101C900050010020580100205A0100205C01002062
:101CA000E400002004010020080100200A010020B7
:101CB0000C0100200E010020100100201201002064
:101CC00014010020160100201801002000B2FF4975
:101CD0000880DA20FFF76DFB00B2FD490880DC20A8
:101CE000FFF767FB00B2FB490880E220FFF761FBCA
:101CF00000B2F9490880E420FFF75BFB00B2F74926
:101D00000880FE20FFF755FB00B2F54908804FF42C
:101D10008070FFF74EFB00B2F2490880E620FFF723
:101D200048FBF1490870E820FFF743FBEF490870D2
:101D3000EA20FFF73EFBEE490870EC20FFF739FB85
:101D400000B2EC490880EE20FFF733FB00B2EA490D
:101D50000880F020FFF72DFB00B2E84908804FF41F
:101D6000B670FFF726FB00B2E5490880F220FFF7C6
:101D700020FB00B2E3490880F420FFF71AFB00B211
:101D8000E1490880F620FFF714FB00B2DF49088024
:101D9000F820FFF70EFB00B2DD490880FA20FFF7BC
:101DA00008FB00B2DB490880FC20FFF702FB00B211
:101DB000D94908804FF48170FFF7FBFA00B2D74988
:101DC00008804FF48B70FFF7F4FA00B2D449088012
:101DD0004FF48C70FFF7EDFA00B2D24908804FF44F
:101DE0008D70FFF7E6FA00B2CF4908804FF48E708D
:101DF000FFF7DFFA00B2CD4908804FF48F70FFF78C
:101E0000D8FA00B2CA4908804FF4E770FFF7D1FA58
:101E100000B2C84908804FF49270FFF7CAFA00B2C6
:101E2000C54908804FF49370FFF7C3FA00B2C34965
:101E300008804FF49570FFF7BCFA00B2C0490880E3
:101E40004FF49670FFF7B5FA00B2BE4908804FF420
:101E50009770FFF7AEFA00B2BB4908804FF4987054
:101E6000FFF7A7FA00B2B94908804FF49C70FFF75A
:101E7000A0FA00B2B64908804FF49D70FFF799FAB6
:101E800000B2B44908804FF4B770FFF792FA00B27D
:101E9000B14908804FF4B870FFF78BFA00B2AF4930
:101EA00008804FF4BA70FFF784FA00B2AC4908809A
:101EB0004FF4B970FFF77DFA00B2AA4908804FF4D9
:101EC000BB70FFF776FA00B2A74908804FF4BC70E8
:101ED000FFF76FFA00B2A54908804FF4BD70FFF715
:101EE00068FA00B2A24908804FF4BE70FFF761FAA9
:101EF00000B2A04908804FF4BF70FFF75AFA00B251
:101F00009D4908804FF4C070FFF753FA00B29B4917
:101F100008804FF4C170FFF74CFA00B2984908806E
:101F20004FF4C270FFF745FA00B2964908804FF4AB
:101F3000C370FFF73EFA00B2934908804FF4E9708E
:101F4000FFF737FA914908704FF4F870FFF731FA4C
:101F50008E4948704FF000008D4908808B4800780A
:101F6000552805D10846008800F1010000B208801C
:101F700086484078552806D18548008800F1010040
:101F800000B2834908804FF4EA70FFF712FA00B2FA
:101F9000804908804FF4EB70FFF70BFA00B27E49DE
:101FA00008804FF4EC70FFF704FA00B27B49088018
:101FB0004FF4ED70FFF7FDF900B2794908804FF456
:101FC000F170FFF7F6F900B2764908804FF4EE7031
:101FD000FFF7EFF900B2744908804FF4F970FFF78A
:101FE000E8F900B26B4948804FF4FA70FFF7E1F965
:101FF00000B2694948804FF4FB70FFF7DAF900B28C
:10200000664948804FF4FC70FFF7D3F900B2644989
:10201000488040F20220FFF7CCF900B261494880C5
:102020004FF4FD70FFF7C5F900B25F4948804FF4E7
:102030004670FFF7BEF900B25C490880A020FFF7A8
:10204000B8F95B490870A220FFF7B3F95949087045
:10205000A420FFF7AEF900B257490880C020FFF76F
:10206000A8F900B255490880C220FFF7A2F900B2D2
:10207000534908804FF4AA70FFF79BF95149088033
:102080004FF4AB70FFF7D2F94F4908604FF4AC70D2
:10209000FFF7CCF94D4908604FF40170FFF789F95B
:1020A00000B24B49088040F20620FFF782F900B2E7
:1020B000484908804FF40270FFF77BF900B24649A7
:1020C000088040F20A20FFF774F987E01A01002027
:1020D0001C0100201E010020200100202201002000
:1020E00024010020260100202801002032010020C8
:1020F000330100202C0100202E0100202A010020A5
:102100003001002034010020360100203801002079
:102110003A0100203C010020560100203E01002031
:10212000580000205A0000205C0000205E000020C3
:10213000600000206C0000204001002042010020CF
:102140005E01002060010020620100206401002087
:1021500066010020680100206A0100206C01002057
:102160006E010020700100202A0000207201002072
:102170007401002076010020780100207A010020FF
:102180007C0100207E01002080010020AA010020A7
:1021900044010020AC010020B0010020B401002067
:1021A000C0010020B8010020BC0100205602002020
:1021B0008201002083010020840100200001002012
:1021C00002010020C4010020C8010020D801002025
:1021D000EC010020F2010020F801002000B2DB49F0
:1021E00008804FF40370FFF7E4F800B2D849088084
:1021F00040F20E20FFF7DDF800B2D64908804FF418
:102200000470FFF7D6F800B2D349088040F21220DC
:10221000FFF7CFF800B2D14908804FF40D70FFF7F7
:10222000C8F800B2CE49088040F23620FFF7C1F866
:1022300000B2CC4908804FF40E70FFF7BAF800B234
:10224000C949088040F23A20FFF7B3F800B2C74905
:1022500008804FF40F70FFF7ACF800B2C449088053
:1022600040F23E20FFF7A5F800B2BD4948804FF488
:102270001070FFF79EF800B2BA49488040F2422041
:10228000FFF797F800B2B84948804FF41170FFF794
:1022900090F800B2B549488040F24620FFF789F82F
:1022A00000B2B34948804FF41270FFF782F800B2D1
:1022B000AB49888040F24A20FFF77BF800B2A94979
:1022C00088804FF41370FFF774F800B2A649888035
:1022D00040F24E20FFF76DF800B2A44988804FF419
:1022E0001470FFF766F800B2A149888040F25220CE
:1022F000FFF75FF800B29A49C8804FF41570FFF7F6
:1023000058F800B29749C88040F25620FFF751F8BC
:1023100000B29549C8804FF41670FFF74AF800B232
:102320009249C88040F25A20FFF743F800B2904922
:10233000C880E020FFF73DF800B28E490880BA203F
:10234000FFF737F88C490870AC20FFF732F88B495B
:102350000880AE20FFF72DF889490880B020FFF7EC
:1023600028F888490880B220FFF723F886490880BA
:10237000B420FFF71EF885490880B620FFF719F84A
:102380008349088008460088002803DD0846008845
:102390000D2803DB4FF000007D490880B820FFF7CF
:1023A00008F87C4908804FF44570FFF702F800B246
:1023B0007949088040F21630FEF7FBFF7749086044
:1023C0004FF4AE70FEF7F5FF00B2754908804FF488
:1023D000AF70FEF7EEFF00B2724908804FF4B070A4
:1023E000FEF7E7FF00B2704908804FF4B370FEF7C4
:1023F000E0FF00B26D4908804FF4D470FEF7D9FFBA
:1024000000B26B4908804FF4D570FEF7D2FF00B2DE
:10241000684908804FF4D670FEF7CBFF00B26649DA
:1024200008804FF4D770FEF7C4FF00B263490880FC
:102430004FF4D870FEF7BDFF00B2614908804FF439
:10244000D970FEF7B6FF00B25E4908804FF4DA702B
:10245000FEF7AFFF00B25C4908804FF4DC70FEF776
:10246000A8FF00B2594908804FF4DD70FEF7A1FFC4
:1024700000B2574908804FF4DE70FEF79AFF00B2B1
:10248000544908804FF4DF70FEF793FF00B25249C1
:1024900008804FF4E070FEF78CFF00B24F490880CF
:1024A0004FF4E170FEF785FF00B24D4908804FF40C
:1024B000E270FEF77EFF00B24A4908804FF4E570F3
:1024C000FEF777FF00B2484908804FF4E670FEF748
:1024D00070FF00B2454908804FF0000403E004F1AA
:1024E0000100C0B20446402CF9DB4FF00000044666
:1024F00003E004F10100C0B204460A2CF9DB4FF0FE
:102500000000044603E004F10100C0B20446402C80
:10251000F9DB4FF42770FEF74CFF00B23449088016
:1025200040F29A20FEF745FF00B23249088040F29F
:102530009E20FEF73EFF00B22F4908804FF428701E
:10254000FEF737FF00B22D49088010BDFE010020C4
:10255000040200200A0200201002002016020020BF
:102560001C020020240200202C0200203402002043
:102570003C020020540200204402002052020020AD
:1025800046020020480200204A0200204C0200209F
:102590004E02002050020020000000200400002015
:1025A0009001002092010020940100208A01002067
:1025B000580200205A0200205C0200205E02002027
:1025C00060020020620200206402002066020020F7
:1025D000680200206A0200206C0200206E020020C7
:1025E0007002002072020020740200207602002097
:1025F0009400002096000020980000209A000020FF
:10260000B0F900308B4200DA0180B0F9003093421B
:1026100000DD028070470000FC49098839B1FB49A0
:102620000988A1F1010109B2F84A118070474FF001
:102630000501F64A11804FF00001F54A1170084675
:102640001CE000EBC00101EB0011F24A02EB81013A
:10265000897801290ED100EBC00101EB001102EBDA
:102660008101C978142905DAE949097801F10101E4
:10267000E74A117000F10101C9B20846E649B1F913
:1026800000108842DDDBE549097821B14FF00001F7
:10269000E24A117003E04FF00101E04A1170DC4999
:1026A0000978022900DAC1E741F28831DC4A116079
:1026B0004FF00001DB4A1160DB4A1160084645E03B
:1026C00000EBC00101EB0011D24A02EB81018978D5
:1026D000012937D100EBC00101EB001102EB8101B0
:1026E000496AD04A1268914209DD00EBC00101EB52
:1026F0000011C84A02EB8101496ACA4A116000EB25
:10270000C00101EB0011C34A02EB8101496AC44ACE
:102710001268914209DA00EBC00101EB0011BD4AD9
:1027200002EB8101496ABE4A116000EBC00101EB76
:102730000011B84A02EB8101496ABB4A1268114490
:10274000B94A116000F10101C9B20846B249B1F9B4
:1027500000108842B4DBB4490968AD4A127891FB95
:10276000F2F1B24A1160AE49096819B94FF001019E
:10277000AB4A1160AB490968AD4A1160114609685E
:102780004FF0640201FB02F1A94A11601146096889
:10279000A34A126891FBF2F1A54A1160114609683B
:1027A000822903DD4FF00101A24A1170A049096896
:1027B0006E2903DA4FF000019E4A11709D49097895
:1027C00001297ED14FF00001084684E000EBC001F2
:1027D00001EB00118F4A02EB81018978012976D142
:1027E00000EBC00101EB001102EB8101496A8F4A45
:1027F0001268914217DD89490978A1B900EBC0013F
:1028000001EB0011834A02EB8101B1F85410A1F1F0
:10281000010109B200EBC00202EB00127D4B03EB99
:102820008202A2F8541000EBC00101EB0011794ABA
:1028300002EB8101496A7D4A1268914217DA7749B1
:102840000978A1B100EBC00101EB0011714A02EB64
:102850008101B1F8541001F1010109B200EBC0028D
:1028600002EB00126B4B03EB8202A2F8541000EB58
:10287000C00101EB0011674A02EB8101B1F954106C
:1028800011F1320F0ADA6FF0310100EBC00202EBF6
:102890000012604B03EB8202A2F8541000EBC0015F
:1028A00001EB00115B4A02EB8101B1F954103229AE
:1028B0000DDD4FF0320100EBC00202EB0012554B70
:1028C00001E00EE003E003EB8202A2F8541000F1F5
:1028D0000101C9B208465049B1F900108842FFF61B
:1028E00075AF00BF00BFA1E64FF00002524B1A7057
:1028F000524B1A70524B1A701146104610E000EB02
:10290000C00202EB0012434B03EB8202527802F04A
:102910000F0242EA0102114600F1010212B2104612
:102920003D4AB2F900209042E9DB464A127832B9BA
:10293000444A12781AB9444A127802B919B14FF0D0
:1029400001023D4B1A704FF000021146104610E094
:1029500000EBC00202EB00122E4B03EB8202527816
:1029600002F0300242EA0102114600F1010212B205
:102970001046294AB2F900209042E9DB314A127828
:1029800032B9304A12781AB92F4A127802B919B1FD
:102990004FF00102294B1A702B4A12781AB94FF0E6
:1029A0000102274B1A70294AB2F90020B2F5FA7FCA
:1029B0000ADA274AB2F90020B2F5FA7F04DA4FF0BA
:1029C0000102244B1A7057E0204AB2F90020B2F5F8
:1029D000FA7F0ADD1E4AB2F90020B2F5FA7F04DD63
:1029E0004FF000021B4B1A7046E0184AB2F9002063
:1029F000B2F5FA7F30DA164AB2F90020B2F5FA7F62
:102A00002ADD4FF01402134B1A7035E0E202002069
:102A1000020400205C06002048010020030400207E
:102A2000F0030020EC030020F4030020F803002052
:102A3000FC03002000040020A8020020A7020020C0
:102A4000A602002044000020420400205A05002075
:102A5000E2040020A9020020FC4AB2F90020B2F5ED
:102A6000FA7F09DDFA4AB2F90020B2F5FA7F03DAFB
:102A70004FF00A02F74B1A70F74A1278012A0ED16A
:102A80004FF00002F54B1A70F54B1A704FF001022F
:102A9000F44B1A704FF00002EE4B1A7042E0EE4A0F
:102AA0001278022A0ED14FF00002EC4B1A704FF050
:102AB0000102EB4B1A704FF00002EA4B1A70E54B23
:102AC0001A702FE0E44A1278032A0CD14FF0010269
:102AD000E24B1A704FF00002E14B1A70E14B1A7092
:102AE000DC4B1A701EE0DC4A1278042A0CD14FF03D
:102AF0000002DA4B1A70DA4B1A70DA4B1A704FF088
:102B00000102D44B1A700DE0D34A1278052A09D17C
:102B10004FF00002D14B1A70D14B1A70D14B1A7082
:102B2000CC4B1A70D04A127862B1CF4A1278A2F117
:102B30000102CD4B1A701A4612781AB94FF00002F2
:102B4000C54B1A70C94A12787AB1C84A1278A2F1F4
:102B50000102C64B1A704FF00002C04B1A70C04BF6
:102B60001A70C04B1A70BB4B1A70C04A1278072AF1
:102B700003D0BE4A1278012A04D14FF00102B94BAA
:102B80001A7021E0B94A1278062A03D0B74A12789F
:102B9000022A04D14FF00102B14B1A7014E0B34A7B
:102BA0001278052A03D0B14A1278032A04D14FF0D3
:102BB0000102AA4B1A7007E0AC4A1278042A03D12A
:102BC0004FF00102A34B1A70A94A12787AB1A84AB1
:102BD0001278A2F10102A64B1A704FF000029F4B2F
:102BE0001A709F4B1A709F4B1A709A4B1A70A04A1A
:102BF0001278052A07D09E4A1278032A03D09C4AED
:102C00001278012A09D14FF00102944B1A70944BAB
:102C10001A70944B1A708F4B1A7070479548007851
:102C200000F10100934908700846007800F00F0099
:102C300008708C480078012806D18F48C06820F0C1
:102C400040008D49C86005E08B48C06840F04000F6
:102C50008949C86082480078012807D18748006800
:102C600020F480508649C1F80C0C06E083480068C7
:102C700040F480508249C1F80C0C78480078012853
:102C800007D17E48006820F400607D49C1F80C0C33
:102C900006E07A48006840F400607949C1F80C0CFD
:102CA0006C480078012807D17448006820F48060DF
:102CB0007349C1F80C0C39E06648007838B96F48A0
:102CC000006840F480606E49C1F80C0C2EE0614849
:102CD00000780A2813D167480078022807DC674883
:102CE000006820F480606649C1F80C0C1EE063485F
:102CF000006840F480606249C1F80C0C16E0554849
:102D00000078142812D15B4800780D2807DC5B4856
:102D1000006820F480605A49C1F80C0C06E057485E
:102D2000006840F480605649C1F80C0C704730B51B
:102D3000544B1B68544C554D2D7804EB4514544DA1
:102D40002D7824F81530514B1B7803F101034F4CBB
:102D5000237023461B78082B60DB4FF000032370A1
:102D60004B4B1B7803F10103494C237023461B781E
:102D7000102B04DB4FF000032370464C2370454BAF
:102D80001B785BB34FF0000025E04FF000031A46BC
:102D900019460AE03C4B03EB401333F8113013445F
:102DA0001A4601F10103DBB21946394B1B789942EF
:102DB000F0DB374B1B783BB1354B1B7892FBF3F3C1
:102DC000354C24F8103002E0334C24F8102000F188
:102DD0000103DBB218460828D7DB1FE04FF00000E4
:102DE0001AE04FF000031A4619460AE0264B03EB9F
:102DF000401333F8113013441A4601F10103DBB2DA
:102E000019461029F2DBC2F30F13234C24F81030BB
:102E100000F10103DBB218460828E2DB1F4B1B68F8
:102E200023F4A0031E4CC4F808341E4B174C24781E
:102E300053F824301A4CC4F834342346D3F80834F9
:102E400043F4A003154C236030BD00005A05002058
:102E5000E2040020A9020020A4020020A802002011
:102E6000A7020020A6020020A50200208C0200205C
:102E70008D020020F2020020001001400C0C0140E5
:102E8000000001404C2401402E16002000030020C9
:102E900001030020D40200206E1700200824014006
:102EA0000020014048C600084FF00000FC490870AF
:102EB000FC48806940F40070FA4988614FF00000D6
:102EC000F9490860F948F649097850F82100F849AD
:102ED000C1F834044FF48070F6490860F648F449AC
:102EE000C1F808040846D0F8080440F4A000C1F86E
:102EF000080470474FF00000F0490870F04908706E
:102F00004FF00100EF49087070474FF00000EE49A4
:102F10000870EE4908704FF00100ED4908707047E5
:102F20004FF00000EB490870EB4908704FF00100CA
:102F3000EA49087070474FF00000E9490870E94914
:102F400008704FF00100E849087070471FB5E74866
:102F50000078401CC0B2E5490870042802DB4FF03D
:102F600000000870E248007878B1E2480078A0F1EB
:102F7000010000EBC00101EB0010DF4901EB800014
:102F8000C06900B2DD49088037E0DD48007878B1DB
:102F9000DC480078A0F1010000EBC00101EB00105B
:102FA000D54901EB8000006A00B2D749088024E0CF
:102FB000D648007878B1D6480078A0F1010000EB3F
:102FC000C00101EB0010CC4901EB8000406A00B267
:102FD000D049088011E0D048007870B1CF4800781F
:102FE000A0F1010000EBC00101EB0010C24901EBB0
:102FF0008000806A00B2CA490880C048B0F9000069
:10300000C849B1F90010401A42F210714843BB4957
:10301000098819B1B949B1F9001001E04FF0010177
:1030200090FBF1F0C04908604FF00100A44908701E
:10303000BD480068002802DA4FF0FF0008709F4882
:10304000007818B99E4800789C490870AE48B0F9DD
:103050000000B649B1F90010401A42F2107148431D
:10306000A949098819B1A849B1F9001001E04FF048
:10307000010190FBF1F0AE4908604FF00100934967
:103080000870AB480068002802DA4FF0FF000870B3
:103090008D48007818B98D4800788B4908709D4894
:1030A000B0F90000A349B1F90010401A42F21071C2
:1030B00048439849098819B19649B1F9001001E0CF
:1030C0004FF0010190FBF1F09B4908604FF00100C7
:1030D0008149087098480068002802DA4FF0FF0024
:1030E00008707C48007818B97B48007879490870E6
:1030F0008B48B0F900009149B1F90010401A42F232
:10310000107148438649098819B18549B1F9001001
:1031100001E04FF0010190FBF1F0894908604FF0A8
:1031200001007049087086480068002802DA4FF0F4
:10313000FF0008706A48007818B96A480078684942
:1031400008706048007802282DD177490968081E68
:1031500001DB014600E0414205290CDA4FF0000096
:1031600063490870634908707649774AB2F90020CC
:1031700021F8120028E06C480068002807DD734839
:10318000007820B94FF00400714908701CE06648CF
:103190000068002818DA6D480078A8B94FF00200DE
:1031A0006B49087010E060480068002804DD4FF0AB
:1031B00005006749087007E05B480068002803DAEB
:1031C0004FF00300624908704148007802282DD171
:1031D00057490968081E01DB014600E04142052904
:1031E0000CDA4FF00000464908704649087055490E
:1031F000584AB2F9002021F8120028E04C48006833
:10320000002807DD5148007820B94FF004005249EA
:1032100008701CE046480068002818DA4B4800781F
:10322000A8B94FF002004C49087010E0404800680F
:10323000002804DD4FF005004749087007E03C48CE
:103240000068002803DA4FF0030043490870234860
:103250000078022823D138490968081E01DB01469D
:1032600000E0414205290DDA4FF0000027490870BF
:103270002749087001463348384AB2F9002020F83F
:1032800012108CE02C48006800286BDD2F48007875
:1032900020B94FF004003249087080E062E06DE030
:1032A00000030020001002402C24014048C6000802
:1032B000002001400424014003000E0048030020C8
:1032C000440300204C030020490300204503002054
:1032D0004D0300204A030020460300204E03002037
:1032E0004B030020470300204F030020130300205E
:1032F00014030020280300205C060020180300208F
:1033000015030020290300201A03002016030020C3
:103310002A0300201C030020170300202B03002099
:103320001E0300202003002034030020220300207D
:1033300038030020240300203C0300202603002043
:10334000400300201805002006050020040300208B
:103350005003002008050020510300200A0500202A
:1033600052030020FF480068002818DAFE48007861
:10337000A8B94FF00200FD49087010E0F948006854
:10338000002804DD4FF00500F849087007E0F54813
:103390000068002803DA4FF00300F4490870F4488D
:1033A000007802282ED1F3490968081E01DB014686
:1033B00000E0414205290DDA4FF00000EE490870A7
:1033C000EE4908700146EE48EE4AB2F9002020F8B6
:1033D000121028E0E7480068002807DDE24800787E
:1033E00020B94FF00400E84908701CE0E14800688B
:1033F000002818DADC480078A8B94FF00200E2494A
:10340000087010E0DB480068002804DD4FF005007C
:10341000DD49087007E0D7480068002803DA4FF05C
:103420000300D9490870D948007848B1D8480078D5
:10343000D8490978884203D04FF00200D649087075
:10344000D3480078D3490870D448007848B1D448AC
:103450000078D4490978884203D04FF00200D2495D
:103460000870CF480078CF490870D048007848B13C
:10347000CF480078CF490978884203D04FF0020046
:10348000CD490870CA480078CA490870BA4800781F
:1034900048B1CA480078CA490978884203D04FF039
:1034A0000200B3490870C5480078C5490870C5488E
:1034B0000078012804D14FF00000C349087034E0BF
:1034C000C0480078022804D14FF00100BE490870BE
:1034D0002BE0BC480078032804D14FF00200BA4921
:1034E000087022E0B7480078042804D14FF00300A8
:1034F000B549087019E0B3480078052804D14FF0A9
:103500000400B149087010E0AE480078062804D1E4
:103510004FF00500AC49087007E0AA48007807287A
:1035200003D14FF00600A8490870A8480078012888
:1035300004D14FF00000A649087034E0A348007899
:10354000022804D14FF00100A14908702BE09F48E8
:103550000078032804D14FF002009D49087022E052
:103560009A480078042804D14FF003009849087065
:1035700019E096480078052804D14FF004009449DA
:10358000087010E091480078062804D14FF005003B
:103590008F49087007E08D480078072803D14FF065
:1035A00006008B4908708B480078012804D14FF041
:1035B00000008949087034E086480078022804D168
:1035C0004FF00100844908702BE0824800780328FE
:1035D00004D14FF002008049087022E07D48007855
:1035E000042804D14FF003007B49087019E07948A2
:1035F0000078052804D14FF004007749087010E0E6
:1036000074480078062804D14FF00500724908700C
:1036100007E070480078072803D14FF006006E4994
:10362000087056480078012804D14FF000006B491B
:10363000087034E051480078022804D14FF00100AE
:10364000664908702BE04D480078032804D14FF0FC
:1036500002006249087022E048480078042804D13A
:103660004FF003005D49087019E0444800780528D0
:1036700004D14FF004005949087010E03F48007829
:10368000062804D14FF005005449087007E03B4874
:103690000078072803D14FF00600504908703E48D3
:1036A0000078012806D03C480078022815D12E4821
:1036B000007890B93548007878B100214848007802
:1036C000CDE9000102914648039100780346EE22BD
:1036D0003D480178007803F0B7FC334800780128B2
:1036E00006D031480078022817D11F480078A0B9C9
:1036F0002A48007888B100213A4800781030CDE996
:103700000001029137480391007810300346EE2201
:103710002F480178007803F097FC274800780128AB
:1037200006D025480078022817D10F480078A0B9A4
:103730001E48007888B100210C4800782030CDE97F
:103740000001029109480391007820300346EE22DF
:1037500021480178007803F077FC054800780128BB
:1037600049D041E03C030020040300205203002024
:103770004F03002040030020170300202B030020EC
:10378000180500200C05002053030020140300201E
:1037900044030020480300204C03002015030020B0
:1037A00045030020490300204D030020160300209C
:1037B000460300204A0300204E0300204703002058
:1037C0004B0300202803002054030020290300207D
:1037D000550300202A030020560300205703002031
:1037E0005003002051030020FF480078022817D121
:1037F000FE480078A0B9FE48007888B10021FD4855
:1038000000783030CDE900010291FA480391007848
:1038100030300346EE22F8480178007803F014FCBB
:103820001FBD00EBC00101EB0011F44A02EB810166
:1038300091F85E10A1BB00EBC00101EB001102EB9F
:10384000810191F85F1059BB00EBC00101EB001141
:1038500002EB8101B1F8601011BB4FF03C0100EBAD
:10386000C00202EB0012E54B03EB820282F85E100D
:103870004FF0030100EBC00202EB001203EB8202E7
:1038800082F85F10DE4909884FF4616201FB02F1A2
:1038900000EBC00202EB001203EB8202A2F8601000
:1038A000704710B5D74A12881146D74AB2F900209E
:1038B00001FB02F141F2707291FBF2F211460AB281
:1038C000D24B1A80CF4A52881146D14AB2F9002011
:1038D00001FB02F141F2707291FBF2F211460AB261
:1038E000CC4B1A80C74A92881146CB4AB2F90020C5
:1038F00001FB02F141F2707291FBF2F211460AB241
:10390000C64B1A80C64A1288012A0AD1BF4AB2F9A8
:103910000020C44B1A801A46B2F90020C24B1A800C
:103920003FE0BF4A1288032A3BD1B84AB2F90020CF
:10393000BC4B1A80B74AB2F90020B3F900309A4262
:1039400004DAB44AB2F90020B64B1A80B34AB2F98D
:103950000020B44BB3F900309A4204DAAF4AB2F90E
:103960000020B04B1A80A94AB2F90020AE4B1A8051
:10397000A84AB2F90020B3F900309A4204DDA54A02
:10398000B2F90020A84B1A80A44AB2F90020A64B35
:10399000B3F900309A4204DDA04AB2F90020A24BEC
:1039A0001A80984AD288B2F5487F0ADD954AD288B3
:1039B00040F6D8639A4204DA4FF000029B4B1A7328
:1039C00003E04FF00102994B1A738E4AD2881146D8
:1039D000974AB2F9002001FB02F144F6206291FB04
:1039E000F2F21146A1F2111211460AB28F4B5A811E
:1039F000904A12781A81904A12785A804FF000004B
:103A0000CDE000EBC00202EB00127C4B03EB820224
:103A1000D278192A7EDA00EBC00202EB001203EB27
:103A20008202937900EBC00202EB0012734C04EBAC
:103A30008202D27903EB022200EBC00303EB0013F6
:103A400004EB83035A6200EBC00202EB0012234630
:103A500003EB8202137A00EBC00202EB001204EBCC
:103A60008202527A03EB022200EBC00303EB001345
:103A700004EB83031A6200EBC00202EB0012234640
:103A800003EB8202937A00EBC00202EB001204EB1C
:103A90008202D27A03EB022200EBC00303EB001395
:103AA00004EB8303DA6100EBC00202EB0012234651
:103AB00003EB8202127B00EBC00303EB001304EB69
:103AC00083039A6200EBC00202EB0012234603EB71
:103AD0008202527B00EBC00303EB001304EB830371
:103AE00083F8562000EBC00202EB0012234603EBE2
:103AF0008202927B00EBC00303EB001304EB830311
:103B000083F8422000EBC00202EB0012234603EBD5
:103B1000820200E011E0137C00EBC00202EB001215
:103B200004EB8202527C03EB022200EBC00303EBA6
:103B3000001304EB83031A652DE04FF0000200EB45
:103B4000C00303EB00132D4C04EB8303DA6100EB9D
:103B5000C00303EB001304EB83035A6200EBC003C2
:103B600003EB001304EB83031A6200EBC00303EBC7
:103B7000001304EB83039A6200EBC00303EB001312
:103B800004EB830383F8422000EBC00303EB001334
:103B900004EB83031A6500F10102D2B21046274AF2
:103BA000B2F900209042FFF62CAF164A5289114616
:103BB000234AB2F9002001FB02F14FF4FA7291FBA3
:103BC000F2F211460AB21F4B1A800E4A12891146B0
:103BD0001D4AB2F9002001FB02F14FF4FA7291FB89
:103BE000F2F211460AB231E04F0300200403002034
:103BF0001703002053030020570300205C06002019
:103C0000840100206E170020D0000020300000202A
:103C1000D200002032000020D40000203400002018
:103C20005C0100202C0000203600002078050020D8
:103C3000BC000020D4020020010300204801002025
:103C40000E0000204E000020D6000020F84B1A8005
:103C50004FF00002F74B1A80F74B1A8010461AE01B
:103C600000EBC00202EB0012F44B03EB8202D278AD
:103C7000052A0CDA00EBC00202EB001203EB820211
:103C8000526AED4B1B881A4412B2EB4B1A8000F1BA
:103C90000102D2B21046EA4AB2F900209042DFDBBC
:103CA000E44A1288E44B1B881A4412B2E14B1A8092
:103CB0001A46B2F90020002A02DA4FF000021A80F8
:103CC0004FF00002114610460DE000EBC00202EB7F
:103CD0000012DA4B03EB8202526A0A44114600F1E9
:103CE0000102D2B21046D64AB2F900209042ECDB73
:103CF0000AB2D44B1A80D44AB2F90020D34B1A80AE
:103D000010BD2DE9F041D24800780A2810DAD048D9
:103D1000007800F10100CE490870084600780A28B2
:103D200006DB4FF0000008704FF00100C949087031
:103D30004FF00000C8490880C84908804FF0CD0006
:103D400002F07FFF00287DD0C5480068CE2803D14F
:103D50004FF6FF70C1490880C1480068CF2803D1E1
:103D6000BF484068BD490880BD480068D12803D1DC
:103D7000BB484068B8490880B9480068D22803D1D8
:103D80004FF6FF70B4490880B5480068D02809D1C3
:103D9000B3484068B0490880B14840686FEA000005
:103DA000AE4908804FF0000462E0012000FA04F000
:103DB000AA490988084215D004EBC40000EB04109E
:103DC0009E4901EB8000B0F8400000F1010000B214
:103DD00004EBC40101EB0411984A02EB8101A1F844
:103DE00040000AE04FF0000004EBC40101EB0411B5
:103DF000924A02EB8101A1F8400004EBC40101EBFF
:103E000004118E4A02EB8101403108463222002122
:103E1000FEF7F6FB04EBC40000EB0410874901EB4E
:103E20008000B0F9400014280ADD4FF0010004EBD7
:103E3000C40101EB0411814A02EB810181F82C00DD
:103E4000012000E01AE000FA04F0834909880842E2
:103E50000AD04FF0000004EBC40101EB0411774AD3
:103E600002EB810181F82C0004F10100C0B204468C
:103E70007348B0F90000844297DDD4E075480078BB
:103E80000028FAD04FF0000634460EE04FF0010053
:103E900004EBC40101EB0411684A02EB810181F8D3
:103EA0002C0004F10100C0B204466548B0F90000DE
:103EB0008442EBDB4FF00000044642E0604A128887
:103EC000D2B21146202902DD4FF020021146654A88
:103ED00010785B4AB2F90020904202DB4FF00002FA
:103EE000104600EB0402D2B2104690FBF1F201FB47
:103EF0001202D2B2104600EBC00202EB00124F4B8E
:103F000003EB82029278022A08D000EBC00202EB97
:103F1000001203EB82029278012A0ED14FF00002C8
:103F200000EBC00303EB0013444F07EB830383F85C
:103F30002C2006F10102D2B2164604F10100C0B2F3
:103F400004463F48B0F90000844204DA4648B0F91C
:103F500000008642B2DB4FF000004449097801EBD3
:103F6000C10202EB0111354A02EB810181F82C00FC
:103F70003F48B0F900003C2817DA4FF00000044633
:103F80000EE04FF0000004EBC40101EB04112B4ADA
:103F900002EB810181F82C0004F10100C0B204465B
:103FA0002748B0F900008442EBDD32480088B8B100
:103FB0004FF0000004460EE04FF0010004EBC40196
:103FC00001EB04111D4A02EB810181F82C0004F180
:103FD0000100C0B204461A48B0F900008442EBDD8B
:103FE0004FF00000044619E004EBC40000EB04109D
:103FF000124901EB800090F82C0001280AD16FF0E3
:10400000310004EBC40101EB04110C4A02EB810105
:10401000A1F8540004F10100C0B204460848B0F908
:1040200000008442E0DD4FF0000004464DE0000057
:104030004C00002056000020860200205C06002074
:10404000480100205000002048000020820300208A
:1040500064030020650300205E030020600300204D
:10406000440400207A030020700300207B0300201A
:1040700026000020AC03002004EBC40000EB041079
:10408000FF4901EB8000C06BD8B14FF0630004EB37
:10409000C40101EB0411FA4A02EB810181F82C0002
:1040A00004EBC40000EB0410114601EB8000C06B70
:1040B000A0F1010004EBC40101EB041102EB81014A
:1040C000C86304F10100C0B20446EE48B0F9000034
:1040D0008442D1DB4FF00000EB490870EB490870D7
:1040E0000546044625E004EBC40000EB0410E44957
:1040F00001EB80008078012817D1E448007800F1B6
:104100000100E249087004EBC40000EB0410DC4934
:1041100001EB8000C069A84207DD04EBC40000EB9E
:10412000041001EB8000C06985B204F10100C0B247
:104130000446D448B0F900008442D4DBD44805805A
:104140004FF00000D34908704FF00100D2490870C9
:104150004FF00000044626E004EBC40000EB04101E
:10416000C74901EB8000806ACC49B1F90010884250
:1041700003DB4FF00100C749087004EBC40000EBFB
:104180000410BF4901EB8000816AC448B0F9000007
:10419000401F814203DB4FF00000BF49087004F16B
:1041A0000100C0B20446B748B0F900008442D3DB36
:1041B000B8480078012802D1B949087009E0B84828
:1041C000007830B1B448007818B14FF00000B4491D
:1041D0000870B4480088D8B34FF0000004460EE0E1
:1041E0004FF0010004EBC40101EB0411A44A02EBFF
:1041F000810181F82C0004F10100C0B20446A148FD
:10420000B0F900008442EBDD4FF00201A548B0F99F
:104210000000A0F1010000EBC00202EB0010984A80
:1042200002EB800080F82C109F48008801280FD1F5
:104230004FF003019B48B0F90000A0F1010000EB32
:10424000C00202EB00108E4A02EB800080F82C10B6
:104250009648008838B34FF0000004460EE04FF057
:10426000000004EBC40101EB0411854A02EB81015B
:1042700081F82C0004F10100C0B204468148B0F975
:1042800000008442EBDD4FF001018848B0F90000E6
:10429000A0F1010000EBC00202EB0010784A02EB33
:1042A000800080F82C108248008810F0010F17D091
:1042B0004FF0000004460EE04FF0010004EBC40193
:1042C00001EB04116E4A02EB810181F82C0004F12C
:1042D0000100C0B204466B48B0F900008442EBDD37
:1042E000BDE8F08170B5044604EBC40000EB041097
:1042F000634911F82000032800D070BD04EBC4000E
:1043000000EB04105E4901EB800090F8425015F07C
:10431000020F43D004EBC40000EB041001EB80005B
:10432000B0F94600142873DA04EBC40000EB041063
:1043300001EB8000B0F8460000F1010000B204EB90
:10434000C40101EB04114E4A02EB8101A1F84600C1
:1043500004EBC40000EB0410114601EB8000B0F93F
:104360004600142854DB4FF0140004EBC40101EBA9
:10437000041102EB8101A1F8460004EBC40000EB3C
:104380000410114601EB8000407810F0010F3FD17E
:1043900001220021204603F022FB39E015F0020F34
:1043A00036D104EBC40000EB0410354901EB80006A
:1043B000B0F8460060B304EBC40000EB041001EB5E
:1043C0008000B0F84600A0F1010000B204EBC40187
:1043D00001EB04112A4A02EB8101A1F8460004EB2B
:1043E000C40000EB0410114601EB8000B0F8460059
:1043F00070B904EBC40000EB041001EB80004078BE
:1044000010F0010F04D000221146204603F0E7FA15
:1044100015F0040F60D004EBC40000EB0410184941
:1044200001EB8000B0F94E00142854DA04EBC4000C
:1044300000EB041001EB8000B0F84E0000F1010029
:1044400000B204EBC40101EB04110D4A02EB81013F
:10445000A1F84E0004EBC40000EB0410114601EB80
:104460008000B0F94E00142871DB4FF0140004EB0B
:10447000C40101EB041102EB8101A1F84E0019E027
:104480005C0600204801002065030020580300203E
:1044900096030020D9030020D8030020E20000206A
:1044A000DA03002014050020120500200E0500206C
:1044B000B802002004EBC40000EB0410114601EB2D
:1044C0008000407840F0200004EBC40101EB0411AF
:1044D00002EB810148703AE015F0040F37D104EB8C
:1044E000C40000EB0410FF4901EB8000B0F84E005F
:1044F00068B304EBC40000EB041001EB8000B0F8DB
:104500004E00A0F1010000B204EBC40101EB041164
:10451000F44A02EB8101A1F84E0004EBC40000EB69
:104520000410114601EB8000B0F84E0078B904EB9E
:10453000C40000EB041001EB8000407820F0200064
:1045400004EBC40101EB041102EB8101487015F08A
:10455000080F47D004EBC40000EB0410E14901EB65
:104560008000B0F948000A283BDA04EBC40000EBF5
:10457000041001EB8000B0F8480000F1010000B227
:1045800004EBC40101EB0411D64A02EB8101A1F84E
:10459000480004EBC40000EB0410114601EB80005E
:1045A000B0F948000A2870DB4FF00A0004EBC401A0
:1045B00001EB041102EB8101A1F8480004EBC400F7
:1045C00000EB0410114601EB8000407810F0020F60
:1045D00004D101221146204603F001FA2046FFF7DC
:1045E00020F952E015F0080F4FD104EBC40000EBA6
:1045F0000410BC4901EB8000B0F9480000282EDD12
:1046000004EBC40000EB041001EB8000B0F848009C
:10461000A0F1010000B204EBC40101EB0411B14AA6
:1046200002EB8101A1F8480004EBC40000EB041088
:10463000114601EB8000B0F8480030BB4FF000009D
:1046400004EBC40101EB041102EB8101A1F8480065
:1046500002464FF00101204603F0C1F915E004EBDA
:10466000C40000EB04109F4901EB8000B0F9480042
:1046700000280ADA4FF0000004EBC40101EB04113A
:10468000984A02EB8101A1F8480015F0100F47D0BD
:1046900004EBC40000EB0410924901EB8000B0F978
:1046A0004A000A283BDA04EBC40000EB041001EBDB
:1046B0008000B0F84A0000F1010000B204EBC40130
:1046C00001EB0411874A02EB8101A1F84A0004EBD7
:1046D000C40000EB0410114601EB8000B0F94A0061
:1046E0000A2878DB4FF00A0004EBC40101EB041147
:1046F00002EB8101A1F84A0004EBC40000EB0410B6
:10470000114601EB8000407810F0040F04D1012223
:104710000221204603F063F92046FFF782F85AE0B1
:1047200015F0100F57D104EBC40000EB04106D49D5
:1047300001EB8000B0F84A0070B304EBC40000EB5A
:10474000041001EB8000B0F84A00A0F1010000B2B3
:1047500004EBC40101EB0411624A02EB8101A1F8F0
:104760004A0004EBC40000EB0410114601EB80008A
:10477000B0F84A0078BB4FF0000004EBC40101EB35
:10478000041102EB8101A1F84A0002464FF0020138
:10479000204603F024F91EE004EBC40000EB0410F3
:1047A000504901EB8000B0F94A000A2813DD04EB00
:1047B000C40000EB041001EB8000B0F84A00A0F147
:1047C000010000B204EBC40101EB0411454A02EB05
:1047D0008101A1F84A0004EBC40000EB0410414938
:1047E00001EB8000C0694049B1F900103F4AB2F9BD
:1047F0000020891A88424FDA04EBC40000EB041051
:10480000384901EB80008078012845D104EBC400D1
:1048100000EB041001EB8000B0F94C00B0F5966F8E
:1048200039DA04EBC40000EB041001EB8000B0F8AF
:104830004C0000F1010000B204EBC40101EB0411D3
:10484000284A02EB8101A1F84C0004EBC40000EB04
:104850000410114601EB8000B0F94C00B0F5966FE2
:1048600019DB4FF4966004EBC40101EB041102EB79
:104870008101A1F84C0004EBC40000EB04101146C8
:1048800001EB8000407810F0040F6ED1012202216C
:10489000204603F0A4F868E004EBC40000EB041029
:1048A000104901EB8000C0690F49B1F900100F4AAF
:1048B000B2F90020891A884257DB04EBC40000EBF0
:1048C0000410084901EB8000B0F84C00A8B304EBD9
:1048D000C40000EB041001EB8000B0F84C00A0F124
:1048E000010005E05C060020DE000020060100203B
:1048F00000B204EBC40101EB0411FF4A02EB810199
:10490000A1F84C0004EBC40000EB0410114601EBCD
:104910008000B0F84C0040BB4FF0000004EBC40135
:1049200001EB041102EB8101A1F84C0002464FF0AB
:104930000201204603F053F817E0FFE704EBC40040
:1049400000EB0410EC4901EB8000B0F94C00B0F52D
:10495000967F0ADD4FF4967004EBC40101EB04115D
:10496000E54A02EB8101A1F84C0004EBC40000EB26
:104970000410E14901EB8000407810F00F0F0AD0DD
:104980004FF0210004EBC40101EB0411DA4A02EB01
:104990008101887042E0D9480078A0B104EBC400DE
:1049A00000EB0410D44901EB8000C07814280ADD24
:1049B0004FF0220004EBC40101EB0411CE4A02EBDC
:1049C000810188702AE004EBC40000EB0410CA499E
:1049D00001EB800090F8420010F0200F0AD04FF059
:1049E000020004EBC40101EB0411C34A02EB810194
:1049F000887013E004EBC40000EB0410BE4901EB27
:104A00008000C078142809DA4FF0010004EBC401DB
:104A100001EB0411B84A02EB8101887004EBC40079
:104A200000EB0410B44901EB8000B0F95400B44924
:104A3000B1F90010084404EBC40101EB0411AE4AC3
:104A400002EB810108634FF47A7004EBC40101EBBF
:104A5000041102EB8101486300BF4EE470B5A94820
:104A6000008828B9A848B0F90000A84908803FE0AC
:104A7000A748007B20B14FF01400A649088003E04E
:104A8000A3484089A3490880A248B0F90000002843
:104A900003DAA148B0F9005024E09E48B0F90000C4
:104AA000282803DD4FF028009A4908809648B0F97D
:104AB00000009949B1F90010A0EB010000EB800063
:104AC0004FEA400005469348B0F9000005FB00F5A9
:104AD0004FF0C80095FBF0F005468F48B0F9000094
:104AE000284405468D480088284400B2874908803C
:104AF000BE2002F0A6F840B189480068BF2804D162
:104B00008748406800B2814908808048B0F90000B9
:104B100004464FF0620004FB00F44FF0640094FB85
:104B2000F0F0044620B27F4908807848B0F90000D0
:104B300004464FF0660004FB00F44FF0640094FB61
:104B4000F0F0044620B2784908807848008810F0D8
:104B5000100F04D07648008800B26C49088070BD00
:104B600010B57448008830B172480088A0F1010087
:104B700000B2704908807048B0F900006F490880A1
:104B80006348B0F90800002812DA6149B1F9081049
:104B9000081E01DB014601E0C0F100014FF00A02EE
:104BA00091FBF2F1654A1288114409B2634A1180FF
:104BB0005748B0F95400002812DA5549B1F9541099
:104BC000081E01DB014601E0C0F100014FF00A02BE
:104BD00091FBF2F1594A1288114409B2574A1180E7
:104BE0005648B0F900005649B1F9001090FBF1F0B9
:104BF00000F10100534908705048B0F900005249D3
:104C0000B1F9001090FBF1F000F101004F4908707C
:104C10004C4800784E49B1F90010884208DD4948F7
:104C200000784B4908804FF03C004249088011E071
:104C3000464800784649B1F9001088420ADA3D48F2
:104C4000008838B941480078414908804FF03C005D
:104C5000384908803F48008820B13F48B0F900003B
:104C60003B4908803D48007820B13B48B0F900003E
:104C7000374908803A4800780A2804D13648B0F904
:104C8000000033490880374800780A2803D03548A7
:104C900000780B2804D13048B0F900002C49088076
:104CA0002D48B0F9002001212948FDF7A9FC10BDCD
:104CB00010B52D48B0F900002C49B1F90010884218
:104CC00079DA2B4890F900000A285CDA2948B0F913
:104CD00000000F2857DD2648007800F1010040B29F
:104CE00023490870084690F900000A2854DB1E4842
:104CF000B0F90000204941E05C060020440000209B
:104D0000D802002034010020DE00002066030020CD
:104D10007805002078030020DC000020BC02002081
:104D2000440400206C0300206A030020B802002025
:104D3000BE020020F402002086020020880200202B
:104D4000F400002062030020F6000020630300202E
:104D5000700300200801002048010020DA03002031
:104D6000DC020020DE0200202C000020E8000020F1
:104D700042000020260000202E0000200880012094
:104D800002F048FA08E0F74890F900000A2803DB2F
:104D90004FF00A00F3490870F348B0F90000F349F6
:104DA000B1F9001088422EDAEF48B0F90000EF495F
:104DB000088028E0FFE7EC48B0F90000EC49B1F9C1
:104DC000001088421FDDE748007898B1E548007878
:104DD000A0F1010040B2E3490870084690F90000D4
:104DE000002810DC002002F015FA4FF00A00E1491B
:104DF000087008E0DB4890F90000002803DA4FF063
:104E00000000D8490870DC48B0F90000DB49B1F96E
:104E10000010884235DDDA4890F900000A2819DAD6
:104E2000D848B0F900000F2814DDD548007800F10B
:104E3000010040B2D2490870084690F900000A28E3
:104E400011DBCD48B0F90000C8490880022002F00B
:104E5000E1F908E0CA4890F900000A2803DB4FF0A6
:104E60000A00C7490870C448B0F90000BF49B1F949
:104E7000001088422DDDC048B0F90000BB49088011
:104E800027E0BD48B0F90000BC49B1F900108842E4
:104E90001FDABB48007898B1B9480078A0F101004A
:104EA00040B2B7490870084690F90000002810DCAD
:104EB000002002F0AFF94FF00A00AE49087008E098
:104EC000AF4890F90000002803DA4FF00000AC4929
:104ED0000870A848007828B1A6480078A0F1010021
:104EE000A449087010BD10B5029C10BD4FF0000120
:104EF00008463BE0A449896811F40071A24A916018
:104F000018D1A24909560A290FDAA049095C01F112
:104F1000010149B29D4A1154114609560A2921DB63
:104F20004FF001019A4A11541CE04FF00A01974AD0
:104F3000115417E09549095600290FDD9349095C82
:104F4000A1F1010149B2914A1154114609560029B3
:104F500008DC4FF000018E4A115403E04FF00001CD
:104F60008A4A115400F10101C9B208460128C1DB87
:104F70004FF00001084643E0864931F8101019B996
:104F80008349095C012906D0824931F81010D9B152
:104F90007F49095CC1B9804909560A290FDA7E495F
:104FA000095C01F1010149B27B4A115411460956CD
:104FB0000A2921DB4FF00101784A11541CE04FF01F
:104FC0000A01754A115417E07349095600290FDB8D
:104FD0007149095CA1F1010149B26F4A11541146AE
:104FE0000956002908DC4FF000016C4A115403E017
:104FF0004FF00001684A115400F10101C9B208469E
:105000000128B9DB704766480088B0F5967F0FDA53
:105010006348008800F10100614908800846008863
:10502000B0F5967F08D14FF000005E49088003E09C
:105030004FF496705A4908805B4800885B4909889C
:10504000884273D0584800885849098880EA01008E
:10505000574908800846008810F0010F17D05248C1
:10506000008810F0010F06D05248008840F001007F
:10507000504908805AE04C48008810F0010F55D183
:105080004C48008820F001004A4908804EE048481A
:10509000008810F0020F17D04348008810F0020F6C
:1050A00006D04448008840F00200424908803DE0B4
:1050B0003D48008810F0020F38D13E48008820F0AB
:1050C00002003C49088031E03948008810F0040FA4
:1050D00005D03548008810F0040F27D126E0344869
:1050E000008810F0080F05D02F48008810F0080F36
:1050F0001CD11BE02E48008810F0100F16D02A4853
:10510000008810F0100F06D02A48008840F01000E8
:10511000284908800AE02448008810F0100F05D1C3
:105120002448008820F01000224908801E4800888A
:105130001E490880704708B51F48407800F10100FB
:105140001D4948701D480078D0B34FF000001B493E
:1051500008704FF00A0003F03DF84FF00A001649BE
:1051600048704EE0420000202C0000202E0000205D
:10517000E8000020E803002036000020EA000020BC
:105180004300002026000020001001401A040020E7
:10519000E40200201C0200201E040020EC0200207B
:1051A000BA020020BC020020B2020020B40200209B
:1051B000B6020020B80200206E0000200800002087
:1051C000FFE74FF01400F1494870F148008878B9C2
:1051D000F048007860B9F048007848B9EF480078A6
:1051E00030B94FF00100EE49087002F0F3FF08E01B
:1051F0004FF4FA60EBA3F1A2F6A10090FBA0FFF739
:1052000072FE08BD10B5FF48B0F90000FE49B1F9C3
:10521000001088421DDDFD48B0F90000FC49B1F9DD
:105220000010884228DAF948008800F1010000B235
:10523000F64908800846B0F90000F549B1F90010B8
:10524000884219D1F3480078B0B9022002F03EFA42
:1052500012E0EE48008878B1EC480088A0F1010027
:1052600000B2EA4908800846008828B9E948007871
:1052700010B1002002F02AFAE248B0F90000E64935
:10528000B1F9001088421DDAE448B0F90000E049A5
:10529000B1F90010884228DAE048008800F10100E6
:1052A00000B2DE4908800846B0F90000D849B1F9DB
:1052B0000010884219D1D7480078B0B9012002F017
:1052C00005FA12E0D548008878B1D4480088A0F1EA
:1052D000010000B2D14908800846008828B9CD48AD
:1052E000007810B1002002F0F1F9CD48B0F90000CB
:1052F00000EB8000C349B1F90010B1EB400F08DAB0
:10530000C848007828B9142301227221D22001F064
:1053100053FC10BD08B5A248007801282CD1C24822
:1053200000789F49097888420DD04FF00500BF49A9
:105330000880BF48008830B94FF0000008804FF067
:10534000020097490870B948008868B1B7480088DA
:10535000A0F1010000B2B54908800846008818B9DC
:105360004FF003008E490870B2480078012803D13D
:105370004FF002008A49087089480078022832D12B
:10538000A94800788649097888420CD0AA48B0F923
:1053900000004FF4616100FB01F0A84908604FF084
:1053A0000000A7490860A5480068A0F10100A349D2
:1053B0000860A348006800F10100A14908609F4807
:1053C000006828B94FF000007549087002F002FF2C
:1053D0009848007838B996480088012803D14FF0E2
:1053E00004006F4908706E480078032824D18E4865
:1053F00000786B490978884202D18C48008818B936
:105400004FF00A008949088088480088A0F101000F
:1054100000B286490880084600880A2803D008465A
:105420000088092808D141F2883086A38BA291A177
:10543000009096A0FFF757FD5948007804282CD11A
:105440007948007856490978884202D1774800881F
:1054500018B94FF00A007549088074480088A0F117
:10546000010000B271490880084600880A2803D06C
:1054700008460088092808D141F2883089A38FA204
:1054800094A1009081A0FFF72EFD6A4800780128C2
:1054900003D14FF002004249087041480078624948
:1054A00008709248008801284DD13D480078E8BB3B
:1054B00038480078D0BB38480078B8BB3748007807
:1054C000A0BB8B49B1F900108A4AB2F90020914281
:1054D00030DA8849B1F90010854AB2F90020891AFA
:1054E000854AB2F90020914224DD8449B1F90010C7
:1054F0000A2291FBF2F1824AB2F90020881A01D403
:10550000014600E04142052914DA2149098889B998
:105510007C48007800F101007A490870084600785C
:105520003C2810DBFFF707FE052000E007E002F053
:1055300051FE08E04FF000007249087003E04FF0A0
:1055400000007049087008BD30B54FF000010846F2
:1055500031E200EBC00101EB00116B4C04EB810167
:10556000497B11F0C00F10D100EBC00101EB00111D
:1055700004EB8101497B00EBC00404EB0014624D95
:1055800005EB840484F8581016E1BFE06E0000209B
:10559000680000207C000020DC020020DE020020E9
:1055A0000800002020202020202020202020202053
:1055B000202020202020202000000000202020206B
:1055C000E7E0E1EBEEEAE8F0EEE2E0ED212020207A
:1055D0000000000020202020202020E7E0F0FFE451
:1055E000202020202020202000000000202020203B
:1055F00020D3F1EAEEF0E5EDEDFBE92020202020BC
:10560000000000004E0000205E0100203E0400204B
:1056100062010020420400206001002040040020BC
:10562000E6000020AD040020700000207200002081
:105630006C000020E40200205C00002074000020C8
:10564000D40300202020C1C5C720C2C5CDD2C8CBFD
:10565000DFD6C8C821212020000000002020202003
:105660002020C2CACBDED7C5CD202020202020207C
:1056700000000000202020CDC520CCCEC6C5D22001
:10568000C1DBD2DC20202020000000002020D3D16C
:10569000CACED0C5CDCDDBC920C7C0D0DFC4202045
:1056A0000000000020202020C2C5CDD2C8CBDFD60C
:1056B000C8DF212121202020000000002020202000
:1056C00020CDC5C8D1CFD0C0C2CDC0202020202041
:1056D0000000000020202020C7C0C1CBCECAC8D007
:1056E000CEC2C0CD20202020000000005E0000209F
:1056F00054000020660300206000002048000020C5
:10570000FA000020090000205C06002000EBC00128
:1057100001EB0011FD4C04EB8101497B01F0C0015C
:10572000402910D100EBC00101EB001104EB810115
:105730004C7B00EBC00101EB0011F44D05EB810146
:1057400081F8594038E000EBC00101EB0011EF4C4B
:1057500004EB8101497B01F0C001802910D100EBED
:10576000C00101EB001104EB81014C7B00EBC00197
:1057700001EB0011E54D05EB810181F85A401BE07A
:1057800000EBC00101EB0011E04C04EB8101497B0F
:1057900001F0C001C0290FD100EBC00101EB0011E5
:1057A00004EB81014C7B00EBC00101EB0011D74DF4
:1057B00005EB810181F85B404FF000010A4600EBE8
:1057C000C00101EB0011D14C04EB810191F858109C
:1057D000C1F3011141EA02010A4600EBC00101EBED
:1057E000001104EB810191F8591001F0300142EAF7
:1057F000A1010A4600EBC00101EB001104EB81019D
:1058000091F85A1001F0300141EA02010A4600EB1A
:10581000C00101EB001104EB810191F85B1001F074
:10582000300142EA81010A4600EBC00101EB0011A0
:1058300004EB810191F8581001F00F010B4600EBC9
:10584000C00101EB001104EB810191F8591001F046
:105850000F0181EA03010B4600EBC00101EB0011CF
:1058600004EB810191F85A1001F00F0181EA030164
:105870000B4600EBC00101EB001104EB810191F834
:105880005B1001F00F0181EA03010B46934253D1F3
:105890004FF00004214600EBC00404EB00149B4DC4
:1058A00005EB840494F85B4004F00F0444EA01041F
:1058B00021464FEA0114214600EBC00404EB00141A
:1058C00005EB840494F85A4004F00F0444EA010400
:1058D00021464FEA0114214600EBC00404EB0014FA
:1058E00005EB840494F8594004F00F0444EA0104E1
:1058F00021464FEA0114214600EBC00404EB0014DA
:1059000005EB840494F8584004F00F0444EA0104C1
:10591000214600EBC00404EB001405EB8404B4F84A
:105920005C408C4207D000EBC00404EB001405EB94
:105930008404A4F85C1000BF00EBC00101EB00116F
:10594000724C04EB8101B1F85C10714CB4F9004069
:1059500004EB8404B1EB440F17DD6D49B1F900107D
:10596000002912DD00EBC00101EB0011674C04EBD4
:105970008101497841F0100100EBC00404EB0014F0
:10598000624D05EB8404617011E000EBC00101EB96
:1059900000115E4C04EB8101497821F0100100EB0D
:1059A000C00404EB0014594D05EB8404617000F150
:1059B0000101C9B208465749B1F900108842FFF603
:1059C000C8AD30BD10B55448007850B35248007887
:1059D000A0F10100504908700846007818B94FF04E
:1059E00000004E4908704E48007800F0FE004C4917
:1059F00008704A480078012804D10846007840F031
:105A0000010008704748007840F0010045490870DF
:105A10004248007888B90846007800F0FE00087017
:105A20000BE03F48007800F0FE003D4908703D481B
:105A3000007800F0FE003B4908703B48007850B306
:105A400039480078A0F1010037490870084600780D
:105A500018B94FF00000354908703148007800F05F
:105A6000FD002F49087031480078012804D108460C
:105A7000007840F0020008702A48007840F00200E8
:105A8000284908702948007888B90846007800F04D
:105A9000FD0008700BE02248007800F0FD0020496E
:105AA00008702048007800F0FD001E49087020486A
:105AB000007850B31E480078A0F101001C4908701E
:105AC0000846007818B94FF000001A4908701448C9
:105AD000007800F0FB001249087016480078012891
