:020000040800F2
:10000000E80600208D010008910100089301000816
:100010009501000897010008990100080000000000
:100020000000000000000000000000009B0100082C
:100030009D010008000000009F01000891030008D6
:10004000A3010008A3010008A3010008A301000800
:10005000A3010008A3010008A3010008A3010008F0
:10006000A3010008A3010008A3010008A3010008E0
:10007000A3010008A3010008A3010008A3010008D0
:10008000A3010008A3010008A3010008A3010008C0
:10009000A3010008A3010008A3010008A3010008B0
:1000A000A3010008A3010008A3010008A3010008A0
:1000B000A3010008A3010008A3010008A301000890
:1000C000A3010008A3010008A3010008A301000880
:1000D000A3010008E3050008A3010008A30100082C
:1000E000A3010008A3010008A301000800F002F822
:1000F00000F03CF80AA090E8000C82448344AAF186
:100100000107DA4501D100F031F8AFF2090EBAE883
:100110000F0013F0010F18BFFB1A43F0010318473B
:100120004C0600006C060000103A24BF78C878C165
:10013000FAD8520724BF30C830C144BF04680C60ED
:10014000704700000023002400250026103A28BF35
:1001500078C1FBD8520728BF30C148BF0B60704739
:100160001FB500F0FCFA1FBD10B510BD00F0BDFAC0
:100170001146FFF7F5FF00F090F900F0DBFA03B449
:10018000FFF7F2FF03BC00F0E3FA00000848004765
:10019000FEE7FEE7FEE7FEE7FEE7FEE7FEE7FEE737
:1001A000FEE7FEE703480449024A044B704700009B
:1001B000ED000008E8040020E8060020E804002024
:1001C00010B500BF4FF012006249086000BF00BFC9
:1001D0006148624948606248086000BF00BF5F48EC
:1001E000006810F4003FFAD000BF5C48006810F0CF
:1001F000007FFAD000BF5948406800F00C00082882
:10020000F9D100BF00BF4EF65F204FF0E0214861FA
:100210004FF0060008614FF0000088610846006951
:1002200040F00100086100BF00BF4C48806940F009
:1002300004004A4988614FF000004A4908604FF4C1
:1002400040504949C1F804084448806940F008001A
:10025000424988614FF06E40444908604448424931
:10026000C1F8040C3D48806940F010003B498861AA
:100270004FF040703F4908604FF00000486000BFF9
:1002800000F001F810BD3548806940F001003349A5
:1002900088613548406820F00400334948602F48A1
:1002A000806940F004002D4988613348006820F4DB
:1002B0007F602D49C1F804080846D0F8040840F0D2
:1002C000B000C1F804080846D0F8040840F4806083
:1002D000C1F804082148806940F480401F498861C2
:1002E00040F20920254908804FF0000001F1040187
:1002F00008802349A1F81008224800882149088075
:100300004FF000001E49A1F814080846B0F80C0888
:1003100040F00C00A1F80C080846B0F80C0840F0BA
:10032000A000A1F80C0818480088A1F81008174888
:100330000088164908804FF020004FF0E021C1F8F6
:1003400004010F48B0F80C0840F400500D49088033
:10035000704700000020024002841100001002409B
:10036000820009010008014000000140000C01402A
:100370000033030000100140040801400838014028
:10038000003001400C380140103801401438014061
:100390004FF001006A4908706A48007800F10100D6
:1003A000C0B268490870142806DB4FF000000870DE
:1003B0004FF001006449087064480078401CC0B2E6
:1003C000624908700A2867DB4FF0000008704FF0A0
:1003D00001005F4908705F48007800F10100C0B279
:1003E0005C4908700A2806DB4FF0000008704FF0E7
:1003F00001005949087059480078401CC0B257495B
:100400000870142812DB4FF0000008704FF0010054
:10041000534908705348007820B14FF0000051490B
:10042000087003E04FF001004E4908704E48007814
:10043000401CC0B24C490870322812DB4FF000005B
:1004400008704FF00100494908704948007820B110
:100450004FF000004649087003E04FF001004449A6
:10046000087044480078401CC0B2424908706428B3
:1004700012DB4FF0000008704FF001003E49087099
:100480003E48007820B14FF000003C49087003E07E
:100490004FF00100394908707047FFF791FE4FF0A7
:1004A0000100374908703749087048E0244800784F
:1004B00018B14FF00000224908702548007850B16B
:1004C0004FF00000224908702F48006880F48060D7
:1004D0002E49C1F80C0C2048007850B14FF00000B4
:1004E0001D4908702848006880F400602749C1F859
:1004F0000C0C1B48007850B14FF0000018490870F0
:100500002148006880F480502049C1F80C0C1A483A
:100510000078A0B14FF00000174908701C48C0686F
:1005200080F040001A49C8601A48006840F4006032
:100530001649C1F80C084FF0610000F02DF8B5E73E
:100540000700002001000020090000200200002018
:1005500008000020030000200B0000200400002001
:100560000C00002010000020050000200D000020DD
:100570000F000020060000200A0000200E000020CE
:1005800021000020000000200C0C01400000014070
:10059000001001400C08014000BF44490988B1F532
:1005A000007FFAD04249434A128888544149098859
:1005B000491C89B23F4A1180B1F5007F02DB4FF040
:1005C000000111803C49097851B14FF000013A4ACD
:1005D00011703A49098841F08001394AA2F80C1893
:1005E0007047384A1288114611F0200F2ED0354A34
:1005F000128822F02002324BA3F80028324A1288D7
:10060000D0B2324A324B1B88D0544FF00102314BEA
:100610001A702F4A128802F1010292B22C4B1A80F2
:10062000B2F5007F02D14FF000021A802A4A1288E8
:10063000521C92B2284B1A80B2F5007F06D14FF0BF
:1006400000021A804FF00102244B1A7011F0800F43
:100650002BD01C4A128822F08002194BA3F80028E4
:100660001F4A1288134B1B889A4213D0104A1C4B06
:100670001B88D25C144B1A80194A128802F10102BD
:1006800092B2174B1A80B2F5007F0EDB4FF00002DA
:100690001A800AE04FF00102074B1A70074A1288CD
:1006A00022F08002064BA3F80C2870471E000020A1
:1006B000880200201A000020210000200C38014090
:1006C000003001400038014004380140880000201B
:1006D000140000201200002018000020200000203C
:1006E0001C000020704770477047754600F028F8DE
:1006F000AE4605006946534620F00700854618B00F
:1007000020B5FFF74FFDBDE820404FF000064FF049
:1007100000074FF000084FF0000B21F00701AC4636
:10072000ACE8C009ACE8C009ACE8C009ACE8C00955
:100730008D4670470446AFF300802046FFF71FFD4B
:100740000048704788040020004870478C0400204F
:1007500001491820ABBEFEE726000200704710B525
:10076000FFF7F2FF4FF00001016010BD8C07000899
:10077000000000202400000028010008B007000845
:1007800024000020C406000044010008000000000E
:100790000000000000000000000000000000000059
:1007A0000000000000000000000000000000000049
:04000005080000ED02
:00000001FF
