:020000040800F2
:10000000B0250020010100080501000807010008D3
:10001000090100080B0100080D01000800000000A4
:100020000000000000000000000000000F010008B8
:10003000110100080000000013010008930A0008E5
:100040001701000817010008170100081701000830
:100050001701000817010008170100081701000820
:100060001701000817010008170100081701000810
:100070001701000817010008170100081701000800
:1000800017010008170100081701000817010008F0
:1000900017010008170100081701000817010008E0
:1000A00017010008170100081701000817010008D0
:1000B00017010008170100081701000817010008C0
:1000C00017010008170100081701000817010008B0
:1000D00017010008116E00081570000817010008CC
:1000E000170100081701000817010008DFF80CD0FD
:1000F00009F09EFB00480047690C0008B02500206D
:1001000005480047FEE7FEE7FEE7FEE7FEE7FEE7FD
:10011000FEE7FEE7FEE7FEE7ED000008D348806952
:1001200040F00100D1498861D148406820F00400C6
:10013000CF494860CD48806940F00400CB498861D0
:10014000CC48006820F47F60C949C1F8040808461B
:10015000D0F8040840F0B000C1F804080846D0F810
:10016000040840F48060C1F80408C048806940F485
:100170008040BE49886141F66A00BF4908804FF05F
:10018000000001F104010880BC49A1F81008BC4836
:100190000088BB4908804FF00000B849A1F8140856
:1001A0000846B0F80C0840F00C00A1F80C0808460E
:1001B000B0F80C0840F0E000A1F80C08B148008845
:1001C000A1F81008B0480088AF4908804FF020001F
:1001D0004FF0E021C1F80401A848B0F80C0840F441
:1001E0000050A649A1F80C08A048806940F0010021
:1001F0009E4988619E48406820F008009C494860FC
:100200009A48806940F00400984988619848D0F87D
:10021000000820F47F409649C1F800080846D0F84D
:10022000000840F43060C1F800080846D0F8000823
:1002300040F48040C1F800088C48C06940F40030A8
:100240008A49C8614FF07500904908804FF000005E
:1002500001F1040108804FF04021A1F810048C48FE
:1002600000888B4908804FF000004FF04021A1F832
:1002700014040846B0F80C0440F00C00A1F80C047B
:100280000846B0F80C0440F0E000A1F80C048148E6
:100290000088A1F81004804800887F4908804FF04A
:1002A00040004FF0E021C1F804014FF04020B0F8C9
:1002B0000C0440F400504FF04021A1F80C047047AA
:1002C00010B500BF4FF012007449086000BF00BFB6
:1002D0007348664948607348086000BF00BF6348C0
:1002E000006810F4003FFAD000BF6048006810F0CA
:1002F000007FFAD000BF5D48406800F00C0008287D
:10030000F9D100BF00BF4EF65F204FF0E0214861F9
:100310004FF0060008614FF0000088610846006950
:1003200040F00100086100BF00F04FF800BF4F48E7
:10033000806940F400604D4988614FF000005A49DF
:10034000088041F26F705949A1F82C0C4FF0000061
:1003500057490880574908805449A1F8040C0846B9
:10036000B0F8000C40F00100A1F8000C00BF00BF85
:100370003E48806940F004003C4988614FF000002D
:100380004D4908604FF440503949C1F804083748D6
:10039000806940F00800354988614FF06E40474958
:1003A000086047483249C1F8040C3048806940F081
:1003B00010002E4988614348434908604FF04000CF
:1003C000486000BFFFF7AAFE10BD2848C06940F092
:1003D00080502649C8610846C06940F00060C86185
:1003E0003A48006840F48070384908601F48006A45
:1003F00040F001001D49086200BF1C48006A10F06F
:10040000020FFAD01948006A40F401401749086207
:100410002F48008840F010002E49A1F804084FF042
:1004200000002D49088047F6FF7001F104010880A3
:100430004FF00000294908804FF03C002549A1F801
:1004400024080846B0F8040820F01000A1F80408B9
:1004500000BF1F48008810F0200FFAD01B4800682A
:1004600020F48070194908607047000000100240B5
:1004700000000140040801400838014000300140FC
:100480000C38014010380140143801400844004045
:100490000C4400401044004014440040002002403E
:1004A0000284110082000901282C01400020014033
:1004B000302C0140002C014000080140000C01409C
:1004C0004033030040000003001001400070004072
:1004D0000428004000200040082800402028004058
:1004E00010B50446E0B206F06FFD002010BD70B5F7
:1004F00004460D462046FFF7F3FF70BDFF4909880B
:1005000008464FEA00410846FD49B1F81C1801446D
:1005100008469AE04FF01F010A46FA49A0EB010194
:100520000846F949098804290BD0F74909880629A2
:1005300007D0F5490988092903D0F34909880B290F
:1005400002D14FF01E010A46EF490988022913D152
:10055000ED4B1B1F1B8819464FEAE37301EB9373A6
:100560004FEAA303B1EB830303D04FF01C010A460B
:1005700002E04FF01D010A46E4490988914213DA6E
:10058000E349096841F48071E14B1960DF4909884A
:1005900001F10101DF4BA3F80C1CDD49096821F4CE
:1005A0008071DB4B196028E0D949096841F48071FA
:1005B000D74B19604FF00101D44B1980D549B1F8E0
:1005C000081C01F10101D34BA3F8081C1946B1F82E
:1005D000081C0C290BDD4FF00101CB4B1980CD49D4
:1005E000B1F8041C01F10101A3F104031980C84909
:1005F000096821F48071C64B1960C549096841F446
:100600008071C34B1960C449098841F01001BC4B8B
:10061000A3F804184FEA1041B84B1980B84BA3F85F
:100620001C081946B1F8041821F01001A3F80418A9
:1006300000BFB949098811F0200FFAD0B449096800
:1006400021F48071B24B196000BFAE498842BFF6F9
:1006500061AF704710B5B1480088AE49B1F8101CC1
:10066000A0EB010000B204461E2C15DD3C2C13DA71
:10067000AB48008880B9A648006840F48070A4495F
:1006800008604FF00100A6490880A148006820F4E6
:1006900080709F4908603CE00A2C16DD142C14DAA7
:1006A0009F480088012810D19948006840F4807064
:1006B000974908604FF00200994908809448006803
:1006C00020F480709249086023E01E2C21DD3C2C30
:1006D0001FDA9348008802281BD18D48006840F437
:1006E00080708B4908604FF003008D49088088486E
:1006F000006820F48070864908604FF001014FF4D3
:10070000457000F084FD4FF4707140F2163000F037
:100710007EFD7F48006840F480707D4908607F4816
:1007200000887C49A1F8100C7948006820F480709A
:10073000774908607B48B0F90000B0F57A7F06DAA7
:100740007848008800F1010000B2764908807548B9
:10075000008864280FD16E48006840F480706C49AE
:1007600008604FF000006E4908806948006820F476
:1007700080706749086010BD2DE9F0410646C6F358
:1007800007200746F0B20546012F24D11C2000F0B7
:1007900070FC00B20446112D04D104F1010000B236
:1007A000044613E0122D04D104F10A0000B20446FD
:1007B0000CE0212D04D1A4F1010000B2044605E0B3
:1007C000222D03D1A4F10A0000B2044621461C20C8
:1007D00000F01DFD00BFBDE8F0811FB54FF0200007
:1007E000514908705148008800F1010000B24F499A
:1007F00008804D490978884203DD6FF003004B49BA
:1008000008804A48B0F90000002876DB4748B0F974
:100810000000202871DC46480078F0BB4348B0F95E
:10082000000000EBC00101EB0010424901EB800029
:1008300090F835003D49B1F9001001EBC10202EB1F
:1008400001113C4A02EB810191F83410374AB2F9A8
:10085000002002EBC20303EB0212364B03EB8202D1
:1008600092F83120314BB3F9003003EBC30404EBB1
:100870000313304C04EB830393F83030CDE900329E
:10088000CDE902102948B0F9000000EBC00101EBEE
:100890000010214601EB800000E00BE090F82C00F6
:1008A0000346ED2221480088C1B220480088C0B22A
:1008B00005F076F91D48B0F9000020287DDC1B48C2
:1008C000B0F9000000EBC00101EB0010194901EB89
:1008D0008000C0783C2838DA1448B0F9000000EBFA
:1008E000C00101EB0010134901EB8000C07800F15A
:1008F00001000E49B1F900101EE07EE0182800400A
:100900000020004080510100086C00400C6C004049
:100910000070004000600040042800401C28004097
:10092000146C00408E020020840000208200002011
:10093000850000201C06002001EBC10202EB011122
:10094000FF4A02EB8101C8700CE04FF03C00FD490A
:10095000B1F9001001EBC10202EB0111F84A02EB00
:100960008101C870F748B0F9000000EBC00101EB4D
:100970000010F34901EB8000C078032826DBF14822
:10098000B0F9000000EBC00101EB0010EC4901EBF5
:1009900080000079032819DAEA48B0F9000000EB7A
:1009A000C00101EB0010E64901EB8000407900F145
:1009B0000100E449B1F9001000E067E001EBC10279
:1009C00002EB0111DE4A02EB81014871DD48B0F90A
:1009D000000000EBC00101EB0010D94901EB8000E1
:1009E000C078D849B1F9001001EBC10202EB011146
:1009F000D34A02EB810108714AE0D248B0F9000005
:100A0000001D45D0CF48B0F90000401C40D0CD4873
:100A100000880C2816D1CC480078B8BB0023CB48FE
:100A20004078CA490978CA4A5278CDE90203CDE92B
:100A30000021C748007803466222FF21084605F0DE
:100A4000AFF825E0BF4800880D2821D0BD480088B8
:100A50000E281DD0BB4800880F2818D1BA4800784E
:100A6000A0B9BC480088C2B2BB484078BA490978EE
:100A7000BA4B5B78CDE90031CDE90202B748007886
:100A800003462622FF21084605F08AF800E000BF51
:100A90001FBD4FF00100B2490870B248806810F0E5
:100AA0000200B049886004D04FF00100AE490870E0
:100AB00003E04FF00000AC490870AB480078AB4948
:100AC0000978884206D0AA48008800F1010000B2E7
:100AD000A7490880A4480078A4490870A548007870
:100AE000401CC0B2A3490870142806DB4FF0000078
:100AF00008704FF00100A0490870A0480078401C21
:100B0000C0B29E4908700A287EDB4FF000000870D2
:100B10004FF001009A4908709A48007800F10100EE
:100B2000C0B2984908700A2806DB4FF00000087030
:100B30004FF001009449087094480078401CC0B2FE
:100B400092490870142812DB4FF0000008704FF033
:100B500001008F4908708F48007820B14FF00000E5
:100B60008C49087003E04FF001008A4908708A48F8
:100B70000078401CC0B288490870322812DB4FF060
:100B8000000008704FF00100844908708448007824
:100B900020B14FF000008249087003E04FF00100DF
:100BA0007F4908707F480078401CC0B27D490870BA
:100BB000642820DB4FF0000008704FF001007A49F4
:100BC00008707A48007820B14FF00000774908702B
:100BD00003E04FF00100754908707548B0F9000056
:100BE00042F21071884206DA7148008800F1010073
:100BF00000B26F4908806F48008800F1010000B220
:100C00006C490880084600E010E0B0F90000B0F53B
:100C1000FA7F0BDB4FF0000008805548B0F9000068
:100C2000654908804FF0000051490880634800780A
:100C300006280EDA6148007800F101005F4908706B
:100C40000846007806280EDB4FF001005C4908706A
:100C500009E05A480078062805DD4FF000005749A2
:100C6000087057490870704786B0FFF729FB00F0FD
:100C700092F94FF001005349087005F0CFFF00F0E2
:100C8000A5FB00F0BCFB5049096801EB810149005C
:100C9000084605F0C5FF6421102000F0B8FA01F005
:100CA0009AFC04F0DAFEFFF7D5FCFFF727FC1CE105
:100CB0002B48007828B14FF000002949087004F053
:100CC000E1FF2F48007828B14FF000002C49087050
:100CD000FFF783FD2C48007810B34FF000002A493D
:100CE000087001F0BFFB05F08FFE03F07FFA03F000
:100CF00047F903F012FD4FF00000044606E02046DD
:100D000002F012FE04F10100C0B204462F48B0F90F
:100D100000008442F3DB02F03AFB01F097FB00BFD6
:100D20001B48007850B14FF000001949087000F0DE
:100D300066FB4FF003000749088049E05FE00000D0
:100D40001C060020820000208500002012010020E7
:100D5000E60000200A010020EE000020EC00002048
:100D600020000020001001403A0000203B0000203D
:100D70003E0000201A000020220000201B0000205E
:100D8000210000201C000020240000201D00002065
:100D900025000020290000201E0000202600002041
:100DA000280000201F000020230000202700002032
:100DB0002C000020400000203C000020AA0400205D
:100DC000AB04002090020020040000205401002009
:100DD00002F0FFF845480088C0B245494978444AC6
:100DE0001278444B5B78CDE90032CDE902104148DE
:100DF000007803462622FF21084604F0D1FE3E4833
:100E0000007828B14FF000003B49087001F035FC34
:100E10003A48007800284AD04FF00000374908705F
:100E200003F039F904F0F7F83548007800F10100D3
:100E3000334908703348B0F900203348B0F9000056
:100E40003249B1F90010324BB3F90030CDE901312C
:100E5000CDE903022F48B0F9000000902E48B0F908
:100E60000A0001462D48B0F900302D48B0F90020A5
:100E70002C4808F00DFD2C48B0F900102B4890F8D4
:100E8000CB00CDE90001294890F8670003462748C8
:100E9000C07802462648017826A008F0F9FC01F047
:100EA0006DF905F017FEFFF7D5FB03F064FA2A4849
:100EB000007828B14FF000002749087007F068F962
:100EC0002648007828B14FF000002449087008F047
:100ED0000DFB2348007840B14FF000002049087016
:100EE0002048017820A008F0D3FCE1E60A010020A8
:100EF000EE000020EC00002026000020230000204F
:100F000091020020120100204C000020EA00002085
:100F1000E8000020A4020020380500203203002051
:100F20003C0300205C9C0008F60000201C0600200A
:100F300072030020253364202020253364202020E4
:100F4000253364202020253364202020253364208D
:100F500020200D0A00000000AB0400201704002030
:100F60009B0200209A02002025643B0D0A0000002D
:100F7000014600BFFF48008810F0020FFAD0FE487B
:100F8000018000BFFB48008810F0010FFAD0FA483A
:100F90000088C0B27047F948C06940F08050F749F6
:100FA000C8610846806940F0190088610846C06938
:100FB00040F48040C861F2484068F1494860F14817
:100FC000006880B2C1F8040CEE480068EE4940EABF
:100FD0000100EB49C1F8040CEC48406820F4706053
:100FE000EA4948600846406840F44070486040F272
:100FF0006F30E74908804FF00000E649A1F8040887
:101000007047DE48C06920F48060DC49C8617047E1
:1010100000B5FFF7C0FFDD48C06820F48060DB4901
:10102000C8604FF00600FFF7A3FFD848C06840F43F
:101030008060D649C860FFF7E4FF00BD00B5FFF748
:10104000AAFFD248C06820F48060D049C8604FF041
:101050000500FFF78DFFFF20FFF78AFF0246CB4810
:10106000C06840F48060C949C860FFF7CAFF1046F5
:1010700000BD11B500BFFFF7E1FF10F0010FFAD17D
:10108000FFF789FFC148C06820F48060BF49C8608D
:101090004FF00300FFF76CFF9DF801000446204667
:1010A000FFF766FF9DF8000004462046FFF760FF4B
:1010B000FF20FFF75DFF04464FF0FF00FFF758FFEA
:1010C00003464FEA0320034603EB04000346AF4800
:1010D000C06840F48060AD49C8600846C06840F40C
:1010E0008060C860FFF78DFF184618BD71B500BF5E
:1010F000FFF7A4FF10F0010FFAD1FFF74CFFA34850
:10110000C06820F48060A149C8604FF00300FFF779
:101110002FFF9DF8010004462046FFF729FF9DF8A8
:10112000000004462046FFF723FFFF20FFF720FFC3
:1011300004464FF0FF00FFF71BFF06464FF0FF008D
:10114000FFF716FF05464FF0FF00FFF711FF0346BC
:101150004FEA0320034603EB050003464FEA032052
:10116000034603EB060003464FEA0320034603EB66
:10117000040003468548C06840F480608349C86025
:101180000846C06840F48060C860FFF73AFF184620
:1011900078BD13B50B4600BFFFF750FF10F0010FED
:1011A000FAD1FFF7F8FE7948C06820F480607749EB
:1011B000C8604FF00300FFF7DBFE9DF80100044616
:1011C0002046FFF7D5FE9DF8000004462046FFF7B5
:1011D000CFFEFF20FFF7CCFE1870FF20FFF7C8FE00
:1011E0005870FF20FFF7C4FE9870FF20FFF7C0FE85
:1011F000D8706648C06840F480606449C86008469A
:10120000C06840F48060C860FFF7FBFE1CBD03B5FA
:1012100000BFFFF713FF10F0010FFAD1FFF7F8FE40
:10122000FFF7B9FE5948C06820F480605749C8608C
:101230004FF00200FFF79CFE9DF8010003461846A0
:10124000FFF796FE9DF8000003461846FFF790FE54
:101250009DF8040003461846FFF78AFE9DF8050036
:1012600003461846FFF784FE4848C06840F4806093
:101270004649C8600846C06840F48060C860FFF70F
:10128000C0FE18460CBD03B500BFFFF7D7FE10F037
:10129000010FFAD1FFF7BCFEFFF77DFE3B48C068A7
:1012A00020F480603949C8604FF00200FFF760FE0B
:1012B0009DF8010003461846FFF75AFE9DF800000E
:1012C00003461846FFF754FE9DF8040003461846EF
:1012D000FFF74EFE9DF8050003461846FFF748FE4F
:1012E0009DF8060003461846FFF742FE9DF80700EA
:1012F00003461846FFF73CFE2448C06840F480606F
:101300002249C8600846C06840F48060C860FFF7A2
:1013100078FE18460CBD13B50B4600BFFFF78EFED6
:1013200010F0010FFAD1FFF773FEFFF734FE1748F4
:10133000C06820F480601549C8604FF00200FFF7D4
:1013400017FE9DF8010004462046FFF711FE9DF8A8
:10135000000004462046FFF70BFE1878044620469E
:10136000FFF706FE587804462046FFF701FE9878FE
:10137000044611E0083800400C38004000100240DC
:1013800000000140040C01400000B3B8001001400F
:1013900000380040003000402046FFF7E9FDD878D3
:1013A00004462046FFF7E4FD0748C06840F480602B
:1013B0000549C8600846C06840F48060C860FFF70F
:1013C00020FE20461CBD00000010014010B5042086
:1013D000FFF74FFEA0F5905134390FD001214FF4A3
:1013E0004570FFF714FF4FF4707140F21630FFF7AD
:1013F0000EFF41F234210420FFF709FF10BD10B5A4
:101400001020FFF736FE00B2FF4908801220FFF7D8
:1014100030FE00B2FC4948802C20FFF72AFE00B2C3
:10142000FA4908802E20FFF724FE00B2F7494880D1
:101430001420FFF71EFEF64908801620FFF719FE5C
:10144000F34948801820FFF714FE00B2F1490880E4
:101450001A20FFF70EFE00B2EE4948801C20FFF76D
:1014600008FE00B2EC4908801E20FFF702FE00B221
:10147000E94948802020FFF7FCFD00B2E7490880D9
:101480002420FFF7F6FD00B2E54908802620FFF78B
:10149000F0FD00B2E34908802820FFF7EAFD00B222
:1014A000E04948802A20FFF7E4FD00B2DD4988804A
:1014B0003C20FFF7DEFD00B2DB4908803E20FFF74D
:1014C000D8FD00B2D94908804020FFF7D2FD00B214
:1014D000D74908804220FFF7CCFD00B2D5490880EB
:1014E0004420FFF7C6FD00B2D3490880A620FFF7CD
:1014F000C0FD00B2D1490880A820FFF7BAFD00B2B4
:10150000CE494880AA20FFF7B4FD00B2CB498880BD
:101510007620FFF7AEFD00B2C94908807820FFF7BA
:10152000A8FD00B2C74908807A20FFF7A2FD00B2EB
:10153000C54908807C20FFF79CFD00B2C3490880A4
:101540007E20FFF796FD00B2C1490880C620FFF754
:1015500090FD00B2BF490880C820FFF78AFD00B2A5
:10156000BD4908808220FFF784FD00B2BB49088096
:101570008420FFF77EFD00B2B94908804FF48270E5
:10158000FFF777FD00B2B74908808620FFF771FDAD
:1015900000B2B54908808820FFF76BFD00B2B3495F
:1015A0000880DE20FFF765FD00B2B14908804FF4E6
:1015B000D270FFF75EFD00B2AE4908804FF4D370E1
:1015C000FFF757FD00B2AC4908808C20FFF751FDB2
:1015D00000B2AA4908808E20FFF74BFD00B2A8494F
:1015E00008809020FFF745FD00B2A64908804FF41F
:1015F000AD70FFF73EFD00B2A34908804FF4C47000
:10160000FFF737FD00B2A14908804FF4C570FFF71E
:1016100030FD00B29E4908804FF4C670FFF729FDE7
:1016200000B29C4908804FF4C770FFF722FD00B25A
:10163000994908804FF4C870FFF71BFD00B2974925
:1016400008804FF4CB70FFF714FD00B29449088076
:101650004FF4CC70FFF70DFD00B2924908804FF4B3
:10166000CD70FFF706FD00B28F4908804FF4CE70B1
:10167000FFF7FFFC00B28D4908804FF4CF70FFF7F1
:10168000F8FC00B28A4908804FF4D070FFF7F1FCF3
:1016900000B2884908804FF4D170FFF7EAFC00B22D
:1016A000854908804FF4B270FFF7E3FC00B283492C
:1016B00008809220FFF7DDFC00B281490880942069
:1016C000FFF7D7FC00B27F4908809620FFF7D1FCD6
:1016D00000B27D4908809820FFF7CBFC00B27B491F
:1016E00008804FF49B70FFF7C4FC00B27849088073
:1016F0009A20FFF7BEFC00B2764908800F22002135
:10170000744800F02FFD4FF41770FFF7B2FC00B2E1
:101710007149088040F25E20FFF7ABFC00B26F49D0
:10172000088040F26620FFF7A4FC00B26C490880F4
:101730004FF41A70FFF79DFC00B26A4908806648B2
:10174000008866490988084400B2674908804FF458
:101750001B70FFF78EFC00B2644908804FF488507C
:10176000FFF787FC00B26249088041F20210FFF7E0
:1017700080FC00B25F4908808020FFF77AFC00B24D
:101780005D490880C420FFF774FC00B25B49088003
:10179000CA20FFF76EFC00B259490880CC20FFF741
:1017A00068FC00B257490880CE20FFF762FC00B207
:1017B000554908804FF41970FFF75BFC00B253499C
:1017C000088040F26A20FFF754FC00B250490880BC
:1017D000D020FFF74EFC00B24E490880D220FFF720
:1017E00048FC00B24C490880D420FFF742FC00B20C
:1017F0004A490880D620FFF73CFC00B248490880DF
:10180000D820FFF736FC8DE0B8000020BC00002097
:10181000C0000020C4000020C8000020CC00002030
:10182000DA000020CE000020DC000020DE000020D6
:10183000E0000020E20000200E000020D400002084
:10184000E4000020E6000020E8000020EA0000207C
:10185000EC000020EE00002012010020F200002029
:10186000F4000020F6000020F8000020FA0000201C
:10187000FC000020FE0000201000002000010020DD
:1018800002010020040100209201002098010020A4
:101890009A0100209C0100209E010020A001002050
:1018A000A2010020A4010020A6010020A801002020
:1018B000AA010020AC010020AE010020940100200C
:1018C00006010020080100200A0100205401002028
:1018D00052010020560100205A010020580100202A
:1018E0005E010020600100205C01002064010020F6
:1018F0006601002068010020F00000201001002097
:101900001401002016010020180100201A010020F7
:101910001C0100201E0100202001002022010020C7
:101920002401002000B2FF490880DA20FFF7A1FB64
:1019300000B2FD490880DC20FFF79BFB00B2FB49A9
:101940000880E220FFF795FB00B2F9490880E42007
:10195000FFF78FFB00B2F7490880FE20FFF789FBF5
:1019600000B2F54908804FF48070FFF782FB00B2A7
:10197000F2490880E620FFF77CFBF1490870E82077
:10198000FFF777FBEF490870EA20FFF772FBEE499B
:101990000870EC20FFF76DFB00B2EC490880EE20E8
:1019A000FFF767FB00B2EA490880F020FFF761FB10
:1019B00000B2E84908804FF4B670FFF75AFB00B256
:1019C000E5490880F220FFF754FB00B2E3490880A4
:1019D000F420FFF74EFB00B2E1490880F620FFF744
:1019E00048FB00B2DF490880F820FFF742FB00B255
:1019F000DD490880FA20FFF73CFB00B2DB49088094
:101A0000FC20FFF736FB00B2D94908804FF4817003
:101A1000FFF72FFB00B2D74908804FF48B70FFF718
:101A200028FB00B2D44908804FF48C70FFF721FBEB
:101A300000B2D24908804FF48D70FFF71AFB00B254
:101A4000CF4908804FF48E70FFF713FB00B2CD49E9
:101A500008804FF49070FFF70CFB00B2CA49088071
:101A60004FF49170FFF705FB00B2C84908804FF4AE
:101A70008F70FFF7FEFA00B2C54908804FF4E77097
:101A8000FFF7F7FA00B2C34908804FF49270FFF7EE
:101A9000F0FA00B2C04908804FF49370FFF7E9FAFA
:101AA00000B2BE4908804FF49570FFF7E2FA00B229
:101AB000BB4908804FF49670FFF7DBFA00B2B949D2
:101AC00008804FF49770FFF7D4FA00B2B649088047
:101AD0004FF49870FFF7CDFA00B2B44908804FF484
:101AE0009C70FFF7C6FA00B2B14908804FF49D70B0
:101AF000FFF7BFFA00B2AF4908804FF4B770FFF7A5
:101B0000B8FA00B2AC4908804FF4B870FFF7B1FAE8
:101B100000B2AA4908804FF4BA70FFF7AAFA00B2DF
:101B2000A74908804FF4B970FFF7A3FA00B2A5499E
:101B300008804FF4BB70FFF79CFA00B2A2490880FE
:101B40004FF4BC70FFF795FA00B2A04908804FF43B
:101B5000BD70FFF78EFA00B29D4908804FF4BE7049
:101B6000FFF787FA00B29B4908804FF4BF70FFF778
:101B700080FA00B2984908804FF4C070FFF779FAF4
:101B800000B2964908804FF4C170FFF772FA00B2B4
:101B9000934908804FF4C270FFF76BFA00B2914985
:101BA00008804FF4C370FFF764FA00B28E490880D2
:101BB0004FF4E970FFF75DFA8C4908704FF4F87044
:101BC000FFF757FA894948704FF0000088490880AC
:101BD00086480078552805D10846008800F10100A4
:101BE00000B2088081484078552806D18048008896
:101BF00000F1010000B27E4908804FF4EA70FFF75F
:101C000038FA00B27B4908804FF4EB70FFF731FAE5
:101C100000B2794908804FF4EC70FFF72AFA00B25D
:101C2000764908804FF4ED70FFF723FA00B274494B
:101C300008804FF4F170FFF71CFA00B27149088078
:101C40004FF4EE70FFF715FA00B26F4908804FF4B9
:101C5000F970FFF70EFA00B2664948804FF4FA7047
:101C6000FFF707FA00B2644948804FF4FB70FFF7B2
:101C700000FA00B2614948804FF4FC70FFF7F9F9AF
:101C800000B25F49488040F20220FFF7F2F900B24B
:101C90005C4948804FF4FD70FFF7EBF900B25A49F8
:101CA00048804FF44670FFF7E4F900B257490880C6
:101CB000A020FFF7DEF956490870A220FFF7D9F9F6
:101CC00054490870A420FFF7D4F900B252490880A3
:101CD000C020FFF7CEF900B250490880C220FFF7BC
:101CE000C8F900B24E4908804FF4AA70FFF7C1F955
:101CF0004C4908804FF4AB70FFF7F8F94A49086087
:101D00004FF4AC70FFF7F2F9484908604FF40170E6
:101D1000FFF7AFF900B24649088040F20620FFF70E
:101D2000A8F987E026010020280100202A010020D0
:101D30002C0100202E010020300100203201002063
:101D4000340100203E0100203F0100203801002026
:101D50003A010020360100203C0100204001002013
:101D600042010020440100204601002048010020DB
:101D7000620100204A010020580000205A00002083
:101D80005C0000205E000020680000206A00002047
:101D900060000020700000204C0100204E01002057
:101DA0006A0100206C0100206E01002070010020FB
:101DB00072010020740100207601002078010020CB
:101DC0007A0100207C0100202E0000207E010020EE
:101DD0008001002082010020840100208601002073
:101DE000880100208A0100208C010020B001002021
:101DF00050010020B2010020B6010020BA010020ED
:101E0000C6010020BE010020C20100205A020020AD
:101E10008E0100208F010020900100200C01002085
:101E20000E010020CA010020CC010020DC010020AE
:101E3000F001002000B2AE4908804FF40270FFF7B5
:101E400018F900B2AB49088040F20A20FFF711F9F7
:101E500000B2A94908804FF40370FFF70AF900B2F5
:101E6000A649088040F20E20FFF703F900B2A4490A
:101E700008804FF40470FFF7FCF800B2A149088015
:101E800040F21220FFF7F5F800B29F4908804FF4A6
:101E90000D70FFF7EEF800B29C49088040F2362042
:101EA000FFF7E7F800B29A4908804FF40E70FFF789
:101EB000E0F800B29749088040F23A20FFF7D9F8DD
:101EC00000B2954908804FF40F70FFF7D2F800B2C6
:101ED0009249088040F23E20FFF7CBF800B28B49D0
:101EE00048804FF41070FFF7C4F800B2884948806A
:101EF00040F24220FFF7BDF800B2864948804FF417
:101F00001170FFF7B6F800B28349488040F24620CE
:101F1000FFF7AFF800B2814948804FF41270FFF725
:101F2000A8F800B27949888040F24A20FFF7A1F86A
:101F300000B2774988804FF41370FFF79AF800B227
:101F40007449888040F24E20FFF793F800B272493E
:101F500088804FF41470FFF78CF800B26F498880C6
:101F600040F25220FFF785F800B26849C8804FF46C
:101F70001570FFF77EF800B26549C88040F2562020
:101F8000FFF777F800B26349C8804FF41670FFF787
:101F900070F800B26049C88040F25A20FFF769F833
:101FA00000B25E49C880E020FFF763F800B25C49E8
:101FB0000880BA20FFF75DF85A490870AC20FFF797
:101FC00058F859490880AE20FFF753F85749088060
:101FD000B020FFF74EF856490880B220FFF749F8C5
:101FE00054490880B420FFF744F853490880B620CC
:101FF000FFF73FF85149088008460088002803DDB4
:10200000084600880D2803DB4FF000004B4908808C
:10201000B820FFF72EF84A4908804FF44570FFF7C3
:1020200028F800B24749088040F21630FFF721F83F
:10203000454908604FF4AE70FFF71BF800B2434902
:1020400008804FF4AF70FFF714F800B23F494880A2
:102050004FF4B070FFF70DF800B23C4988804FF4A0
:10206000B170FFF706F800B23849C8804FF4B3707A
:10207000FEF7FFFF00B2364908804FF0000403E08E
:1020800004F10100C0B20446402CF9DB4FF000001F
:10209000044603E004F10100C0B204460A2CF9DB57
:1020A0004FF00000044603E004F10100C0B2044612
:1020B000402CF9DB4FF42770FEF7DBFF00B2254917
:1020C000088040F29A20FEF7D4FF00B2224908802F
:1020D00040F29E20FEF7CDFF00B2204908804FF469
:1020E0002870FEF7C6FF00B21D49088010BD000031
:1020F000F6010020FC01002002020020080200205E
:102100000E020020140200201A02002020020020EB
:102110002802002030020020380200204002002067
:102120005802002048020020560200204A020020E7
:102130004C0200204E0200205002002052020020DB
:1021400054020020000000200400002012000020A3
:1021500096010020A0000020A2000020A400002082
:10216000A6000020B0F900308B4200DA0180B0F9FF
:102170000030934200DD028070470000FF4909886B
:1021800039B1FE490988A1F1010109B2FB4A118068
:1021900070474FF00501F94A11804FF00001F84AED
:1021A000117008461CE000EBC00101EB0011F54A7C
:1021B00002EB8101897801290ED100EBC00101EB0E
:1021C000001102EB8101C978142905DAEC4909787C
:1021D00001F10101EA4A117000F10101C9B208469A
:1021E000E949B1F900108842DDDBE849097821B1FD
:1021F0004FF00001E54A117003E04FF00101E34A9E
:102200001170DF490978022900DAC1E741F288310B
:10221000DF4A11604FF00001DE4A1160DE4A1160B2
:10222000084645E000EBC00101EB0011D54A02EB86
:1022300081018978012937D100EBC00101EB001140
:1022400002EB8101496AD34A1268914209DD00EB31
:10225000C00101EB0011CB4A02EB8101496ACD4A72
:10226000116000EBC00101EB0011C64A02EB8101D5
:10227000496AC74A1268914209DA00EBC00101EBD2
:102280000011C04A02EB8101496AC14A116000EBAA
:10229000C00101EB0011BB4A02EB8101496ABE4A51
:1022A00012681144BC4A116000F10101C9B208462C
:1022B000B549B1F900108842B4DBB7490968B04AA2
:1022C000127891FBF2F1B54A1160B149096819B968
:1022D0004FF00101AE4A1160AE490968B04A116081
:1022E000114609684FF0640201FB02F1AC4A11602B
:1022F00011460968A64A126891FBF2F1A84A1160DA
:1023000011460968822903DD4FF00101A54A1170C9
:10231000A34909686E2903DA4FF00001A14A117040
:10232000A049097801297ED14FF00001084684E0D8
:1023300000EBC00101EB0011924A02EB81018978A8
:10234000012976D100EBC00101EB001102EB810104
:10235000496A924A1268914217DD8C490978A1B9FD
:1023600000EBC00101EB0011864A02EB8101B1F8DC
:102370005410A1F1010109B200EBC00202EB0012FE
:10238000804B03EB8202A2F8541000EBC00101EB7A
:1023900000117C4A02EB8101496A804A126891422D
:1023A00017DA7A490978A1B100EBC00101EB0011FD
:1023B000744A02EB8101B1F8541001F1010109B234
:1023C00000EBC00202EB00126E4B03EB8202A2F89C
:1023D000541000EBC00101EB00116A4A02EB8101CD
:1023E000B1F9541011F1320F0ADA6FF0310100EB3C
:1023F000C00202EB0012634B03EB8202A2F85410FE
:1024000000EBC00101EB00115E4A02EB8101B1F962
:10241000541032290DDD4FF0320100EBC00202EB07
:102420000012584B01E00EE003E003EB8202A2F839
:10243000541000F10101C9B208465349B1F9001026
:102440008842FFF675AF00BF00BFA1E6564800788E
:1024500000F10100544908700846007800F00F00B0
:102460000870704730B5514B1B68514C514D2D7859
:1024700004EB4514504D2D7824F815304D4B1B7846
:1024800003F101034B4C237023461B78082B60DBC0
:102490004FF000032370484B1B7803F10103464CB7
:1024A000237023461B78102B04DB4FF000032370AE
:1024B000424C2370414B1B785BB34FF0000025E08A
:1024C0004FF000031A4619460AE0394B03EB40135C
:1024D00033F8113013441A4601F10103DBB21946F7
:1024E000354B1B789942F0DB334B1B783BB1324BB9
:1024F0001B7892FBF3F3324C24F8103002E0304C9E
:1025000024F8102000F10103DBB218460828D7DBBD
:102510001FE04FF000001AE04FF000031A46194682
:102520000AE0234B03EB401333F8113013441A46EF
:1025300001F10103DBB219461029F2DBC2F30F13DC
:102540001F4C24F8103000F10103DBB218460828B4
:10255000E2DB1C4B1B6823F4A0031B4CC4F80834BB
:102560001A4B144C247853F82430174CC4F83434E4
:102570002346D3F8083443F4A00329E0AE02002038
:10258000CE0300201C06002054010020CF030020B1
:10259000BC030020B8030020C0030020C4030020B7
:1025A000C8030020CC030020BE0200204C240140C0
:1025B000BC150020CC020020CD020020A00200208B
:1025C000FC1600200824014000200140C89C00089F
:1025D000F84C236030BD4FF00000F7490870F74811
:1025E000806940F40070F54988614FF00000F449BB
:1025F0000860F448F049097850F82100F249C1F820
:1026000034044FF48070F1490860F148EE49C1F894
:1026100008040846D0F8080440F4A000C1F80804F3
:1026200070474FF00000EB490870EB4908704FF01D
:102630000100EA49087070474FF00000E84908704F
:10264000E84908704FF00100E749087070474FF003
:102650000000E6490870E64908704FF00100E549BE
:10266000087070474FF00000E3490870E3490870B4
:102670004FF00100E249087070471FB5E14800784B
:10268000401CC0B2DF490870042802DB4FF0000094
:102690000870DD48007878B1DC480078A0F10100CE
:1026A00000EBC00101EB0010D94901EB8000C069CB
:1026B00000B2D849088037E0D748007878B1D748C9
:1026C0000078A0F1010000EBC00101EB0010D0493F
:1026D00001EB8000006A00B2D149088024E0D148B3
:1026E000007878B1D0480078A0F1010000EBC0017B
:1026F00001EB0010C64901EB8000406A00B2CB49F3
:10270000088011E0CA48007870B1CA480078A0F18A
:10271000010000EBC00101EB0010BD4901EB80009E
:10272000806A00B2C4490880BA48B0F90000C349C1
:10273000B1F90010401A42F210714843B5490988B6
:1027400019B1B449B1F9001001E04FF0010190FB5B
:10275000F1F0BB4908604FF001009F490870B8488C
:102760000068002802DA4FF0FF00087099480078EE
:1027700018B99948007897490870A948B0F900003D
:10278000B049B1F90010401A42F210714843A4490F
:10279000098819B1A249B1F9001001E04FF0010117
:1027A00090FBF1F0A84908604FF001008D490870D6
:1027B000A5480068002802DA4FF0FF00087088483A
:1027C000007818B987480078854908709748B0F9AB
:1027D00000009E49B1F90010401A42F210714843BE
:1027E0009249098819B19149B1F9001001E04FF0FF
:1027F000010190FBF1F0964908604FF001007C491F
:10280000087093480068002802DA4FF0FF00087053
:102810007648007818B97648007874490870864878
:10282000B0F900008B49B1F90010401A42F2107162
:1028300048438149098819B17F49B1F9001001E085
:102840004FF0010190FBF1F0834908604FF0010067
:102850006A49087080480068002802DA4FF0FF00DB
:1028600008706548007818B96448007862490870B3
:102870005A48007802282DD171490968081E01DBE9
:10288000014600E0414205290CDA4FF000005E49A4
:1028900008705E4908707149714AB2F9002021F848
:1028A000120028E066480068002807DD6D480078BF
:1028B00020B94FF004006C4908701CE060480068C3
:1028C000002818DA67480078A8B94FF00200664976
:1028D000087010E05A480068002804DD4FF0050039
:1028E0006149087007E056480068002803DA4FF095
:1028F00003005D4908703C48007802282DD15249F8
:102900000968081E01DB014600E0414205290CDA96
:102910004FF0000040490870404908704F49534A41
:10292000B2F9002021F8120028E04748006800288A
:1029300007DD4C48007820B94FF004004C4908707E
:102940001CE041480068002818DA46480078A8B919
:102950004FF002004649087010E03B48006800282C
:1029600004DD4FF005004249087007E03648006872
:10297000002803DA4FF003003D4908701D48007835
:10298000022816D132490968081E01DB014600E021
:102990004142052971DA4FF00000224908702249AE
:1029A000087001462D48334AB2F9002020F8121071
:1029B0008CE07AE008240140CC02002000100240A4
:1029C0002C240140C89C0008002001400424014040
:1029D00003000E0014030020100300201803002041
:1029E0001503002011030020190300201603002006
:1029F000120300201A0300201703002013030020F5
:102A00001B030020DF020020E0020020F40200206F
:102A10001C060020E4020020E1020020F502002054
:102A2000E6020020E2020020F6020020E802002078
:102A3000E3020020F7020020EA020020EC0200205E
:102A400000030020EE02002004030020F00200201A
:102A500008030020F20200200C030020DC04002008
:102A6000CA040020D00200201C030020CC04002057
:102A70001D030020CE040020FFE7FF480068002867
:102A800007DDFE48007820B94FF00400FC490870CB
:102A90001CE0F9480068002818DAF8480078A8B95E
:102AA0004FF00200F649087010E0F3480068002873
:102AB00004DD4FF00500F249087007E0EE480068B9
:102AC000002803DA4FF00300ED490870ED48007864
:102AD00002282ED1EC490968081E01DB014600E0FE
:102AE000414205290DDA4FF00000E8490870E84935
:102AF00008700146E748E84AB2F9002020F81210B1
:102B000028E0E1480068002807DDDC48007820B9AB
:102B10004FF00400E14908701CE0DB480068002821
:102B200018DAD6480078A8B94FF00200DB490870DF
:102B300010E0D5480068002804DD4FF00500D749B3
:102B4000087007E0D0480068002803DA4FF003005F
:102B5000D2490870D248007848B1D2480078D249AA
:102B60000978884203D04FF00200D0490870CD4860
:102B70000078CD490870CE48007848B1CD4800783B
:102B8000CD490978884203D04FF00200CB49087044
:102B9000C8480078C8490870C948007848B1C94891
:102BA0000078C9490978884203D04FF00200C7492C
:102BB0000870C4480078C4490870B448007848B127
:102BC000C3480078C3490978884203D04FF0020017
:102BD000AC490870BE480078BE490870BE4800780D
:102BE000012804D14FF00000BC49087034E0BA4815
:102BF0000078022804D14FF00100B84908702BE09A
:102C0000B5480078032804D14FF00200B34908709A
:102C100022E0B1480078042804D14FF00300AF4906
:102C2000087019E0AC480078052804D14FF0040082
:102C3000AA49087010E0A8480078062804D14FF08F
:102C40000500A649087007E0A3480078072803D1CB
:102C50004FF00600A1490870A1480078012804D16E
:102C60004FF000009F49087034E09D48007802282A
:102C700004D14FF001009B4908702BE09848007880
:102C8000032804D14FF002009649087022E09448CE
:102C90000078042804D14FF003009249087019E02D
:102CA0008F480078052804D14FF004008D49087042
:102CB00010E08B480078062804D14FF005008949C0
:102CC000087007E086480078072803D14FF0060017
:102CD0008449087084480078012804D14FF000002E
:102CE0008249087034E080480078022804D14FF00F
:102CF00001007E4908702BE07B480078032804D14E
:102D00004FF002007949087022E0774800780428E3
:102D100004D14FF003007549087019E0724800783B
:102D2000052804D14FF004007049087010E06E4887
:102D30000078062804D14FF005006C49087007E0C0
:102D400069480078072803D14FF0060067490870EA
:102D50004F480078012804D14FF000006449087002
:102D600034E04B480078022804D14FF0010060495C
:102D700008702BE046480078032804D14FF0020089
:102D80005B49087022E042480078042804D14FF0E3
:102D900003005749087019E03D480078052804D120
:102DA0004FF004005249087010E0394800780628B6
:102DB00004D14FF005004E49087007E03448007810
:102DC000072803D14FF006004949087037480078BA
:102DD000012806D035480078022815D12748007808
:102DE00090B92F48007878B1002142480078CDE9A9
:102DF000000102913F48039100780346EE223748D4
:102E00000178007802F0CCFE2C480078012806D02A
:102E10002A480078022817D118480078A0B9244819
:102E2000007888B10021344800781030CDE90001E5
:102E3000029131480391007810300346EE22294870
:102E40000178007802F0ACFE20480078012806D016
:102E50001E48007802285BD10848007858B9184805
:102E6000007840B10021064800782030CDE900010B
:102E70000291034842E04BE008030020D00200200A
:102E80001E0300201B0300200C030020E30200208F
:102E9000F7020020DC040020D00400201F030020E3
:102EA000E00200201003002014030020180300207B
:102EB000E102002011030020150300201903002067
:102EC000E202002012030020160300201A03002053
:102ED0001303002017030020F40200202003002029
:102EE000F502002021030020F6020020220300202A
:102EF000230300201C0300201D0300200391007801
:102F000020300346EE22FC480178007802F048FEAB
:102F1000FA480078012806D0F8480078022817D12E
:102F2000F7480078A0B9F748007888B10021F64842
:102F300000783030CDE900010291F3480391007828
:102F400030300346EE22F1480178007802F028FE86
:102F50001FBD00EBC00101EB0011ED4A02EB810146
:102F600091F85E10A1BB00EBC00101EB001102EB78
:102F7000810191F85F1059BB00EBC00101EB00111A
:102F800002EB8101B1F8601011BB4FF03C0100EB86
:102F9000C00202EB0012DE4B03EB820282F85E10ED
:102FA0004FF0030100EBC00202EB001203EB8202C0
:102FB00082F85F10D74909884FF4616201FB02F182
:102FC00000EBC00202EB001203EB8202A2F86010D9
:102FD000704710B5D04A12881146D04AB2F9002085
:102FE00001FB02F141F2707291FBF2F211460AB25A
:102FF000CB4B1A80C84A52881146CA4AB2F90020FF
:1030000001FB02F141F2707291FBF2F211460AB239
:10301000C54B1A80C04A92881146C44AB2F90020B2
:1030200001FB02F141F2707291FBF2F211460AB219
:10303000BF4B1A80B84AD288B2F5487F0ADDB64A3B
:10304000D28840F6D8639A4204DA4FF00002B94BB6
:103050001A7303E04FF00102B64B1A73AE4AD288DE
:103060001146B54AB2F9002001FB02F144F6206294
:1030700091FBF2F21146A1F2111211460AB2AD4BC8
:103080005A81AE4A12781A81AD4A12785A804FF0AE
:103090000000CDE000EBC00202EB00129C4B03EB02
:1030A0008202D278192A7EDA00EBC00202EB00120B
:1030B00003EB8202937900EBC00202EB0012944C06
:1030C00004EB8202D27903EB022200EBC00303EB94
:1030D000001304EB83035A6200EBC00202EB001200
:1030E000234603EB8202137A00EBC00202EB0012CC
:1030F00004EB8202527A03EB022200EBC00303EBE3
:10310000001304EB83031A6200EBC00202EB00120F
:10311000234603EB8202937A00EBC00202EB00121B
:1031200004EB8202D27A03EB022200EBC00303EB32
:10313000001304EB8303DA6100EBC00202EB001220
:10314000234603EB8202127B00EBC00303EB001368
:1031500004EB83039A6200EBC00202EB00122346E9
:1031600003EB8202527B00EBC00303EB001304EB82
:10317000830383F8562000EBC00202EB00122346C3
:1031800003EB8202927B00EBC00303EB001304EB22
:10319000830383F8422000EBC00202EB00122346B7
:1031A00003EB820200E011E0137C00EBC00202EBB3
:1031B000001204EB8202527C03EB022200EBC003FC
:1031C00003EB001304EB83031A652DE04FF00002BC
:1031D00000EBC00303EB00134D4C04EB8303DA61F7
:1031E00000EBC00303EB001304EB83035A6200EB14
:1031F000C00303EB001304EB83031A6200EBC0036C
:1032000003EB001304EB83039A6200EBC00303EBB0
:10321000001304EB830383F8422000EBC00303EBAD
:10322000001304EB83031A6500F10102D2B21046C9
:10323000444AB2F900209042FFF62CAF364A528938
:103240001146414AB2F9002001FB02F14FF4FA7233
:1032500091FBF2F211460AB23C4B1A802E4A1289B7
:1032600011463B4AB2F9002001FB02F14FF4FA7219
:1032700091FBF2F211460AB2364B1A804FF000026F
:10328000354B1A80354B1A8010461AE000EBC0020D
:1032900002EB00121E4B03EB8202D278052A0CDAF5
:1032A00000EBC00202EB001203EB8202526A2B4BCE
:1032B0001B881A4412B2294B1A8000F10102D2B2C3
:1032C0001046204AB2F900209042DFDB224A1288E1
:1032D000224B1B881A4412B21F4B1A801A46B2F9AD
:1032E0000020002A02DA4FF000021A804FF000029C
:1032F0001146104642E00000220300201B0300207C
:10330000D0020020E30200201F030020230300203E
:103310001C06002090010020FC160020DC0000208C
:1033200034000020DE00002036000020E0000020F5
:103330003800002038050020C8000020A00200202E
:10334000CD020020540100200E0000204E0000207D
:10335000E20000204C000020560000208A020020DD
:1033600000EBC00202EB0012FF4B03EB8202526A39
:103370000A44114600F10102D2B21046FB4AB2F9EA
:1033800000209042ECDB0AB2F94B1A8010BD2DE907
:10339000F041F84800780A2810DAF648007800F181
:1033A0000100F4490870084600780A2806DB4FF04F
:1033B000000008704FF00100EF4908704FF0000066
:1033C000EE490880EE4908804FF0CD0002F0E7F9A1
:1033D00000287DD0EB480068CE2803D14FF6FF705F
:1033E000E7490880E7480068CF2803D1E5484068EE
:1033F000E3490880E3480068D12803D1E1484068E8
:10340000DE490880DF480068D22803D14FF6FF70FC
:10341000DA490880DB480068D02809D1D9484068DB
:10342000D6490880D74840686FEA0000D449088030
:103430004FF0000462E0012000FA04F0D04909884E
:10344000084215D004EBC40000EB0410C64901EBA0
:103450008000B0F8400000F1010000B204EBC401AC
:1034600001EB0411C04A02EB8101A1F840000AE01F
:103470004FF0000004EBC40101EB0411BA4A02EB67
:103480008101A1F8400004EBC40101EB0411B64A2C
:1034900002EB81014031084632220021FEF762FE34
:1034A00004EBC40000EB0410AF4901EB8000B0F95D
:1034B000400014280ADD4FF0010004EBC40101EBC9
:1034C0000411A94A02EB810181F82C00012000E0DF
:1034D0001AE000FA04F0A949098808420AD04FF01E
:1034E000000004EBC40101EB04119F4A02EB8101CF
:1034F00081F82C0004F10100C0B204469B48B0F9E9
:103500000000844297DDD4E09B4800780028FAD080
:103510004FF0000634460EE04FF0010004EBC4010A
:1035200001EB0411904A02EB810181F82C0004F1B7
:103530000100C0B204468D48B0F900008442EBDBC4
:103540004FF00000044642E0884A1288D2B2114689
:10355000202902DD4FF0200211468B4A1078834A61
:10356000B2F90020904202DB4FF00002104600EB5F
:103570000402D2B2104690FBF1F201FB1202D2B269
:10358000104600EBC00202EB0012774B03EB820205
:103590009278022A08D000EBC00202EB001203EB83
:1035A00082029278012A0ED14FF0000200EBC00394
:1035B00003EB00136C4F07EB830383F82C2006F119
:1035C0000102D2B2164604F10100C0B204466748B7
:1035D000B0F90000844204DA6C48B0F90000864279
:1035E000B2DB4FF000006A49097801EBC10202EB3F
:1035F00001115D4A02EB810181F82C006548B0F9A8
:1036000000003C2817DA4FF0000004460EE04FF0AF
:10361000000004EBC40101EB0411534A02EB8101E9
:1036200081F82C0004F10100C0B204464F48B0F903
:1036300000008442EBDD58480088B8B14FF000002C
:1036400004460EE04FF0010004EBC40101EB04114D
:10365000454A02EB810181F82C0004F10100C0B25F
:1036600004464248B0F900008442EBDD4FF0000010
:10367000044619E004EBC40000EB04103A4901EBE6
:10368000800090F82C0001280AD16FF0310004EB83
:10369000C40101EB0411344A02EB8101A1F854008A
:1036A00004F10100C0B204463048B0F90000844281
:1036B000E0DD4FF00000044628E004EBC40000EB1E
:1036C0000410294901EB8000C06BD8B14FF06300B2
:1036D00004EBC40101EB0411234A02EB810181F8E0
:1036E0002C0004EBC40000EB0410114601EB800039
:1036F000C06BA0F1010004EBC40101EB041102EB6B
:103700008101C86304F10100C0B204461748B0F952
:1037100000008442D1DB4FF00000174908701F49B8
:1037200008700546044643E004EBC40000EB0410B7
:103730000D4901EB80008078012835D117480078C9
:1037400000F101001549087004EBC40000EB0410FF
:10375000054901EB8000C069A84225DD04EBC400E7
:1037600000EB04101CE000001C06002054010020A7
:103770005000002030030020310300202A030020E5
:103780002C0300200C040020460300203C030020F2
:10379000470300202C000020780300202403002091
:1037A00001EB8000C06985B204F10100C0B204469B
:1037B000FF48B0F900008442B6DBFE4805804FF0B8
:1037C0000000FD4908704FF00100FC4908704FF0FF
:1037D0000000044626E004EBC40000EB0410F849A6
:1037E00001EB8000806AF749B1F90010884203DBE1
:1037F0004FF00100F049087004EBC40000EB041026
:10380000EF4901EB8000816AEE48B0F90000401FEB
:10381000814203DB4FF00000E849087004F1010029
:10382000C0B20446E248B0F900008442D3DBE2486B
:103830000078012802D1E449087009E0E2480078E4
:1038400030B1DE48007818B14FF00000DE49087052
:10385000DE480088D8B34FF0000004460EE04FF079
:10386000010004EBC40101EB0411D54A02EB810114
:1038700081F82C0004F10100C0B20446CC48B0F934
:1038800000008442EBDD4FF00201D048B0F90000A7
:10389000A0F1010000EBC00202EB0010C84A02EBED
:1038A000800080F82C10CA48008801280FD14FF002
:1038B0000301C648B0F90000A0F1010000EBC0020E
:1038C00002EB0010BE4A02EB800080F82C10C148C9
:1038D000008838B34FF0000004460EE04FF00000BF
:1038E00004EBC40101EB0411B54A02EB810181F83C
:1038F0002C0004F10100C0B20446AD48B0F900004C
:103900008442EBDD4FF00101B248B0F90000A0F1B4
:10391000010000EBC00202EB0010A94A02EB80009C
:1039200080F82C10BDE8F08170B5044604EBC400AB
:1039300000EB0410A24911F82000032800D070BD4C
:1039400004EBC40000EB04109D4901EB800090F8EB
:10395000425015F0020F45D004EBC40000EB0410F8
:1039600001EB8000B0F94600B0F5966F74DA04EB15
:10397000C40000EB041001EB8000B0F8460000F139
:10398000010000B204EBC40101EB04118C4A02EB0C
:103990008101A1F8460004EBC40000EB04101146BD
:1039A00001EB8000B0F94600B0F5966F54DB4FF4A0
:1039B000966004EBC40101EB041102EB8101A1F854
:1039C000460004EBC40000EB0410114601EB80003C
:1039D000407810F0010F3FD101220021204602F073
:1039E000C5F939E015F0020F36D104EBC40000EB45
:1039F0000410734901EB8000B0F8460060B304EB9B
:103A0000C40000EB041001EB8000B0F84600A0F108
:103A1000010000B204EBC40101EB0411684A02EB9F
:103A20008101A1F8460004EBC40000EB041011462C
:103A300001EB8000B0F8460070B904EBC40000EB65
:103A4000041001EB8000407810F0010F04D0002238
:103A50001146204602F08AF915F0080F47D004EB12
:103A6000C40000EB0410564901EB8000B0F9480097
:103A70000A283BDA04EBC40000EB041001EB8000E1
:103A8000B0F8480000F1010000B204EBC40101EB02
:103A900004114B4A02EB8101A1F8480004EBC40079
:103AA00000EB0410114601EB8000B0F948000A2831
:103AB00070DB4FF00A0004EBC40101EB041102EBD0
:103AC0008101A1F8480004EBC40000EB041011468A
:103AD00001EB8000407810F0020F04D10122114662
:103AE000204602F043F92046FFF733FA52E015F082
:103AF000080F4FD104EBC40000EB0410304901EB78
:103B00008000B0F9480000282EDD04EBC40000EB73
:103B1000041001EB8000B0F84800A0F1010000B2F1
:103B200004EBC40101EB0411254A02EB8101A1F869
:103B3000480004EBC40000EB0410114601EB8000C8
:103B4000B0F8480030BB4FF0000004EBC40101EBBB
:103B5000041102EB8101A1F8480002464FF0010177
:103B6000204602F003F915E004EBC40000EB04105A
:103B7000134901EB8000B0F9480000280ADA4FF041
:103B8000000004EBC40101EB04110D4A02EB8101BA
:103B9000A1F8480015F0100F5CD004EBC40000EB56
:103BA0000410074901EB8000B0F94A000A2813E02D
:103BB0005401002062030020A5030020A40300207C
:103BC0001C060020EE000020A6030020D8040020E0
:103BD000D6040020D20400203BDA04EBC40000EB42
:103BE000041001EB8000B0F84A0000F1010000B2BF
:103BF00004EBC40101EB0411FF4A02EB8101A1F8BF
:103C00004A0004EBC40000EB0410114601EB8000F5
:103C1000B0F94A000A2878DB4FF00A0004EBC4012F
:103C200001EB041102EB8101A1F84A0004EBC4008E
:103C300000EB0410114601EB8000407810F0040FF7
:103C400004D101220221204602F090F82046FFF71D
:103C500080F95AE015F0100F57D104EBC40000EBC7
:103C60000410E54901EB8000B0F84A0070B304EBA2
:103C7000C40000EB041001EB8000B0F84A00A0F192
:103C8000010000B204EBC40101EB0411DA4A02EBBB
:103C90008101A1F84A0004EBC40000EB04101146B6
:103CA00001EB8000B0F84A0078BB4FF0000004EB55
:103CB000C40101EB041102EB8101A1F84A000246A4
:103CC0004FF00201204602F051F81EE004EBC40060
:103CD00000EB0410C84901EB8000B0F94A000A2843
:103CE00013DD04EBC40000EB041001EB8000B0F81E
:103CF0004A00A0F1010000B204EBC40101EB041181
:103D0000BD4A02EB8101A1F84A0004EBC40000EBBC
:103D10000410B94901EB8000C069B849B1F900103D
:103D2000B74AB2F90020891A88424FDA04EBC4007E
:103D300000EB0410B04901EB80008078012845D1E8
:103D400004EBC40000EB041001EB8000B0F94C0060
:103D5000B0F5967F39DA04EBC40000EB041001EBF8
:103D60008000B0F84C0000F1010000B204EBC40187
:103D700001EB0411A04A02EB8101A1F84C0004EB15
:103D8000C40000EB0410114601EB8000B0F94C00B8
:103D9000B0F5967F7BDB4FF4967004EBC40101EB2A
:103DA000041102EB8101A1F84C0004EBC40000EB0C
:103DB0000410114601EB8000407810F0040F66D12A
:103DC00001220221204601F0D1FF60E004EBC40093
:103DD00000EB0410884901EB8000C1698748B0F905
:103DE0000000874AB2F90020801A81424FDB04EBC1
:103DF000C40000EB0410804901EB8000B0F84C00D7
:103E000070B304EBC40000EB041001EB8000B0F8C9
:103E10004C00A0F1010000B204EBC40101EB04115D
:103E2000754A02EB8101A1F84C0004EBC40000EBE1
:103E30000410114601EB8000B0F84C0038BB4FF085
:103E4000000004EBC40101EB041102EB8101A1F8B5
:103E50004C0002464FF00201204601F087FF16E0B9
:103E600004EBC40000EB0410634901EB8000B0F9DF
:103E70004C00B0F5967F0ADD4FF4967004EBC40158
:103E800001EB04115C4A02EB8101A1F84C0004EB48
:103E9000C40000EB0410584901EB8000407810F09A
:103EA0000F0F0AD04FF0210004EBC40101EB041105
:103EB000514A02EB8101887042E052480078A0B17B
:103EC00004EBC40000EB04104B4901EB8000C07808
:103ED00014280ADD4FF0220004EBC40101EB0411A9
:103EE000454A02EB810188702AE004EBC40000EB34
:103EF0000410414901EB800090F8420010F0200FBF
:103F00000AD04FF0020004EBC40101EB04113A4A5D
:103F100002EB8101887013E004EBC40000EB041095
:103F2000354901EB8000C078142809DA4FF0010010
:103F300004EBC40101EB04112F4A02EB81018870EC
:103F400004EBC40000EB04102B4901EB8000B0F936
:103F500054002D49B1F90010084404EBC40101EBF1
:103F60000411254A02EB810108634FF47A7004EBD7
:103F7000C40101EB041102EB8101486300BFDEE4E0
:103F800070B52248008828B91C48B0F900002049C3
:103F9000088052E01F48007B20B14FF014001E49FA
:103FA000088003E01B4840891B4908801A48B0F983
:103FB0000000002803DA1948B0F900503AE016482A
:103FC000B0F90000282803DD4FF0280012490880CE
:103FD0000A48B0F900001149B1F90010A0EB010046
:103FE00000EB80004FEA400005460B48B0F90000A6
:103FF00005FB00F514E000001C060020EA0000208C
:104000001201002045000020A402002040010020F1
:10401000320300203805002044030020E80000207F
:104020004FF0C80095FBF0F00546FF48B0F90000DE
:104030002844054628B2FD490880BE2001F0AFFBA8
:1040400040B1FB480068BF2804D1F948406800B27D
:10405000F6490880F548B0F9000004464FF06200C8
:1040600004FB00F44FF0640094FBF0F0044620B22F
:10407000F0490880ED48B0F9000004464FF06600B2
:1040800004FB00F44FF0640094FBF0F0044620B20F
:10409000E949088070BD10B5E848008830B1E748AC
:1040A0000088A0F1010000B2E4490880E448B0F9BA
:1040B0000000E4490880E448B0F90800002812DA5A
:1040C000E149B1F90810081E01DB014601E0C0F129
:1040D00000014FF00A0291FBF2F1DA4A1288114412
:1040E00009B2D84A1180D848B0F95400002812DA31
:1040F000D549B1F95410081E01DB014601E0C0F1B9
:1041000000014FF00A0291FBF2F1CE4A12881144ED
:1041100009B2CC4A1180CB48B0F90000CB49B1F9C3
:10412000001090FBF1F000F10100C9490870C5488A
:10413000B0F90000C749B1F9001090FBF1F000F1AF
:104140000100C5490870C2480078C449B1F900109F
:10415000884208DDBE480078C04908804FF03C0026
:10416000B649088011E0BC480078BC49B1F900109C
:1041700088420ADAB148008838B9B7480078B749A8
:1041800008804FF03C00AD490880B548008820B158
:10419000B448B0F90000B1490880B348007820B1B4
:1041A000B048B0F90000AD490880B04800780A284E
:1041B00004D1AC48B0F90000A8490880AC480078A8
:1041C0000A2803D0AA4800780B2804D1A548B0F9E2
:1041D0000000A2490880A348B0F9002001219F48AF
:1041E000FDF7C0FF10BD10B5029C10BD4FF00001DF
:1041F00008463BE09F49896811F400719D4A91602F
:1042000018D19D4909560A290FDA9B49095C01F129
:10421000010149B2984A1154114609560A2921DB75
:104220004FF00101954A11541CE04FF00A01924AE7
:10423000115417E09049095600290FDD8E49095C99
:10424000A1F1010149B28C4A1154114609560029C5
:1042500008DC4FF00001894A115403E04FF00001DF
:10426000854A115400F10101C9B208460128C1DB99
:104270004FF00001084643E0814931F8101019B9A8
:104280007E49095C012906D07D4931F81010D9B169
:104290007A49095CC1B97B4909560A290FDA79497B
:1042A000095C01F1010149B2764A115411460956DF
:1042B0000A2921DB4FF00101734A11541CE04FF031
:1042C0000A01704A115417E06E49095600290FDBA4
:1042D0006C49095CA1F1010149B26A4A11541146C5
:1042E0000956002908DC4FF00001674A115403E029
:1042F0004FF00001634A115400F10101C9B20846B0
:104300000128B9DB704708B56048407800F101002A
:104310005E4948705E48007860B14FF000005C492B
:1043200008704FF00A0002F0A6F94FF00A00574952
:1043300048701FE04FF014005449487055480088F9
:1043400078B95548007860B94848007848B9484875
:10435000007830B94FF001004D49087002F08BF938
:1043600008E04FF4FA604DA352A258A100905DA05E
:10437000FFF739FF08BD08B54548007801282CD162
:104380005E4800784249097888420DD04FF0050018
:104390005B4908805B48008830B94FF00000088016
:1043A0004FF002003A4908705548008868B15448F7
:1043B0000088A0F1010000B2514908800846008839
:1043C00018B94FF00300324908702C4800780128D2
:1043D00003D14FF002002E4908702D4800780228C2
:1043E00021D1464800782A49097888420CD04648AD
:1043F000B0F900004FF4616100FB01F0434908602F
:104400004FF000004249086040480068A0F10100F8
:104410003E4908603E48006800F101003C490860E0
:104420003A48006876E087E0E80000203203002088
:104430000C0400203803002036030020C0020020B6
:104440008A0200208C020020380500200001002094
:104450002E030020020100202F0300203C03002037
:104460001401002054010020A6030020A80200200F
:10447000AA02002000100140E6030020B002002044
:1044800020020020EA030020B80200207200002071
:10449000080000206C000020860000202020202042
:1044A000202020202020202020202020202020200C
:1044B0000000000020202020E7E0E1EBEEEAE8F039
:1044C000EEE2E0ED2120202000000000202020204E
:1044D000202020E7E0F0FFE42020202020202020E2
:1044E000000000002020202020D3F1EAEEF0E5EDCE
:1044F000EDFBE920202020200000000074000020B7
:1045000076000020700000205C0000207800002071
:10451000A003002028B94FF00000FF49087002F006
:10452000AAF8FE48007838B9FD480088012803D170
:104530004FF00400F8490870F7480078032824D1A8
:10454000F8480078F4490978884202D1F648008892
:1045500018B94FF00A00F4490880F3480088A0F128
:10456000010000B2F0490880084600880A2803D0FC
:1045700008460088092808D141F28830EBA3F1A24F
:10458000F6A10090FBA0FFF72EFEE3480078042878
:104590002CD1E4480078E0490978884202D1E24809
:1045A000008818B94FF00A00DF490880DE4800880B
:1045B000A0F1010000B2DC490880084600880A2802
:1045C00003D008460088092808D141F28830EFA3BB
:1045D000F4A2FAA10090E7A0FFF705FECF4800780B
:1045E000012803D14FF00200CB490870CA48007877
:1045F000CC490870F748008801284DD1C64800789A
:10460000E8BBF5480078D0BBF4480078B8BBF44864
:104610000078A0BBF349B1F90010F34AB2F90020C9
:10462000914230DAF049B1F90010EE4AB2F90020B7
:10463000891AEE4AB2F90020914224DDEC49B1F921
:1046400000100A2291FBF2F1EA4AB2F90020881A1E
:1046500001D4014600E04142052914DAE6490988FF
:1046600089B9E648007800F10100E449087008467D
:1046700000783C2810DBFFF746FE052000E007E04D
:1046800001F0F9FF08E04FF00000DC49087003E09A
:104690004FF00000D9490870D9480088022804D09A
:1046A0004FF00000D449088036E04FF00000D249B6
:1046B0000880D3480088012815D1D248008820B945
:1046C000D148C08AB0F5FA6F08DCCE4800880128CE
:1046D00022D1CD48C08AB0F5FA6F1DDA4FF0010043
:1046E000C549088018E0C6480088022814D1C5488A
:1046F000008820B9C448408BB0F5FA6F08DCC14887
:104700000088012808D1C048408BB0F5FA6F03DA61
:104710004FF00100B849088008BD10B5B5480088C1
:10472000BA490880BA48008818B97B48007802283E
:1047300003D1B8480088B5490880A84800780A28FD
:1047400003D1B5480088B1490880A54800780A28F7
:1047500003D1B2480088AD490880A14800780B28F1
:1047600003D1AF480088A9490880AE48008830B11D
:10477000AC480088A0F1010000B2AA490880AA480C
:10478000008830B1A8480088A0F1010000B2A64915
:104790000880A64890F83F0010F0030F05D1A34809
:1047A00090F88B0010F0030F07D0984800884FF066
:1047B0000A0190FBF1F0954908809D48B0F900008E
:1047C000012804DB9A48B0F90000052803DD4FF00A
:1047D0000100974908809648B0F9000000EB80007E
:1047E000400094490978884217DD9248007800F12A
:1047F0000100904908708E48B0F9000000EB80007D
:104800004FEA40000978884207DC4FF000008949F0
:1048100008704FF0010088490870E12000F0BFFFE8
:10482000002876D085480068642808D1834840680D
:1048300083490988084400B28249088084E37F489C
:104840000068692809D17D4840687D490988A1EB45
:10485000000000B27B49088076E3784800686E2843
:1048600027D178480088A0F1010000B2754908807E
:104870000846B0F900001E2807DD5A48B0F90000CC
:104880007149B1F9001088420EDA70480078401C76
:10489000C0B26E490870FA28D0D10A230022E7215D
:1048A000E62000F037FF4FE34FF000006749087043
:1048B0004AE362480068E52805D16048406800B2D4
:1048C0006049088040E35D480068E628B6D160484A
:1048D000B0F900004449B1F9001088421ADD4FF0E8
:1048E0000B005C4908705A48B0F900003E49B1F924
:1048F0000010A0EB010028280DDD5248B0F900009F
:10490000002808DD4F480088A0F1050000B24D499D
:10491000A2E0EAE0B2E0A1E008000020B00200203E
:104920007000002074000020760000202020C1C507
:10493000C720C2C5CDD2C8CBDFD6C8C82121202010
:1049400000000000202020202020C2CACBDED7C5D6
:10495000CD2020202020202000000000202020CD7D
:10496000C520CCCEC6C5D220C1DBD2DC2020202081
:10497000000000002020D3D1CACED0C5CDCDDBC9E8
:1049800020C7C0D0DFC4202000000000202020204D
:10499000C2C5CDD2C8CBDFD6C8DF2121212020203F
:1049A000000000002020202020CDC5C8D1CFD0C0DD
:1049B000C2CDC02020202020000000002020202088
:1049C000C7C0C1CBCECAC8D0CEC2C0CD2020202007
:1049D000000000005E00002086000020A8020020E9
:1049E000AA020020540000203203002060000020B2
:1049F00048000020060100206C0000200900002073
:104A0000680000206A000020FC1600205C030020E3
:104A100062000020580000209E010020A401002018
:104A2000AC01002066030020680300203805002048
:104A30008C01002053030020540300200C040020AC
:104A4000A6020020A4020020F2000020C2020020E2
:104A50004C00002072030020088075E2FF480088A7
:104A60000028FAD0FE4800780028F6D0FB480088DD
:104A7000A0F1010000B2F949088065E2F948B0F9F7
:104A80000000F949B1F900108842E6DA4FF00C0055
:104A9000F6490870F448B0F90000F249B1F9001085
:104AA000A0EB010028280EDDEC48B0F9000040F230
:104AB000F731884207DAE948008800F1050000B2C2
:104AC000E649088040E2E548B0F90000B0F57F7F94
:104AD000C3DAE34800780028BFD0E048008800F13E
:104AE000010000B2DD4908802EE2DD480078002890
:104AF000B3D0DF48008820B1DE4890F8230328288F
:104B0000ABDDDD48B0F90000DC4908804FF0130050
:104B1000D6490870DA48B0F900004FF00A0190FB5E
:104B2000F1F0D84909884FEA4101884216DD4FF07B
:104B30001400CE490870D448008838B1CF480088A6
:104B4000A0F1010000B2CD490880C9E1CB4800883E
:104B5000A0F10A0000B2C9490880C1E1C848B0F913
:104B600000000A2190FBF1F1C6480088B1EB400F2C
:104B70001FDAC4480088C0EB0010C149B1F9001029
:104B8000884216DA4FF01500B8490870BE48008810
:104B900038B1BA480088A0F1010000B2B7490880D6
:104BA0009EE1B6480088A0F1030000B2B349088036
:104BB00096E1B4480088C0EB0010B149B1F900108B
:104BC000884215DDAE48B0F900000A2190FBF1F0F3
:104BD000AC49098888420BDD4FF01600A3490870E4
:104BE000A6480088A0F1010000B2A449088077E13E
:104BF0009C48B0F900009C49B1F9001088427EDA67
:104C00004FF0170099490870A048B0F90000A0497A
:104C1000B1F90010A0EB01009349B1F90010A1EB2C
:104C200000009049B1F90010884254DD4FF018009F
:104C30008E4908709248B0F90000002815DA4FF04C
:104C4000190008709048008838B18C48008800F13D
:104C5000010000B28949088042E18848008800F1DB
:104C60000A0000B2854908803AE18648008800EBD6
:104C700080008349B1F90010884216DD4FF01A0018
:104C80007A4908708048008838B17C48008800F173
:104C9000010000B27949088022E17848008800F1DB
:104CA000020000B2754908801AE17648008800EBDE
:104CB00080007349B1F90010B1EB400F97DA4FF063
:104CC0001B006A4908706D48008800F1010000B2BD
:104CD0006A49088004E16D49B1F900106C4AB2F9E3
:104CE0000020891A0846C91700EB91715E4AB2F993
:104CF0000020A2EBA1015B4AB2F9002000E05EE0D7
:104D0000914239DD4FF01C00584908705D48008819
:104D100000EB80005A49B1F90010884216DD4FF0CF
:104D20001D00524908705848008838B1534800881F
:104D300000F1010000B251490880D1E04F480088DD
:104D400000F1020000B24D490880C9E04D480088DA
:104D500000EB80004A49B1F90010B1EB400F0ADACC
:104D60004FF01E00414908704448008800F10100DE
:104D700000B242490880B3E03B48B0F90000401E51
:104D80003849B1F90010884218DD4FF01F0037494B
:104D900008703C48008800EB80003949B1F90010E8
:104DA000B1EB400F0ADA4FF0200030490870334869
:104DB000008800F1010000B23049088090E02948E5
:104DC000B0F900002849B1F90010884222DD4FF007
:104DD0002100264908702D48B0F900002C49B1F98E
:104DE0000010A0EB01002049B1F9001008441D4952
:104DF000B1F90010884216DA4FF022001B49087002
:104E00002148008838B11D480088A0F1010000B297
:104E10001A49088064E019480088A0F10A0000B22D
:104E2000164908805CE01949B1F90010184AB2F936
:104E30000020891A0846C91700EB91710A4AB2F995
:104E4000002002EBA101074AB2F90020914233DAB7
:104E50004FF02300054908700B481BE0A402002016
:104E6000540300204C000020320300207203002075
:104E7000840200201C060020A60200204C03002013
:104E80004E0300205C03002066030020E8000020A1
:104E9000EA000020008838B1FC480088A0F1010039
:104EA00000B2FA4908801BE0F8480088A0F102002F
:104EB00000B2F649088013E0F548B0F90010F54853
:104EC000B0F90000401C81420ADD4FF02400F24995
:104ED0000870EE480088A0F1010000B2EB4908809C
:104EE00040F2FF320021E948FDF73CF9E748B0F90C
:104EF0000000EA490880E548B0F90000E849088068
:104F0000E848008880B9E848008868B1E748B0F907
:104F100000000880E548B0F90000DC490880E3485B
:104F2000B0F90000DD490880DE480088012803D080
:104F3000DC480088022807D1D4480088DC49098869
:104F4000084400B2D64908804FF00000D9490870E3
:104F5000D949087015E0D848007800EBC00101EB92
:104F60000010D64901EB8000C0781E2803DA4FF00C
:104F70000100D0490870D048007800F10100CE4906
:104F80000870CD480078CE49B1F900108842E2DBC4
:104F9000C848007810BB4FF41670C1490880BF495B
:104FA0000880BA490880C748008800EB80004FEAB3
:104FB000400000B2BA490880C248008800EB800077
:104FC0004FEA400000B2B5490880BE48008800EBB7
:104FD00080004FEA400000B2AC490880BA4800881F
:104FE00020B1BA48B0F90000AD490880AE48008849
:104FF00030B1AD480088A0F1010000B2AA49088094
:1050000040F2FF320021A648FDF7ACF84FF0000057
:10501000AF49087010BD10B5AE480088401C00B202
:10502000AC490880AC49B1F90010C1EB0111B0EBFB
:10503000810F7BDBA8480088002877D04FF0000064
:10504000A4490880A54908704870A5490870A54979
:10505000097855291BD1A449B1F90210502916DD50
:10506000A149B1F90800002801DB014600E04142F6
:105070009E4AB2F90020914205DB9B4991F83D1010
:1050800011F0010F03D04FF00100944908709849C6
:105090000978B1B99749B1F90000002801DB014650
:1050A00000E04142914AB2F90020914205DB924969
:1050B00091F83D1011F0010F03D04FF00100884925
:1050C00008708E480078A8B98D48007890B18D4856
:1050D000007818B18B48007802280BD18A480078F4
:1050E00010B98A48007810B18948008810B98948F9
:1050F000007830B14FF00000784908704870784966
:10510000087076480078012807D074484078012854
:1051100003D073480078012804D14FF00A007E497B
:10512000088003E04FF000007B4908807A4800883F
:1051300000287ED078480088A0F1010000B27649AE
:1051400008800846B0F90000052806DD0F231E225E
:105150006421E12000F0DEFA0AE06F48B0F90000B7
:10516000002805DD0F231E226921E12000F0D2FA7C
:1051700069480088052823D15B49B1F90810081E49
:1051800001DB014601E0C0F1000109B2634A118070
:105190005549B1F95410081E01DB014601E0C0F188
:1051A000000109B25D4A51805249B1F90010081E50
:1051B00001DB014601E0C0F1000109B2584A11804B
:1051C00055480088002860D14749B1F90810081EE9
:1051D00001DB014601E0C0F1000109B2514A118032
:1051E0004149B1F95410081E01DB014601E0C0F14C
:1051F000000109B24B4A51803E49B1F90010081E26
:1052000001DB014601E0C0F1000109B2464A11800C
:105210004FF00000454908804048B0F9000041497E
:10522000B1F9001008443149B1F9001088420ADA96
:1052300000E0ABE029480078012804D14FF00A00D3
:105240003A4908800CE02848B0F90200C82807DD78
:105250004FF00000214908700146084601F0BCF8F3
:105260002E48B0F902002F49B1F9021008441F4935
:10527000B1F9001088425BDA18484078012857D10C
:105280004FF00A002949088060E079E04C030020D3
:105290004C0000203203002072030020A6020020F0
:1052A000A40200207A010020B0030020AE030020F9
:1052B000AC03002056030020550300201C060020EC
:1052C0005401002088010020D8040020DA040020C6
:1052D00054030020FE0300200E01002005040020DE
:1052E00007040020B001002038050020FA0000204B
:1052F000BC02002048000020D0050020450000200E
:105300002403002086000020A8020020AA0200201A
:10531000100000200800002000040020C40200202B
:1053200008040020C80200200A0400200204002013
:10533000E748B0F94E00C82808DD4FF00000E54905
:10534000487001464FF0010001F046F8E248B0F91C
:105350000000E249B1F900100844E149B1F9001038
:1053600088420DDADF480078012809D1DE4800883C
:10537000012806D100F0E6FE4FF00000D949087080
:10538000A5E14FF00A00D9490880A0E1D74800887C
:1053900000287ED0D5480088A0F1010000B2D34992
:1053A00008800846B0F90000052806DD0F23C82252
:1053B0006421E12000F0AEF90AE0CC48B0F9000029
:1053C000002805DD0F23C8226921E12000F0A2F9A1
:1053D000C6480088052823D1BD49B1F90810081E28
:1053E00001DB014601E0C0F1000109B2C04A1180B1
:1053F000B749B1F95410081E01DB014601E0C0F1C4
:10540000000109B2BA4A5180BA49B1F90010081E28
:1054100001DB014601E0C0F1000109B2AE4A118092
:10542000B24800880028ABD1A949B1F90810081E7C
:1054300001DB014601E0C0F1000109B2AE4A118072
:10544000A349B1F95410081E01DB014601E0C0F187
:10545000000109B2A84A5180A649B1F90010081EFE
:1054600001DB014601E0C0F1000109B29B4A118055
:105470004FF00000A14908709D48B0F900009E4916
:10548000B1F9001008449649B1F90010884208DAD1
:1054900000E055E08F480078012802D19749087054
:1054A0000CE08B48B0F90200C82807DD4FF000007F
:1054B000884908700146084600F08EFF8C48B0F914
:1054C00002008D49B1F9021008448549B1F9001074
:1054D000884206DA7F484078012802D1874908705F
:1054E0000DE07B48B0F94E00C82808DD4FF0000001
:1054F0007849487001464FF0010000F06DFF764892
:10550000B0F900007549B1F9001008447449B1F9C7
:10551000001088420EDA7348007801280AD17248D8
:105520000088022807D1012000F00CFE4FF0000097
:105530006C490870CBE04FF0010070490870C6E07C
:105540006E48007800287DD00F2300226E21E120D4
:1055500000F0E0F85E49B1F90810081E01DB0146D1
:1055600000E041425E4AB2F9002091420BDD594809
:105570000078012807D14FF0000056490870014615
:10558000084600F029FF5249B1F95410081E01DB0A
:10559000014600E04142524AB2F9002091420CDD3E
:1055A0004C484078012808D14FF000004949487024
:1055B00001464FF0010000F00FFF4E49B1F9001015
:1055C000081E01DB014600E04142454AB2F90020D5
:1055D000914209DD43480078012805D14FF00000D1
:1055E0004049087000F0AEFD3A48007848B93948A3
:1055F000407830B93B48007818B94FF000003F4977
:105600000870E62000F0A4F818B13D480068E728CB
:105610000AD03C48B0F9000000EB80003A49B1F9EB
:105620000010B1EB400F52DA4FF000003349087020
:1056300028480078012817D12948B0F90000400017
:105640000A2100E043E090FBF1F03049B1F900108D
:10565000884209DA1E4890F83D0010F0010F03D18E
:105660000121002000F0B8FE1A484078012815D129
:105670001B48B0F9000040000A2190FBF1F02349DB
:10568000B1F90010884209DA114890F8890010F049
:10569000010F03D10121084600F09EFE1148007859
:1056A000012814D10E48B0F9000040000A2190FBF7
:1056B000F1F01649B1F90010884208DA144890F860
:1056C0003D0010F0010F02D1012000F03BFD10BDA4
:1056D0003805002005040020080400200A040020EA
:1056E000FA000020070400208A01002002040020A4
:1056F000C402002048000020C8020020040400204A
:105700000C040020F200002054000020560000206D
:10571000D005002030B504464FF00005284600BFF4
:1057200000F10105EDB228462D4D2D5C2DB12C4D1B
:105730002D5CA54201D00A28F2DB294D2C54294DBD
:1057400045F82010284D45F82020284D2B5430BD19
:1057500002464FF00000014600BF01F10100C0B257
:1057600001461F48405C904201D00A29F5DB1C48E5
:10577000405C904211D11B4850F821001C4B18602E
:10578000194850F8210058604FF00000144B58544D
:10579000164B58544FF0010070470020FCE70246BA
:1057A0004FF00000014600BF01F10100C0B2014608
:1057B0000B48405C904201D00A29F5DB0848405C68
:1057C00090420AD1074850F82100094B186006485A
:1057D00050F821005860012070470020FCE70000CD
:1057E0001C1700203C1700206417002030170020F1
:1057F0000C04002010B5FBF7CEFBFF48406820F0FA
:105800000F00FD4948600846406840F003004860CA
:105810000846C06820F48070C8604FF0C000FBF7F5
:10582000A7FBF548406820F00F00F34948600846A0
:10583000406840F0030048600846C06840F480704B
:10584000C86010BD70B505460C46FBF7A4FBEA48DE
:10585000406820F00F00E84948600846406840F082
:10586000030048600846C06820F48070C8604FF0AC
:105870000200FBF77DFB2846FBF77AFB2046FBF78F
:1058800077FBDD48406820F00F00DB4948600846A0
:10589000406840F0030048600846C06840F48070EB
:1058A000C860304670BD70B50446FBF774FBD24843
:1058B000406820F00F00D04948600846406840F03A
:1058C000030048600846C06820F48070C8604FF04C
:1058D0007801084602E0A0F1010108460028FAD14B
:1058E0000320FBF745FB2046FBF742FB5520FBF767
:1058F0003FFB0546C048406820F00F00BE494860A5
:105900000846406840F0030048600846C06840F41C
:105910008070C860284670BD70B506460C461546B6
:10592000FBF739FBB448406820F00F00B2494860EB
:105930000846406840F0030048600846C06820F40C
:105940008070C8604FF00500FBF712FB3046FBF794
:105950000FFB2046FBF70CFB2846FBF709FBA6488C
:10596000406820F00F00A44948600846406840F0B5
:10597000030048600846C06840F48070C86070BD8D
:1059800010B5FBF708FB9C48406820F00F009A49CF
:1059900048600846406840F0030048600846C06818
:1059A00020F48070C8604FF00C01084602E0A0F1BE
:1059B000010108460028FAD1A020FBF7D9FA5520AA
:1059C000FBF7D6FA04468C48406820F00F008A495D
:1059D00048600846406840F0030048600846C068D8
:1059E00040F48070C860204610BD10B50446FBF737
:1059F000D2FA8148406820F00F007F49486008468D
:105A0000406840F0030048600846C06820F4807099
:105A1000C8601CB94FF0810004460AE0012C03D194
:105A20004FF08200044604E0022C02D14FF08400C3
:105A300004462046FBF79CFA6F48406820F00F00B0
:105A40006D4948600846406840F0030048600846D9
:105A5000C06840F48070C86010BD10B5FFF7CAFE82
:105A60000E20FFF720FF044604F0E000802804D059
:105A70008022E0210F20FFF74FFF4FF0780108460A
:105A800002E0A0F1010108460028FAD1C3212A2032
:105A9000FFF7D8FEFE212920FFF7D4FE032128209E
:105AA000FFF7D0FE20216020FFF7CCFE20217020E0
:105AB000FFF7C8FE5149084602E0A0F1010108467F
:105AC0000028FAD1FF212020FFF7BCFEFF21212072
:105AD000FFF7B8FEFF210020FFF7B4FEFF210120F1
