:020000040800F2
:10000000D0250020010100080501000807010008B3
:10001000090100080B0100080D01000800000000A4
:100020000000000000000000000000000F010008B8
:10003000110100080000000013010008930A0008E5
:100040001701000817010008170100081701000830
:100050001701000817010008170100081701000820
:100060001701000817010008170100081701000810
:100070001701000817010008170100081701000800
:1000800017010008170100081701000817010008F0
:1000900017010008170100081701000817010008E0
:1000A00017010008170100081701000817010008D0
:1000B00017010008170100081701000817010008C0
:1000C00017010008170100081701000817010008B0
:1000D00017010008117B0008F57C000817010008D3
:1000E000170100081701000817010008DFF80CD0FD
:1000F0000AF01CFC00480047690C0008D0250020CD
:1001000005480047FEE7FEE7FEE7FEE7FEE7FEE7FD
:10011000FEE7FEE7FEE7FEE7ED000008D248806953
:1001200040F00100D0498861D048406820F00400C8
:10013000CE494860CC48806940F00400CA498861D3
:10014000CB48006820F47F60C849C1F8040808461D
:10015000D0F8040840F0B000C1F804080846D0F810
:10016000040840F48060C1F80408BF48806940F486
:100170008040BD49886141F66A00BE4908804FF061
:10018000000001F104010880BB49A1F81008BB4838
:100190000088BA4908804FF00000B749A1F8140858
:1001A0000846B0F80C0840F00C00A1F80C0808460E
:1001B000B0F80C0840F0E000A1F80C08B048008846
:1001C000A1F81008AF480088AE4908804FF0200021
:1001D0004FF0E021C1F80401A748B0F80C0840F442
:1001E0000050A549A1F80C089F48806940F0010023
:1001F0009D4988619D48406820F008009B494860FF
:100200009948806940F00400974988619748D0F880
:10021000000820F47F409549C1F800080846D0F84E
:10022000000840F43060C1F800080846D0F8000823
:1002300040F48040C1F800088B48C06940F40030A9
:100240008949C8614FF075008F4908804FF0000060
:1002500001F1040108804FF04021A1F810048B48FF
:1002600000888A4908804FF000004FF04021A1F833
:1002700014040846B0F80C0440F00C00A1F80C047B
:100280000846B0F80C0440F0E000A1F80C048048E7
:100290000088A1F810047F4800887E4908804FF04C
:1002A00040004FF0E021C1F804014FF04020B0F8C9
:1002B0000C0440F400504FF04021A1F80C047047AA
:1002C00010B500BF4FF012007349086000BF00BFB7
:1002D0007248654948607248086000BF00BF6248C4
:1002E000006810F4003FFAD000BF5F48006810F0CB
:1002F000007FFAD000BF5C48406800F00C0008287E
:10030000F9D100BF00BF4EF65F204FF0E0214861F9
:100310004FF0060008614FF0000088610846006950
:1003200040F00100086100BF00F04EF800BF4E48E9
:10033000806940F400604C4988614FF000005949E1
:10034000088041F26F705849A1F82C0C4FF0000062
:1003500056490880564908805349A1F8040C0846BC
:10036000B0F8000C40F00100A1F8000C00BF00BF85
:100370003D48806940F004003B4988614FF000002F
:100380004C4908604FF440503849C1F804083648D9
:10039000806940F00800344988614748474908604F
:1003A00047483249C1F8040C2F48806940F01000DA
:1003B0002D4988614348444908604FF04000486037
:1003C00000BFFFF7ABFE10BD2748C06940F080506A
:1003D0002549C8610846C06940F00060C8613B48D3
:1003E000006840F48070394908601F48006A40F096
:1003F00001001D49086200BF1B48006A10F0020F8F
:10040000FAD01948006A40F40140174908623048A0
:10041000008840F010002F49A1F804084FF00000B8
:100420002D49088047F6FF7001F1040108804FF064
:1004300000002A4908804FF03C002649A1F8240812
:100440000846B0F8040820F01000A1F8040800BF26
:100450001F48008810F0200FFAD01C48006820F4D4
:1004600080701A4908607047001002400000014087
:100470000408014008380140003001400C380140B8
:100480001038014014380140084400400C4400403A
:100490001044004014440040002002400284110037
:1004A00082000901282C014000200140302C01402D
:1004B000002C014000080140110000EE000C01403A
:1004C0004011810040001101001001400070004007
:1004D0000428004000200040082800402028004058
:1004E00010B50446E0B207F0DFFB002010BD70B588
:1004F00004460D462046FFF7F3FF70BDFF4909880B
:1005000008464FEA00410846FD49B1F81C1801446D
:1005100008469AE04FF01F010A46FA49A0EB010194
:100520000846F949098804290BD0F74909880629A2
:1005300007D0F5490988092903D0F34909880B290F
:1005400002D14FF01E010A46EF490988022913D152
:10055000ED4B1B1F1B8819464FEAE37301EB9373A6
:100560004FEAA303B1EB830303D04FF01C010A460B
:1005700002E04FF01D010A46E4490988914213DA6E
:10058000E349096841F48071E14B1960DF4909884A
:1005900001F10101DF4BA3F80C1CDD49096821F4CE
:1005A0008071DB4B196028E0D949096841F48071FA
:1005B000D74B19604FF00101D44B1980D549B1F8E0
:1005C000081C01F10101D34BA3F8081C1946B1F82E
:1005D000081C0C290BDD4FF00101CB4B1980CD49D4
:1005E000B1F8041C01F10101A3F104031980C84909
:1005F000096821F48071C64B1960C549096841F446
:100600008071C34B1960C449098841F01001BC4B8B
:10061000A3F804184FEA1041B84B1980B84BA3F85F
:100620001C081946B1F8041821F01001A3F80418A9
:1006300000BFB949098811F0200FFAD0B449096800
:1006400021F48071B24B196000BFAE498842BFF6F9
:1006500061AF704710B5B1480088AE49B1F8101CC1
:10066000A0EB010000B204461E2C15DD3C2C13DA71
:10067000AB48008880B9A648006840F48070A4495F
:1006800008604FF00100A6490880A148006820F4E6
:1006900080709F4908603CE00A2C16DD142C14DAA7
:1006A0009F480088012810D19948006840F4807064
:1006B000974908604FF00200994908809448006803
:1006C00020F480709249086023E01E2C21DD3C2C30
:1006D0001FDA9348008802281BD18D48006840F437
:1006E00080708B4908604FF003008D49088088486E
:1006F000006820F48070864908604FF001014FF4D3
:10070000457000F07AFD4FF4707140F2163000F041
:1007100074FD7F48006840F480707D4908607F4820
:1007200000887C49A1F8100C7948006820F480709A
:10073000774908607B48B0F90000B0F57A7F06DAA7
:100740007848008800F1010000B2764908807548B9
:10075000008864280FD16E48006840F480706C49AE
:1007600008604FF000006E4908806948006820F476
:1007700080706749086010BD2DE9F0410646C6F358
:1007800007200746F0B20546012F24D11C2000F0B7
:1007900066FC00B20446112D04D104F1010000B240
:1007A000044613E0122D04D104F10A0000B20446FD
:1007B0000CE0212D04D1A4F1010000B2044605E0B3
:1007C000222D03D1A4F10A0000B2044621461C20C8
:1007D00000F013FD00BFBDE8F0811FB54FF0200011
:1007E000514908705148008800F1010000B24F499A
:1007F00008804D490978884203DD6FF003004B49BA
:1008000008804A48B0F90000002876DB4748B0F974
:100810000000202871DC46480078F0BB4348B0F95E
:10082000000000EBC00101EB0010424901EB800029
:1008300090F835003D49B1F9001001EBC10202EB1F
:1008400001113C4A02EB810191F83410374AB2F9A8
:10085000002002EBC20303EB0212364B03EB8202D1
:1008600092F83120314BB3F9003003EBC30404EBB1
:100870000313304C04EB830393F83030CDE900329E
:10088000CDE902102948B0F9000000EBC00101EBEE
:100890000010214601EB800000E00BE090F82C00F6
:1008A0000346ED2221480088C1B220480088C0B22A
:1008B00005F0D8FD1D48B0F9000020287DDC1B485C
:1008C000B0F9000000EBC00101EB0010194901EB89
:1008D0008000C0783C2838DA1448B0F9000000EBFA
:1008E000C00101EB0010134901EB8000C07800F15A
:1008F00001000E49B1F900101EE07EE0182800400A
:100900000020004080510100086C00400C6C004049
:100910000070004000600040042800401C28004097
:10092000146C004096020020840000208200002009
:10093000850000203C06002001EBC10202EB011102
:10094000FF4A02EB8101C8700CE04FF03C00FD490A
:10095000B1F9001001EBC10202EB0111F84A02EB00
:100960008101C870F748B0F9000000EBC00101EB4D
:100970000010F34901EB8000C078032826DBF14822
:10098000B0F9000000EBC00101EB0010EC4901EBF5
:1009900080000079032819DAEA48B0F9000000EB7A
:1009A000C00101EB0010E64901EB8000407900F145
:1009B0000100E449B1F9001000E067E001EBC10279
:1009C00002EB0111DE4A02EB81014871DD48B0F90A
:1009D000000000EBC00101EB0010D94901EB8000E1
:1009E000C078D849B1F9001001EBC10202EB011146
:1009F000D34A02EB810108714AE0D248B0F9000005
:100A0000001D45D0CF48B0F90000401C40D0CD4873
:100A100000880C2816D1CC480078B8BB0023CB48FE
:100A20004078CA490978CA4A5278CDE90203CDE92B
:100A30000021C748007803466222FF21084605F0DE
:100A400011FD25E0BF4800880D2821D0BD48008851
:100A50000E281DD0BB4800880F2818D1BA4800784E
:100A6000A0B9BC480088C2B2BB484078BA490978EE
:100A7000BA4B5B78CDE90031CDE90202B748007886
:100A800003462622FF21084605F0ECFC00E000BFEB
:100A90001FBD4FF00100B2490870B248806810F0E5
:100AA0000200B049886004D04FF00100AE490870E0
:100AB00003E04FF00000AC490870AB480078AB4948
:100AC0000978884206D0AA48008800F1010000B2E7
:100AD000A7490880A4480078A4490870A548007870
:100AE000401CC0B2A3490870142806DB4FF0000078
:100AF00008704FF00100A0490870A0480078401C21
:100B0000C0B29E4908700A287EDB4FF000000870D2
:100B10004FF001009A4908709A48007800F10100EE
:100B2000C0B2984908700A2806DB4FF00000087030
:100B30004FF001009449087094480078401CC0B2FE
:100B400092490870142812DB4FF0000008704FF033
:100B500001008F4908708F48007820B14FF00000E5
:100B60008C49087003E04FF001008A4908708A48F8
:100B70000078401CC0B288490870322812DB4FF060
:100B8000000008704FF00100844908708448007824
:100B900020B14FF000008249087003E04FF00100DF
:100BA0007F4908707F480078401CC0B27D490870BA
:100BB000642820DB4FF0000008704FF001007A49F4
:100BC00008707A48007820B14FF00000774908702B
:100BD00003E04FF00100754908707548B0F9000056
:100BE00042F21071884206DA7148008800F1010073
:100BF00000B26F4908806F48008800F1010000B220
:100C00006C490880084600E010E0B0F90000B0F53B
:100C1000FA7F0BDB4FF0000008805548B0F9000068
:100C2000654908804FF0000051490880634800780A
:100C300006280EDA6148007800F101005F4908706B
:100C40000846007806280EDB4FF001005C4908706A
:100C500009E05A480078062805DD4FF000005749A2
:100C600008705749087070471FB5FFF729FB00F05F
:100C700088F94FF001005349087006F04FFE00F06C
:100C80009BFB00F0B2FB5049096801EB8101490070
:100C9000084606F045FE6421102000F0AEFA01F08F
:100CA000E9FC05F03CFBFFF7D5FCFFF727FC18E15A
:100CB0002B48007828B14FF000002949087005F052
:100CC00043FC2F48007828B14FF000002C490870F1
:100CD000FFF783FD2C48007870B34FF000002A49DD
:100CE000087001F008FC06F00FFD03F04BFC03F068
:100CF0000CFA04F0A3F94FF00000044606E0204689
:100D000002F0CDFE04F10100C0B204462F48B0F954
:100D100000008442F3DB02F0E9FB01F089FB01F003
:100D200094FB04F038F904F0E9F803F005FF05F04E
:100D300029F903F007FB00BF1548007848E00000E0
:100D40003C060020820000208500002012010020C7
:100D5000E60000200A010020EE000020EC00002048
:100D60001A0000200010014036000020370000204B
:100D70003A000020140000201C0000201500002074
:100D80001B000020160000201E000020170000207D
:100D90001F00002023000020180000202000002059
:100DA00022000020190000201D000020210000204A
:100DB000260000203C00002038000020CA0400204B
:100DC000CB040020B00200200400002054010020C9
:100DD00000B34FF000004349087000F006FB4FF0ED
:100DE00003004149088002F044F93F480088C0B23E
:100DF0003E4949783D4A12783D4B5B78CDE9003257
:100E0000CDE902103A48007803462622FF21084621
:100E100005F028FB3748007828B14FF0000035492D
:100E2000087001F079FC3448007800283BD04FF07E
:100E300000003149087003F0DDF904F025FD2F486A
:100E4000007800F101002D4908702D48B0F900002C
:100E50002C4909782C4A12782C4BB3F90030CDE993
:100E60000032CDE902102A48B0F900302948B0F923
:100E700000202948B0F90010284809F087FD2848CB
:100E800090F900302748B0F900202748B0F9001049
:100E900026A009F07BFD01F063F906F09BFCFFF74B
:100EA000D9FB03F034FC2748007828B14FF000004C
:100EB0002449087008F036F92348007828B14FF02B
:100EC00000002149087009F08FFB2048007840B1EC
:100ED0004FF000001D4908701D4801781DA009F061
:100EE00055FDE5E61F0000200A010020EE0000206D
:100EF000EC000020200000201D000020B102002096
:100F00009C010020980200204200002032000020B6
:100F1000300000202E0000202A00002058AD0008DC
:100F200041000020F6000020340000202533643BFF
:100F3000202533643B202533643B202533643B0D5F
:100F40000A000000CB04002037040020BB02002070
:100F5000BA02002025643B0D0A000000014600BFD4
:100F6000FF48008810F0020FFAD0FE48018000BF51
:100F7000FB48008810F0010FFAD0FA480088C0B290
:100F80007047F948C06940F08050F749C861084689
:100F9000806940F0190088610846C06940F48040CB
:100FA000C861F2484068F1494860F148006880B281
:100FB000C1F8040CEE480068EE4940EA0100EB4934
:100FC000C1F8040CEC48406820F47060EA494860BD
:100FD0000846406840F44070486040F26F30E7498E
:100FE00008804FF00000E649A1F804087047DE4889
:100FF000C06920F48060DC49C861704700B5FFF724
:10100000C0FFDD48C06820F48060DB49C8604FF055
:101010000600FFF7A3FFD848C06840F48060D649B7
:10102000C860FFF7E4FF00BD00B5FFF7AAFFD24894
:10103000C06820F48060D049C8604FF00500FFF719
:101040008DFFFF20FFF78AFF0246CB48C06840F4BF
:101050008060C949C860FFF7CAFF104600BD11B5DE
:1010600000BFFFF7E1FF10F0010FFAD1FFF789FF92
:10107000C148C06820F48060BF49C8604FF00300D9
:10108000FFF76CFF9DF8010004462046FFF766FF5E
:101090009DF8000004462046FFF760FFFF20FFF7A1
:1010A0005DFF04464FF0FF00FFF758FF03464FEA8D
:1010B0000320034603EB04000346AF48C06840F436
:1010C0008060AD49C8600846C06840F48060C86070
:1010D000FFF78DFF184618BD71B500BFFFF7A4FFDD
:1010E00010F0010FFAD1FFF74CFFA348C06820F4BD
:1010F0008060A149C8604FF00300FFF72FFF9DF803
:10110000010004462046FFF729FF9DF80000044631
:101110002046FFF723FFFF20FFF720FF04464FF094
:10112000FF00FFF71BFF06464FF0FF00FFF716FF1B
:1011300005464FF0FF00FFF711FF03464FEA03207B
:10114000034603EB050003464FEA0320034603EB87
:10115000060003464FEA0320034603EB0400034660
:101160008548C06840F480608349C8600846C0680C
:1011700040F48060C860FFF73AFF184678BD13B5A9
:101180000B4600BFFFF750FF10F0010FFAD1FFF739
:10119000F8FE7948C06820F480607749C8604FF055
:1011A0000300FFF7DBFE9DF8010004462046FFF731
:1011B000D5FE9DF8000004462046FFF7CFFEFF2035
:1011C000FFF7CCFE1870FF20FFF7C8FE5870FF2015
:1011D000FFF7C4FE9870FF20FFF7C0FED870664886
:1011E000C06840F480606449C8600846C06840F444
:1011F0008060C860FFF7FBFE1CBD03B500BFFFF7B2
:1012000013FF10F0010FFAD1FFF7F8FEFFF7B9FE58
:101210005948C06820F480605749C8604FF0020008
:10122000FFF79CFE9DF8010003461846FFF796FE67
:101230009DF8000003461846FFF790FE9DF8040055
:1012400003461846FFF78AFE9DF805000346184638
:10125000FFF784FE4848C06840F480604649C86093
:101260000846C06840F48060C860FFF7C0FE1846BA
:101270000CBD03B500BFFFF7D7FE10F0010FFAD188
:10128000FFF7BCFEFFF77DFE3B48C06820F480609E
:101290003949C8604FF00200FFF760FE9DF8010079
:1012A00003461846FFF75AFE9DF80000034618460D
:1012B000FFF754FE9DF8040003461846FFF74EFE64
:1012C0009DF8050003461846FFF748FE9DF8060006
:1012D00003461846FFF742FE9DF8070003461846EE
:1012E000FFF73CFE2448C06840F480602249C86093
:1012F0000846C06840F48060C860FFF778FE184672
:101300000CBD13B50B4600BFFFF78EFE10F0010FAA
:10131000FAD1FFF773FEFFF734FE1748C06820F4D8
:1013200080601549C8604FF00200FFF717FE9DF876
:10133000010004462046FFF711FE9DF80000044618
:101340002046FFF70BFE187804462046FFF706FEFE
:10135000587804462046FFF701FE9878044611E0CD
:10136000083800400C3800400010024000000140E6
:10137000040C01400000B3B80010014000380040E8
:10138000003000402046FFF7E9FDD87804462046AB
:10139000FFF7E4FD0748C06840F480600549C86075
:1013A0000846C06840F48060C860FFF720FE204611
:1013B0001CBD00000010014010B50420FFF74FFED7
:1013C000A0F5905134390FD001214FF44570FFF74B
:1013D00014FF4FF4707140F21630FFF70EFF41F228
:1013E00034210420FFF709FF10BD10B51020FFF7CE
:1013F00036FE00B2FF4908801220FFF730FE00B22F
:10140000FC4948802C20FFF72AFE00B2FA490880E8
:101410002E20FFF724FE00B2F74948801420FFF782
:101420001EFEF64908801620FFF719FEF349488092
:101430001820FFF714FE00B2F14908801A20FFF7C8
:101440000EFE00B2EE4948801C20FFF708FE00B2F5
:10145000EC4908801E20FFF702FE00B2E9494880EF
:101460002020FFF7FCFD00B2E74908802420FFF7A9
:10147000F6FD00B2E54908802620FFF7F0FD00B236
:10148000E34908802820FFF7EAFD00B2E0494880E0
:101490002A20FFF7E4FD00B2DD4988803C20FFF7F9
:1014A000DEFD00B2DB4908803E20FFF7D8FD00B228
:1014B000D94908804020FFF7D2FD00B2D749088003
:1014C0004220FFF7CCFD00B2D54908804420FFF749
:1014D000C6FD00B2D3490880A620FFF7C0FD00B2C8
:1014E000D1490880A820FFF7BAFD00B2CE49488054
:1014F000AA20FFF7B4FD00B2CB4988807620FFF721
:10150000AEFD00B2C94908807820FFF7A8FD00B2FF
:10151000C74908807A20FFF7A2FD00B2C5490880BC
:101520007C20FFF79CFD00B2C34908807E20FFF7B6
:1015300096FD00B2C1490880C620FFF790FD00B2B9
:10154000BF490880C820FFF78AFD00B2BD49088066
:101550008220FFF784FD00B2BB4908808420FFF79A
:101560007EFD00B2B94908804FF48270FFF777FD25
:1015700000B2B74908808620FFF771FD00B2B54977
:1015800008808820FFF76BFD00B2B3490880DE2099
:10159000FFF765FD00B2B14908804FF4D270FFF744
:1015A0005EFD00B2AE4908804FF4D370FFF757FDDF
:1015B00000B2AC4908808C20FFF751FD00B2AA4967
:1015C00008808E20FFF74BFD00B2A84908809020CC
:1015D000FFF745FD00B2A64908804FF4AD70FFF754
:1015E0003EFD00B2A34908804FF4C470FFF737FDF9
:1015F00000B2A14908804FF4C570FFF730FD00B27A
:101600009E4908804FF4C670FFF729FD00B29C493F
:1016100008804FF4C770FFF722FD00B29949088097
:101620004FF4C870FFF71BFD00B2974908804FF4D4
:10163000CB70FFF714FD00B2944908804FF4CC70D2
:10164000FFF70DFD00B2924908804FF4CD70FFF70F
:1016500006FD00B28F4908804FF4CE70FFF7FFFC03
:1016600000B28D4908804FF4CF70FFF7F8FC00B24C
:101670008A4908804FF4D070FFF7F1FC00B2884926
:1016800008804FF4D170FFF7EAFC00B2854908806A
:101690004FF4B270FFF7E3FC00B283490880922058
:1016A000FFF7DDFC00B2814908809420FFF7D7FCEA
:1016B00000B27F4908809620FFF7D1FC00B27D4937
:1016C00008809820FFF7CBFC00B27B4908804FF4DC
:1016D0009B70FFF7C4FC00B2784908809A20FFF79E
:1016E000BEFC00B2764908800F220021744800F049
:1016F0002BFD4FF41770FFF7B2FC00B27149088060
:1017000040F25E20FFF7ABFC00B26F49088040F268
:101710006620FFF7A4FC00B26C4908804FF41A70F1
:10172000FFF79DFC00B26A49088066480088664958
:101730000988084400B2674908804FF41B70FFF71E
:101740008EFC00B2644908804FF48850FFF787FC94
:1017500000B26249088041F20210FFF780FC00B23B
:101760005F4908808020FFF77AFC00B25D4908805D
:10177000C420FFF774FC00B25B490880CA20FFF761
:101780006EFC00B259490880CC20FFF768FC00B21B
:1017900057490880CE20FFF762FC00B25549088007
:1017A0004FF41970FFF75BFC00B25349088040F218
:1017B0006A20FFF754FC00B250490880D020FFF7A0
:1017C0004EFC00B24E490880D220FFF748FC00B220
:1017D0004C490880D420FFF742FC00B24A490880F7
:1017E000D620FFF73CFC00B248490880D820FFF71C
:1017F00036FC8DE0B8000020BC000020C0000020B6
:10180000C4000020C8000020CC000020DA00002026
:10181000CE000020DC000020DE000020E0000020E0
:10182000E20000200E000020D4000020E400002090
:10183000E6000020E8000020EA000020EC00002084
:10184000EE00002012010020F2000020F400002031
:10185000F6000020F8000020FA000020FC00002024
:10186000FE000020100000200001002002010020E6
:101870000401002092010020980100209A0100201C
:10188000A2010020A4010020A6010020A801002040
:10189000AA010020AC010020AE010020B001002010
:1018A000B2010020B40100209401002006010020B4
:1018B000080100200A0100205401002052010020EC
:1018C000560100205A010020580100205E0100202E
:1018D000600100205C0100206401002066010020FE
:1018E00068010020F00000201001002014010020F9
:1018F00016010020180100201A0100201C01002000
:101900001E010020200100202201002024010020CF
:1019100000B2FF490880DA20FFF7A1FB00B2FD49C1
:101920000880DC20FFF79BFB00B2FB490880E22027
:10193000FFF795FB00B2F9490880E420FFF78FFB21
:1019400000B2F7490880FE20FFF789FB00B2F54995
:1019500008804FF48070FFF782FB00B2F2490880E4
:10196000E620FFF77CFBF1490870E820FFF777FBE2
:10197000EF490870EA20FFF772FBEE490870EC208F
:10198000FFF76DFB00B2EC490880EE20FFF767FB24
:1019900000B2EA490880F020FFF761FB00B2E84995
:1019A00008804FF4B670FFF75AFB00B2E549088093
:1019B000F220FFF754FB00B2E3490880F420FFF760
:1019C0004EFB00B2E1490880F620FFF748FB00B269
:1019D000DF490880F820FFF742FB00B2DD490880AC
:1019E000FA20FFF73CFB00B2DB490880FC20FFF740
:1019F00036FB00B2D94908804FF48170FFF72FFB06
:101A000000B2D74908804FF48B70FFF728FB00B273
:101A1000D44908804FF48C70FFF721FB00B2D24903
:101A200008804FF48D70FFF71AFB00B2CF49088091
:101A30004FF48E70FFF713FB00B2CD4908804FF4CE
:101A40009070FFF70CFB00B2CA4908804FF4917008
:101A5000FFF705FB00B2C84908804FF48F70FFF70D
:101A6000FEFA00B2C54908804FF4E770FFF7F7FAB5
:101A700000B2C34908804FF49270FFF7F0FA00B249
:101A8000C04908804FF49370FFF7E9FA00B2BE49ED
:101A900008804FF49570FFF7E2FA00B2BB49088066
:101AA0004FF49670FFF7DBFA00B2B94908804FF4A3
:101AB0009770FFF7D4FA00B2B64908804FF49870D7
:101AC000FFF7CDFA00B2B44908804FF49C70FFF7DD
:101AD000C6FA00B2B14908804FF49D70FFF7BFFA13
:101AE00000B2AF4908804FF4B770FFF7B8FA00B200
:101AF000AC4908804FF4B870FFF7B1FA00B2AA49B8
:101B000008804FF4BA70FFF7AAFA00B2A74908801C
:101B10004FF4B970FFF7A3FA00B2A54908804FF45B
:101B2000BB70FFF79CFA00B2A24908804FF4BC706A
:101B3000FFF795FA00B2A04908804FF4BD70FFF797
:101B40008EFA00B29D4908804FF4BE70FFF787FA05
:101B500000B29B4908804FF4BF70FFF780FA00B2D3
:101B6000984908804FF4C070FFF779FA00B296499F
:101B700008804FF4C170FFF772FA00B293490880F1
:101B80004FF4C270FFF76BFA00B2914908804FF42E
:101B9000C370FFF764FA00B28E4908804FF4E97011
:101BA000FFF75DFA8C4908704FF4F870FFF757FAA9
:101BB000894948704FF000008849088086480078BD
:101BC000552805D10846008800F1010000B20880C0
:101BD00081484078552806D18048008800F10100EE
:101BE00000B27E4908804FF4EA70FFF738FA00B27D
:101BF0007B4908804FF4EB70FFF731FA00B2794966
:101C000008804FF4EC70FFF72AFA00B2764908809A
:101C10004FF4ED70FFF723FA00B2744908804FF4D7
:101C2000F170FFF71CFA00B2714908804FF4EE70B2
:101C3000FFF715FA00B26F4908804FF4F970FFF70B
:101C40000EFA00B2664948804FF4FA70FFF707FABF
:101C500000B2644948804FF4FB70FFF700FA00B20D
:101C6000614948804FF4FC70FFF7F9F900B25F4911
:101C7000488040F20220FFF7F2F900B25C49488048
:101C80004FF4FD70FFF7EBF900B25A4948804FF46A
:101C90004670FFF7E4F900B257490880A020FFF72B
:101CA000DEF956490870A220FFF7D9F954490870A7
:101CB000A420FFF7D4F900B252490880C020FFF7F2
:101CC000CEF900B250490880C220FFF7C8F900B22F
:101CD0004E4908804FF4AA70FFF7C1F94C490880BB
:101CE0004FF4AB70FFF7F8F94A4908604FF4AC7055
:101CF000FFF7F2F9484908604FF40170FFF7AFF9B8
:101D000000B24649088040F20620FFF7A8F987E0B4
:101D100026010020280100202A0100202C0100209B
:101D20002E0100203001002032010020340100206B
:101D30003E0100203F010020380100203A01002030
:101D4000360100203C01002040010020420100201B
:101D500044010020460100204801002062010020CB
:101D60004A01002056000020580000205A000020A0
:101D70005C000020680000206A0000205E00002057
:101D8000700000204C0100204E0100206A0100205C
:101D90006C0100206E010020700100207201002003
:101DA0007401002076010020780100207A010020D3
:101DB0007C010020280000207E01002080010020FE
:101DC000820100208401002086010020880100207B
:101DD0008A0100208C010020B60100205001002063
:101DE000B8010020BC010020C0010020CC0100206F
:101DF000C4010020C8010020620200208E010020E2
:101E00008F010020900100200C0100200E01002015
:101E1000D0010020D4010020E4010020F8010020BE
:101E200000B2AA4908804FF40270FFF718F900B217
:101E3000A749088040F20A20FFF711F900B2A5492E
:101E400008804FF40370FFF70AF900B2A249088036
:101E500040F20E20FFF703F900B2A04908804FF4CA
:101E60000470FFF7FCF800B29D49088040F2122090
:101E7000FFF7F5F800B29B4908804FF40D70FFF7AB
:101E8000EEF800B29849088040F23620FFF7E7F8F4
:101E900000B2964908804FF40E70FFF7E0F800B2E8
:101EA0009349088040F23A20FFF7D9F800B29149EF
:101EB00008804FF40F70FFF7D2F800B28E49088007
:101EC00040F23E20FFF7CBF800B2874948804FF43C
:101ED0001070FFF7C4F800B28449488040F24220F5
:101EE000FFF7BDF800B2824948804FF41170FFF748
:101EF000B6F800B27F49488040F24620FFF7AFF8BD
:101F000000B27D4948804FF41270FFF7A8F800B284
:101F10007549888040F24A20FFF7A1F800B2734962
:101F200088804FF41370FFF79AF800B270498880E8
:101F300040F24E20FFF793F800B26E4988804FF4CC
:101F40001470FFF78CF800B26B49888040F2522081
:101F5000FFF785F800B26449C8804FF41570FFF7A9
:101F60007EF800B26149C88040F25620FFF777F84A
:101F700000B25F49C8804FF41670FFF770F800B2E6
:101F80005C49C88040F25A20FFF769F800B25A490C
:101F9000C880E020FFF763F800B258490880BA20F3
:101FA000FFF75DF856490870AC20FFF758F855491F
:101FB0000880AE20FFF753F853490880B020FFF7A0
:101FC0004EF852490880B220FFF749F8504908807E
:101FD000B420FFF744F84F490880B620FFF73FF8D8
:101FE0004D49088008460088002803DD084600881F
:101FF0000D2803DB4FF0000047490880B820FFF7A9
:102000002EF8464908804FF44570FFF728F800B2D3
:102010004349088040F21630FFF721F84149086033
:102020004FF4AE70FFF71BF800B23F4908804FF441
:10203000AF70FFF714F800B23C4908804FF4B0705D
:10204000FFF70DF800B23A4908804FF4B370FFF77C
:1020500006F800B2374908804FF0000403E004F1AD
:102060000100C0B20446402CF9DB4FF000000446EA
:1020700003E004F10100C0B204460A2CF9DB4FF082
:102080000000044603E004F10100C0B20446402C05
:10209000F9DB4FF42770FEF7E2FF00B22649088013
:1020A00040F29A20FEF7DBFF00B22449088040F29C
:1020B0009E20FEF7D4FF00B2214908804FF428701B
:1020C000FEF7CDFF00B21F49088010BDFE010020C1
:1020D000040200200A020020100200201602002044
:1020E0001C020020220200202802002030020020D2
:1020F0003802002040020020480200206002002038
:10210000500200205E0200205202002054020020F3
:1021100056020020580200205A0200205C020020D3
:1021200000000020040000209C0100209E010020EF
:10213000A001002096010020A0000020A2000020A5
:10214000A4000020A6000020B0F900308B4200DA85
:102150000180B0F90030934200DD0280704700003A
:10216000FC49098839B1FB490988A1F1010109B28B
:10217000F84A118070474FF00501F64A11804FF080
:102180000001F54A117008461CE000EBC00101EBAC
:102190000011F24A02EB8101897801290ED100EB8E
:1021A000C00101EB001102EB8101C978142905DAA5
:1021B000E949097801F10101E74A117000F10101D3
:1021C000C9B20846E649B1F900108842DDDBE549AD
:1021D000097821B14FF00001E24A117003E04FF09D
:1021E0000101E04A1170DC490978022900DAC1E7EF
:1021F00041F28831DC4A11604FF00001DB4A116086
:10220000DB4A1160084645E000EBC00101EB00111C
:10221000D24A02EB81018978012937D100EBC00154
:1022200001EB001102EB8101496AD04A1268914228
:1022300009DD00EBC00101EB0011C84A02EB81018E
:10224000496ACA4A116000EBC00101EB0011C34AA0
:1022500002EB8101496AC44A1268914209DA00EB33
:10226000C00101EB0011BD4A02EB8101496ABE4A7F
:10227000116000EBC00101EB0011B84A02EB8101D3
:10228000496ABB4A12681144B94A116000F1010160
:10229000C9B20846B249B1F900108842B4DBB4496A
:1022A0000968AD4A127891FBF2F1B24A1160AE4969
:1022B000096819B94FF00101AB4A1160AB490968CF
:1022C000AD4A1160114609684FF0640201FB02F14A
:1022D000A94A116011460968A34A126891FBF2F1FC
:1022E000A54A116011460968822903DD4FF00101FA
:1022F000A24A1170A04909686E2903DA4FF0000163
:102300009E4A11709D49097801297ED14FF0000144
:10231000084684E000EBC00101EB00118F4A02EB9C
:1023200081018978012976D100EBC00101EB001110
:1023300002EB8101496A8F4A1268914217DD89498F
:102340000978A1B900EBC00101EB0011834A02EB4F
:102350008101B1F85410A1F1010109B200EBC002F2
:1023600002EB00127D4B03EB8202A2F8541000EB4B
:10237000C00101EB0011794A02EB8101496A7D4AF3
:102380001268914217DA77490978A1B100EBC001D0
:1023900001EB0011714A02EB8101B1F8541001F117
:1023A000010109B200EBC00202EB00126B4B03EB20
:1023B0008202A2F8541000EBC00101EB0011674A41
:1023C00002EB8101B1F9541011F1320F0ADA6FF00A
:1023D000310100EBC00202EB0012604B03EB820202
:1023E000A2F8541000EBC00101EB00115B4A02EBB4
:1023F0008101B1F9541032290DDD4FF0320100EBAB
:10240000C00202EB0012554B01E00EE003E003EBCB
:102410008202A2F8541000F10101C9B208465049E5
:10242000B1F900108842FFF675AF00BF00BFA1E60A
:102430004FF0000052490870524908705249087024
:102440004FF001005149087070475148007800F181
:1024500001004F4908700846007800F00F0008702E
:1024600049480078012806D14A48C06820F0400059
:102470004849C86005E04748C06840F04000454909
:10248000C86040480078012807D14348006820F41C
:1024900080504249C1F80C0C06E03F48006840F407
:1024A00080503E49C1F80C0C35480078012807D10E
:1024B0003948006820F400603849C1F80C0C06E087
:1024C0003548006840F400603449C1F80C0C2F48CE
:1024D0000078012807D13048006820F480602F4937
:1024E000C1F80C0C06E02C48006840F480602B49D1
:1024F000C1F80C0C704730B5294B1B68294C2A4D8C
:102500002D7804EB4514294D2D7824F81530264BF1
:102510001B7803F10103244C237023461B78082BFE
:1025200070DB4FF000032370204B1B7803F1010395
:102530001E4C237023461B78102B04DB4FF0000346
:1025400023701B4C23701A4B1B7813B14FF0000003
:1025500056E058E0CE020020EE0300203C060020AA
:1025600054010020EF030020DC030020D8030020EA
:10257000E0030020E4030020E8030020EC03002037
:10258000AE020020AD020020AC020020AF0200200D
:10259000DE020020001001400C0C01400000014050
:1025A0004C240140DC150020EC020020ED0200204C
:1025B000C00200204FF000031A4619460AE0FA4B09
:1025C00003EB401333F8113013441A4601F10103B1
:1025D000DBB21946F54B1B789942F0DBF34B1B78C5
:1025E0003BB1F24B1B7892FBF3F3F14C24F8103023
:1025F00002E0EF4C24F8102000F10103DBB2184692
:102600000828D7DB1FE04FF000001AE04FF000036E
:102610001A4619460AE0E44B03EB401333F8113035
:1026200013441A4601F10103DBB219461029F2DB0B
:10263000C2F30F13DE4C24F8103000F10103DBB2BB
:1026400018460828E2DBDB4B1B6823F4A003DA4CB6
:10265000C4F80834D94BDA4C247853F82430D64CDB
:10266000C4F834342346D3F8083443F4A003D14CDF
:10267000236030BD4FF00000D1490870D148806917
:1026800040F40070CF4988614FF00000CE490860E7
:10269000CA48CB49097850F82100C749C1F8340429
:1026A0004FF48070C9490860C948C349C1F808049B
:1026B0000846D0F8080440F4A000C1F808047047A8
:1026C0004FF00000C3490870C34908704FF0010083
:1026D000C249087070474FF00000C1490870C149F5
:1026E00008704FF00100C049087070474FF00000BB
:1026F000BE490870BE4908704FF00100BD4908701E
:1027000070474FF00000BC490870BC4908704FF09A
:102710000100BB49087070471FB5BA480078401CDB
:10272000C0B2B8490870042802DB4FF000000870FE
:10273000B548007878B1B5480078A0F1010000EB09
:10274000C00101EB0010B24901EB8000C06900B28A
:10275000B049088037E0B048007878B1AF480078D9
:10276000A0F1010000EBC00101EB0010A84901EB52
:102770008000006A00B2AA49088024E0A9480078D5
:1027800078B1A9480078A0F1010000EBC00101EB8D
:1027900000109F4901EB8000406A00B2A349088005
:1027A00011E0A348007870B1A2480078A0F10100C0
:1027B00000EBC00101EB0010954901EB8000806A3D
:1027C00000B29D4908809348B0F900009B49B1F9D7
:1027D0000010401A42F2107148438E49098819B11D
:1027E0008C49B1F9001001E04FF0010190FBF1F0CC
:1027F000934908604FF001007749087090480068DD
:10280000002802DA4FF0FF0008707248007818B90B
:10281000714800786F4908708148B0F90000894913
:10282000B1F90010401A42F2107148437C490988FE
:1028300019B17B49B1F9001001E04FF0010190FBA3
:10284000F1F0814908604FF00100664908707E4848
:102850000068002802DA4FF0FF0008706048007836
:1028600018B9604800785E4908707048B0F90000F7
:102870007649B1F90010401A42F2107148436B4991
:10288000098819B16949B1F9001001E04FF001015F
:1028900090FBF1F06E4908604FF001005449087058
:1028A0006B480068002802DA4FF0FF0008704F48BC
:1028B000007818B94E4800784C4908705E48B0F965
:1028C00000006449B1F90010401A42F21071484307
:1028D0005949098819B15849B1F9001001E04FF080
:1028E000010190FBF1F05C4908604FF001004349A1
:1028F000087059480068002802DA4FF0FF0008709D
:102900003D48007818B93D4800783B490870334885
:10291000007802282DD14A490968081E01DB0146CA
:1029200000E0414205290CDA4FF0000036490870FA
:102930003649087049494A4AB2F9002021F8120084
:1029400028E03F480068002807DD4648007820B9A5
:102950004FF00400444908701CE039480068002822
:1029600018DA40480078A8B94FF002003E490870D4
:1029700010E033480068002804DD4FF005003A49B4
:10298000087007E02E480068002803DA4FF00300C3
:102990003549087014480078022867D12A49096827
:1029A000081E64DB014663E0DC150020ED02002018
:1029B0001C1700200824014000200140A4AD00089D
:1029C000EC020020001002402C24014004240140AD
:1029D00003000E00340300203003002038030020E1
:1029E0003503002031030020390300203603002086
:1029F000320300203A030020370300203303002075
:102A00003B030020FF0200200003002014030020ED
:102A10003C060020040300200103002015030020D1
:102A200006030020020300201603002008030020F4
:102A300003030020170300200A0300200C030020DA
:102A4000200300200E030020240300201003002098
:102A500028030020120300202C030020FC04002087
:102A6000EA040020F00200203C03002027E041425D
:102A700005290CDA4FF00000F7490870F749087093
:102A8000F749F84AB2F9002021F8120028E0F64888
:102A90000068002807DDF548007820B94FF00400F1
:102AA000F34908701CE0F0480068002818DAEF4885
:102AB0000078A8B94FF00200ED49087010E0EA482C
:102AC0000068002804DD4FF00500E949087007E0C0
:102AD000E5480068002803DA4FF00300E449087075
:102AE000E448007802282ED1E3490968081E01DB7A
:102AF000014600E0414205290DDA4FF00000DF49B0
:102B00000870DF4908700146D548DE4AB2F9002056
:102B100020F8121028E0D8480068002807DDD348C4
:102B2000007820B94FF00400D74908701CE0D24863
:102B30000068002818DACD480078A8B94FF00200E4
:102B4000D149087010E0CC480068002804DD4FF03F
:102B50000500CD49087007E0C7480068002803DA7F
:102B60004FF00300C8490870C848007802282ED1E9
:102B7000C7490968081E01DB014600E041420529FA
:102B80000DDA4FF00000C3490870C34908700146D0
:102B9000B348C24AB2F9002020F8121028E0BC481D
:102BA0000068002807DDB148007820B94FF0040024
:102BB000BB4908701CE0B6480068002818DAAB482A
:102BC0000078A8B94FF00200B549087010E0B0488D
:102BD0000068002804DD4FF00500B149087007E0E7
:102BE000AB480068002803DA4FF00300AC490870D6
:102BF000AC48007848B1AC480078AC4909788842C4
:102C000003D04FF00200AA490870A7480078A749EE
:102C100008709148007848B1A6480078A64909781C
:102C2000884203D04FF00200A4490870A148007800
:102C3000A14908709148007848B1A1480078A1499D
:102C40000978884203D04FF002008A4908709C48F6
:102C500000789C4908708F48007848B19A480078FD
:102C60009A490978884203D04FF0020087490870DA
:102C7000954800789549087095480078012804D156
:102C80004FF000009349087034E091480078022822
:102C900004D14FF001008F4908702BE08C48007878
:102CA000032804D14FF002008A49087022E08848C6
:102CB0000078042804D14FF003008649087019E019
:102CC00083480078052804D14FF00400814908703A
:102CD00010E07F480078062804D14FF005007D49B8
:102CE000087007E07A480078072803D14FF0060003
:102CF0007849087059480078012804D14FF0000045
:102D00007549087034E055480078022804D14FF026
:102D10000100714908702BE050480078032804D165
:102D20004FF002006C49087022E04C4800780428FB
:102D300004D14FF003006849087019E04748007853
:102D4000052804D14FF004006349087010E043489F
:102D50000078062804D14FF005005F49087007E0AD
:102D60003E480078072803D14FF006005A49087002
:102D700043480078012804D14FF0000057490870FB
:102D800034E03F480078022804D14FF00100534955
:102D900008702BE03A480078032804D14FF0020075
:102DA0004E49087022E036480078042804D14FF0DC
:102DB00003004A49087019E031480078052804D119
:102DC0004FF004004549087010E02D4800780628AF
:102DD00004D14FF005004149087007E02848007809
:102DE000072803D14FF006003C4908702A480078B4
:102DF000012804D14FF00000394908707AE02648D4
:102E00000078022804D14FF001003549087071E0C4
:102E100021480078032804D14FF00200304908709F
:102E200068E01D480078042804D14FF003002C49C5
:102E300008705FE018480078052804D14FF00400BE
:102E40002749087056E01448007806284AD14FF008
:102E50000500234908704DE0010300201503002000
:102E6000FC040020EC04002024030020F0020020D9
:102E70003D0300203A030020280300200203002025
:102E800016030020EE0400203E0300203B03002038
:102E90002C0300200303002017030020F00400206F
:102EA0003F030020000300203003002034030020F3
:102EB00038030020310300203503002039030020AF
:102EC00032030020360300203303002037030020A4
:102ED000140300204003002041030020420300208F
:102EE00043030020FF480078072803D14FF0060075
:102EF000FD490870FD480078012806D0FB4800789D
:102F0000022815D1FA48007890B9FA48007878B1CB
:102F10000021F9480078CDE900010291F6480391BB
:102F200000780346EE22F5480178007803F09AFA1B
:102F3000F3480078012806D0F1480078022817D11C
:102F4000EB480078A0B9EF48007888B10021EE483E
:102F500000781030CDE900010291EB480391007830
:102F600010300346EE22E9480178007803F07AFA3F
:102F7000E7480078012806D0E5480078022817D1F4
:102F8000DB480078A0B9E348007888B10021E24826
:102F900000782030CDE900010291DF4803910078EC
:102FA00020300346EE22DD480178007803F05AFA1B
:102FB000DB480078012806D0D9480078022817D1CC
:102FC000CB480078A0B9D748007888B10021D6480E
:102FD00000783030CDE900010291D34803910078A8
:102FE00030300346EE22C0480178007803F03AFA08
:102FF0001FBD00EBC00101EB0011CC4A02EB8101C7
:1030000091F85E10A1BB00EBC00101EB001102EBD7
:10301000810191F85F1059BB00EBC00101EB001179
:1030200002EB8101B1F8601011BB4FF03C0100EBE5
:10303000C00202EB0012BD4B03EB820282F85E106D
:103040004FF0030100EBC00202EB001203EB82021F
:1030500082F85F10B64909884FF4616201FB02F102
:1030600000EBC00202EB001203EB8202A2F8601038
:10307000704710B5AF4A12881146AF4AB2F9002026
:1030800001FB02F141F2707291FBF2F211460AB2B9
:10309000AA4B1A80A74A52881146A94AB2F90020C1
:1030A00001FB02F141F2707291FBF2F211460AB299
:1030B000A44B1A809F4A92881146A34AB2F9002075
:1030C00001FB02F141F2707291FBF2F211460AB279
:1030D0009E4B1A809E4A1288012A0AD1974AB2F959
:1030E00000209C4B1A801A46B2F900209A4B1A8095
:1030F0003FE0974A1288032A3BD1904AB2F9002058
:10310000944B1A808F4AB2F90020B3F900309A42EA
:1031100004DA8C4AB2F900208E4B1A808B4AB2F93D
:1031200000208C4BB3F900309A4204DA874AB2F996
:103130000020884B1A80814AB2F90020864B1A8001
:10314000804AB2F90020B3F900309A4204DD7D4A8A
:10315000B2F90020804B1A807C4AB2F900207E4BE5
:10316000B3F900309A4204DD784AB2F900207A4B74
:103170001A80704AD288B2F5487F0ADD6D4AD2883B
:1031800040F6D8639A4204DA4FF00002734B1A7388
:1031900003E04FF00102714B1A73664AD288114660
:1031A0006F4AB2F9002001FB02F144F6206291FB64
:1031B000F2F21146A1F2111211460AB2674B5A817E
:1031C000684A12781A81684A12785A804FF00000D3
:1031D00012E100EBC00202EB0012544B03EB82023F
:1031E000D278192A7CDA00EBC00202EB001203EB62
:1031F0008202937900EBC00202EB00124B4C04EB0D
:103200008202D27903EB022200EBC00303EB00132E
:1032100004EB83035A6200EBC00202EB0012234668
:1032200003EB8202137A00EBC00202EB001204EB04
:103230008202527A03EB022200EBC00303EB00137D
:1032400004EB83031A6200EBC00202EB0012234678
:1032500003EB8202937A00EBC00202EB001204EB54
:103260008202D27A03EB022200EBC00303EB0013CD
:1032700004EB8303DA6100EBC00202EB0012234689
:1032800003EB8202127B00EBC00303EB001304EBA1
:1032900083039A6200EBC00202EB0012234603EBA9
:1032A0008202527B00EBC00303EB001304EB8303A9
:1032B00083F8562000EBC00202EB0012234603EB1A
:1032C0008202927B00EBC00303EB001304EB830349
:1032D00083F8422000EBC00202EB0012234645E0D7
:1032E00058E00000170300204303002038030020AB
:1032F000F0020020000300203C03002040030020D7
:1033000039030020010300203D0300204103002079
:103310003A030020020300203E0300204203002065
:103320003B030020030300203F0300203C06002055
:10333000900100201C170020DC0000202E0000203F
:10334000DE00002030000020E000002032000020DD
:10335000680100202A0000203400002058050020C9
:10336000C8000020C0020020ED02002003EB820212
:10337000137C00EBC00202EB001204EB8202527CD1
:1033800003EB022200EBC00303EB001304EB830307
:103390001A652DE04FF0000200EBC00303EB0013B1
:1033A000FF4C04EB8303DA6100EBC00303EB001373
:1033B00004EB83035A6200EBC00303EB001304EB3E
:1033C00083031A6200EBC00303EB001304EB8303D7
:1033D0009A6200EBC00303EB001304EB830383F852
:1033E000422000EBC00303EB001304EB83031A65D8
:1033F00000F10102D2B21046EA4AB2F9002090422E
:10340000FFF6E7AEE84A52891146E84AB2F90020D1
:1034100001FB02F14FF4FA7291FBF2F211460AB28B
:10342000E34B1A80E04A12891146E24AB2F90020C1
:1034300001FB02F14FF4FA7291FBF2F211460AB26B
:10344000DD4B1A804FF00002DC4B1A80DC4B1A80F7
:1034500010461AE000EBC00202EB0012D04B03EB67
:103460008202D278052A0CDA00EBC00202EB0012CD
:1034700003EB8202526AD24B1B881A4412B2D04B21
:103480001A8000F10102D2B21046C64AB2F90020F9
:103490009042DFDBC94A1288C94B1B881A4412B21A
:1034A000C64B1A801A46B2F90020002A02DA4FF001
:1034B00000021A804FF00002114610460DE000EBAA
:1034C000C00202EB0012B64B03EB8202526A0A44BE
:1034D000114600F10102D2B21046B24AB2F9002000
:1034E0009042ECDB0AB2B74B1A8010BD2DE9F041D7
:1034F000B54800780A2810DAB348007800F10100D6
:10350000B1490870084600780A2806DB4FF0000031
:1035100008704FF00100AD4908704FF00000AC4951
:103520000880AC4908804FF0CD0002F098FD0028DB
:103530007DD0A9480068CE2803D14FF6FF70A54979
:103540000880A5480068CF2803D1A3484068A14956
:103550000880A1480068D12803D19F4840689C4951
:1035600008809D480068D22803D14FF6FF70984923
:10357000088099480068D02809D197484068944944
:103580000880954840686FEA0000924908804FF033
:10359000000462E0012000FA04F08E490988084224
:1035A00015D004EBC40000EB04107D4901EB800052
:1035B000B0F8400000F1010000B204EBC40101EBDF
:1035C0000411774A02EB8101A1F840000AE04FF0B4
:1035D000000004EBC40101EB0411714A02EB81010C
:1035E000A1F8400004EBC40101EB04116C4A02EBAA
:1035F00081014031084632220021FEF7A5FD04EB8F
:10360000C40000EB0410664901EB8000B0F94000F3
:1036100014280ADD4FF0010004EBC40101EB041192
:103620005F4A02EB810181F82C00012000E01AE0E2
:1036300000FA04F06649098808420AD04FF00000F9
:1036400004EBC40101EB0411554A02EB810181F83E
:103650002C0004F10100C0B204465248B0F9000049
:10366000844297DDFEE0594800780028FAD04FF0F8
:10367000000634460EE04FF0010004EBC40101EBFC
:103680000411474A02EB810181F82C0004F101008A
:10369000C0B204464348B0F900008442EBDB4FF06F
:1036A0000000044642E03F4A1288D2B21146202967
:1036B00002DD4FF020021146484A1078394AB2F92B
:1036C0000020904202DB4FF00002104600EB0402A3
:1036D000D2B2104690FBF1F201FB1202D2B21046B8
:1036E00000EBC00202EB00122D4B03EB820292783A
:1036F000022A08D000EBC00202EB001203EB8202A8
:103700009278012A0ED14FF0000200EBC00303EBC8
:103710000013234F07EB830383F82C2006F10102EB
:10372000D2B2164604F10100C0B204461D48B0F9F9
:103730000000844204DA2A48B0F900008642B2DB75
:103740004FF000002749097801EBC10202EB01119B
:10375000134A02EB810181F82C002348B0F90000E4
:103760003C2817DA4FF0000004460EE04FF000004E
:1037700004EBC40101EB0411094A02EB810181F859
:103780002C0004F10100C0B204460648B0F9000064
:103790008442EBDD1548008850B34FF0000028E06C
:1037A0003C060020540100201C1700200E000020C1
:1037B0004C000020E20000204A00002054000020BD
:1037C000920200204E0000205003002051030020F0
:1037D0004A0300204C0300202C0400206603002034
:1037E0005C030020670300202600002098030020CF
:1037F00015E004460EE04FF0010004EBC40101EBBC
:103800000411FF4A02EB810181F82C0004F1010050
:10381000C0B20446FB48B0F900008442EBDD4FF033
:103820000000044619E004EBC40000EB0410F44966
:1038300001EB800090F82C0001280AD16FF03100D4
:1038400004EBC40101EB0411ED4A02EB8101A1F884
:10385000540004F10100C0B20446EA48B0F9000087
:103860008442E0DD4FF00000044628E004EBC40091
:1038700000EB0410E24901EB8000C06BD8B14FF0BF
:10388000630004EBC40101EB0411DD4A02EB81018A
:1038900081F82C0004EBC40000EB0410114601EB8E
:1038A0008000C06BA0F1010004EBC40101EB041126
:1038B00002EB8101C86304F10100C0B20446D148A3
:1038C000B0F900008442D1DB4FF00000CE4908700F
:1038D000CE4908700546044625E004EBC40000EB21
:1038E0000410C74901EB80008078012817D1C74830
:1038F000007800F10100C549087004EBC40000EB3A
:103900000410BF4901EB8000C069A84207DD04EB49
:10391000C40000EB041001EB8000C06985B204F123
:103920000100C0B20446B748B0F900008442D4DBBD
:10393000B74805804FF00000B64908704FF001000D
:10394000B54908704FF00000044626E004EBC400BF
:1039500000EB0410AA4901EB8000806AAF49B1F97D
:103960000010884203DB4FF00100AA49087004EB05
:10397000C40000EB0410A24901EB8000816AA74853
:10398000B0F90000401F814203DB4FF00000A24964
:10399000087004F10100C0B204469A48B0F9000072
:1039A0008442D3DB9B480078012802D19C490870EF
:1039B00009E09B48007830B19748007818B14FF083
:1039C00000009749087097480088D8B34FF000006E
:1039D00004460EE04FF0010004EBC40101EB0411BA
:1039E000874A02EB810181F82C0004F10100C0B28A
:1039F00004468448B0F900008442EBDD4FF0020138
:103A00008848B0F90000A0F1010000EBC00202EB11
:103A100000107B4A02EB800080F82C10824800885E
:103A200001280FD14FF003017E48B0F90000A0F14A
:103A3000010000EBC00202EB0010714A02EB8000B3
:103A400080F82C107948008838B34FF00000044605
:103A50000EE04FF0000004EBC40101EB0411684AD2
:103A600002EB810181F82C0004F10100C0B2044690
:103A70006448B0F900008442EBDD4FF001016B486F
:103A8000B0F90000A0F1010000EBC00202EB001051
:103A90005B4A02EB800080F82C10BDE8F08170B525
:103AA000044604EBC40000EB0410554911F8200053
:103AB000032800D070BD04EBC40000EB0410504993
:103AC00001EB800090F8425015F0020F45D004EB56
:103AD000C40000EB041001EB8000B0F94600B0F523
:103AE000966F74DA04EBC40000EB041001EB800065
:103AF000B0F8460000F1010000B204EBC40101EB94
:103B000004113F4A02EB8101A1F8460004EBC40016
:103B100000EB0410114601EB8000B0F94600B0F54F
:103B2000966F54DB4FF4966004EBC40101EB041173
:103B300002EB8101A1F8460004EBC40000EB041085
:103B4000114601EB8000407810F0010F3FD10122B7
:103B50000021204602F08BFF39E015F0020F36D12C
:103B600004EBC40000EB0410254901EB8000B0F821
:103B7000460060B304EBC40000EB041001EB8000CE
:103B8000B0F84600A0F1010000B204EBC40101EB63
:103B900004111B4A02EB8101A1F8460004EBC400AA
:103BA00000EB0410114601EB8000B0F8460070B93C
:103BB00004EBC40000EB041001EB8000407810F02F
:103BC000010F04D000221146204602F050FF15F0EC
:103BD000080F60D004EBC40000EB0410084901EBAF
:103BE0008000B0F948000A2854DA04EBC40000EB66
:103BF000041001EB8000B0F8480000F1010017E06C
:103C00003C06002054010020510300204403002002
:103C100082030020C5030020C4030020EE00002022
:103C2000C6030020F8040020F6040020F20400205F
:103C300000B204EBC40101EB0411FF4A02EB810165
:103C4000A1F8480004EBC40000EB0410114601EB9E
:103C50008000B0F948000A2870DB4FF00A0004EB3E
:103C6000C40101EB041102EB8101A1F8480004EB4F
:103C7000C40000EB0410114601EB8000407810F006
:103C8000020F04D101221146204602F0F0FE204628
:103C9000FFF7AFF952E015F0080F4FD104EBC40065
:103CA00000EB0410E44901EB8000B0F94800002863
:103CB0002EDD04EBC40000EB041001EB8000B0F833
:103CC0004800A0F1010000B204EBC40101EB0411B3
:103CD000D94A02EB8101A1F8480004EBC40000EBD3
:103CE0000410114601EB8000B0F8480030BB4FF0E3
:103CF000000004EBC40101EB041102EB8101A1F807
:103D0000480002464FF00101204602F0B0FE15E0E7
:103D100004EBC40000EB0410C74901EB8000B0F9CC
:103D2000480000280ADA4FF0000004EBC40101EB60
:103D30000411C14A02EB8101A1F8480015F0100FEF
:103D400047D004EBC40000EB0410BB4901EB80003A
:103D5000B0F94A000A283BDA04EBC40000EB041077
:103D600001EB8000B0F84A0000F1010000B204EB62
:103D7000C40101EB0411B04A02EB8101A1F84A0031
:103D800004EBC40000EB0410114601EB8000B0F915
:103D90004A000A2878DB4FF00A0004EBC40101EB6B
:103DA000041102EB8101A1F84A0004EBC40000EB0E
:103DB0000410114601EB8000407810F0040F04D18C
:103DC00001220221204602F052FE2046FFF711F99F
:103DD0005AE015F0100F57D104EBC40000EB0410AB
:103DE000954901EB8000B0F84A0070B304EBC400C1
:103DF00000EB041001EB8000B0F84A00A0F10100D4
:103E000000B204EBC40101EB04118B4A02EB810107
:103E1000A1F84A0004EBC40000EB0410114601EBCA
:103E20008000B0F84A0078BB4FF0000004EBC401FA
:103E300001EB041102EB8101A1F84A0002464FF0A8
:103E40000201204602F013FE1EE004EBC40000EB6A
:103E50000410794901EB8000B0F94A000A2813DD0B
:103E600004EBC40000EB041001EB8000B0F84A0042
:103E7000A0F1010000B204EBC40101EB04116E4A91
:103E800002EB8101A1F84A0004EBC40000EB04102E
:103E9000694901EB8000C0696849B1F90010684ABE
:103EA000B2F90020891A88424FDA04EBC40000EB13
:103EB0000410614901EB80008078012845D104EBB2
:103EC000C40000EB041001EB8000B0F94C00B0F529
:103ED000967F39DA04EBC40000EB041001EB80009C
:103EE000B0F84C0000F1010000B204EBC40101EB9A
:103EF0000411514A02EB8101A1F84C0004EBC4000B
:103F000000EB0410114601EB8000B0F94C00B0F555
:103F1000967F7BDB4FF4967004EBC40101EB041138
:103F200002EB8101A1F84C0004EBC40000EB04108B
:103F3000114601EB8000407810F0040F66D1012299
:103F40000221204602F093FD60E004EBC40000EB88
:103F50000410394901EB8000C1693848B0F900000C
:103F6000374AB2F90020801A81424FDB04EBC400CB
:103F700000EB0410304901EB8000B0F84C0070B346
:103F800004EBC40000EB041001EB8000B0F84C001F
:103F9000A0F1010000B204EBC40101EB0411264AB8
:103FA00002EB8101A1F84C0004EBC40000EB04100B
:103FB000114601EB8000B0F84C0038BB4FF0000018
:103FC00004EBC40101EB041102EB8101A1F84C00E8
:103FD00002464FF00201204602F049FD16E004EBD4
:103FE000C40000EB0410144901EB8000B0F94C0050
:103FF000B0F5967F0ADD4FF4967004EBC40101EB37
:1040000004110D4A02EB8101A1F84C0004EBC4003D
:1040100000EB0410084901EB8000407810F00F0F0E
:1040200010D04FF0210004EBC40101EB0411024A4F
:1040300002EB8101887048E03C060020EA00002085
:1040400012010020FF480078A0B104EBC40000EB8F
:104050000410FD4901EB8000C07814280ADD4FF000
:10406000220004EBC40101EB0411F74A02EB8101C9
:1040700088702AE004EBC40000EB0410F24901EB65
:10408000800090F8420010F0200F0AD04FF002009C
:1040900004EBC40101EB0411EB4A02EB81018870CF
:1040A00013E004EBC40000EB0410E74901EB8000CF
:1040B000C078142809DA4FF0010004EBC40101EBC9
:1040C0000411E14A02EB8101887004EBC40000EBAB
:1040D0000410DD4901EB8000B0F95400DB49B1F96F
:1040E0000010084404EBC40101EB0411D64A02EBB2
:1040F000810108634FF47A7004EBC40101EB0411F1
:1041000002EB8101486300BFD4E470B5D048008859
:1041100028B9D048B0F90000CF4908803CE0CF482A
:10412000007B20B14FF01400CD49088003E0CB485C
:104130004089CB490880CA48B0F90000002803DA5A
:10414000C848B0F9005024E0C548B0F9000028285C
:1041500003DD4FF02800C2490880BE48B0F90000D6
:10416000C049B1F90010A0EB010000EB80004FEA5C
:1041700040000546BA48B0F9000005FB00F54FF0D5
:10418000C80095FBF0F00546B648B0F90000284499
:10419000054628B2B0490880BE2001F060FF40B15A
:1041A000B1480068BF2804D1AF48406800B2AA49AE
:1041B0000880A948B0F9000004464FF0620004FBF3
:1041C00000F44FF0640094FBF0F0044620B2A749DD
:1041D0000880A148B0F9000004464FF0660004FBD7
:1041E00000F44FF0640094FBF0F0044620B2A049C4
:1041F000088070BD10B59F48008830B19D48008888
:10420000A0F1010000B29B4908809B48B0F9000072
:104210009A4908809148B0F90800002812DA8F49BD
:10422000B1F90810081E01DB014601E0C0F10001F0
:104230004FF00A0291FBF2F1904A1288114409B240
:104240008E4A11808548B0F95400002812DA83495B
:10425000B1F95410081E01DB014601E0C0F1000174
:104260004FF00A0291FBF2F1844A1288114409B21C
:10427000824A11808148B0F900008149B1F90010EB
:1042800090FBF1F000F101007E4908707B48B0F925
:1042900000007D49B1F9001090FBF1F000F1010040
:1042A0007A490870774800787949B1F90010884256
:1042B00008DD74480078764908804FF03C006D496D
:1042C000088011E0714800787149B1F90010884206
:1042D0000ADA6848008838B96C4800786C49088068
:1042E0004FF03C00634908806A48008820B16A4862
:1042F000B0F90000664908806848007820B1664837
:10430000B0F9000062490880654800780A2804D1A5
:104310006148B0F900005E490880624800780A28C8
:1043200003D0604800780B2804D15B48B0F9000046
:10433000574908805848B0F9002001215448FDF73A
:1043400003FF10BD10B55848B0F900005749B1F946
:104350000010884235DA564890F900000A2819DA28
:104360005448B0F900000F2814DD5148007800F1DE
:10437000010040B24E490870084690F900000A2832
:1043800011DB4948B0F900004B490880012002F0D8
:104390004FF908E0464890F900000A2803DB4FF087
:1043A0000A00434908704048B0F900004249B1F999
:1043B000001088422DDA3C48B0F900003E490880E0
:1043C00027E03948B0F900003849B1F900108842B7
:1043D0001FDD3748007898B135480078A0F101001A
:1043E00040B233490870084690F90000002810DCFC
:1043F000002002F01DF94FF00A003049087008E073
:104400002B4890F90000002803DA4FF000002849FB
:1044100008702B48B0F900002A49B1F90010884211
:104420007BDD294890F900000A285EDA2148B0F9BE
:1044300000000F2859DD2448007800F1010040B247
:10444000214943E0420000203C060020C402002035
:1044500040010020EA0000205203002058050020FF
:1044600064030020E80000202C04002058030020F2
:1044700056030020E0020020920200209402002057
:10448000000100204E030020020100204F03002005
:104490005C0300201401002054010020C60300200A
:1044A000C8020020CA0200202A000020F4000020D8
:1044B00040000020260000202C000020D403002013
:1044C00034000020F600002041000020087008465B
:1044D00090F900000A2811DBFF48B0F90000FF49FD
:1044E0000880022002F0A4F808E0FD4890F90000DE
:1044F0000A2803DB4FF00A00F9490870F648B0F9C2
:104500000000F649B1F9001088422EDDF248B0F9FA
:104510000000F249088028E0FFE7EF48B0F900000A
:10452000F049B1F9001088421FDAED48007898B1DF
:10453000EB480078A0F1010040B2E9490870084654
:1045400090F90000002810DC002002F071F84FF014
:104550000A00E549087008E0E14890F900000028E9
:1045600003DA4FF00000DE490870DF48007828B118
:10457000DD480078A0F10100DB49087010BD10B5DE
:10458000029C10BD4FF0000108463BE0D749896806
:1045900011F40071D54A916018D1D54909560A29FC
:1045A0000FDAD349095C01F1010149B2D04A115433
:1045B000114609560A2921DB4FF00101CD4A115459
:1045C0001CE04FF00A01CA4A115417E0C8490956C5
:1045D00000290FDDC649095CA1F1010149B2C44AB5
:1045E000115411460956002908DC4FF00001C14A58
:1045F000115403E04FF00001BD4A115400F10101D4
:10460000C9B208460128C1DB4FF00001084643E06B
:10461000B94931F8101019B9B649095C012906D019
:10462000B54931F81010D9B1B249095CC1B9B349E3
:1046300009560A290FDAB149095C01F1010149B2B1
:10464000AE4A1154114609560A2921DB4FF00101E7
:10465000AB4A11541CE04FF00A01A84A115417E06C
:10466000A649095600290FDBA449095CA1F1010103
:1046700049B2A24A115411460956002908DC4FF0EC
:1046800000019F4A115403E04FF000019B4A11546E
:1046900000F10101C9B208460128B9DB704708B52D
:1046A0009848407800F10100964948709648007893
:1046B00060B14FF00000944908704FF00A0002F01A
:1046C0005AFE4FF00A008F4948701FE04FF0140067
:1046D0008C4948708D48008878B98D48007860B959
:1046E0008C48007848B98C48007830B94FF0010008
:1046F0008549087002F03FFE08E04FF4FA6087A396
:104700008CA292A1009097A0FFF739FF08BD08B5D1
:104710007D48007801282CD1984800787A4909789A
:1047200088420DD04FF005009549088095480088D3
:1047300030B94FF0000008804FF002007249087055
:104740008F48008868B18E480088A0F1010000B24F
:104750008B4908800846008818B94FF003006A4961
:10476000087064480078012803D14FF002006649C0
:10477000087065480078022832D180480078624984
:10478000097888420CD08048B0F900004FF461618C
:1047900000FB01F07D4908604FF000007C49086093
:1047A0007A480068A0F101007849086078480068FC
:1047B00000F10100764908607448006828B94FF09C
:1047C00000005149087002F0D6FD4A48007838B917
:1047D0006C480088012803D14FF004004A49087052
:1047E00049480078032824D164480078464909786C
:1047F000884202D16248008818B94FF00A00604927
:1048000008805F480088A0F1010000B25C49088080
:10481000084600880A2803D008460088092808D1DD
:1048200041F288305BA361A266A100906BA0FFF704
:10483000A6FE3548007804282CD15048007832492B
:104840000978884202D14E48008818B94FF00A0012
:104850004B4908804A480088A0F1010000B248494D
:104860000880084600880A2803D0084600880928DE
:1048700008D141F288305FA364A26AA1009057A0DA
:10488000FFF77DFE1B480078012803D14FF002009E
:104890001D4908701C48007838490870674800882E
:1048A000012816D11848007890B91948007878B9CD
:1048B0001848007860B91848007848B96049B1F9DB
:1048C0000010604AB2F90020914203DA5D49BBE072
:1048D000EDE0E6E0E6E00000340000202C000020DF
:1048E00041000020F6000020D40300200010014009
:1048F00006040020D0020020280200200A04002024
:10490000D802002072000020080000206C00002067
:1049100086000020C8020020CA020020202020209B
:104920002020202020202020202020202020202087
:104930000000000020202020E7E0E1EBEEEAE8F0B4
:10494000EEE2E0ED212020200000000020202020C9
:10495000202020E7E0F0FFE420202020202020205D
:10496000000000002020202020D3F1EAEEF0E5ED49
:10497000EDFBE92020202020000000007400002032
:1049800076000020700000205A00002078000020EF
:10499000C00300202020C1C5C720C2C5CDD2C8CBCE
:1049A000DFD6C8C8212120200000000020202020C0
:1049B0002020C2CACBDED7C5CD2020202020202039
:1049C00000000000202020CDC520CCCEC6C5D220BE
:1049D000C1DBD2DC20202020000000002020D3D129
:1049E000CACED0C5CDCDDBC920C7C0D0DFC4202002
:1049F0000000000020202020C2C5CDD2C8CBDFD6C9
:104A0000C8DF2121212020200000000020202020BC
:104A100020CDC5C8D1CFD0C0C2CDC02020202020FD
:104A20000000000020202020C7C0C1CBCECAC8D0C3
:104A3000CEC2C0CD20202020000000005C0000205D
:104A40005200002052030020B1F90010FE4AB2F9D2
:104A50000020891AFD4AB2F90020914222DDFC496A
:104A6000B1F900100A2291FBF2F1FA4AB2F90020E2
:104A7000881A01D4014600E04142052912DAF649BC
:104A8000098879B9F548007800F10100F349087008
:104A9000084600783C280EDBFFF701FE052002F0F7
:104AA0006AFC08E04FF00000EC49087003E04FF0AA
:104AB0000000EA490870EA480088022804D04FF054
:104AC0000000E549088036E04FF00000E249088028
:104AD000E3480088012815D1E248008820B9E2485F
:104AE000C08AB0F5FA6F08DCDE480088012822D1C0
:104AF000DD48C08AB0F5FA6F1DDA4FF00100D649E3
:104B0000088018E0D6480088022814D1D5480088CB
:104B100020B9D548408BB0F5FA6F08DCD148008841
:104B2000012808D1D048408BB0F5FA6F03DA4FF076
:104B30000100C949088008BD10B5CC48007850B3C1
:104B4000CA480078A0F10100C849087008460078FA
:104B500018B94FF00000C6490870C648007800F048
:104B6000FE00C4490870C2480078012804D10846F4
:104B7000007840F001000870BF48007840F0010064
:104B8000BD490870BA48007888B90846007800F036
:104B9000FE0008700BE0B748007800F0FE00B54951
:104BA0000870B548007800F0FE00B3490870B348BB
:104BB000007850B3B1480078A0F10100AF49087007
:104BC0000846007818B94FF00000AD490870A948B0
:104BD000007800F0FD00A7490870A9480078012876
:104BE00004D10846007840F002000870A24800781E
:104BF00040F00200A0490870A148007888B9084632
:104C0000007800F0FD0008700BE09A48007800F092
:104C1000FD00984908709848007800F0FD0096491A
:104C200008709848007850B396480078A0F10100C9
:104C3000944908700846007818B94FF0000092496E
:104C400008708C48007800F0FB008A4908708E4894
:104C50000078012804D10846007840F0040008706C
:104C60008548007840F00400834908708648007841
:104C700088B90846007800F0FB0008700BE07D481A
:104C8000007800F0FB007B4908707B48007800F05A
:104C9000FB00794908707D48007850B37B48007864
:104CA000A0F10100794908700846007818B94FF062
:104CB0000000774908706F48007800F0F7006D49F0
:104CC000087073480078012804D10846007840F045
:104CD000080008706848007840F0080066490870CD
:104CE0006B48007888B90846007800F0F700087033
:104CF0000BE06048007800F0F7005E4908705E48FD
:104D0000007800F0F7005C490870624800880028CD
:104D10000FD060480088A0F1010000B25D49088012
:104D20000846008830B94FF000005B4908705B49C5
:104D30000870E2E058480078FF2844D157480078CE
:104D400001280DD10A23821ED021CD2001F042F985
:104D50000A234FF47F72E521E12001F03BF9CCE01A
:104D60004E48007802280CD10A23C21ED021CD2043
:104D700001F030F90A231E22E521E12001F02AF991
:104D8000BBE046480078032812D10A23021FD02135
:104D9000CD2001F01FF90A231E22E521E12001F0B8
:104DA00019F90A230022E621E12001F013F9A4E019
:104DB0003A480078042805D10A23421FD021CD208B
:104DC00001F008F999E03548007868B93248007870
:104DD000401E01218140C84300B202460A23D0216F
:104DE000CD2001F0F7F888E02C480078012813D195
:104DF00029480078401E0121814008B202460A235A
:104E0000D021CD2001F0E6F80A234FF47F72E5218E
:104E1000E12001F0DFF870E02048007802283FD15F
:104E20001D480078401E0121814008B202460A2335
:104E3000D021CD2001F0CEF80A231E22E521E12069
:104E400001F0C8F859E00000520000205E00002088
:104E500046000020060100206C0000200900002010
:104E6000680000206A0000201C170020A00200201B
:104E70009F0200201200002013000020A202002048
:104E8000A1020020A4020020A3020020A60200200C
:104E9000A5020020AA020020A7020020A8020020EC
:104EA000FF480078032818D1FE480078401E0121F1
:104EB000814008B202460A23D021CD2001F08AF8B1
:104EC0000A231E22E521E12001F084F80A230022B2
:104ED000E621E12001F07EF80FE0F1480078042897
:104EE0000BD1F0480078401E0121814008B20246F3
:104EF0000A23D021CD2001F06DF810BDEA480078DA
:104F000010F0010F06D0E948C06840F01000E749F2
:104F1000C86005E0E548C06820F01000E349C860BB
:104F2000E148007810F0020F07D0E148006840F037
:104F30000200E049C1F80C0C06E0DD48006820F0F2
:104F40000200DC49C1F80C0CD748007810F0040FBF
:104F500007D0D748006840F00100D649C1F80C0CD2
:104F600006E0D348006820F00100D249C1F80C0CDB
:104F7000CD48007810F0080F06D0CC48C06840F04B
:104F80002000CA49C86005E0C848C06820F0200079
:104F9000C649C86070470CB5C74AB2F90020ADF8E1
:104FA0000020C64AB2F90020ADF80220C44AB2F986
:104FB0000020ADF804204FF000021146104625E015
:104FC000C04A1278012A0CD13DF8102012F0020FCD
:104FD00007D04FF0010202FA00F242EA0102D2B217
:104FE0001146B84A1278022A0CD13DF8102012F06E
:104FF000040F07D04FF0010202FA00F242EA010268
:10500000D2B2114600F10102D2B210460328D7DB1A
:10501000A54A11701278AC4B1B7822EA0302A24B0E
:105020001A70AA4A1278A84B1B7802EA03029E4B18
:105030001B7842EA03029C4B1A700CBD10B5A448C1
:105040000088A4490880A448008818B9A3480078BB
:10505000022803D1A24800889E490880A148007810
:105060000A2803D1A04800889A4908809F48007800
:105070000A2803D19E480088964908809B480078FA
:105080000B2803D19B480088924908809A480088E1
:1050900030B199480088A0F1010000B2964908801B
:1050A0009648008830B195480088A0F1010000B210
:1050B00092490880924890F83F0010F0030F05D104
:1050C0008F4890F88B0010F0030F07D081480088BC
:1050D0004FF00A0190FBF1F07E4908808948B0F951
:1050E0000000012804DB8748B0F90000052803DD33
:1050F0004FF00100834908808248B0F9000000EBBE
:105100008000400080490978884217DD7E48007899
:1051100000F101007C4908707A48B0F9000000EB0A
:1051200080004FEA40000978884207DC4FF0000019
:10513000754908704FF0010074490870E12000F0D3
:105140008EFF002877D072480068642808D1704824
:10515000406870490988084400B26F4908802CE310
:105160006B480068692809D169484068694909881D
:10517000A1EB000000B2684908801EE364480068A3
:105180006E2827D164480088A0F1010000B262496E
:1051900008800846B0F900001E2807DD5F48B0F916
:1051A00000005F49B1F9001088420EDA5D480078CE
:1051B000401CC0B25B490870FA28D0D10A230022F3
:1051C000E721E62000F006FFF7E24FF00000554926
:1051D0000870F2E24E480068E52805D14C48406866
:1051E00000B24D490880E8E249480068E628B6D197
:1051F0004D48B0F900004D49B1F9001088422BDD4F
:105200004FF00B004A4908704748B0F90000474981
:10521000B1F90010A0EB010028280DDD3E48B0F9DF
:105220000000002808DD3C480088A0F1050000B21D
:1052300039490880C1E291E03748008800288ED0C3
:105240003248007800288AD033480088A0F1010055
:1052500000B231490880B0E23348B0F90000334968
:10526000B1F90010884288DA4FF00C00304908701C
:105270002E48B0F900002C49B1F90010A0EB010054
:10528000282859DD2448B0F9000040F2F73188425F
:1052900052DA2148008800F1050000B21E4949E0B9
:1052A000A8020020A7020020980200200010014060
:1052B0000C0C0140000001409C0100209E010020D8
:1052C000A001002042000020130000201200002056
:1052D000060100207C030020600000200800002060
:1052E00056000020C8020020A4010020CA020020AD
:1052F000AA010020B20100208603002088030020BC
:10530000580500208C010020730300207403002046
:105310002C040020C6020020C402002052000020FD
:10532000F2000020E20200204A0000205203002088
:1053300092030020088040E2FF48B0F90000B0F579
:105340007F7F88DAFD480078002884D0FA480088FA
:1053500000F1010000B2F84908802EE2F748007819
:105360000028E8D0F648008820B1F64890F82303DA
:105370002828E0DDF448B0F90000F44908804FF037
:105380001300F3490870F348B0F900004FF00A0128
:1053900090FBF1F0F04909884FEA4101884216DD9F
:1053A0004FF01400EA490870EC48008838B1E7482B
:1053B0000088A0F1010000B2E4490880ACE1E348B4
:1053C0000088A0F10A0000B2E0490880A4E1E148A9
:1053D000B0F900000A2190FBF1F1DF480088B1EB41
:1053E000400F1FDADC480088C0EB0010D949B1F942
:1053F0000010884216DA4FF01500D5490870D748DA
:10540000008838B1D1480088A0F1010000B2CF492E
:10541000088081E1CD480088A0F1030000B2CB49AB
:10542000088079E1CC480088C0EB0010C949B1F987
:105430000010884215DDC748B0F900000A2190FB32
:10544000F1F0C549098888420BDD4FF01600C049CC
:105450000870BE480088A0F1010000B2BB49088076
:105460005AE1BF48B0F90000BE49B1F900108842C6
:105470007EDA4FF01700B6490870BB48B0F900005B
:10548000BA49B1F90010A0EB0100B649B1F900101A
:10549000A1EB0000B249B1F90010884254DD4FF091
:1054A0001800AB490870AB48B0F90000002815DAC5
:1054B0004FF019000870A948008838B1A348008847
:1054C00000F1010000B2A149088025E19F48008851
:1054D00000F10A0000B29D4908801DE19E48008845
:1054E00000EB80009B49B1F90010884216DD4FF0B7
:1054F0001A00974908709948008838B19348008885
:1055000000F1010000B29149088005E18F48008850
:1055100000F1020000B28D490880FDE08E4800884D
:1055200000EB80008B49B1F90010B1EB400F97DA26
:105530004FF01B00864908708448008800F1010084
:1055400000B282490880E7E08749B1F90010874A34
:10555000B2F90020891A0846C91700EB9171814AF7
:10556000B2F90020A2EBA1017D4AB2F9002000E0CF
:105570005EE0914239DD4FF01C00754908707648B5
:10558000008800EB80007349B1F90010884216DDF5
:105590004FF01D006E4908707048008838B16B48A4
:1055A000008800F1010000B268490880B4E0674853
:1055B000008800F1020000B264490880ACE066484F
:1055C000008800EB80006349B1F90010B1EB400F97
:1055D0000ADA4FF01E005E4908705C48008800F14E
:1055E000010000B25949088096E05E48B0F9000019
:1055F000401E5B49B1F90010884218DD4FF01F00D2
:10560000534908705448008800EB80005149B1F9B3
:105610000010B1EB400F7FDA4FF020004C490870CA
:105620004A48008800F1010000B24849088073E050
:105630004B48B0F900004B49B1F9001088426BDDCE
:105640004FF02100424908704748B0F9000047492F
:10565000B1F90010A0EB01004249B1F90010084473
:105660003F49B1F90010884216DA4FF0220038495C
:1056700008703A48008838B134480088A0F1010029
:1056800000B23249088047E030480088A0F10A00A3
:1056900000B22E4908803FE03349B1F90010334A87
:1056A000B2F90020891A0846C91700EB91712D4AFA
:1056B000B2F9002002EBA101294AB2F9002091427F
:1056C00016DA4FF02300224908702448008838B1C8
:1056D0001E480088A0F1010000B21C4908801BE0B0
:1056E0001A480088A0F1020000B21849088013E0AF
:1056F0001B48B0F900101B48B0F90000401C814263
:105700000ADD4FF024001249087010480088A0F10B
:10571000010000B20D49088040F2FF3200210B4821
:10572000FCF712FD0948B0F9000007490880074856
:10573000B0F9000000491BE0C402002074030020FF
:105740008C0200203C060020C60200206C030020D2
:10575000920300206E0300207C03002086030020BB
:105760004A00002052030020E8000020EA00002048
:105770000880F848008880B9F748008868B1F74881
:10578000B0F900000880F548B0F90000F44908803D
:10579000F248B0F90000F3490880EE48008801287B
:1057A00003D0EC480088022807D1ED480088EE4974
:1057B0000988084400B2ED4908804FF00000EC4928
:1057C0000870EC49087015E0EA48007800EBC00169
:1057D00001EB0010E84901EB8000C0781E2803DAD5
:1057E0004FF00100E2490870E248007800F1010042
:1057F000E0490870DF480078E049B1F900108842BC
:10580000E2DBDB48007810BB4FF41670D749088004
:10581000D4490880D2490880D948008800EB80002C
:105820004FEA400000B2D1490880D548008800EB1B
:1058300080004FEA400000B2CA490880D048008882
:1058400000EB80004FEA400000B2C5490880CD4817
:10585000008820B1CC48B0F90000C4490880BE4897
:10586000008830B1BC480088A0F1010000B2BA49FC
:10587000088040F2FF320021BC48FCF765FC4FF085
:105880000000C249087010BD10B5C1480088401C16
:1058900000B2BF490880BF49B1F90010C1EB011146
:1058A000B0EB810F7BDBBB480088002877D04FF03E
:1058B0000000B7490880B84908704870B7490870B7
:1058C000B749097855291BD1B649B1F902105029B9
:1058D00016DDB449B1F90800002801DB014600E0FB
:1058E0004142B14AB2F90020914205DBAD4991F83D
:1058F0003D1011F0010F03D04FF00100A6490870D0
:10590000AA490978B1B9AA49B1F90000002801DB18
:10591000014600E04142A44AB2F90020914205DB71
:10592000A44991F83D1011F0010F03D04FF0010090
:105930009A490870A0480078A8B9A048007890B1AA
:105940009F48007818B19E48007802280BD19D48E6
:10595000007810B99C48007810B19C48008810B9B4
:105960009B48007830B14FF000008B4908704870B8
:105970008A49087088480078012807D0864840780E
:10598000012803D085480078012804D14FF00A008F
:105990009049088003E04FF000008E4908808D4850
:1059A000008800287ED08B480088A0F1010000B25A
:1059B000884908800846B0F90000052806DD0F2355
:1059C0001E226421E12000F005FB0AE08148B0F9C5
:1059D0000000002805DD0F231E226921E12000F0D0
:1059E000F9FA7C480088052823D16E49B1F90810DE
:1059F000081E01DB014601E0C0F1000109B2764A50
:105A000011806849B1F95410081E01DB014601E01C
:105A1000C0F1000109B2704A51806549B1F9001026
:105A2000081E01DB014601E0C0F1000109B26B4A2A
:105A300011806848008800287ED15A49B1F90810C1
:105A4000081E01DB014601E0C0F1000109B2644A11
:105A500011805449B1F95410081E01DB014601E0E0
:105A6000C0F1000109B25E4A51805149B1F90010FC
:105A7000081E01DB014601E0C0F1000109B2594AEC
:105A800011804FF00000584908805348B0F90000D9
:105A90005349B1F9001008444349B1F90010884254
:105AA0000ADA00E0A9E03C480078012804D14FF070
:105AB0000A004D4908800CE03A48B0F90200C828B5
:105AC00007DD4FF00000344908700146084601F038
:105AD00003FB4148B0F902004149B1F90210084402
