:020000040800F2
:10000000082A002001010008050100080701000876
:10001000090100080B0100080D01000800000000A4
:100020000000000000000000000000000F010008B8
:10003000110100080000000013010008BB0B0008BC
:100040001701000817010008170100081701000830
:100050001701000817010008170100081701000820
:100060001701000817010008170100081701000810
:100070001701000817010008170100081701000800
:1000800017010008170100081701000817010008F0
:1000900017010008170100081701000817010008E0
:1000A00017010008170100081701000817010008D0
:1000B00017010008170100081701000817010008C0
:1000C00017010008170100081701000817010008B0
:1000D00017010008557E0008DD7F000817010008A1
:1000E000170100081701000817010008DFF80CD0FD
:1000F0000BF0BEFA00480047F90D0008082A00205E
:1001000005480047FEE7FEE7FEE7FEE7FEE7FEE7FD
:10011000FEE7FEE7FEE7FEE7ED000008D248806953
:1001200040F00100D0498861D048406820F00400C8
:10013000CE494860CC48806940F00400CA498861D3
:10014000CB48006820F47F60C849C1F8040808461D
:10015000D0F8040840F0B000C1F804080846D0F810
:10016000040840F48060C1F80408BF48806940F486
:100170008040BD49886141F66A00BE4908804FF061
:10018000000001F104010880BB49A1F81008BB4838
:100190000088BA4908804FF00000B749A1F8140858
:1001A0000846B0F80C0840F00C00A1F80C0808460E
:1001B000B0F80C0840F0E000A1F80C08B048008846
:1001C000A1F81008AF480088AE4908804FF0200021
:1001D0004FF0E021C1F80401A748B0F80C0840F442
:1001E0000050A549A1F80C089F48806940F0010023
:1001F0009D4988619D48406820F008009B494860FF
:100200009948806940F00400974988619748D0F880
:10021000000820F47F409549C1F800080846D0F84E
:10022000000840F43060C1F800080846D0F8000823
:1002300040F48040C1F800088B48C06940F40030A9
:100240008949C8614FF075008F4908804FF0000060
:1002500001F1040108804FF04021A1F810048B48FF
:1002600000888A4908804FF000004FF04021A1F833
:1002700014040846B0F80C0440F00C00A1F80C047B
:100280000846B0F80C0440F0E000A1F80C048048E7
:100290000088A1F810047F4800887E4908804FF04C
:1002A00040004FF0E021C1F804014FF04020B0F8C9
:1002B0000C0440F400504FF04021A1F80C047047AA
:1002C00010B500BF4FF012007349086000BF00BFB7
:1002D0007248654948607248086000BF00BF6248C4
:1002E000006810F4003FFAD000BF5F48006810F0CB
:1002F000007FFAD000BF5C48406800F00C0008287E
:10030000F9D100BF00BF4EF65F204FF0E0214861F9
:100310004FF0060008614FF0000088610846006950
:1003200040F00100086100BF00F04EF800BF4E48E9
:10033000806940F400604C4988614FF000005949E1
:10034000088041F26F705849A1F82C0C4FF0000062
:1003500056490880564908805349A1F8040C0846BC
:10036000B0F8000C40F00100A1F8000C00BF00BF85
:100370003D48806940F004003B4988614FF000002F
:100380004C4908604FF440503849C1F804083648D9
:10039000806940F00800344988614748474908604F
:1003A00047483249C1F8040C2F48806940F01000DA
:1003B0002D4988614348444908604FF04000486037
:1003C00000BFFFF7ABFE10BD2748C06940F080506A
:1003D0002549C8610846C06940F00060C8613B48D3
:1003E000006840F48070394908601F48006A40F096
:1003F00001001D49086200BF1B48006A10F0020F8F
:10040000FAD01948006A40F40140174908623048A0
:10041000008840F010002F49A1F804084FF00000B8
:100420002D49088047F6FF7001F1040108804FF064
:1004300000002A4908804FF03C002649A1F8240812
:100440000846B0F8040820F01000A1F8040800BF26
:100450001F48008810F0200FFAD01C48006820F4D4
:1004600080701A4908607047001002400000014087
:100470000408014008380140003001400C380140B8
:100480001038014014380140084400400C4400403A
:100490001044004014440040002002400284110037
:1004A00082000901282C014000200140302C01402D
:1004B000002C014000080140110000EE000C01403A
:1004C00040118100400011110010014000700040F7
:1004D0000428004000200040082800402028004058
:1004E00010B50446E0B207F053FD002010BD70B512
:1004F00004460D462046FFF7F3FF70BDFD4909880D
:1005000008464FEA00410846FB49B1F81C1801446F
:1005100008469AE04FF01F010A46F849A0EB010196
:100520000846F749098804290BD0F54909880629A6
:1005300007D0F3490988092903D0F14909880B2913
:1005400002D14FF01E010A46ED490988022913D154
:10055000EB4B1B1F1B8819464FEAE37301EB9373A8
:100560004FEAA303B1EB830303D04FF01C010A460B
:1005700002E04FF01D010A46E2490988914213DA70
:10058000E149096841F48071DF4B1960DD49098850
:1005900001F10101DD4BA3F80C1CDB49096821F4D2
:1005A0008071D94B196028E0D749096841F48071FE
:1005B000D54B19604FF00101D24B1980D349B1F8E6
:1005C000081C01F10101D14BA3F8081C1946B1F830
:1005D000081C0C290BDD4FF00101C94B1980CB49D8
:1005E000B1F8041C01F10101A3F104031980C6490B
:1005F000096821F48071C44B1960C349096841F44A
:100600008071C14B1960C249098841F01001BA4B91
:10061000A3F804184FEA1041B64B1980B64BA3F863
:100620001C081946B1F8041821F01001A3F80418A9
:1006300000BFB749098811F0200FFAD0B249096804
:1006400021F48071B04B196000BFAC498842BFF6FD
:1006500061AF704710B5AF480088AC49B1F8101CC5
:10066000A0EB010000B20446072C19DD0E2C17DAAE
:10067000A9480088A0B9A448006840F48070A24945
:1006800008604FF00100A44908809F48006820F4EA
:1006900080709D4908604FF00800A049087044E050
:1006A000072C1ADD0E2C18DA9B480088012814D17B
:1006B0009548006840F48070934908604FF002004C
:1006C000954908809048006820F480708E49086041
:1006D0004FF008009149087027E0072C25DD0E2C0B
:1006E00023DA8D48008802281FD18748006840F42B
:1006F0008070854908604FF0030087490880824870
:10070000006820F48070804908604FF001014FF4C8
:10071000457000F02DFE4FF4707140F2163000F07D
:1007200027FE4FF006007E4908707748006840F4C5
:10073000807075490860774800887449A1F8100CEA
:100740007148006820F480706F4908607548B0F9FE
:100750000000B0F57A7F06DA7248008800F10100E7
:1007600000B2704908806F48008864280FD166483D
:10077000006840F48070644908604FF000006649EA
:1007800008806148006820F480705F49086010BDEF
:1007900010B56548008800F101006349088063488E
:1007A0000088B0F5FA6F0AD140F6026000F0DDFC77
:1007B0005F4908804FF000005C49088068E05B48B2
:1007C0000088B0F57A7F14D1002140F6026000F075
:1007D0009AFD00214FF4606000F095FD40F6026044
:1007E00000F0C3FC524908804FF000004F490880D8
:1007F0004EE04E480088A0F51C5111390DD1012062
:1008000006F05AF840F6026000F0AFFC4849088054
:100810004FF00000454908803AE044480088A0F5C0
:100820009C4121390DD1002006F046F840F60260C7
:1008300000F09BFC3E4908804FF000003B490880D7
:1008400026E03A480088A0F51C5112390DD102204B
:1008500006F032F840F6026000F087FC3449088068
:100860004FF000003149088012E030480088A0F5C0
:100870009C4122390CD1002006F01EF840F602609F
:1008800000F073FC2A4908804FF0000027490880D7
:1008900010BD2DE9F0410646C6F307200746F0B229
:1008A0000546012F24D11C2000F05FFC00B2044655
:1008B000112D04D104F1010000B2044613E0122D01
:1008C00004D104F10A0000B204460CE0212D04D149
:1008D000A4F1010000B2044605E0222D03D1A4F1E9
:1008E0000A0000B2044621461C2000F041FD00BF72
:1008F000BDE8F08118280040002000408051010030
:10090000086C00400C6C004000700040006000402B
:10091000042800401C280040146C00408C02002079
:100920008D0200208A020020AE020020AC020020CE
:10093000AA0200201FB54FF02000FE490870FE48B3
:10094000008800F1010000B2FB490880F9490978EC
:10095000884203DD6FF00300F7490880F648B0F9DC
:10096000000000287DDBF448B0F90000202878DC86
:10097000212005F0B8FC20B1F0480068222800D101
:100980001FBDEF480078F0BBEB48B0F9000000EB6A
:10099000C00101EB0010EB4901EB800090F835003D
:1009A000E549B1F9001001EBC10202EB0111E54A82
:1009B00002EB810191F83410DF4AB2F9002002EB1A
:1009C000C20303EB0212DF4B03EB820292F83120E9
:1009D000D94BB3F9003003EBC30404EB0313D94C38
:1009E00004EB830393F83030CDE90032CDE90210F7
:1009F000D148B0F9000000EBC00101EB0010214626
:100A000001EB800000E00BE090F82C000346ED22A3
:100A1000C9480088C1B2C8480088C0B205F066FE67
:100A2000C548B0F9000020287CDCC348B0F90000BC
:100A300000EBC00101EB0010C24901EB8000C0785F
:100A40003C281ADABC48B0F9000000EBC00101EB09
:100A50000010BC4901EB8000C07800F10100B649EC
:100A600000E060E0B1F9001001EBC10202EB0111FE
:100A7000B44A02EB8101C8700CE04FF03C00AE4973
:100A8000B1F9001001EBC10202EB0111AD4A02EB1A
:100A90008101C870A848B0F9000000EBC00101EB6B
:100AA0000010A84901EB8000C078032824DBA2488D
:100AB000B0F9000000EBC00101EB0010A14901EB0F
:100AC00080000079032817DA9B48B0F9000000EB9A
:100AD000C00101EB00109B4901EB8000407900F15F
:100AE00001009549B1F9001001EBC10202EB0111BF
:100AF000944A02EB810148718F48B0F9000000EB85
:100B0000C00101EB00108F4901EB8000C0788A49D9
:100B1000B1F9001001EBC10202EB0111894A02EBAD
:100B20008101087147E08448B0F90000001D42D0FF
:100B30008148B0F90000401C3DD07F4800880C2857
:100B400014D17F480078A0BB00237F48417800780B
:100B50007E4A527801AC0BC400927C480078034670
:100B60006222FF21084605F0C1FD24E0724800889A
:100B70000D2820D0704800880E281CD06E480088B0
:100B80000F2817D16E48007898B971480088C1B213
:100B9000704842780078704B5B78CDE90030CDE941
:100BA00002216D48007803462622FF21084605F001
:100BB0009DFD00E000BF00BFE2E610B54FF0010070
:100BC000664908706648806810F0020064498860D1
:100BD00004D04FF001006349087003E04FF00000BB
:100BE000604908705F4800785F490978884206D0FC
:100BF0005E48008800F1010000B25C490880594855
:100C00000078594908705A480078401CC0B25849C9
:100C10000870142806DB4FF0000008704FF0010048
:100C20005449087054480078401CC0B252490870BA
:100C30000A287EDB4FF0000008704FF001004F499A
:100C400008704F48007800F10100C0B24C490870AC
:100C50000A2808DB4FF0000008704FF001004949F6
:100C6000087006F0D5FE48480078401CC0B24649DE
:100C70000870142812DB4FF0000008704FF00100DC
:100C8000424908704248007820B14FF000004049C6
:100C9000087003E04FF001003D4908703D480078BE
:100CA000401CC0B23B490870322812DB4FF00000F4
:100CB00008704FF00100384908703848007820B1BA
:100CC0004FF000003549087003E04FF00100334950
:100CD000087033480078401CC0B23149087064285D
:100CE00020DB4FF0000008704FF001002D49087024
:100CF0002D48007820B14FF000002B49087003E028
:100D00004FF00100284908702848B0F9000042F26D
:100D10001071884206DA2548008800F1010000B20F
:100D2000224908802248008800F1010000B22049D1
:100D300040E052E07A0000207800002034040020D7
:100D40007B0000204406002006010020DA0000207D
:100D5000FE000020E2000020E00000201A00002039
:100D60000010014036000020370000203A0000202B
:100D7000140000201C000020150000201B00002093
:100D8000160000201E000020170000201F00002079
:100D90002300002018000020200000202200002056
:100DA000190000201D000020210000202600002046
:100DB0003C00002008800846B0F90000B0F5FA7F3A
:100DC0000BDB4FF0000008808748B0F9000087492E
:100DD00008804FF00000844908808548007850B1B1
:100DE00083480078A0F10100814908700846007826
:100DF00008B908F0DFFD10BD1FB5FFF761FA00F07C
:100E000046F94FF001007B49087006F029FF00F019
:100E10008DFB00F0A4FB7849096801EB81014900D2
:100E2000084606F01FFF6421102000F0A1FA01F02F
:100E300033FE05F0B8FB05F013F8FFF70BFCFFF7E6
:100E40005DFBD0E06D48007808B108F0B3FD6C4858
:100E5000007828B14FF000006949087005F0B8FC2F
:100E60006648007808B108F0A5FD6648007838B1FA
:100E70004FF000006349087001F080FDFFF75AFD54
:100E80005E48007808B108F095FD5F48007850B3DF
:100E90004FF000005C49087003F092FD03F078FB0E
:100EA00004F0B1FB4FF00000044606E0204603F0DA
:100EB0004CF804F10100C0B204465448B0F90000F7
:100EC0008442F3DB02F03AFD01F0EAFB01F000FDA1
:100ED00004F0F2FA04F0A3FA04F019F805F096F918
:100EE00003F094FC00BF4A48007800B34FF00000C4
:100EF0004749087000F033FB4FF003004549088074
:100F000002F0D9FA43480088C0B243494978424ABE
:100F10001278424B5B78CDE90032CDE902103F48B0
:100F2000007803462622FF21084605F0DFFB3C48F7
:100F3000007828B14FF000003949087001F0FEFD3B
:100F400038480078A8B34FF000003649087003F025
:100F500094FB04F091FF03F038FE3348007800F171
:100F60000100314908703148B0F9001030A00AF092
:100F7000AFFB3148B0F900103048B0F90000304AFA
:100F8000B2F90020CDE9002002912E48B0F90030DE
:100F90002D48B0F900202D48B0F900102C480AF077
:100FA00097FB01F015FA06F0A5FDFFF753FB03F0E0
:100FB00094FE1248007808B108F0FCFC254800783F
:100FC00028B14FF00000234908700AF0AFF9224819
:100FD000007840B14FF000001F4908701F480178A9
:100FE0001FA00AF075FB2DE73A0000203800002012
:100FF000D2040020B202002004000020D30400200C
:101000001A0000201B0000201E00002048010020C4
:101010001F000020FE000020E2000020E000002071
:10102000200000201D000020B3020020000000204E
:10103000253564200D0A00006C0000205E000020B1
:101040005C0000205A0000205600002058000020BC
:101050009CBA00083F040020BD020020BC02002012
:1010600025643B0D0A000000014600BFFF480088D0
:1010700010F0020FFAD0FE48018000BFFB48008844
:1010800010F0010FFAD0FA480088C0B27047F94852
:10109000C06940F08050F749C8610846806940F057
:1010A000190088610846C06940F48040C861F24870
:1010B0004068F1494860F148006880B2C1F8040C0A
:1010C000EE480068EE4940EA0100EB49C1F8040C23
:1010D000EC48406820F47060EA494860084640687F
:1010E00040F44070486040F26F30E74908804FF0AC
:1010F0000000E649A1F804087047DE48C06920F402
:101100008060DC49C861704700B5FFF7C0FFDD486B
:10111000C06820F48060DB49C8604FF00600FFF72C
:10112000A3FFD848C06840F48060D649C860FFF784
:10113000E4FF00BD00B5FFF7AAFFD248C06820F465
:101140008060D049C8604FF00500FFF78DFFFF2099
:10115000FFF78AFF0246CB48C06840F48060C94967
:10116000C860FFF7CAFF104600BD11B500BFFFF70A
:10117000E1FF10F0010FFAD1FFF789FFC148C06805
:1011800020F48060BF49C8604FF00300FFF76CFF98
:101190009DF8010004462046FFF766FF9DF8000019
:1011A00004462046FFF760FFFF20FFF75DFF04467F
:1011B0004FF0FF00FFF758FF03464FEA03200346B6
:1011C00003EB04000346AF48C06840F48060AD49BB
:1011D000C8600846C06840F48060C860FFF78DFFB3
:1011E000184618BD71B500BFFFF7A4FF10F0010F3E
:1011F000FAD1FFF74CFFA348C06820F48060A149F2
:10120000C8604FF00300FFF72FFF9DF80100044670
:101210002046FFF729FF9DF8000004462046FFF70F
:1012200023FFFF20FFF720FF04464FF0FF00FFF7EA
:101230001BFF06464FF0FF00FFF716FF05464FF075
:10124000FF00FFF711FF03464FEA0320034603EBBD
:10125000050003464FEA0320034603EB060003465E
:101260004FEA0320034603EB040003468548C068A9
:1012700040F480608349C8600846C06840F48060DC
:10128000C860FFF73AFF184678BD13B50B4600BF9C
:10129000FFF750FF10F0010FFAD1FFF7F8FE794881
:1012A000C06820F480607749C8604FF00300FFF702
:1012B000DBFE9DF8010004462046FFF7D5FE9DF8B1
:1012C000000004462046FFF7CFFEFF20FFF7CCFECC
:1012D0001870FF20FFF7C8FE5870FF20FFF7C4FE0C
:1012E0009870FF20FFF7C0FED8706648C06840F4D1
:1012F00080606449C8600846C06840F48060C86087
:10130000FFF7FBFE1CBD13B50B4600BFFFF712FF36
:1013100010F0010FFAD1FFF7F7FEFFF7B8FE5948BA
:10132000C06820F480605749C8604FF00200FFF7A2
:101330009BFE9DF8010004462046FFF795FE9DF8B0
:10134000000004462046FFF78FFE1846FFF78CFE8C
:1013500004464C48C06840F480604A49C86008466A
:10136000C06840F48060C860FFF7C7FE20461CBD1F
:1013700003B500BFFFF7DEFE10F0010FFAD1FFF753
:10138000C3FEFFF784FE3F48C06820F480603D49FB
:10139000C8604FF00200FFF767FE9DF801000346AA
:1013A0001846FFF761FE9DF8000003461846FFF758
:1013B0005BFE9DF8040003461846FFF755FE9DF8B6
:1013C000050003461846FFF74FFE2E48C06840F45C
:1013D00080602C49C8600846C06840F48060C860DE
:1013E000FFF78BFE18460CBD03B500BFFFF7A2FE4A
:1013F00010F0010FFAD1FFF787FEFFF748FE2148F2
:10140000C06820F480601F49C8604FF00200FFF7F9
:101410002BFE9DF8010003461846FFF725FE9DF8B8
:10142000000003461846FFF71FFE9DF80400034620
:101430001846FFF719FE9DF8050003461846FFF70A
:1014400013FE9DF8060003461846FFF70DFE9DF8B3
:10145000070003461846FFF707FE0A48C06840F435
:1014600080600849C8600846C06811E0083800403C
:101470000C3800400010024000000140040C014004
:101480000000B3B8001001400038004000300040B8
:1014900040F48060C860FFF730FE18460CBD13B5FD
:1014A0000B4600BFFFF746FE10F0010FFAD1FFF721
:1014B0002BFEFFF7ECFD1C48C06820F480601A4941
:1014C000C8604FF00200FFF7CFFD9DF80100044611
:1014D0002046FFF7C9FD9DF8000004462046FFF7AF
:1014E000C3FD187804462046FFF7BEFD5878044631
:1014F0002046FFF7B9FD987804462046FFF7B4FD73
:10150000D87804462046FFF7AFFD0748C06840F48E
:1015100080600549C8600846C06840F48060C860C3
:10152000FFF7EBFD20461CBD0010014010B5042064
:10153000FFF71BFEA0F5905134390FD001214FF475
:101540004570FFF715FF4FF4707140F21630FFF74A
:101550000FFF41F234210420FFF70AFF10BD10B540
:101560001020FFF702FE00B2FF4908801220FFF7AB
:10157000FCFD00B2FC4948802C20FFF7F6FD00B2CC
:10158000FA4908802E20FFF7F0FD00B2F7494880A5
:101590001420FFF7EAFDF64908801620FFF7E5FD65
:1015A000F34948801820FFF7E0FD00B2F1490880B8
:1015B0001A20FFF7DAFD00B2EE4948801C20FFF741
:1015C000D4FD00B2EC4908801E20FFF7CEFD00B22A
:1015D000E94948802020FFF7C8FD00B2E7490880AC
:1015E0002420FFF7C2FD00B2E54908802620FFF75E
:1015F000BCFD00B2E34908802820FFF7B6FD00B229
:10160000E04948802A20FFF7B0FD00B2DD4988801C
:101610003C20FFF7AAFD00B2DB4908803E20FFF71F
:10162000A4FD00B2D94908804020FFF79EFD00B21A
:10163000D74908804220FFF798FD00B2D5490880BD
:101640004420FFF792FD00B2D3490880A620FFF79F
:101650008CFD00B2D1490880A820FFF786FD00B2BA
:10166000CE494880AA20FFF780FD00B2CB49888090
:101670007620FFF77AFD00B2C94908807820FFF78D
:1016800074FD00B2C74908807A20FFF76EFD00B2F2
:10169000C54908807C20FFF768FD00B2C349088077
:1016A0007E20FFF762FD00B2C1490880C620FFF727
:1016B0005CFD00B2BF490880C820FFF756FD00B2AC
:1016C000BD4908808220FFF750FD00B2BB49088069
:1016D0008420FFF74AFD00B2B94908804FF48270B8
:1016E000FFF743FD00B2B74908808620FFF73DFDB4
:1016F00000B2B54908808820FFF737FD00B2B34932
:101700000880DE20FFF731FD00B2B14908804FF4B8
:10171000D270FFF72AFD00B2AE4908804FF4D370B3
:10172000FFF723FD00B2AC4908808C20FFF71DFDB8
:1017300000B2AA4908808E20FFF717FD00B2A84921
:1017400008809020FFF711FD00B2A64908804FF4F1
:10175000AD70FFF70AFD00B2A34908804FF4C470D2
:10176000FFF703FD00B2A14908804FF4C570FFF7F1
:10177000FCFC00B29E4908804FF4C670FFF7F5FCF0
:1017800000B29C4908804FF4C770FFF7EEFC00B22E
:10179000994908804FF4C870FFF7E7FC00B29749F9
:1017A00008804FF4CB70FFF7E0FC00B2944908804A
:1017B0004FF4CC70FFF7D9FC00B2924908804FF487
:1017C000CD70FFF7D2FC00B28F4908804FF4CE7085
:1017D000FFF7CBFC00B28D4908804FF4CF70FFF7C4
:1017E000C4FC00B28A4908804FF4D070FFF7BDFCFA
:1017F00000B2884908804FF4D170FFF7B6FC00B200
:10180000854908804FF4B270FFF7AFFC00B28349FE
:1018100008809220FFF7A9FC00B28149088094203B
:10182000FFF7A3FC00B27F4908809620FFF79DFCDC
:1018300000B27D4908809820FFF797FC00B27B49F1
:1018400008804FF49B70FFF790FC00B27849088045
:101850009A20FFF78AFC00B2764908800F22002107
:10186000744800F0A9FD4FF41770FFF77EFC00B23A
:101870007149088040F25E20FFF777FC00B26F49A3
:10188000088040F26620FFF770FC00B26C490880C7
:101890004FF41A70FFF769FC00B26A490880664885
:1018A000008866490988084400B2674908804FF4F7
:1018B0001B70FFF75AFC00B2644908804FF488504F
:1018C000FFF753FC00B26249088041F20210FFF7B3
:1018D0004CFC00B25F4908808020FFF746FC00B254
:1018E0005D490880C420FFF740FC00B25B490880D6
:1018F000CA20FFF73AFC00B259490880CC20FFF714
:1019000034FC00B257490880CE20FFF72EFC00B20D
:10191000554908804FF41970FFF727FC00B253496E
:10192000088040F26A20FFF720FC00B2504908808E
:10193000D020FFF71AFC00B24E490880D220FFF7F2
:1019400014FC00B24C490880D420FFF70EFC00B212
:101950004A490880D620FFF708FC00B248490880B1
:10196000D820FFF702FC8DE0AC000020B000002082
:10197000B4000020B8000020BC000020C0000020FF
:10198000CE000020C2000020D0000020D2000020A5
:10199000D4000020D60000200E000020C800002047
:1019A000D8000020DA000020DC000020DE0000204B
:1019B000E0000020E200002006010020E6000020F8
:1019C000E8000020EA000020EC000020EE000020EB
:1019D000F0000020F200002010000020F4000020A1
:1019E000F6000020F8000020860100208C01002075
:1019F0008E01002096010020980100209A0100200D
:101A00009C0100209E010020A0010020A2010020D6
:101A1000A4010020A6010020A801002088010020C8
:101A2000FA000020FC000020FE00002048010020F9
:101A3000460100204A0100204E0100204C010020F8
:101A400052010020540100205001002058010020C4
:101A50005A0100205C010020E40000200401002065
:101A6000080100200A0100200C0100200E010020C6
:101A70001001002012010020140100201601002096
:101A80001801002000B2FF490880DA20FFF76DFB43
:101A900000B2FD490880DC20FFF767FB00B2FB497C
:101AA0000880E220FFF761FB00B2F9490880E420DA
:101AB000FFF75BFB00B2F7490880FE20FFF755FBFC
:101AC00000B2F54908804FF48070FFF74EFB00B27A
:101AD000F2490880E620FFF748FBF1490870E8204A
:101AE000FFF743FBEF490870EA20FFF73EFBEE49A2
:101AF0000870EC20FFF739FB00B2EC490880EE20BB
:101B0000FFF733FB00B2EA490880F020FFF72DFB16
:101B100000B2E84908804FF4B670FFF726FB00B228
:101B2000E5490880F220FFF720FB00B2E349088076
:101B3000F420FFF71AFB00B2E1490880F620FFF716
:101B400014FB00B2DF490880F820FFF70EFB00B25B
:101B5000DD490880FA20FFF708FB00B2DB49088066
:101B6000FC20FFF702FB00B2D94908804FF48170D6
:101B7000FFF7FBFA00B2D74908804FF48B70FFF7EC
:101B8000F4FA00B2D44908804FF48C70FFF7EDFAF4
:101B900000B2D24908804FF48D70FFF7E6FA00B228
:101BA000CF4908804FF48E70FFF7DFFA00B2CD49BD
:101BB00008804FF48F70FFF7D8FA00B2CA49088046
:101BC0004FF4E770FFF7D1FA00B2C84908804FF42C
:101BD0009270FFF7CAFA00B2C54908804FF49370BB
:101BE000FFF7C3FA00B2C34908804FF49570FFF7BE
:101BF000BCFA00B2C04908804FF49670FFF7B5FAFE
:101C000000B2BE4908804FF49770FFF7AEFA00B2F9
:101C1000BB4908804FF49870FFF7A7FA00B2B949A2
:101C200008804FF49C70FFF7A0FA00B2B649088014
:101C30004FF49D70FFF799FA00B2B44908804FF451
:101C4000B770FFF792FA00B2B14908804FF4B8704C
:101C5000FFF78BFA00B2AF4908804FF4BA70FFF774
:101C600084FA00B2AC4908804FF4B970FFF77DFAEE
:101C700000B2AA4908804FF4BB70FFF776FA00B2B1
:101C8000A74908804FF4BC70FFF76FFA00B2A5496E
:101C900008804FF4BD70FFF768FA00B2A2490880CF
:101CA0004FF4BE70FFF761FA00B2A04908804FF40C
:101CB000BF70FFF75AFA00B29D4908804FF4C07018
:101CC000FFF753FA00B29B4908804FF4C170FFF749
:101CD0004CFA00B2984908804FF4C270FFF745FAF9
:101CE00000B2964908804FF4C370FFF73EFA00B285
:101CF000934908804FF4E970FFF737FA914908706B
:101D00004FF4F870FFF731FA8E4948704FF0000039
:101D10008D4908808B480078552805D108460088F1
:101D200000F1010000B2088086484078552806D1AD
:101D30008548008800F1010000B2834908804FF413
:101D4000EA70FFF712FA00B2804908804FF4EB7096
:101D5000FFF70BFA00B27E4908804FF4EC70FFF7F2
:101D600004FA00B27B4908804FF4ED70FFF7FDF9EB
:101D700000B2794908804FF4F170FFF7F6F900B22C
:101D8000764908804FF4EE70FFF7EFF900B274491E
:101D900008804FF4F970FFF7E8F900B26B4948800A
:101DA0004FF4FA70FFF7E1F900B2694948804FF447
:101DB000FB70FFF7DAF900B2664948804FF4FC7017
:101DC000FFF7D3F900B26449488040F20220FFF7E0
:101DD000CCF900B2614948804FF4FD70FFF7C5F9B6
:101DE00000B25F4948804FF44670FFF7BEF900B279
:101DF0005C490880A020FFF7B8F95B490870A22071
:101E0000FFF7B3F959490870A420FFF7AEF900B203
:101E100057490880C020FFF7A8F900B2554908804B
:101E2000C220FFF7A2F900B2534908804FF4AA700C
:101E3000FFF79BF9514908804FF4AB70FFF7D2F9D7
:101E40004F4908604FF4AC70FFF7CCF94D4908607A
:101E50004FF40170FFF789F900B24B49088040F256
:101E60000620FFF782F900B2484908804FF402705B
:101E7000FFF77BF900B24649088040F20A20FFF7DD
:101E800074F987E01A0100201C0100201E010020C7
:101E90002001002022010020240100202601002032
:101EA0002801002032010020330100202C010020F5
:101EB0002E0100202A0100203001002034010020E2
:101EC00036010020380100203A0100203C010020AA
:101ED000560100203E01002056000020580000203E
:101EE0005A0000205C0000205E0000206C000020F2
:101EF00040010020420100205E010020600100201E
:101F000062010020640100206601002068010020B9
:101F10006A0100206C0100206E0100207001002089
:101F200028000020720100207401002076010020AA
:101F3000780100207A0100207C0100207E01002031
:101F400080010020AA01002044010020AC010020F3
:101F5000B0010020B4010020C0010020B801002021
:101F6000BC010020560200208201002083010020D5
:101F7000840100200001002002010020C401002093
:101F8000C8010020D8010020EC010020F20100204F
:101F9000F801002000B2DB4908804FF40370FFF71E
:101FA000E4F800B2D849088040F20E20FFF7DDF8CF
:101FB00000B2D64908804FF40470FFF7D6F800B29B
:101FC000D349088040F21220FFF7CFF800B2D14980
:101FD00008804FF40D70FFF7C8F800B2CE490880B2
:101FE00040F23620FFF7C1F800B2CC4908804FF428
:101FF0000E70FFF7BAF800B2C949088040F23A20E3
:10200000FFF7B3F800B2C74908804FF40F70FFF72D
:10201000ACF800B2C449088040F23E20FFF7A5F8B2
:1020200000B2BD4948804FF41070FFF79EF800B22F
:10203000BA49488040F24220FFF797F800B2B84909
:1020400048804FF41170FFF790F800B2B54948800E
:1020500040F24620FFF789F800B2B34948804FF4B8
:102060001270FFF782F800B2AB49888040F24A2034
:10207000FFF77BF800B2A94988804FF41370FFF78F
:1020800074F800B2A649888040F24E20FFF76DF840
:1020900000B2A44988804FF41470FFF766F800B2CC
:1020A000A149888040F25220FFF75FF800B29A49B8
:1020B000C8804FF41570FFF758F800B29749C880F0
:1020C00040F25620FFF751F800B29549C8804FF40E
:1020D0001670FFF74AF800B29249C88040F25A20C1
:1020E000FFF743F800B29049C880E020FFF73DF8C1
:1020F00000B28E490880BA20FFF737F88C49087083
:10210000AC20FFF732F88B490880AE20FFF72DF89E
:1021100089490880B020FFF728F888490880B22054
:10212000FFF723F886490880B420FFF71EF8854999
:102130000880B620FFF719F8834908800846008810
:10214000002803DD084600880D2803DB4FF000005F
:102150007D490880B820FFF708F87C4908804FF4D3
:102160004570FFF702F800B27949088040F2163056
:10217000FEF7FBFF774908604FF4AE70FEF7F5FFFE
:1021800000B2754908804FF4AF70FEF7EEFF00B261
:10219000724908804FF4B070FEF7E7FF00B2704953
:1021A00008804FF4B370FEF7E0FF00B26D4908807D
:1021B0004FF4D470FEF7D9FF00B26B4908804FF49A
:1021C000D570FEF7D2FF00B2684908804FF4D67090
:1021D000FEF7CBFF00B2664908804FF4D770FEF7D8
:1021E000C4FF00B2634908804FF4D870FEF7BDFF0A
:1021F00000B2614908804FF4D970FEF7B6FF00B213
:102200005E4908804FF4DA70FEF7AFFF00B25C4918
:1022100008804FF4DC70FEF7A8FF00B2594908802F
:102220004FF4DD70FEF7A1FF00B2574908804FF46C
:10223000DE70FEF79AFF00B2544908804FF4DF7059
:10224000FEF793FF00B2524908804FF4E070FEF7AA
:102250008CFF00B24F4908804FF4E170FEF785FF14
:1022600000B24D4908804FF4E270FEF77EFF00B2E5
:102270004A4908804FF4E570FEF777FF00B24849FD
:1022800008804FF4E670FEF770FF00B24549088001
:102290004FF0000403E004F10100C0B20446402CFA
:1022A000F9DB4FF00000044603E004F10100C0B286
:1022B00004460A2CF9DB4FF00000044603E004F169
:1022C0000100C0B20446402CF9DB4FF42770FEF742
:1022D0004CFF00B23449088040F29A20FEF745FFD7
:1022E00000B23249088040F29E20FEF73EFF00B265
:1022F0002F4908804FF42870FEF737FF00B22D49B0
:10230000088010BDFE010020040200200A02002007
:1023100010020020160200201C02002024020020CF
:102320002C020020340200203C0200205402002035
:1023300044020020520200204602002048020020F1
:102340004A0200204C0200204E02002050020020D1
:1023500000000020040000209001002092010020D5
:10236000940100208A010020580200205A02002017
:102370005C0200205E020020600200206202002059
:102380006402002066020020680200206A02002029
:102390006C0200206E0200207002002072020020F9
:1023A0007402002076020020940000209600002095
:1023B000980000209A000020B0F900308B4200DA2B
:1023C0000180B0F90030934200DD028070470000C8
:1023D000FF49098839B1FE490988A1F1010109B213
:1023E000FB4A118070474FF00501F94A11804FF008
:1023F0000001F84A117008461CE000EBC00101EB37
:102400000011F54A02EB8101897801290ED100EB18
:10241000C00101EB001102EB8101C978142905DA32
:10242000EC49097801F10101EA4A117000F101015A
:10243000C9B20846E949B1F900108842DDDBE84934
:10244000097821B14FF00001E54A117003E04FF027
:102450000101E34A1170DF490978022900DAC1E776
:1024600041F28831DF4A11604FF00001DE4A11600D
:10247000DE4A1160084645E000EBC00101EB0011A7
:10248000D54A02EB81018978012937D100EBC001DF
:1024900001EB001102EB8101496AD34A12689142B3
:1024A00009DD00EBC00101EB0011CB4A02EB810119
:1024B000496ACD4A116000EBC00101EB0011C64A28
:1024C00002EB8101496AC74A1268914209DA00EBBE
:1024D000C00101EB0011C04A02EB8101496AC14A07
:1024E000116000EBC00101EB0011BB4A02EB81015E
:1024F000496ABE4A12681144BC4A116000F10101E8
:10250000C9B20846B549B1F900108842B4DBB749F1
:102510000968B04A127891FBF2F1B54A1160B149ED
:10252000096819B94FF00101AE4A1160AE49096856
:10253000B04A1160114609684FF0640201FB02F1D4
:10254000AC4A116011460968A64A126891FBF2F183
:10255000A84A116011460968822903DD4FF0010184
:10256000A54A1170A34909686E2903DA4FF00001EA
:10257000A14A1170A049097801297ED14FF00001CC
:10258000084684E000EBC00101EB0011924A02EB27
:1025900081018978012976D100EBC00101EB00119E
:1025A00002EB8101496A924A1268914217DD8C4917
:1025B0000978A1B900EBC00101EB0011864A02EBDA
:1025C0008101B1F85410A1F1010109B200EBC00280
:1025D00002EB0012804B03EB8202A2F8541000EBD6
:1025E000C00101EB00117C4A02EB8101496A804A7B
:1025F0001268914217DA7A490978A1B100EBC0015B
:1026000001EB0011744A02EB8101B1F8541001F1A1
:10261000010109B200EBC00202EB00126E4B03EBAA
:102620008202A2F8541000EBC00101EB00116A4ACB
:1026300002EB8101B1F9541011F1320F0ADA6FF097
:10264000310100EBC00202EB0012634B03EB82028C
:10265000A2F8541000EBC00101EB00115E4A02EB3E
:102660008101B1F9541032290DDD4FF0320100EB38
:10267000C00202EB0012584B01E00EE003E003EB56
:102680008202A2F8541000F10101C9B20846534970
:10269000B1F900108842FFF675AF00BF00BFA1E698
:1026A0004FF00000554908705549087055490870A9
:1026B0004FF00100544908705448007810B953484D
:1026C000007818B14FF001004C490870504800786C
:1026D00018B94FF001004B4908704E4800780128A6
:1026E0000ED14FF0000045490870454908704FF081
:1026F0000100444908704FF000004349087042E06F
:102700004448007802280ED14FF000003B49087081
:102710004FF001003A4908704FF000003949087045
:10272000394908702FE03B48007803280CD14FF05E
:102730000100324908704FF00000314908703149FA
:102740000870314908701EE03248007804280CD126
:102750004FF000002949087029490870294908707C
:102760004FF00100284908700DE02A48007805283C
:1027700009D14FF000002149087021490870214912
:102780000870214908702448007860B12248007818
:10279000A0F10100204908700846007818B94FF0F0
:1027A00000001C4908701D48007878B11B4800786B
:1027B000A0F10100194908704FF000000F4908709E
:1027C0000F4908700F4908700F490870134827E037
:1027D000D2020020F203002044060020480100201D
:1027E000F3030020E0030020DC030020E4030020CA
:1027F000E8030020EC030020F0030020A8020020E2
:10280000A7020020A6020020A9020020420000200A
:1028100032040020A4020020A50200208C02002027
:102820000078072803D0FA480078012804D14FF037
:102830000100F849087021E0F5480078062803D027
:10284000F3480078022804D14FF00100F2490870E3
:1028500014E0EF480078052803D0ED4800780328FD
:1028600004D14FF00100ED49087007E0E848007816
:10287000042803D14FF00100E9490870E9480078C5
:1028800078B1E8480078A0F10100E64908704FF0FF
:102890000000E2490870E0490870DE490870E0492C
:1028A0000870E0480078052807D0DE480078032843
:1028B00003D0DC480078012809D14FF00100D74946
:1028C0000870D5490870D3490870D5490870704719
:1028D000D548007800F10100D34908700846007817
:1028E00000F00F000870CB480078012806D1CF48CF
:1028F000C06820F04000CD49C86005E0CB48C06802
:1029000040F04000C949C860C3480078012807D199
:10291000C748006820F48050C649C1F80C0C06E096
:10292000C348006840F48050C249C1F80C0CBB4851
:102930000078012807D1BE48006820F40060BD4936
:10294000C1F80C0C06E0BA48006840F40060B949D0
:10295000C1F80C0CB2480078012807D1B4480068CF
:1029600020F48060B349C1F80C0C06E0B048006860
:1029700040F48060AF49C1F80C0C704730B5AE4BE5
:102980001B68AE4CAE4D2D7804EB4514AD4D2D7843
:1029900024F81530AA4B1B7803F10103A84C2370CF
:1029A00023461B78082B60DB4FF000032370A54BF8
:1029B0001B7803F10103A34C237023461B78102BD3
:1029C00004DB4FF0000323709F4C23709E4B1B7859
:1029D0005BB34FF0000025E04FF000031A461946A4
:1029E0000AE0964B03EB401333F8113013441A46B8
:1029F00001F10103DBB21946924B1B789942F0DBDF
:102A0000904B1B783BB18F4B1B7892FBF3F38F4CB1
:102A100024F8103002E08D4C24F8102000F101035E
:102A2000DBB218460828D7DB1FE04FF000001AE0A1
:102A30004FF000031A4619460AE0804B03EB40139F
:102A400033F8113013441A4601F10103DBB2194681
:102A50001029F2DBC2F30F137C4C24F8103000F184
:102A60000103DBB218460828E2DB794B1B6823F42C
:102A7000A003784CC4F80834774B714C247853F891
:102A80002430744CC4F834342346D3F8083443F467
:102A9000A0036F4C236030BD4FF000006849087000
:102AA0006E48806940F400706C4988614FF0000006
:102AB0006B49086068486249097850F82100654907
:102AC000C1F834044FF48070664908606648614973
:102AD000C1F808040846D0F8080440F4A000C1F882
:102AE000080470474FF000006049087060490870A2
:102AF0004FF001005F49087070474FF000005E49D9
:102B000008705E4908704FF001005D490870704719
:102B10004FF000005B4908705B4908704FF00100FE
:102B20005A49087070474FF00000594908705949D8
:102B300008704FF001005849087070471FB557489A
:102B40000078401CC0B255490870042802DB4FF0E1
:102B5000000008705248007878B152480078A0F11F
:102B6000010000EBC00101EB00104F4901EB8000B8
:102B7000C06900B24D49088037E04D48007878B10F
:102B80004C480078A0F1010000EBC00101EB0010FF
:102B9000454901EB8000006A00B24749088024E003
:102BA0004648007878B146480078A0F1010000EB73
:102BB000C00101EB00103C4901EB8000406A00B20B
:102BC0004049088011E04048007870B13F480078E3
:102BD000A0F1010000EBC00101EB0010324901EB54
:102BE0008000806A00B23A4908803048B0F900009D
:102BF0003849B1F90010401A42F2107148432B498C
:102C0000098819B12949B1F9001067E064E00000B2
:102C10008C020020A6020020A7020020A8020020AB
:102C2000A90200208D020020E202002000100140D5
:102C30000C0C0140000001404C24014016160020FD
:102C4000F0020020F1020020C402002056170020EC
:102C50000824014000200140E0BA000800100240B2
:102C60002C2401400424014003000E0038030020FE
:102C7000340300203C0300203903002035030020EA
:102C80003D0300203A030020360300203E030020CD
:102C90003B030020370300203F03002003030020F4
:102CA000040300201803002044060020080300202D
:102CB00005030020190300200A030020060300205A
:102CC0001A0300200C030020070300201B03002030
:102CD0000E030020100300204FF0010190FBF1F0E3
:102CE000F94908604FF00100F8490870F64800689B
:102CF000002802DA4FF0FF000870F548007818B994
:102D0000F2480078F2490870F248B0F90000F24940
:102D1000B1F90010401A42F210714843ED49098898
:102D200019B1EC49B1F9001001E04FF0010190FB3D
:102D3000F1F0EA4908604FF00100E9490870E748FE
:102D40000068002802DA4FF0FF000870E5480078BC
:102D500018B9E3480078E3490870E348B0F9000087
:102D6000E249B1F90010401A42F210714843DE49BD
:102D7000098819B1DC49B1F9001001E04FF00101F7
:102D800090FBF1F0DA4908604FF00100D949087072
:102D9000D7480068002802DA4FF0FF000870D648D4
:102DA000007818B9D3480078D3490870D348B0F9EF
:102DB0000000D349B1F90010401A42F210714843A3
:102DC000CE49098819B1CD49B1F9001001E04FF0A1
:102DD000010190FBF1F0CB4908604FF00100CA49B6
:102DE0000870C8480068002802DA4FF0FF00087039
:102DF000C648007818B9C4480078C4490870C44867
:102E0000007802282DD1B0490968081E01DB01466F
:102E100000E0414205290CDA4FF00000BD4908707E
:102E2000BD490870BD49BE4AB2F9002021F8120020
:102E300028E0A5480068002807DDBA48007820B9D6
:102E40004FF00400B84908701CE09F480068002853
:102E500018DAB4480078A8B94FF00200B2490870F7
:102E600010E099480068002804DD4FF00500AE49E5
:102E7000087007E094480068002803DA4FF0030068
:102E8000A9490870A948007802282DD193490968FA
:102E9000081E01DB014600E0414205290CDA4FF033
:102EA0000000A3490870A34908709C49A24AB2F9DE
:102EB000002021F8120028E088480068002807DD7B
:102EC0009848007820B94FF004009C4908701CE035
:102ED00082480068002818DA92480078A8B94FF0B4
:102EE00002009649087010E07C480068002804DD64
:102EF0004FF005009149087007E078480068002805
:102F000003DA4FF003008D4908708D4800780228DD
:102F10002ED177490968081E01DB014600E04142D5
:102F200005290DDA4FF000008649087086490870BF
:102F300001467A48854AB2F9002020F8121028E0AC
:102F40006B480068002807DD7648007820B94FF00C
:102F500004007F4908701CE065480068002818DA02
:102F600070480078A8B94FF002007949087010E065
:102F70005F480068002804DD4FF0050074490870C0
:102F800007E05B480068002803DA4FF0030070494F
:102F900008707048007802282ED15A490968081E26
:102FA00001DB014600E0414205290DDA4FF0000047
:102FB000694908706949087001465848684AB2F979
:102FC000002020F8121028E04E480068002807DD95
:102FD0005448007820B94FF00400624908701CE0A2
:102FE00048480068002818DA4E480078A8B94FF021
:102FF00002005C49087010E042480068002804DDC7
:103000004FF005005749087007E03E480068002867
:1030100003DA4FF00300534908703E48007848B186
:103020002A4800782A490978884203D04FF00200E4
:103030003749087025480078254908703C480078D1
:1030400048B12748007827490978884203D04FF0D3
:103050000200364908702248007822490870394831
:10306000007848B12348007823490978884203D082
:103070004FF00200324908701E4800781E4908705F
:103080003548007848B120480078204909788842BE
:1030900003D04FF002002F4908701B4800781B49ED
:1030A00008701D480078012804D14FF000002E4917
:1030B000087087E018480078022857D14FF00100C7
:1030C000294908707EE0000024030020340300201A
:1030D000380300200A0300201203002028030020E8
:1030E00035030020390300200C03002014030020C6
:1030F0002C030020360300203A0300200E0300209A
:103100001603002030030020370300203B0300207B
:103110003C030020040300201803002004050020C5
:10312000F2040020F4020020400300203D030020B0
:103130000503002019030020F404002041030020AF
:103140003E030020060300201A030020F60400209E
:10315000420300203F030020070300201B03002040
:10316000F80400204303002044030020FF480078B7
:10317000032804D14FF00200FD49087022E0FB480B
:103180000078042804D14FF00300F949087019E0D1
:10319000F6480078052804D14FF00400F44908707F
:1031A00010E0F2480078062804D14FF00500F049FD
:1031B000087007E0ED480078072803D14FF00600BB
:1031C000EB490870EB480078012804D14FF000006B
:1031D000E949087034E0E7480078022804D14FF04C
:1031E0000100E54908702BE0E2480078032804D18B
:1031F0004FF00200E049087022E0DE480078042821
:1032000004D14FF00300DC49087019E0D948007878
:10321000052804D14FF00400D749087010E0D548C4
:103220000078062804D14FF00500D349087007E064
:10323000D0480078072803D14FF00600CE49087027
:10324000CE480078012804D14FF00000CC49087026
:1032500034E0CA480078022804D14FF00100C84980
:1032600008702BE0C5480078032804D14FF0020015
:10327000C349087022E0C1480078042804D14FF007
:103280000300BF49087019E0BC480078052804D144
:103290004FF00400BA49087010E0B84800780628DA
:1032A00004D14FF00500B649087007E0B348007834
:1032B000072803D14FF00600B1490870B1480078E3
:1032C000012804D14FF00000AF49087034E0AD4848
:1032D0000078022804D14FF00100AB4908702BE0C0
:1032E000A8480078032804D14FF00200A6490870CE
:1032F00022E0A4480078042804D14FF00300A2493A
:10330000087019E09F480078052804D14FF00400A8
:103310009D49087010E09B480078062804D14FF0C2
:1033200005009949087007E096480078072803D1FE
:103330004FF006009449087094480078012806D0A0
:1033400092480078022815D19148007890B99148A8
:10335000007878B1002190480078CDE90001029111
:103360008D48039100780346EE2281480178007869
:1033700003F0BCF989480078012806D08748007816
:10338000022817D182480078A0B98548007888B112
:103390000021844800781030CDE900010291814875
:1033A0000391007810300346EE22734801780078CC
:1033B00003F09CF97C480078012806D07A48007810
:1033C000022817D172480078A0B97848007888B1EF
:1033D0000021774800782030CDE90001029174483F
:1033E0000391007820300346EE226548017800788A
:1033F00003F07CF96F480078012806D06D4800780A
:10340000022817D162480078A0B96B48007888B1CB
:1034100000216A4800783030CDE900010291674808
:103420000391007830300346EE2257480178007847
:1034300003F05CF91FBD00EBC00101EB0011604A15
:1034400002EB810191F85E10A1BB00EBC00101EB22
:10345000001102EB810191F85F1059BB00EBC00134
:1034600001EB001102EB8101B1F8601011BB4FF0CC
:103470003C0100EBC00202EB0012514B03EB820255
:1034800082F85E104FF0030100EBC00202EB001265
:1034900003EB820282F85F104A4909884FF46162A7
:1034A00001FB02F100EBC00202EB001203EB82020F
:1034B000A2F86010704710B5434A12881146434A7B
:1034C000B2F9002001FB02F141F2707291FBF2F2BD
:1034D00011460AB23E4B1A803B4A528811463D4A79
:1034E000B2F9002001FB02F141F2707291FBF2F29D
:1034F00011460AB2384B1A80334A92881146374A2D
:10350000B2F9002001FB02F141F2707291FBF2F27C
:1035100011460AB2324B1A80324A1288012A0AD165
:103520002B4AB2F90020304B1A801A46B2F900201B
:103530002E4B1A8085E02B4A1288032A7ED1244A1A
:10354000B2F90020284B1A80234AB2F90020B3F9BF
:1035500000309A4204DA204AB2F90020224B1A8045
:103560001F4AB2F90020204B42E00000180300205F
:103570004403002019030020450300201A03002003
:10358000460300201B030020470300203C030020CB
:10359000F402002004030020400300203D0300202B
:1035A00005030020410300203E0300200603002005
:1035B000420300203F0300200703002043030020B4
:1035C000440600208401002056170020D00000206F
:1035D0002E000020D200002030000020D400002067
:1035E000320000205C0100202A000020340000206E
:1035F000B3F900309A4204DAFA4AB2F90020FA4BE1
:103600001A80FA4AB2F90020F94B1A80F94AB2F945
:103610000020B3F900309A4204DDF64AB2F90020E6
:10362000F34B1A80EF4AB2F90020F14BB3F90030A6
:103630009A4206DDEB4AB2F9002000E001E0EC4BD3
:103640001A80ED4AD288B2F5487F0ADDEA4AD2886C
:1036500040F6D8639A4204DA4FF00002E74B1A733F
:1036600003E04FF00102E54B1A73E34AD28811469A
:10367000E34AB2F9002001FB02F144F6206291FB1B
:10368000F2F21146A1F2111211460AB2DB4B5A8135
:10369000DC4A12781A81DC4A12785A804FF0000016
:1036A000CDE000EBC00202EB0012D84B03EB82022C
:1036B000D278192A7EDA00EBC00202EB001203EB8B
:1036C0008202937900EBC00202EB0012CF4C04EBB4
:1036D0008202D27903EB022200EBC00303EB00135A
:1036E00004EB83035A6200EBC00202EB0012234694
:1036F00003EB8202137A00EBC00202EB001204EB30
:103700008202527A03EB022200EBC00303EB0013A8
:1037100004EB83031A6200EBC00202EB00122346A3
:1037200003EB8202937A00EBC00202EB001204EB7F
:103730008202D27A03EB022200EBC00303EB0013F8
:1037400004EB8303DA6100EBC00202EB00122346B4
:1037500003EB8202127B00EBC00303EB001304EBCC
:1037600083039A6200EBC00202EB0012234603EBD4
:103770008202527B00EBC00303EB001304EB8303D4
:1037800083F8562000EBC00202EB0012234603EB45
:103790008202927B00EBC00303EB001304EB830374
:1037A00083F8422000EBC00202EB0012234603EB39
:1037B000820200E011E0137C00EBC00202EB001279
:1037C00004EB8202527C03EB022200EBC00303EB0A
:1037D000001304EB83031A652DE04FF0000200EBA9
:1037E000C00303EB0013894C04EB8303DA6100EBA5
:1037F000C00303EB001304EB83035A6200EBC00326
:1038000003EB001304EB83031A6200EBC00303EB2A
:10381000001304EB83039A6200EBC00303EB001375
:1038200004EB830383F8422000EBC00303EB001397
:1038300004EB83031A6500F10102D2B21046744A08
:10384000B2F900209042FFF62CAF6B4A5289114624
:10385000704AB2F9002001FB02F14FF4FA7291FBB9
:10386000F2F211460AB26C4B1A80634A1289114671
:103870006A4AB2F9002001FB02F14FF4FA7291FB9F
:10388000F2F211460AB2664B1A804FF00002654B05
:103890001A80654B1A8010461AE000EBC00202EB5A
:1038A00000125A4B03EB8202D278052A0CDA00EBA5
:1038B000C00202EB001203EB8202526A5A4B1B88D1
:1038C0001A4412B2584B1A8000F10102D2B21046CB
:1038D0004F4AB2F900209042DFDB524A1288524B25
:1038E0001B881A4412B24F4B1A801A46B2F90020B4
:1038F000002A02DA4FF000021A804FF0000211464F
:1039000010460DE000EBC00202EB00123F4B03EB50
:103910008202526A0A44114600F10102D2B21046F4
:103920003B4AB2F900209042ECDB0AB23F4B1A80CE
:103930003F4AB2F900203F4B1A8010BD2DE9F041FB
:103940003D4800780A2810DA3B48007800F1010071
:1039500039490870084600780A2806DB4FF0000055
:1039600008704FF00100354908704FF000003449ED
:103970000880344908804FF0CD0002F0B4FC0028E4
:103980007DD031480068CE2803D14FF6FF702D4915
:1039900008802D480068CF2803D12B48406829496A
:1039A000088029480068D12803D127484068244965
:1039B000088025480068D22803D14FF6FF702049BF
:1039C000088021480068D02809D11F4840681C4958
:1039D00008801D4840686FEA00001A4908804FF0CF
:1039E000000496E0320000202A0000202E00002073
:1039F0003400002030000020561700206005002011
:103A0000BC000020C4020020F10200204406002077
:103A1000480100200E0000204C000020D6000020AD
:103A20004A00002054000020860200204E000020A2
:103A3000460000207203002054030020550300209C
:103A40004E0300205003002034040020012000FA1F
:103A500004F0F9490988084217D004EBC40000EBD0
:103A60000410F64901EB8000B0F8400000F10100BD
:103A700000B204EBC40101EB0411F04A00E04EE097
:103A800002EB8101A1F840000AE04FF0000004EBD6
:103A9000C40101EB0411E94A02EB8101A1F84000E5
:103AA00004EBC40101EB0411E44A02EB8101403153
:103AB000084632220021FEF77FFC04EBC40000EB35
:103AC0000410DE4901EB8000B0F9400014280ADD43
:103AD0004FF0010004EBC40101EB0411D74A02EBE3
:103AE000810181F82C00012000FA04F0D4490988F2
:103AF00008420AD04FF0000004EBC40101EB0411AE
:103B0000CE4A02EB810181F82C0004F10100C0B221
:103B10000446CC48B0F90000844297DDD4E0CA489E
:103B200000780028FAD04FF0000634460EE04FF03F
:103B3000010004EBC40101EB0411C04A02EB810156
:103B400081F82C0004F10100C0B20446BD48B0F970
:103B500000008442EBDB4FF00000044642E0B94A2B
:103B60001288D2B21146202902DD4FF02002114600
:103B7000B64A1078B34AB2F90020904202DB4FF007
:103B80000002104600EB0402D2B2104690FBF1F2A4
:103B900001FB1202D2B2104600EBC00202EB00128F
:103BA000A64B03EB82029278022A08D000EBC002F7
:103BB00002EB001203EB82029278012A0ED14FF041
:103BC000000200EBC00303EB00139C4F07EB8303E1
:103BD00083F82C2006F10102D2B2164604F101004E
:103BE000C0B204469748B0F90000844204DA98480D
:103BF000B0F900008642B2DB4FF000009549097829
:103C000001EBC10202EB01118C4A02EB810181F848
:103C10002C009148B0F900003C2817DA4FF0000062
:103C200004460EE04FF0000004EBC40101EB041168
:103C3000824A02EB810181F82C0004F10100C0B23C
:103C400004468048B0F900008442EBDD83480088D8
:103C5000B8B14FF0000004460EE04FF0010004EB55
:103C6000C40101EB0411754A02EB810181F82C00BB
:103C700004F10100C0B204467248B0F90000844269
:103C8000EBDD4FF00000044619E004EBC40000EB4C
:103C900004106A4901EB800090F82C0001280AD139
:103CA0006FF0310004EBC40101EB0411634A02EB35
:103CB0008101A1F8540004F10100C0B2044661483A
:103CC000B0F900008442E0DD4FF00000044628E037
:103CD00004EBC40000EB0410584901EB8000C06BFA
:103CE000D8B14FF0630004EBC40101EB0411534A57
:103CF00002EB810181F82C0004EBC40000EB0410FE
:103D0000114601EB8000C06BA0F1010004EBC4017F
:103D100001EB041102EB8101C86304F10100C0B2A0
:103D200004464848B0F900008442D1DB4FF000005F
:103D3000454908704A4908700546044625E004EBE9
:103D4000C40000EB04103D4901EB8000807801289D
:103D500017D14348007800F101004149087004EB95
:103D6000C40000EB0410354901EB8000C069A84293
:103D700007DD04EBC40000EB041001EB8000C06918
:103D800085B204F10100C0B204462E48B0F900002B
:103D90008442D4DB334805804FF00000324908707C
:103DA0004FF00100314908704FF00000044626E052
:103DB00004EBC40000EB0410204901EB8000806A92
:103DC0002B49B1F90010884203DB4FF0010026496E
:103DD000087004EBC40000EB0410184901EB8000EC
:103DE000816A2348B0F90000401F814203DB4FF095
:103DF00000001E49087004F10100C0B204461148D9
:103E0000B0F900008442D3DB17480078012802D1C2
:103E10001849087009E01748007830B11348007855
:103E200018B14FF000001349087013480088E8B338
:103E30004FF00000044630E050030020440600200C
:103E40004E03002048010020550300206A03002093
:103E5000600300206B030020260000209C0300204C
:103E60004803002086030020C9030020C803002067
:103E7000E2000020CA030020000500204FF00100EE
:103E800004EBC40101EB0411FF4A02EB810181F84C
:103E90002C0004F10100C0B20446FC48B0F9000057
:103EA0008442EBDD4FF00201F94800E020E0B0F978
:103EB0000000A0F1010000EBC00202EB0010F24A8A
:103EC00002EB800080F82C10F248008801280FD106
:103ED0004FF00301EE48B0F90000A0F1010000EB43
:103EE000C00202EB0010E84A02EB800080F82C10C0
:103EF000E948008838B34FF0000004460EE04FF068
:103F0000000004EBC40101EB0411DF4A02EB810164
:103F100081F82C0004F10100C0B20446DB48B0F97E
:103F200000008442EBDD4FF00101DB48B0F90000F6
:103F3000A0F1010000EBC00202EB0010D24A02EB3C
:103F4000800080F82C10BDE8F08170B5044604EBC9
:103F5000C40000EB0410CC4911F82000032800D065
:103F600070BD04EBC40000EB0410C74901EB8000F6
:103F700090F8425015F0020F45D004EBC40000EB5E
:103F8000041001EB8000B0F94600B0F5966F74DACA
:103F900004EBC40000EB041001EB8000B0F8460015
:103FA00000F1010000B204EBC40101EB0411B64AB8
:103FB00002EB8101A1F8460004EBC40000EB041001
:103FC000114601EB8000B0F94600B0F5966F54DB66
:103FD0004FF4966004EBC40101EB041102EB810184
:103FE000A1F8460004EBC40000EB0410114601EBFD
:103FF0008000407810F0010F3FD1012200212046BF
:1040000003F002F839E015F0020F36D104EBC400DA
:1040100000EB04109C4901EB8000B0F8460060B34F
:1040200004EBC40000EB041001EB8000B0F8460084
:10403000A0F1010000B204EBC40101EB0411924AAB
:1040400002EB8101A1F8460004EBC40000EB041070
:10405000114601EB8000B0F8460070B904EBC400D3
:1040600000EB041001EB8000407810F0010F04D049
:1040700000221146204602F0C7FF15F0080F47D076
:1040800004EBC40000EB04107F4901EB8000B0F9A1
:1040900048000A283BDA04EBC40000EB041001EBF3
:1040A0008000B0F8480000F1010000B204EBC40148
:1040B00001EB0411744A02EB8101A1F8480004EB02
:1040C000C40000EB0410114601EB8000B0F9480079
:1040D0000A2870DB4FF00A0004EBC40101EB041165
:1040E00002EB8101A1F8480004EBC40000EB0410CE
:1040F000114601EB8000407810F0020F04D101223C
:104100001146204602F080FF2046FFF794F952E066
:1041100015F0080F4FD104EBC40000EB04105A490E
:1041200001EB8000B0F9480000282EDD04EBC4004C
:1041300000EB041001EB8000B0F84800A0F1010092
:1041400000B204EBC40101EB04114F4A02EB810100
:10415000A1F8480004EBC40000EB0410114601EB89
:104160008000B0F8480030BB4FF0000004EBC40101
:1041700001EB041102EB8101A1F8480002464FF067
:104180000101204602F040FF15E004EBC40000EB03
:1041900004103D4901EB8000B0F9480000280ADA1C
:1041A0004FF0000004EBC40101EB0411364A02EBAE
:1041B0008101A1F8480015F0100F47D004EBC400AE
:1041C00000EB0410304901EB8000B0F94A000A28E6
:1041D0003BDA04EBC40000EB041001EB8000B0F804
:1041E0004A0000F1010000B204EBC40101EB04112C
:1041F000254A02EB8101A1F84A0004EBC40000EB60
:104200000410114601EB8000B0F94A000A281CDBBB
:104210004FF00A0004EBC40101EB041102EB810131
:10422000A1F84A0004EBC40000EB0410114601EBB6
:104230008000407810F0040F04D1012202212046B2
:1042400002F0E2FE2046FFF7F6F866E015F0100FE8
:1042500063D104EBC40000EB04100B4901EB8000B8
:10426000B0F84A00C8B304EBC40000EB041001EB43
:104270008000B0F84A00A0F1010000B204EBC401D4
:1042800001EB0411004A09E0440600204801002027
:1042900000050020FE040020FA04002002EB81014A
:1042A000A1F84A0004EBC40000EB0410114601EB36
:1042B0008000B0F84A0080BB4FF0000004EBC4015E
:1042C00001EB041102EB8101A1F84A0002464FF014
:1042D0000201204602F098FE1FE0FFE704EBC40055
:1042E00000EB0410FF4901EB8000B0F94A000A28F6
:1042F00013DD04EBC40000EB041001EB8000B0F808
:104300004A00A0F1010000B204EBC40101EB04116A
:10431000F44A02EB8101A1F84A0004EBC40000EB6F
:104320000410F04901EB8000C069EF49B1F90010B9
:10433000EE4AB2F90020891A88424FDA04EBC40031
:1043400000EB0410E74901EB80008078012845D19B
:1043500004EBC40000EB041001EB8000B0F94C004A
:10436000B0F5967F39DA04EBC40000EB041001EBE2
:104370008000B0F84C0000F1010000B204EBC40171
:1043800001EB0411D74A02EB8101A1F84C0004EBC8
:10439000C40000EB0410114601EB8000B0F94C00A2
:1043A000B0F5967F7BDB4FF4967004EBC40101EB14
:1043B000041102EB8101A1F84C0004EBC40000EBF6
:1043C0000410114601EB8000407810F0040F66D114
:1043D00001220221204602F017FE60E004EBC40037
:1043E00000EB0410BF4901EB8000C169BE48B0F981
:1043F0000000BE4AB2F90020801A81424FDB04EB74
:10440000C40000EB0410B74901EB8000B0F84C0089
:1044100070B304EBC40000EB041001EB8000B0F8B3
:104420004C00A0F1010000B204EBC40101EB041147
:10443000AC4A02EB8101A1F84C0004EBC40000EB94
:104440000410114601EB8000B0F84C0038BB4FF06F
:10445000000004EBC40101EB041102EB8101A1F89F
:104460004C0002464FF00201204602F0CDFD16E05E
:1044700004EBC40000EB04109A4901EB8000B0F992
:104480004C00B0F5967F0ADD4FF4967004EBC40142
:1044900001EB0411934A02EB8101A1F84C0004EBFB
:1044A000C40000EB04108F4901EB8000407810F04D
:1044B0000F0F0AD04FF0210004EBC40101EB0411EF
:1044C000884A02EB8101887042E089480078A0B1F7
:1044D00004EBC40000EB0410824901EB8000C078BB
:1044E00014280ADD4FF0220004EBC40101EB041193
:1044F0007C4A02EB810188702AE004EBC40000EBE7
:104500000410784901EB800090F8420010F0200F71
:104510000AD04FF0020004EBC40101EB0411714A10
:1045200002EB8101887013E004EBC40000EB04107F
:104530006C4901EB8000C078142809DA4FF00100C3
:1045400004EBC40101EB0411664A02EB810188709F
:1045500004EBC40000EB0410624901EB8000B0F9E9
:1045600054006449B1F90010084404EBC40101EBA4
:1045700004115C4A02EB810108634FF47A7004EB8A
:10458000C40101EB041102EB8101486300BFE7E4C1
:1045900070B55948008828B95348B0F90000574908
:1045A00008803CE05648007B20B14FF0140055498C
:1045B000088003E052484089524908805148B0F9C8
:1045C0000000002803DA5048B0F9005024E04D48BC
:1045D000B0F90000282803DD4FF028004949088081
:1045E0004148B0F900004849B1F90010A0EB0100C2
:1045F00000EB80004FEA400005464248B0F9000059
:1046000005FB00F54FF0C80095FBF0F005463E486D
:10461000B0F900002844054628B238490880BE2079
:1046200001F061FE40B139480068BF2804D1374825
:10463000406800B2314908803048B0F900000446B3
:104640004FF0620004FB00F44FF0640094FBF0F0C4
:10465000044620B22E4908802848B0F900000446DC
:104660004FF0660004FB00F44FF0640094FBF0F0A0
:10467000044620B22749088070BD10B5264800883E
:1046800030B125480088A0F1010000B2224908801D
:104690002248B0F90000224908801948B0F9080002
:1046A000002812DA1649B1F90810081E01DB01468C
:1046B00001E0C0F100014FF00A0291FBF2F1184A4B
:1046C0001288114409B2164A11800D48B0F95400FD
:1046D000002833DA0A49B1F95410081E22DB0146DA
:1046E00022E0000044060020DE0000200601002039
:1046F00042000020C80200203401002056030020A0
:104700006005002068030020DC0000203404002045
:104710005C0300205A030020E402002086020020EF
:1047200088020020C0F100014FF00A0291FBF2F173
:10473000FF4A1288114409B2FD4A1180FC48B0F9C1
:104740000000FC49B1F9001090FBF1F000F101000C
:10475000F9490870F648B0F90000F849B1F90010BD
:1047600090FBF1F000F10100F5490870F248007883
:10477000F449B1F90010884208DDEF480078F149AA
:1047800008804FF03C00F049088011E0EC480078C8
:10479000EC49B1F9001088420ADAEB48008838B9D0
:1047A000E7480078E74908804FF03C00E649088078
:1047B000E648008820B1E648B0F90000E1490880E9
:1047C000E448007820B1E248B0F90000DD490880F3
:1047D000E14800780A2804D1DD48B0F90000D94941
:1047E0000880DE4800780A2803D0DC4800780B28CF
:1047F00004D1D748B0F90000D2490880D448B0F9B4
:1048000000200121CF48FDF7D7FD10BD10B5D448D9
:10481000B0F90000D349B1F90010884235DAD24826
:1048200090F900000A2819DAD048B0F900000F28E2
:1048300014DDCD48007800F1010040B2CA4908708B
:10484000084690F900000A2811DBC548B0F90000BD
:10485000C7490880012002F02FF808E0C24890F90B
:1048600000000A2803DB4FF00A00BF490870BC486B
:10487000B0F90000BE49B1F9001088422DDAB848FD
:10488000B0F90000BA49088027E0B548B0F9000047
:10489000B449B1F9001088421FDDB348007898B1DF
:1048A000B1480078A0F1010040B2AF490870084655
:1048B00090F90000002810DC002001F0FDFF4FF00F
:1048C0000A00AC49087008E0A74890F900000028E9
:1048D00003DA4FF00000A4490870A748B0F90000BF
:1048E000A649B1F90010884235DDA54890F90000CD
:1048F0000A2819DA9D48B0F900000F2814DDA048F5
:10490000007800F1010040B29D490870084690F916
:1049100000000A2811DB9848B0F90000944908808B
:10492000022001F0C9FF08E0954890F900000A282C
:1049300003DB4FF00A00924908708F48B0F900007D
:104940008B49B1F9001088422DDD8B48B0F9000089
:104950008749088027E08848B0F900008749B1F905
:10496000001088421FDA8648007898B184480078A1
:10497000A0F1010040B282490870084690F9000099
:10498000002810DC002001F097FF4FF00A00794961
:10499000087008E07A4890F90000002803DA4FF028
:1049A0000000774908707348007828B17148007892
:1049B000A0F101006F49087010BD10B5029C10BD38
:1049C0004FF0000108463BE06E49896811F4007120
:1049D0006C4A916018D16C4909560A290FDA6A4964
:1049E000095C01F1010149B2674A115411460956A7
:1049F0000A2921DB4FF00101644A11541CE04FF0F9
:104A00000A01614A115417E05F49095600290FDD78
:104A10005D49095CA1F1010149B25B4A115411469B
:104A20000956002908DC4FF00001584A115403E0F0
:104A30004FF00001544A115400F10101C9B2084677
:104A40000128C1DB4FF00001084643E0504931F82E
:104A5000101019B94D49095C012906D04C4931F8AB
:104A60001010D9B14949095CC1B94A4909560A2906
:104A70000FDA4849095C01F1010149B2454A115474
:104A8000114609560A2921DB4FF00101424A11540F
:104A90001CE04FF00A013F4A115417E03D49095606
:104AA00000290FDB3B49095CA1F1010149B2394AF8
:104AB000115411460956002908DC4FF00001364A0E
:104AC000115403E04FF00001324A115400F101018A
:104AD000C9B208460128B9DB704708B52F484078AD
:104AE00000F101002D4948702D48007860B14FF069
:104AF00000002B4908704FF00A0002F0CAFD4FF089
:104B00000A00264948705FE04FF0140023494870BE
:104B10002448008858B92448007840B90E480078E5
:104B200028B90E48007810B94FF001003EE042E08D
:104B300088020020F400002052030020F60000202C
:104B40005303002060030020E4020020080100203D
:104B500048010020CA030020CC020020CE02002021
:104B60002A000020E800002040000020260000204D
:104B70002C000020D803002034000020EA00002090
:104B800041000020001001400A040020D40200204F
:104B90001C0200200E040020DC0200206E00002019
:104BA00008000020680000207C000020EE4908700A
:104BB00002F06FFD08E04FF4FA60ECA3F1A2F7A158
:104BC0000090FCA0FFF7F9FE08BD10B5FF48B0F952
:104BD0000000FF49B1F9001088421DDDFD48B0F921
:104BE0000000FD49B1F90010884228DAF948008830
:104BF00000F1010000B2F74908800846B0F9000052
:104C0000F549B1F90010884219D1F4480078B0B9DB
:104C1000022002F070F812E0EE48008878B1ED480A
:104C20000088A0F1010000B2EA4908800846008827
:104C300028B9EA48007810B1002002F05CF8E34897
:104C4000B0F90000E649B1F9001088421DDAE548E4
:104C5000B0F90000E049B1F90010884228DAE148D3
:104C6000008800F1010000B2DE4908800846B0F972
:104C70000000D949B1F90010884219D1D74800780D
:104C8000B0B9012002F037F812E0D648008878B1B8
:104C9000D4480088A0F1010000B2D249088008463B
:104CA000008828B9CD48007810B1002002F023F820
:104CB000CD48B0F9000000EB8000C449B1F9001004
:104CC000B1EB400F08DAC948007828B91423012253
:104CD0007221D22001F0C2FA10BD08B5A2480078B6
:104CE00001282CD1C24800789F49097888420DD00C
:104CF0004FF00500BF490880BF48008830B94FF029
:104D0000000008804FF0020097490870B9480088F9
:104D100068B1B8480088A0F1010000B2B549088028
:104D20000846008818B94FF003008F490870B3484F
:104D30000078012803D14FF002008B4908708A489F
:104D40000078022832D1AA48007887490978884239
:104D50000CD0AB48B0F900004FF4616100FB01F0EA
:104D6000A84908604FF00000A7490860A5480068FE
:104D7000A0F10100A3490860A348006800F1010008
:104D8000A14908609F48006828B94FF000007649A3
:104D9000087002F07EFC9948007838B9964800887F
:104DA000012803D14FF004006F4908706E48007865
:104DB000032824D18E4800786B490978884202D1B3
:104DC0008C48008818B94FF00A008A490880894841
:104DD0000088A0F1010000B28649088008460088DA
:104DE0000A2803D008460088092808D141F28830F3
:104DF00086A38CA291A1009096A0FFF7DEFD5A48F1
:104E0000007804282CD17A480078574909788842DC
:104E100002D17848008818B94FF00A007549088017
:104E200074480088A0F1010000B272490880084669
:104E300000880A2803D008460088092808D141F2D2
:104E400088308AA38FA295A1009082A0FFF7B5FDBC
:104E50006A480078012803D14FF0020042490870E7
:104E600041480078624908709248008801284DD175
:104E70003D480078E8BB90480078D0BB8F48007868
:104E8000B8BB8F480078A0BB8E49B1F900108E4A9C
:104E9000B2F90020914230DA8B49B1F90010894A09
:104EA000B2F90020891A894AB2F90020914224DD22
:104EB0008749B1F900100A2291FBF2F1854AB2F953
:104EC0000020881A01D4014600E04142052914DA85
:104ED0008149098889B98148007800F101007F493A
:104EE0000870084600783C2810DBFFF7F6FD052027
:104EF00000E007E002F0CDFB08E04FF0000077494A
:104F0000087003E04FF000007449087008BD10B548
:104F10007348007830B372480078A0F101007049FE
:104F200008700846007818B94FF000006D49087005
:104F30006D48007800F0FE006B4908706948007801
:104F4000012804D10846007840F001000870674845
:104F5000007840F00100654908706248007810B997
:104F60000846C5E0C9E0D4E0080000202020202049
:104F70002020202020202020202020202020202031
:104F80000000000020202020E7E0E1EBEEEAE8F05E
:104F9000EEE2E0ED21202020000000002020202073
:104FA000202020E7E0F0FFE4202020202020202007
:104FB000000000002020202020D3F1EAEEF0E5EDF3
:104FC000EDFBE92020202020000000004C00002004
:104FD0005E0100202E040020620100203204002027
:104FE0006001002030040020E60000209D04002025
:104FF00070000020720000206C000020D40200200D
:105000005A00002074000020C40300202020C1C5E5
:10501000C720C2C5CDD2C8CBDFD6C8C82121202029
:1050200000000000202020202020C2CACBDED7C5EF
:10503000CD2020202020202000000000202020CD96
:10504000C520CCCEC6C5D220C1DBD2DC202020209A
:10505000000000002020D3D1CACED0C5CDCDDBC901
:1050600020C7C0D0DFC42020000000002020202066
:10507000C2C5CDD2C8CBDFD6C8DF21212120202058
:10508000000000002020202020CDC5C8D1CFD0C0F6
:10509000C2CDC020202020200000000020202020A1
:1050A000C7C0C1CBCECAC8D0CEC2C0CD2020202020
:1050B000000000005C0000207C000020CC020020EA
:1050C000CE02002052000020560300205E00002087
:1050D00046000020FA00002068000020090000209F
:1050E00096020020950200201200002013000020EC
:1050F000007800F0FE0008700BE0FA48007800F03D
:10510000FE00F8490870F848007800F0FE00F64903
:105110000870F648007850B3F4480078A0F1010018
:10512000F24908700846007818B94FF00000F049BD
:105130000870EC48007800F0FD00EA490870EC487F
:105140000078012804D10846007840F00200087079
:10515000E548007840F00200E3490870E448007830
:1051600088B90846007800F0FD0008700BE0DD48C3
:10517000007800F0FD00DB490870DB48007800F0A3
:10518000FD00D9490870DB48007850B3D948007851
:10519000A0F10100D74908700846007818B94FF00F
:1051A0000000D5490870CF48007800F0FB00CD49D9
:1051B0000870D1480078012804D10846007840F0F2
:1051C00004000870C848007840F00400C649087020
:1051D000C948007888B90846007800F0FB000870DC
:1051E0000BE0C048007800F0FB00BE490870BE48E4
:1051F000007800F0FB00BC490870C048007850B34C
:10520000BE480078A0F10100BC490870084600784B
:1052100018B94FF00000BA490870B248007800F0A1
:10522000F700B0490870B6480078012804D1084654
:10523000007840F008000870AB48007840F00800A3
:10524000A9490870AE48007888B90846007800F08F
:10525000F70008700BE0A348007800F0F700A149C0
:105260000870A148007800F0F7009F490870A54831
:10527000008800280FD0A3480088A0F1010000B2E8
:10528000A04908800846008830B94FF000009E49C8
:1052900008709E490870C1E09B480078FF284AD1F9
:1052A0009A48007801280DD10A23821ED021CD20F2
:1052B00000F0D4FF0A234FF47F72E521E12000F0D3
:1052C000CDFFABE09148007802280CD10A23C21E22
:1052D000D021CD2000F0C2FF0A231E22E521E120CB
:1052E00000F0BCFF9AE089480078032812D10A2315
:1052F000021FD021CD2000F0B1FF0A231E22E5219C
:10530000E12000F0ABFF0A230022E621E12000F0BB
:10531000A5FF83E07D48007804287FD10A23421F3F
:10532000D021CD2000F09AFF0A2301222221212042
:1053300000F094FF72E07548007868B97248007810
:10534000401E01218140C84300B202460A23D021F9
:10535000CD2000F083FF61E06C480078012813D174
:1053600069480078401E0121814008B202460A23A4
:10537000D021CD2000F072FF0A234FF47F72E52187
:10538000E12000F06BFF49E060480078022812D16C
:105390005D480078401E0121814008B202460A2380
:1053A000D021CD2000F05AFF0A231E22E521E12062
:1053B00000F054FF32E055480078032818D15248D5
:1053C0000078401E0121814008B202460A23D02104
:1053D000CD2000F043FF0A231E22E521E12000F04A
:1053E0003DFF0A230022E621E12000F037FF15E00F
:1053F00046480078042811D143480078401E012116
:10540000814008B202460A23D021CD2000F026FFB9
:105410000A2301222221212000F020FF10BD3C4858
:10542000007810F0010F06D03A48C06840F0100034
:105430003849C86005E03748C06820F01000354999
:10544000C8603348007810F0020F07D03248006877
:1054500040F002003149C1F80C0C06E02E4800680B
:1054600020F002002D49C1F80C0C2948007810F0FA
:10547000040F07D02848006840F001002749C1F810
:105480000C0C06E02448006820F001002349C1F814
:105490000C0C1F48007810F0080F06D01D48C0689B
:1054A00040F020001B49C86005E01A48C06820F0A1
:1054B00020001849C86070470CB5194AB2F900209D
:1054C000ADF80020174AB2F90020ADF80220164AC4
:1054D000B2F90020ADF804204FF00002114610464A
:1054E00079E0000012000020130000209802002044
:1054F000970200209A020020990200209C020020BE
:105500009B020020A00200209D0200209E0200209D
:105510008E020020001001400C0C014000000140F0
:10552000900100209201002094010020FF4A12788F
:10553000012A0CD13DF8102012F0020F07D04FF0D5
:10554000010202FA00F242EA0102D2B21146F74A1F
:105550001278022A0CD13DF8102012F0040F07D067
:105560004FF0010202FA00F242EA0102D2B2114601
:10557000EF4A1278012A0CD13DF8102012F0800F6A
:1055800007D04FF0010202FA00F242EA0102D2B261
:105590001146E74A1278022A0CD13DF8102012F485
:1055A000807F07D04FF0010202FA00F242EA0102C6
:1055B000D2B211463DF8102012F0010F07D04FF083
:1055C000010202FA00F282EA0102D2B2114600F1AF
:1055D0000102D2B210460328A8DBD64A1170127815
:1055E000D54B1B7822EA0302D24B1A70D34A1278A9
:1055F000D14B1B7802EA0302CE4B1B7842EA03022E
:10560000CC4B1A700CBD10B5CD480088CD49088030
:10561000CD48008818B9CD480078022803D1CC487D
:105620000088C8490880CB4800780A2803D1CA48B6
:105630000088C4490880C94800780A2803D1C848AE
:105640000088C0490880C54800780B2803D1C548A8
:105650000088BC490880C448008830B1C24800882E
:10566000A0F1010000B2C0490880C048008830B1F4
:10567000BE480088A0F1010000B2BC490880BC48C7
:1056800090F83F0010F0030F05D1B94890F88B0057
:1056900010F0030F07D0AB4800884FF00A0190FBD1
:1056A000F1F0A8490880B348B0F90000012804DBF4
:1056B000B048B0F90000052803DD4FF00100AD4906
:1056C0000880AC48B0F9000000EB80004000AA4917
:1056D0000978884217DDA848007800F10100A64942
:1056E0000870A448B0F9000000EB80004FEA4000C9
:1056F0000978884207DC4FF000009F4908704FF09E
:1057000001009E490870E12000F0EDFD002877D0EF
:105710009B480068642808D19948406899490988DD
:10572000084400B29849088009E395480068692850
:1057300009D19348406893490988A1EB000000B261
:1057400091490880FBE28E4800686E2827D18E4878
:105750000088A0F1010000B28B4908800846B0F92A
:1057600000001E2807DD8948B0F900008849B1F91A
:10577000001088420EDA87480078401CC0B2854984
:105780000870FA28D0D10A230022E721E62000F091
:1057900065FDD4E24FF000007E490870CFE2784802
:1057A0000068E52805D17648406800B2764908804F
:1057B000C5E273480068E628B6D17748B0F9000022
:1057C0007649B1F9001088422BDD4FF00B00744987
:1057D00008707148B0F900007049B1F90010A0EBF1
:1057E000010028280DDD6848B0F90000002808DD18
:1057F00065480088A0F1050000B2634908809EE278
:1058000046E06148008800288ED05C480078002877
:105810008AD05D480088A0F1010000B25A49088092
:105820008DE25D48B0F900005C49B1F90010884292
:1058300088DA4FF00C005A4908705848B0F9000057
:105840005549B1F90010A0EB010028280EDD4E48A3
:10585000B0F9000040F2F731884207DA4A48008880
:1058600000F1050000B24849088068E24648B0F9F6
:105870000000B0F57F7F8CDA40480078002888D09F
:105880004148008800F1010000B23F49088056E21B
:105890003A48007800288BD04248008820B142481E
:1058A00090F823032828AADD3648B0F900003F49C4
:1058B00008804FF013003A4908703D48B0F90000E5
:1058C0004FF00A0190FBF1F01E4909884FEA4101AF
:1058D000884216DD4FF014003149087022480088D4
:1058E00038B132480088A0F1010000B22F49088089
:1058F000F1E12E480088A0F10A0000B22B4908808F
:10590000E9E12B48B0F900000A2190FBF1F10D48C4
:105910000088B1EB400F64DA0A480088C0EB001041
:105920002349B1F9001088425BDA43E042000020CD
:10593000320400208E0200201300002012000020FC
:10594000FA000020800300206000002008000020F2
:1059500056000020CC02002098010020CE0200203A
:105960009E010020A60100208A0300208C03002055
:1059700060050020800100207703002078030020CC
:1059800034040020CA020020C80200205200002077
:10599000E6000020E60200204A0000205603002016
:1059A000960300208002002044060020700300209F
:1059B000720300204FF01500FF490870FF4800886F
:1059C00038B1FF480088A0F1010000B2FC4908800E
:1059D00081E1FB480088A0F1030000B2F84908808B
:1059E00079E1F8480088C0EB0010F749B1F90010E0
:1059F000884215DDF448B0F900000A2190FBF1F06F
:105A0000F049098888420BDD4FF01600EA4908701A
:105A1000EB480088A0F1010000B2E94908805AE192
:105A2000EA48B0F90000EA49B1F9001088427EDA8C
:105A30004FF01700E0490870E648B0F90000E64969
:105A4000B1F90010A0EB0100E149B1F90010A1EBA0
:105A50000000DE49B1F90010884254DD4FF0180013
:105A6000D5490870D848B0F90000002815DA4FF081
:105A700019000870D148008838B1D148008800F179
:105A8000010000B2CE49088025E1CD48008800F130
:105A90000A0000B2CA4908801DE1CA48008800EB2C
:105AA0008000C949B1F90010884216DD4FF01A0094
:105AB000C1490870C148008838B1C148008800F168
:105AC000010000B2BE49088005E1BD48008800F130
:105AD000020000B2BA490880FDE0BA48008800EB35
