:020000040800F2
:10000000202A00200101000805010008070100085E
:10001000090100080B0100080D01000800000000A4
:100020000000000000000000000000000F010008B8
:100030001101000800000000130100088D0D0008E8
:100040001701000817010008170100081701000830
:100050001701000817010008170100081701000820
:100060001701000817010008170100081701000810
:100070001701000817010008170100081701000800
:1000800017010008170100081701000817010008F0
:1000900017010008170100081701000817010008E0
:1000A00017010008170100081701000817010008D0
:1000B00017010008170100081701000817010008C0
:1000C00017010008170100081701000817010008B0
:1000D00017010008D185000859870008170100089A
:1000E000170100081701000817010008DFF80CD0FD
:1000F0000BF06AFF004800474B0F0008202A002041
:1001000005480047FEE7FEE7FEE7FEE7FEE7FEE7FD
:10011000FEE7FEE7FEE7FEE7ED000008D248806953
:1001200040F00100D0498861D048406820F00400C8
:10013000CE494860CC48806940F00400CA498861D3
:10014000CB48006820F47F60C849C1F8040808461D
:10015000D0F8040840F0B000C1F804080846D0F810
:10016000040840F48060C1F80408BF48806940F486
:100170008040BD49886141F66A00BE4908804FF061
:10018000000001F104010880BB49A1F81008BB4838
:100190000088BA4908804FF00000B749A1F8140858
:1001A0000846B0F80C0840F00C00A1F80C0808460E
:1001B000B0F80C0840F0E000A1F80C08B048008846
:1001C000A1F81008AF480088AE4908804FF0200021
:1001D0004FF0E021C1F80401A748B0F80C0840F442
:1001E0000050A549A1F80C089F48806940F0010023
:1001F0009D4988619D48406820F008009B494860FF
:100200009948806940F00400974988619748D0F880
:10021000000820F47F409549C1F800080846D0F84E
:10022000000840F43060C1F800080846D0F8000823
:1002300040F48040C1F800088B48C06940F40030A9
:100240008949C8614FF075008F4908804FF0000060
:1002500001F1040108804FF04021A1F810048B48FF
:1002600000888A4908804FF000004FF04021A1F833
:1002700014040846B0F80C0440F00C00A1F80C047B
:100280000846B0F80C0440F0E000A1F80C048048E7
:100290000088A1F810047F4800887E4908804FF04C
:1002A00040004FF0E021C1F804014FF04020B0F8C9
:1002B0000C0440F400504FF04021A1F80C047047AA
:1002C00010B500BF4FF012007349086000BF00BFB7
:1002D0007248654948607248086000BF00BF6248C4
:1002E000006810F4003FFAD000BF5F48006810F0CB
:1002F000007FFAD000BF5C48406800F00C0008287E
:10030000F9D100BF00BF4EF65F204FF0E0214861F9
:100310004FF0060008614FF0000088610846006950
:1003200040F00100086100BF00F04EF800BF4E48E9
:10033000806940F400604C4988614FF000005949E1
:10034000088041F26F705849A1F82C0C4FF0000062
:1003500056490880564908805349A1F8040C0846BC
:10036000B0F8000C40F00100A1F8000C00BF00BF85
:100370003D48806940F004003B4988614FF000002F
:100380004C4908604FF440503849C1F804083648D9
:10039000806940F00800344988614748474908604F
:1003A00047483249C1F8040C2F48806940F01000DA
:1003B0002D4988614348444908604FF04000486037
:1003C00000BFFFF7ABFE10BD2748C06940F080506A
:1003D0002549C8610846C06940F00060C8613B48D3
:1003E000006840F48070394908601F48006A40F096
:1003F00001001D49086200BF1B48006A10F0020F8F
:10040000FAD01948006A40F40140174908623048A0
:10041000008840F010002F49A1F804084FF00000B8
:100420002D49088047F6FF7001F1040108804FF064
:1004300000002A4908804FF03C002649A1F8240812
:100440000846B0F8040820F01000A1F8040800BF26
:100450001F48008810F0200FFAD01C48006820F4D4
:1004600080701A4908607047001002400000014087
:100470000408014008380140003001400C380140B8
:100480001038014014380140084400400C4400403A
:100490001044004014440040002002400284110037
:1004A00082000901282C014000200140302C01402D
:1004B000002C014000080140110000EE000C01403A
:1004C00040118100400011110010014000700040F7
:1004D0000428004000200040082800402028004058
:1004E00010B50446E0B208F011F9002010BD70B557
:1004F00004460D462046FFF7F3FF70BDFF4909880B
:1005000008464FEA00410846FD49B1F81C1801446D
:1005100008469AE04FF01F010A46FA49A0EB010194
:100520000846F949098804290BD0F74909880629A2
:1005300007D0F5490988092903D0F34909880B290F
:1005400002D14FF01E010A46EF490988022913D152
:10055000ED4B1B1F1B8819464FEAE37301EB9373A6
:100560004FEAA303B1EB830303D04FF01C010A460B
:1005700002E04FF01D010A46E4490988914213DA6E
:10058000E349096841F48071E14B1960DF4909884A
:1005900001F10101DF4BA3F80C1CDD49096821F4CE
:1005A0008071DB4B196028E0D949096841F48071FA
:1005B000D74B19604FF00101D44B1980D549B1F8E0
:1005C000081C01F10101D34BA3F8081C1946B1F82E
:1005D000081C0C290BDD4FF00101CB4B1980CD49D4
:1005E000B1F8041C01F10101A3F104031980C84909
:1005F000096821F48071C64B1960C549096841F446
:100600008071C34B1960C449098841F01001BC4B8B
:10061000A3F804184FEA1041B84B1980B84BA3F85F
:100620001C081946B1F8041821F01001A3F80418A9
:1006300000BFB949098811F0200FFAD0B449096800
:1006400021F48071B24B196000BFAE498842BFF6F9
:1006500061AF704710B5B1480088AE49B1F8101CC1
:10066000A0EB010000B20446072C19DD0E2C17DAAE
:10067000AB480088A0B9A648006840F48070A4493F
:1006800008604FF00100A6490880A148006820F4E6
:1006900080709F4908604FF00800A249087044E04C
:1006A000072C1ADD0E2C18DA9D480088012814D179
:1006B0009748006840F48070954908604FF0020048
:1006C000974908809248006820F48070904908603B
:1006D0004FF008009349087027E0072C25DD0E2C09
:1006E00023DA8F48008802281FD18948006840F427
:1006F0008070874908604FF003008949088084486A
:10070000006820F48070824908604FF001014FF4C6
:10071000457000F02BFF4FF4707140F2163000F07E
:1007200025FF4FF00600804908707948006840F4C2
:10073000807077490860794800887649A1F8100CE4
:100740007348006820F48070714908607748B0F9F8
:100750000000B0F57A7F06DA7448008800F10100E5
:1007600000B2724908807148008864280FD1684837
:10077000006840F48070664908604FF000006849E6
:1007800008806348006820F480706149086010BDEB
:1007900070B588B06648008800F10100644908809F
:1007A0006448008800287EDB624800883F287ADCA5
:1007B0004FF4606000F0D7FD06B25E480088A6EBFB
:1007C000000005B2002D03DA05F13F0000B2054636
:1007D0004FF4806000EB451000B2044669462046A5
:1007E00000F051FE04F1040000B2044601A92046C5
:1007F00000F049FE04F1040000B2044602A92046BC
:1008000000F041FE04F1040000B2044603A92046B2
:1008100000F039FE04F1040000B2044604A92046A9
:1008200000F031FE04F1040000B2044605A92046A0
:1008300000F029FE04F1040000B2044606A9204697
:1008400000F021FE04F1040000B2044607A920468E
:1008500000F019FE9DF80000374908809DF801005E
:1008600048809DF8020088809DF809009DF80810D6
:1008700000EB01203049C8809DF80C009DF80A105B
:1008800000EB01202C4908819DF80E009DF80D1009
:1008900000EB0120284948819DF809009DF80810C7
:1008A00000EB012000E053E0234988819DF80C0013
:1008B0009DF80A1000EB01201F49C8819DF80E0029
:1008C0009DF80D1000EB01201B4908829DF80400E3
:1008D0009DF8051000EB0120174948829DF818008B
:1008E0009DF8191000EB0120134988829DF806003D
:1008F0009DF8071000EB01200F491FE01828004069
:100900000020004080510100086C00400C6C004049
:100910000070004000600040042800401C28004097
:10092000146C00408C0200208D0200208A020020FE
:10093000AE020020AC020020FC150020C8829DF809
:100940000F009DF80B1000EB0120FF49088378E0B1
:10095000FE480088B0F5FA6F0AD140F6026000F058
:1009600002FDFB4908804FF00000F849088068E06C
:10097000F6480088B0F57A7F14D1002140F6026075
:1009800000F0BFFD00214FF4606000F0BAFD40F6BA
:10099000026000F0E8FCEE4908804FF00000EB49EF
:1009A00008804EE0E9480088A0F51C5111390DD1AE
:1009B000012006F0C5F940F6026000F0D4FCE449DD
:1009C00008804FF00000E14908803AE0DF480088E5
:1009D000A0F59C4121390DD1002006F0B1F940F677
:1009E000026000F0C0FCDA4908804FF00000D749EF
:1009F000088026E0D5480088A0F51C5112390DD199
:100A0000022006F09DF940F6026000F0ACFCD049EF
:100A100008804FF00000CD49088012E0CB480088E4
:100A2000A0F59C4122390CD1002006F089F940F64E
:100A3000026000F098FCC64908804FF00000C349EE
:100A4000088008B070BD2DE9F0410646C6F30720C6
:100A50000746F0B20546012F24D11C2000F083FC8C
:100A600000B20446112D04D104F1010000B2044685
:100A700013E0122D04D104F10A0000B204460CE088
:100A8000212D04D1A4F1010000B2044605E0222D7D
:100A900003D1A4F10A0000B2044621461C2000F054
:100AA00065FD00BFBDE8F0811FB5AA48B0F90000A0
:100AB000B0F57A7F06DAA748008800F1010000B29D
:100AC000A44908804FF02000A3490870A34800887B
:100AD00000F1010000B2A14908809F4909788842CD
:100AE00003DD6FF003009D4908809C48B0F90000C9
:100AF00000287DDB9948B0F90000202878DC21200F
:100B000005F035FE20B196480068222800D11FBDAF
:100B100094480078F0BB9148B0F9000000EBC001A8
:100B200001EB0010904901EB800090F835108B48E4
:100B3000B0F9000000EBC00202EB00108A4A02EBA1
:100B4000800090F834208548B0F9000000EBC00325
:100B500003EB0010844B03EB800090F831007F4BD7
:100B6000B3F9003003EBC30404EB03137E4C04EB36
:100B7000830393F83030CDE90030CDE90221774886
:100B8000B0F9000000EBC00101EB0010214601EBC1
:100B9000800000E00BE090F82C000346ED226F4847
:100BA0000088C1B26D480088C0B205F0E3FF6B4811
:100BB000B0F9000020287CDC6848B0F9000000EBA8
:100BC000C00101EB0010684901EB8000C0783C28AF
:100BD0001ADA6248B0F9000000EBC00101EB001026
:100BE000614901EB8000C07800F101005B4900E041
:100BF00060E0B1F9001001EBC10202EB01115A4AA9
:100C000002EB8101C8700CE04FF03C005349B1F990
:100C1000001001EBC10202EB0111534A02EB81010A
:100C2000C8704E48B0F9000000EBC00101EB0010A5
:100C30004D4901EB8000C078032824DB4748B0F918
:100C4000000000EBC00101EB0010474901EB800000
:100C50000079032817DA4148B0F9000000EBC00121
:100C600001EB0010404901EB8000407900F10100E8
:100C70003A49B1F9001001EBC10202EB01113A4A05
:100C800002EB810148713548B0F9000000EBC0016A
:100C900001EB0010344901EB8000C0782F49B1F915
:100CA000001001EBC10202EB01112F4A02EB81019E
:100CB000087169E02948B0F90000001D64D0274898
:100CC000B0F90000401C5FD0244800880C2816D1E1
:100CD00024480078B0BB0023244840782349097891
:100CE000234A5278CDE90203CDE90021204800785B
:100CF00003466222FF21084605F03CFF44E0174806
:100D000000880D2840D0154800880E283CD0134894
:100D100000880F2837D11348007898B91548008803
:100D2000C2B21548407814490978144B5B78CDE974
:100D30000031CDE902021148007803462622FF2146
:100D400008461DE020E00000FC150020AC02002059
:100D5000AA0200205A0500207A0000207800002016
:100D6000440400207B0000205C06002006010020D7
:100D7000DA000020FE000020E2000020E000002059
:100D800005F0F8FE00E000BF00BFC0E610B54FF070
:100D90000100FF490870FF48806810F00200FD491B
:100DA000886004D04FF00100FB49087003E04FF069
:100DB0000000F9490870F8480078F8490978884235
:100DC00006D0F748008800F1010000B2F44908801D
:100DD000F1480078F1490870F2480078401CC0B230
:100DE000F0490870142806DB4FF0000008704FF03F
:100DF0000100ED490870ED480078401CC0B2EB4995
:100E000008700A287EDB4FF0000008704FF00100E8
:100E1000E7490870E748007800F10100C0B2E549F1
:100E200008700A2808DB4FF0000008704FF001003E
:100E3000E149087007F0AAF9E0480078401CC0B208
:100E4000DE490870142812DB4FF0000008704FF0E4
:100E50000100DB490870DB48007820B14FF000004A
:100E6000D849087003E04FF00100D6490870D64811
:100E70000078401CC0B2D4490870322812DB4FF011
:100E8000000008704FF00100D0490870D048007889
:100E900020B14FF00000CE49087003E04FF0010090
:100EA000CB490870CB480078401CC0B2C9490870D3
:100EB000642820DB4FF0000008704FF00100C649A5
:100EC0000870C648007820B14FF00000C349087090
:100ED00003E04FF00100C1490870C148B0F90000BB
:100EE00042F21071884206DABD48008800F1010024
:100EF00000B2BB490880BB48008800F1010000B285
:100F0000B84900E012E008800846B0F90000B0F5EA
:100F1000FA7F0BDB4FF000000880A148B0F9000019
:100F2000B14908804FF000009D490880AF48007823
:100F300050B1AE480078A0F10100AC4908700846F5
:100F4000007808B909F08BF910BD88B0FFF7B8F93F
:100F500000F09BF94FF00100A549087007F03EFA38
:100F600000F0E2FB00F0F9FBA249096801EB810106
:100F70004900084607F034FA6421102000F0F6FA20
:100F800001F0FAFE05F053FD05F084F9FFF762FB6E
:100F9000FFF7B4FAFAE09848007808B109F05FF971
:100FA0007B48007828B14FF000007949087005F0BF
:100FB00053FE9148007808B109F051F97C48007857
:100FC000A0B14FF000007A49087001F047FEFFF72A
:100FD0006BFD8A48B0F90000B0F57A7F06DA8748E1
:100FE000008800F1010000B284490880824800783E
:100FF00008B109F034F97048007860B34FF0000090
:101000006D49087003F088FE03F03CFC04F017FD06
:101010004FF00000044606E0204603F0FBF804F120
:101020000100C0B204467648B0F900008442F3DB08
:1010300002F003FE01F032FC01F087FD04F07DFCBC
:1010400004F02EFC04F0D8F905F024FB03F044FD75
:1010500003F0EFFE00BF5A480078E0B14FF0000007
:101060005749087000F079FB02F0BBFB6548008827
:10107000C0B265494978644A1278644B5B78CDE91F
:101080000032CDE902106148007803462622FF2194
:10109000084605F06FFD4D48007828B14FF000007C
:1010A0004A49087001F0FFFE4B480078002853D0F1
:1010B0004FF00000484908705548008800F10100D1
:1010C00000B2534908800846B0F90000B0F57A7FB5
:1010D00002DD4FF00000088003F056FC05F0E6F852
:1010E00003F077FF4B48007800F101004949087090
:1010F0004948B0F900004949B1F90010484AB2F92D
:101100000020484B1B88CDE90332CDE90510464845
:1011100001884648B0F90000454AB2F90020CDE9FF
:10112000002002914348B0F900304348B0F9002054
:101130004248B0F9001042480AF076FF4148B0F941
:10114000001041A00AF070FF01F040FA07F090F89B
:10115000FFF780FA03F0C5FF2748007808B109F0CF
:101160007EF83B48007828B14FF0000038490870FD
:101170000AF078FD3748007840B14FF0000035495B
:1011800008703548017835A00AF04EFF03E70000EB
:101190001A00002000100140380000203900002013
:1011A0003C000020140000201C000020150000203E
:1011B0001B000020160000201E0000201700002049
:1011C0001F00002023000020180000202000002025
:1011D00022000020190000201D0000202100002016
:1011E000260000203E0000203A000020E6040020F7
:1011F000C202002004000020E7040020E2040020D6
:1012000048010020FE000020E2000020E000002055
:1012100028000020C3020020EA000020E80000208F
:1012200090010020C0020020BE02002066030020C2
:101230003400002032000020300000202C0000206C
:10124000F4C3000800000020253564200D0A0000CA
:101250004F040020CD020020CC02002025643B0D6D
:101260000A000000014600BFFF48008810F0020F8E
:10127000FAD0FE48018000BFFB48008810F0010F43
:10128000FAD0FA480088C0B27047F948C06940F007
:101290008050F749C8610846806940F019008861AC
:1012A0000846C06940F48040C861F2484068F1498E
:1012B0004860F148006880B2C1F8040CEE4800684C
:1012C000EE4940EA0100EB49C1F8040CEC484068E3
:1012D00020F47060EA4948600846406840F4407075
:1012E000486040F26F30E74908804FF00000E6495F
:1012F000A1F804087047DE48C06920F48060DC492A
:10130000C861704700B5FFF7C0FFDD48C06820F432
:101310008060DB49C8604FF00600FFF7A3FFD848A4
:10132000C06840F48060D649C860FFF7E4FF00BDA4
:1013300000B5FFF7AAFFD248C06820F48060D0490A
:10134000C8604FF00500FFF78DFFFF20FFF78AFF11
:101350000246CB48C06840F48060C949C860FFF7C6
:10136000CAFF104600BD11B500BFFFF7E1FF10F046
:10137000010FFAD1FFF789FFC148C06820F48060EF
:10138000BF49C8604FF00300FFF76CFF9DF80100F4
:1013900004462046FFF766FF9DF8000004462046FD
:1013A000FFF760FFFF20FFF75DFF04464FF0FF00EF
:1013B000FFF758FF03464FEA0320034603EB040000
:1013C0000346AF48C06840F48060AD49C860084635
:1013D000C06840F48060C860FFF78DFF184618BDF4
:1013E00071B500BFFFF7A4FF10F0010FFAD1FFF7AE
:1013F0004CFFA348C06820F48060A149C8604FF04A
:101400000300FFF72FFF9DF8010004462046FFF779
:1014100029FF9DF8000004462046FFF723FFFF2028
:10142000FFF720FF04464FF0FF00FFF71BFF0646C3
:101430004FF0FF00FFF716FF05464FF0FF00FFF7E4
:1014400011FF03464FEA0320034603EB0500034662
:101450004FEA0320034603EB060003464FEA03204E
:10146000034603EB040003468548C06840F48060EF
:101470008349C8600846C06840F48060C860FFF7D0
:101480003AFF184678BD13B50B4600BFFFF750FF73
:1014900010F0010FFAD1FFF7F8FE7948C06820F488
:1014A00080607749C8604FF00300FFF7DBFE9DF8CE
:1014B000010004462046FFF7D5FE9DF800000446D3
:1014C0002046FFF7CFFEFF20FFF7CCFE1870FF206D
:1014D000FFF7C8FE5870FF20FFF7C4FE9870FF208A
:1014E000FFF7C0FED8706648C06840F48060644969
:1014F000C8600846C06840F48060C860FFF7FBFE23
:101500001CBD13B50B4600BFFFF712FF10F0010F13
:10151000FAD1FFF7F7FEFFF7B8FE5948C06820F48C
:1015200080605749C8604FF00200FFF79BFE9DF8AE
:10153000010004462046FFF795FE9DF80000044692
:101540002046FFF78FFE1846FFF78CFE04464C48F6
:10155000C06840F480604A49C8600846C06840F4EA
:101560008060C860FFF7C7FE20461CBD03B500BF02
:10157000FFF7DEFE10F0010FFAD1FFF7C3FEFFF711
:1015800084FE3F48C06820F480603D49C8604FF049
:101590000200FFF767FE9DF8010003461846FFF7BB
:1015A00061FE9DF8000003461846FFF75BFE9DF8BC
:1015B000040003461846FFF755FE9DF80500034654
:1015C0001846FFF74FFE2E48C06840F480602C4953
:1015D000C8600846C06840F48060C860FFF78BFEB2
:1015E00018460CBD03B500BFFFF7A2FE10F0010FB7
:1015F000FAD1FFF787FEFFF748FE2148C06820F4C4
:1016000080601F49C8604FF00200FFF72BFE9DF875
:10161000010003461846FFF725FE9DF8000003462B
:101620001846FFF71FFE9DF8040003461846FFF713
:1016300019FE9DF8050003461846FFF713FE9DF8B6
:10164000060003461846FFF70DFE9DF80700034607
:101650001846FFF707FE0A48C06840F48060084952
:10166000C8600846C06811E0083800400C380040E7
:101670000010024000000140040C01400000B3B81B
:1016800000100140003800400030004040F480600D
:10169000C860FFF730FE18460CBD13B50B4600BFFF
:1016A000FFF746FE10F0010FFAD1FFF72BFEFFF710
:1016B000ECFD1C48C06820F480601A49C8604FF0F7
:1016C0000200FFF7CFFD9DF8010004462046FFF71A
:1016D000C9FD9DF8000004462046FFF7C3FD1878B9
:1016E00004462046FFF7BEFD587804462046FFF723
:1016F000B9FD987804462046FFF7B4FDD878044633
:101700002046FFF7AFFD0748C06840F480600549F8
:10171000C8600846C06840F48060C860FFF7EBFD11
:1017200020461CBD0010014010B50420FFF71BFE31
:10173000A0F5905134390FD001214FF44570FFF7D7
:1017400015FF4FF4707140F21630FFF70FFF41F2B2
:1017500034210420FFF70AFF10BD10B51020FFF759
:1017600002FE00B2FF4908801220FFF7FCFD00B224
:10177000FC4948802C20FFF7F6FD00B2FA490880AA
:101780002E20FFF7F0FD00B2F74948801420FFF744
:10179000EAFDF64908801620FFF7E5FDF349488089
:1017A0001820FFF7E0FD00B2F14908801A20FFF78A
:1017B000DAFD00B2EE4948801C20FFF7D4FD00B2EC
:1017C000EC4908801E20FFF7CEFD00B2E9494880B1
:1017D0002020FFF7C8FD00B2E74908802420FFF76A
:1017E000C2FD00B2E54908802620FFF7BCFD00B22B
:1017F000E34908802820FFF7B6FD00B2E0494880A1
:101800002A20FFF7B0FD00B2DD4988803C20FFF7B9
:10181000AAFD00B2DB4908803E20FFF7A4FD00B21C
:10182000D94908804020FFF79EFD00B2D7490880C3
:101830004220FFF798FD00B2D54908804420FFF709
:1018400092FD00B2D3490880A620FFF78CFD00B2BC
:10185000D1490880A820FFF786FD00B2CE49488014
:10186000AA20FFF780FD00B2CB4988807620FFF7E1
:101870007AFD00B2C94908807820FFF774FD00B2F4
:10188000C74908807A20FFF76EFD00B2C54908807D
:101890007C20FFF768FD00B2C34908807E20FFF777
:1018A00062FD00B2C1490880C620FFF75CFD00B2AE
:1018B000BF490880C820FFF756FD00B2BD49088027
:1018C0008220FFF750FD00B2BB4908808420FFF75B
:1018D0004AFD00B2B94908804FF48270FFF743FD1A
:1018E00000B2B74908808620FFF73DFD00B2B54938
:1018F00008808820FFF737FD00B2B3490880DE205A
:10190000FFF731FD00B2B14908804FF4D270FFF704
:101910002AFD00B2AE4908804FF4D370FFF723FDD3
:1019200000B2AC4908808C20FFF71DFD00B2AA4927
:1019300008808E20FFF717FD00B2A849088090208C
:10194000FFF711FD00B2A64908804FF4AD70FFF714
:101950000AFD00B2A34908804FF4C470FFF703FDED
:1019600000B2A14908804FF4C570FFF7FCFC00B23B
:101970009E4908804FF4C670FFF7F5FC00B29C4901
:1019800008804FF4C770FFF7EEFC00B29949088059
:101990004FF4C870FFF7E7FC00B2974908804FF496
:1019A000CB70FFF7E0FC00B2944908804FF4CC7094
:1019B000FFF7D9FC00B2924908804FF4CD70FFF7D1
:1019C000D2FC00B28F4908804FF4CE70FFF7CBFCF9
:1019D00000B28D4908804FF4CF70FFF7C4FC00B20D
:1019E0008A4908804FF4D070FFF7BDFC00B28849E7
:1019F00008804FF4D170FFF7B6FC00B2854908802B
:101A00004FF4B270FFF7AFFC00B283490880922018
:101A1000FFF7A9FC00B2814908809420FFF7A3FCDE
:101A200000B27F4908809620FFF79DFC00B27D49F7
:101A300008809820FFF797FC00B27B4908804FF49C
:101A40009B70FFF790FC00B2784908809A20FFF75E
:101A50008AFC00B2764908800F220021744800F009
:101A6000A9FD4FF41770FFF77EFC00B271490880A2
:101A700040F25E20FFF777FC00B26F49088040F229
:101A80006620FFF770FC00B26C4908804FF41A70B2
:101A9000FFF769FC00B26A49088066480088664919
:101AA0000988084400B2674908804FF41B70FFF7AB
:101AB0005AFC00B2644908804FF48850FFF753FC89
:101AC00000B26249088041F20210FFF74CFC00B2FC
:101AD0005F4908808020FFF746FC00B25D4908801E
:101AE000C420FFF740FC00B25B490880CA20FFF722
:101AF0003AFC00B259490880CC20FFF734FC00B210
:101B000057490880CE20FFF72EFC00B255490880C7
:101B10004FF41970FFF727FC00B25349088040F2D8
:101B20006A20FFF720FC00B250490880D020FFF760
:101B30001AFC00B24E490880D220FFF714FC00B214
:101B40004C490880D420FFF70EFC00B24A490880B7
:101B5000D620FFF708FC00B248490880D820FFF7DC
:101B600002FC8DE0AC000020B0000020B40000209A
:101B7000B8000020BC000020C0000020CE000020E3
:101B8000C2000020D0000020D2000020D40000209D
:101B9000D60000200E000020C8000020D800002041
:101BA000DA000020DC000020DE000020E000002041
:101BB000E200002006010020E6000020E8000020EE
:101BC000EA000020EC000020EE000020F0000020E1
:101BD000F200002010000020F4000020F600002099
:101BE000F8000020860100208C0100208E010020DA
:101BF00096010020980100209A0100209C010020FD
:101C00009E010020A0010020A2010020A4010020CC
:101C1000A6010020A801002088010020FA00002071
:101C2000FC000020FE0000204801002046010020AA
:101C30004A0100204E0100204C01002052010020EA
:101C40005401002050010020580100205A010020BA
:101C50005C010020E40000200401002008010020B5
:101C60000A0100200C0100200E01002010010020BC
:101C7000120100201401002016010020180100208C
:101C800000B2FF490880DA20FFF76DFB00B2FD4982
:101C90000880DC20FFF767FB00B2FB490880E220E8
:101CA000FFF761FB00B2F9490880E420FFF75BFB16
:101CB00000B2F7490880FE20FFF755FB00B2F54956
:101CC00008804FF48070FFF74EFB00B2F2490880A5
:101CD000E620FFF748FBF1490870E820FFF743FBD7
:101CE000EF490870EA20FFF73EFBEE490870EC2050
:101CF000FFF739FB00B2EC490880EE20FFF733FB19
:101D000000B2EA490880F020FFF72DFB00B2E84955
:101D100008804FF4B670FFF726FB00B2E549088053
:101D2000F220FFF720FB00B2E3490880F420FFF720
:101D30001AFB00B2E1490880F620FFF714FB00B25D
:101D4000DF490880F820FFF70EFB00B2DD4908806C
:101D5000FA20FFF708FB00B2DB490880FC20FFF700
:101D600002FB00B2D94908804FF48170FFF7FBFAFB
:101D700000B2D74908804FF48B70FFF7F4FA00B235
:101D8000D44908804FF48C70FFF7EDFA00B2D249C5
:101D900008804FF48D70FFF7E6FA00B2CF49088053
:101DA0004FF48E70FFF7DFFA00B2CD4908804FF490
:101DB0008F70FFF7D8FA00B2CA4908804FF4E77075
:101DC000FFF7D1FA00B2C84908804FF49270FFF7CC
:101DD000CAFA00B2C54908804FF49370FFF7C3FAFE
:101DE00000B2C34908804FF49570FFF7BCFA00B207
:101DF000C04908804FF49670FFF7B5FA00B2BE49AB
:101E000008804FF49770FFF7AEFA00B2BB49088024
:101E10004FF49870FFF7A7FA00B2B94908804FF461
:101E20009C70FFF7A0FA00B2B64908804FF49D708D
:101E3000FFF799FA00B2B44908804FF4B770FFF782
:101E400092FA00B2B14908804FF4B870FFF78BFAEC
:101E500000B2AF4908804FF4BA70FFF784FA00B2BD
:101E6000AC4908804FF4B970FFF77DFA00B2AA4977
:101E700008804FF4BB70FFF776FA00B2A7490880DC
:101E80004FF4BC70FFF76FFA00B2A54908804FF419
:101E9000BD70FFF768FA00B2A24908804FF4BE7027
:101EA000FFF761FA00B2A04908804FF4BF70FFF756
:101EB0005AFA00B29D4908804FF4C070FFF753FAF8
:101EC00000B29B4908804FF4C170FFF74CFA00B292
:101ED000984908804FF4C270FFF745FA00B296495E
:101EE00008804FF4C370FFF73EFA00B293490880B0
:101EF0004FF4E970FFF737FA914908704FF4F87022
:101F0000FFF731FA8E4948704FF000008D49088084
:101F10008B480078552805D10846008800F101005B
:101F200000B2088086484078552806D18548008848
:101F300000F1010000B2834908804FF4EA70FFF716
:101F400012FA00B2804908804FF4EB70FFF70BFAE9
:101F500000B27E4908804FF4EC70FFF704FA00B23B
:101F60007B4908804FF4ED70FFF7FDF900B2794925
:101F700008804FF4F170FFF7F6F900B27649088057
:101F80004FF4EE70FFF7EFF900B2744908804FF498
:101F9000F970FFF7E8F900B26B4948804FF4FA7026
:101FA000FFF7E1F900B2694948804FF4FB70FFF791
:101FB000DAF900B2664948804FF4FC70FFF7D3F9B4
:101FC00000B26449488040F20220FFF7CCF900B229
:101FD000614948804FF4FD70FFF7C5F900B25F49D1
:101FE00048804FF44670FFF7BEF900B25C490880A4
:101FF000A020FFF7B8F95B490870A220FFF7B3F9FA
:1020000059490870A420FFF7AEF900B2574908807B
:10201000C020FFF7A8F900B255490880C220FFF799
:10202000A2F900B2534908804FF4AA70FFF79BF958
:10203000514908804FF4AB70FFF7D2F94F4908605F
:102040004FF4AC70FFF7CCF94D4908604FF40170C4
:10205000FFF789F900B24B49088040F20620FFF7EC
:1020600082F900B2484908804FF40270FFF77BF90B
:1020700000B24649088040F20A20FFF774F987E071
:102080001A0100201C0100201E0100202001002058
:102090002201002024010020260100202801002028
:1020A00032010020330100202C0100202E010020ED
:1020B0002A010020300100203401002036010020D8
:1020C000380100203A0100203C0100205601002088
:1020D0003E010020580000205A0000205C00002033
:1020E0005E000020600000206C0000204001002005
:1020F000420100205E0100206001002062010020FA
:102100006401002066010020680100206A010020AF
:102110006C0100206E010020700100202A000020C8
:102120007201002074010020760100207801002057
:102130007A0100207C0100207E0100208001002027
:10214000AA01002044010020AC010020B0010020C1
:10215000B4010020C0010020B8010020BC01002013
:10216000560200208201002083010020840100200B
:102170000001002002010020C4010020C80100204D
:10218000D8010020EC010020F2010020F80100201D
:1021900000B2DB4908804FF40370FFF7E4F800B2A7
:1021A000D849088040F20E20FFF7DDF800B2D6498A
:1021B00008804FF40470FFF7D6F800B2D3490880C6
:1021C00040F21220FFF7CFF800B2D14908804FF457
:1021D0000D70FFF7C8F800B2CE49088040F23620F3
:1021E000FFF7C1F800B2CC4908804FF40E70FFF73A
:1021F000BAF800B2C949088040F23A20FFF7B3F8B4
:1022000000B2C74908804FF40F70FFF7ACF800B276
:10221000C449088040F23E20FFF7A5F800B2BD494E
:1022200048804FF41070FFF79EF800B2BA4948801A
:1022300040F24220FFF797F800B2B84948804FF4C7
:102240001170FFF790F800B2B549488040F246207F
:10225000FFF789F800B2B34948804FF41270FFF7D6
:1022600082F800B2AB49888040F24A20FFF77BF841
:1022700000B2A94988804FF41370FFF774F800B2D8
:10228000A649888040F24E20FFF76DF800B2A449BD
:1022900088804FF41470FFF766F800B2A149888077
:1022A00040F25220FFF75FF800B29A49C8804FF41D
:1022B0001570FFF758F800B29749C88040F25620D1
:1022C000FFF751F800B29549C8804FF41670FFF738
:1022D0004AF800B29249C88040F25A20FFF743F80A
:1022E00000B29049C880E020FFF73DF800B28E4967
:1022F0000880BA20FFF737F88C490870AC20FFF748
:1023000032F88B490880AE20FFF72DF88949088004
:10231000B020FFF728F888490880B220FFF723F89B
:1023200086490880B420FFF71EF885490880B6204A
:10233000FFF719F88349088008460088002803DD64
:10234000084600880D2803DB4FF000007D49088017
:10235000B820FFF708F87C4908804FF44570FFF774
:1023600002F800B27949088040F21630FEF7FBFF10
:10237000774908604FF4AE70FEF7F5FF00B275497B
:1023800008804FF4AF70FEF7EEFF00B2724908808C
:102390004FF4B070FEF7E7FF00B2704908804FF4C9
:1023A000B370FEF7E0FF00B26D4908804FF4D470BF
:1023B000FEF7D9FF00B26B4908804FF4D570FEF7E5
:1023C000D2FF00B2684908804FF4D670FEF7CBFF09
:1023D00000B2664908804FF4D770FEF7C4FF00B220
:1023E000634908804FF4D870FEF7BDFF00B2614921
:1023F00008804FF4D970FEF7B6FF00B25E4908803E
:102400004FF4DA70FEF7AFFF00B25C4908804FF47A
:10241000DC70FEF7A8FF00B2594908804FF4DD7068
:10242000FEF7A1FF00B2574908804FF4DE70FEF7B7
:102430009AFF00B2544908804FF4DF70FEF793FF13
:1024400000B2524908804FF4E070FEF78CFF00B2F2
:102450004F4908804FF4E170FEF785FF00B24D4907
:1024600008804FF4E270FEF77EFF00B24A49088010
:102470004FF4E570FEF777FF00B2484908804FF44B
:10248000E670FEF770FF00B2454908804FF0000487
:1024900003E004F10100C0B20446402CF9DB4FF028
:1024A0000000044603E004F10100C0B204460A2C17
:1024B000F9DB4FF00000044603E004F10100C0B274
:1024C0000446402CF9DB4FF42770FEF74CFF00B2B6
:1024D0003449088040F29A20FEF745FF00B23249A5
:1024E000088040F29E20FEF73EFF00B22F49088090
:1024F0004FF42870FEF737FF00B22D49088010BD59
:10250000FE010020040200200A0200201002002028
:10251000160200201C020020240200202C020020B1
:10252000340200203C02002054020020440200201B
:102530005202002046020020480200204A020020E9
:102540004C0200204E02002050020020000000201B
:10255000040000209001002092010020940100203E
:102560008A010020580200205A0200205C0200204C
:102570005E0200206002002062020020640200204F
:1025800066020020680200206A0200206C0200201F
:102590006E020020700200207202002074020020EF
:1025A0007602002094000020960000209800002071
:1025B0009A000020B0F900308B4200DA0180B0F9B7
:1025C0000030934200DD028070470000FD49098819
:1025D00039B1FC490988A1F1010109B2F94A118018
:1025E00070474FF00501F74A11804FF00001F64A9D
:1025F000117008461CE000EBC00101EB0011F34A2A
:1026000002EB8101897801290ED100EBC00101EBB9
:10261000001102EB8101C978142905DAEA49097829
:1026200001F10101E84A117000F10101C9B2084647
:10263000E749B1F900108842DDDBE649097821B1AC
:102640004FF00001E34A117003E04FF00101E14A4D
:102650001170DD490978022900DAC1E741F28831B9
:10266000DD4A11604FF00001DC4A1160DC4A116064
:10267000084645E000EBC00101EB0011D34A02EB34
:1026800081018978012937D100EBC00101EB0011EC
:1026900002EB8101496AD14A1268914209DD00EBDF
:1026A000C00101EB0011C94A02EB8101496ACB4A22
:1026B000116000EBC00101EB0011C44A02EB810183
:1026C000496AC54A1268914209DA00EBC00101EB80
:1026D0000011BE4A02EB8101496ABF4A116000EB5A
:1026E000C00101EB0011B94A02EB8101496ABC4A01
:1026F00012681144BA4A116000F10101C9B20846DA
:10270000B349B1F900108842B4DBB5490968AE4A53
:10271000127891FBF2F1B34A1160AF49096819B917
:102720004FF00101AC4A1160AC490968AE4A116032
:10273000114609684FF0640201FB02F1AA4A1160D8
:1027400011460968A44A126891FBF2F1A64A116089
:1027500011460968822903DD4FF00101A34A117077
:10276000A14909686E2903DA4FF000019F4A1170F0
:102770009E49097801297ED14FF00001084684E086
:1027800000EBC00101EB0011904A02EB8101897856
:10279000012976D100EBC00101EB001102EB8101B0
:1027A000496A904A1268914217DD8A490978A1B9AD
:1027B00000EBC00101EB0011844A02EB8101B1F88A
:1027C0005410A1F1010109B200EBC00202EB0012AA
:1027D0007E4B03EB8202A2F8541000EBC00101EB28
:1027E00000117A4A02EB8101496A7E4A12689142DD
:1027F00017DA78490978A1B100EBC00101EB0011AB
:10280000724A02EB8101B1F8541001F1010109B2E1
:1028100000EBC00202EB00126C4B03EB8202A2F849
:10282000541000EBC00101EB0011684A02EB81017A
:10283000B1F9541011F1320F0ADA6FF0310100EBE7
:10284000C00202EB0012614B03EB8202A2F85410AB
:1028500000EBC00101EB00115C4A02EB8101B1F910
:10286000541032290DDD4FF0320100EBC00202EBB3
:102870000012564B01E00EE003E003EB8202A2F8E7
:10288000541000F10101C9B208465149B1F90010D4
:102890008842FFF675AF00BF00BFA1E64FF0000011
:1028A00053490870534908705349087053480078D9
:1028B00010B95248007818B14FF001004C49087027
:1028C0004F48007818B94FF001004B4908704D4847
:1028D000B0F90000B0F5FA7F0ADA4B48B0F9000011
:1028E000B0F5FA7F04DA4FF001004849087031E092
:1028F0004448B0F90000B0F5FA7F0ADD4248B0F96B
:102900000000B0F5FA7F04DD4FF000003F49087089
:1029100020E03C48B0F90000B0F5FA7F0ADA3A4806
:10292000B0F90000B0F5FA7F04DD4FF0140037492C
:1029300008700FE03348B0F90000B0F5FA7F09DD08
:102940003148B0F90000B0F5FA7F03DA4FF00A0021
:102950002E4908702E48007801280ED14FF0000053
:1029600023490870234908704FF00100224908707C
:102970004FF00000254908706BE0254800780228D8
:102980000ED14FF000001A4908704FF001001949AC
:1029900008704FF00000184908701C49087058E092
:1029A0001B480078032835D14FF00100104908700A
:1029B0004FF000000F4908700F4908701349087064
:1029C00047E00000E2020020020400205C06002034
:1029D0004801002003040020F0030020EC03002045
:1029E000F4030020F8030020FC0300200004002072
:1029F000A8020020A7020020A60200204400002018
:102A0000420400205A050020E2040020A902002010
:102A1000A4020020FC48007804280CD14FF00000EC
:102A2000FA490870FA490870FA4908704FF0010035
:102A3000F94908700DE0F4480078052809D14FF0F5
:102A40000000F2490870F2490870F2490870F24932
:102A50000870F248007860B1F0480078A0F10100F9
:102A6000EE4908700846007818B94FF00000E649B2
:102A70000870EB48007878B1E9480078A0F10100CF
:102A8000E74908704FF00000E0490870E04908701D
:102A9000E0490870E0490870E1480078072803D051
:102AA000DF480078012804D14FF00100D9490870AF
:102AB00021E0DB480078062803D0D94800780228B6
:102AC00004D14FF00100D249087014E0D4480078D6
:102AD000052803D0D2480078032804D14FF0010024
:102AE000CA49087007E0CE480078042803D14FF0A7
:102AF0000100C9490870CB48007878B1C94800780E
:102B0000A0F10100C74908704FF00000BF490870EC
:102B1000BF490870BF490870BF490870C1480078B4
:102B2000052807D0BF480078032803D0BD480078A7
:102B3000012809D14FF00100B4490870B449087068
:102B4000B4490870B44908707047B748007800F17C
:102B50000100B54908700846007800F00F000870C1
:102B6000AC480078012806D1B048C06820F0400089
:102B7000AE49C86005E0AD48C06840F04000AB49D0
:102B8000C860A3480078012807D1A948006820F44C
:102B90008050A849C1F80C0C06E0A548006840F434
:102BA0008050A449C1F80C0C98480078012807D13E
:102BB0009F48006820F400609E49C1F80C0C06E0B4
:102BC0009B48006840F400609A49C1F80C0C924898
:102BD0000078012807D19648006820F48060954964
:102BE000C1F80C0C39E08C48007838B9904800687E
:102BF00040F480608F49C1F80C0C2EE086480078C4
:102C00000A2813D188480078022807DC8848006821
:102C100020F480608749C1F80C0C1EE084480068ED
:102C200040F480608349C1F80C0C16E07A480078C3
:102C3000142812D17C4800780D2807DC7C480068F5
:102C400020F480607B49C1F80C0C06E078480068ED
:102C500040F480607749C1F80C0C704730B5764B72
:102C60001B68764C764D2D7804EB4514754D2D7808
:102C700024F81530724B1B7803F10103704C23705C
:102C800023461B78082B60DB4FF0000323706D4B4D
:102C90001B7803F101036B4C237023461B78102B28
:102CA00004DB4FF000032370674C2370664B1B78E6
:102CB0005BB34FF0000025E04FF000031A461946C1
:102CC0000AE05E4B03EB401333F8113013441A460D
:102CD00001F10103DBB219465A4B1B789942F0DB34
:102CE000584B1B783BB1574B1B7892FBF3F3574C77
:102CF00024F8103002E0554C24F8102000F10103B4
:102D0000DBB218460828D7DB1FE04FF000001AE0BE
:102D10004FF000031A4619460AE0484B03EB4013F4
:102D200033F8113013441A4601F10103DBB219469E
:102D30001029F2DBC2F30F13444C24F8103000F1D9
:102D40000103DBB218460828E2DB414B1B6823F481
:102D5000A003404CC4F808343F4B394C247853F856
:102D600024303C4CC4F834342346D3F8083443F4BC
:102D7000A003374C236030BD4FF00000304908708D
:102D80003648806940F40070344988614FF0000093
:102D90003349086030482A49097850F821002D4904
:102DA000C1F834044FF480702E4908602E48294938
:102DB000C1F808040846D0F8080440F4A000C1F89F
:102DC000080470474FF0000028490870284908702F
:102DD0004FF001002749087070474FF00000264966
:102DE0000870264908704FF00100254908707047A7
:102DF0004FF0000023490870234908704FF001008C
:102E00002249087070470000A4020020A802002098
:102E1000A7020020A6020020A9020020A50200208F
:102E20008C0200208D020020F202002000100140E0
:102E30000C0C0140000001404C2401402E160020E3
:102E40000003002001030020D40200206E170020A0
:102E5000082401400020014054C400080010024032
:102E60002C2401400424014003000E0048030020EC
:102E7000440300204C0300204903002045030020A8
:102E80004D0300204A030020460300204E0300208B
:102E90004FF00000FA490870FA4908704FF001003D
:102EA000F949087070471FB5F8480078401CC0B257
:102EB000F6490870042802DB4FF000000870F4485F
:102EC000007878B1F3480078A0F1010000EBC00170
:102ED00001EB0010F04901EB8000C06900B2EF493E
:102EE000088037E0EE48007878B1EE480078A0F12D
:102EF000010000EBC00101EB0010E74901EB80008D
:102F0000006A00B2E849088024E0E848007878B117
:102F1000E7480078A0F1010000EBC00101EB0010D0
:102F2000DD4901EB8000406A00B2E249088011E00F
:102F3000E148007870B1E1480078A0F1010000EBB1
:102F4000C00101EB0010D44901EB8000806A00B29F
:102F5000DB490880D148B0F90000DA49B1F9001026
:102F6000401A42F210714843CC49098819B1CB4943
:102F7000B1F9001001E04FF0010190FBF1F0D249EE
:102F800008604FF00100D1490870CF480068002860
:102F900002DA4FF0FF000870CD48007818B9CB482E
:102FA0000078CB490870C048B0F90000C949B1F9B0
:102FB0000010401A42F210714843BB49098819B108
:102FC000B949B1F9001001E04FF0010190FBF1F0B7
:102FD000C14908604FF00100C0490870BE48006850
:102FE000002802DA4FF0FF000870BD48007818B9D9
:102FF000BA480078BA490870AE48B0F90000B9493B
:10300000B1F90010401A42F210714843A9490988E9
:1030100019B1A849B1F9001001E04FF0010190FB8E
:10302000F1F0B14908604FF00100B0490870AE48B6
:103030000068002802DA4FF0FF000870AC48007802
:1030400018B9AA480078AA4908709D48B0F900004C
:10305000A849B1F90010401A42F21071484398494A
:10306000098819B19649B1F9001001E04FF001014A
:1030700090FBF1F0A04908604FF001008149087011
:103080009D480068002802DA4FF0FF0008707C4875
:10309000007818B97B48007879490870974800781B
:1030A00002282DD188490968081E01DB014600E08D
:1030B000414205290CDA4FF0000075490870754946
:1030C00008708F498F4AB2F9002021F8120028E0D9
:1030D0007D480068002807DD8B48007820B94FF054
:1030E00004008A4908701CE077480068002818DA54
:1030F00085480078A8B94FF002008449087010E0B4
:1031000071480068002804DD4FF005007F49087011
:1031100007E06D480068002803DA4FF003007B49A0
:1031200008707B48007802282DD16B490968081E79
:1031300001DB014600E0414205290CDA4FF00000B6
:1031400057490870574908706D49724AB2F9002012
:1031500021F8120028E060480068002807DD6A486E
:10316000007820B94FF004006B4908701CE05A4801
:103170000068002818DA64480078A8B94FF0020007
:103180006549087010E054480068002804DD4FF0DD
:1031900005006149087007E04F480068002803DA1D
:1031A0004FF003005C4908705C48007802282ED17B
:1031B0004D490968081E01DB014600E0414205292E
:1031C0000DDA4FF00000394908703949087001469E
:1031D0004B48534AB2F9002020F8121028E0424828
:1031E0000068002807DD4848007820B94FF0040047
:1031F0004C4908701CE03C480068002818DA424836
:103200000078A8B94FF002004649087010E036482F
:103210000068002804DD4FF005004249087007E00F
:1032200031480068002803DA4FF003003D49087078
:103230001548007802287BD12F490968081E01DB58
:10324000014600E0414205290DDA4FF000001A491D
:1032500008701A49087001462948334AB2F900201B
:1032600020F8121082E024480068002861DD26481A
:10327000007820B94FF004002C49087076E058E03F
:103280004B030020470300204F03002013030020BE
:1032900014030020280300205C06002018030020EF
:1032A00015030020290300201A0300201603002024
:1032B0002A0300201C030020170300202B030020FA
:1032C0001E030020200300203403002044030020BC
:1032D000480300202203002038030020450300207B
:1032E00049030020240300203C0300204603002063
:1032F0004A03002026030020400300204C03002046
:1033000018050020060500200403002050030020BB
:103310004D03002008050020510300204E0300202B
:103320000A050020520300200C0500205303002052
:103330000BE0FF480068002818DAFE480078A8B9BA
:103340004FF00200FC49087010E0F94800680028BE
:1033500004DD4FF00500F849087007E0F448006804
:10336000002803DA4FF00300F3490870F3480078AF
:1033700048B1F3480078F3490978884203D04FF008
:103380000200F1490870EE480078EE490870EF48F5
:10339000007848B1EE480078EE490978884203D0B9
:1033A0004FF00200EC490870E9480078E9490870DC
:1033B000EA48007848B1EA480078EA490978884242
:1033C00003D04FF00200E8490870E5480078E5496D
:1033D0000870E648007848B1E5480078E549097882
:1033E000884203D04FF00200E3490870E0480078BB
:1033F000E0490870E1480078012804D14FF000004E
:10340000DF49087034E0DD480078022804D14FF02D
:103410000100DB4908702BE0D8480078032804D16C
:103420004FF00200D649087022E0D4480078042802
:1034300004D14FF00300D249087019E0CF4800785A
:10344000052804D14FF00400CD49087010E0CB48A6
:103450000078062804D14FF00500C949087007E03C
:10346000C6480078072803D14FF00600C449087009
:10347000C4480078012804D14FF00000C249087008
:1034800034E0C0480078022804D14FF00100BE4962
:1034900008702BE0BB480078032804D14FF00200ED
:1034A000B949087022E0B7480078042804D14FF0E9
:1034B0000300B549087019E0B2480078052804D126
:1034C0004FF00400B049087010E0AE4800780628BC
:1034D00004D14FF00500AC49087007E0A948007816
:1034E000072803D14FF00600A7490870A7480078C5
:1034F000012804D14FF00000A549087034E0A3482A
:103500000078022804D14FF00100A14908702BE097
:103510009E480078032804D14FF002009C490870AF
:1035200022E09A480078042804D14FF0030098491B
:10353000087019E095480078052804D14FF0040080
:103540009349087010E091480078062804D14FF0A4
:1035500005008F49087007E08C480078072803D1E0
:103560004FF006008A4908708A480078012804D183
:103570004FF000008849087034E08648007802283F
:1035800004D14FF00100844908702BE08148007895
:10359000032804D14FF002007F49087022E07D48E3
:1035A0000078042804D14FF003007B49087019E02B
:1035B00078480078052804D14FF004007649087057
:1035C00010E074480078062804D14FF005007249D5
:1035D000087007E06F480078072803D14FF0060015
:1035E0006D49087058480078012806D05648007880
:1035F000022815D14F48007890B95048007878B12A
:10360000002166480078CDE90001029163480391EA
:1036100000780346EE225A480178007803F0AAFAAF
:103620004D480078012806D04B480078022817D171
:1036300040480078A0B94548007888B10021584832
:1036400000781030CDE900010291554803910078CF
:1036500010300346EE224C480178007803F08AFAD5
:1036600041480078012806D03F480078022817D149
:1036700030480078A0B93948007888B1002149481D
:1036800000782030CDE9000102914648039100788E
:1036900020300346EE223E480178007803F06AFAB3
:1036A00035480078012806D033480078022817D121
:1036B00020480078A0B92D48007888B100211E4824
:1036C00000783030CDE9000102911B480391007869
:1036D00030300346EE2230480178007803F04AFA91
:1036E0001FBD00EBC00101EB00112F4A02EB81016D
:1036F00091F85E10D9B900EBC00101EB001102EBAB
:10370000810191F85F1091B900EBC00101EB00114C
:1037100002EB8101B1F8601049B94FF03C0100EBB8
:10372000C00202EB0012204B03EB82023EE057E0A6
:103730004003002004030020530300201403002052
:1037400044030020480300204C0300201503002000
:1037500045030020490300204D03002016030020EC
:10376000460300204A0300204E03002017030020D8
:10377000470300204B0300204F03002028030020B4
:103780005403002029030020550300202A030020B1
:10379000560300202B030020570300205003002075
:1037A00051030020520300205C06002082F85E10C6
:1037B0004FF0030100EBC00202EB001203EB8202A8
:1037C00082F85F10FF4909884FF4616201FB02F142
:1037D00000EBC00202EB001203EB8202A2F86010C1
:1037E000704710B5F84A12881146F84AB2F900201D
:1037F00001FB02F141F2707291FBF2F211460AB242
:10380000F34B1A80F04A52881146F24AB2F900206E
:1038100001FB02F141F2707291FBF2F211460AB221
:10382000ED4B1A80E84A92881146EC4AB2F9002022
:1038300001FB02F141F2707291FBF2F211460AB201
:10384000E74B1A80E74A1288012A0AD1E04AB2F906
:103850000020E54B1A801A46B2F90020E34B1A808B
:103860003FE0E04A1288032A3BD1D94AB2F900204E
:10387000DD4B1A80D84AB2F90020B3F900309A42E1
:1038800004DAD54AB2F90020D74B1A80D44AB2F9EB
:103890000020D54BB3F900309A4204DAD04AB2F98D
:1038A0000020D14B1A80CA4AB2F90020CF4B1A80AF
:1038B000C94AB2F90020B3F900309A4204DDC64A81
:1038C000B2F90020C94B1A80C54AB2F90020C74B93
:1038D000B3F900309A4204DDC14AB2F90020C34B6B
:1038E0001A80B94AD288B2F5487F0ADDB64AD28832
:1038F00040F6D8639A4204DA4FF00002BC4B1A73C8
:1039000003E04FF00102BA4B1A73AF4AD288114656
:10391000B84AB2F9002001FB02F144F6206291FBA3
:10392000F2F21146A1F2111211460AB2B04B5A81BD
:10393000B14A12781A81B14A12785A804FF00000C9
:10394000CDE000EBC00202EB0012AD4B03EB8202B4
:10395000D278192A7EDA00EBC00202EB001203EBE8
:103960008202937900EBC00202EB0012A44C04EB3C
:103970008202D27903EB022200EBC00303EB0013B7
:1039800004EB83035A6200EBC00202EB00122346F1
:1039900003EB8202137A00EBC00202EB001204EB8D
:1039A0008202527A03EB022200EBC00303EB001306
:1039B00004EB83031A6200EBC00202EB0012234601
:1039C00003EB8202937A00EBC00202EB001204EBDD
:1039D0008202D27A03EB022200EBC00303EB001356
:1039E00004EB8303DA6100EBC00202EB0012234612
:1039F00003EB8202127B00EBC00303EB001304EB2A
:103A000083039A6200EBC00202EB0012234603EB31
:103A10008202527B00EBC00303EB001304EB830331
:103A200083F8562000EBC00202EB0012234603EBA2
:103A30008202927B00EBC00303EB001304EB8303D1
:103A400083F8422000EBC00202EB0012234603EB96
:103A5000820200E011E0137C00EBC00202EB0012D6
:103A600004EB8202527C03EB022200EBC00303EB67
:103A7000001304EB83031A652DE04FF0000200EB06
:103A8000C00303EB00135E4C04EB8303DA6100EB2D
:103A9000C00303EB001304EB83035A6200EBC00383
:103AA00003EB001304EB83031A6200EBC00303EB88
:103AB000001304EB83039A6200EBC00303EB0013D3
:103AC00004EB830383F8422000EBC00303EB0013F5
:103AD00004EB83031A6500F10102D2B21046494A91
:103AE000B2F900209042FFF62CAF374A52891146B6
:103AF000454AB2F9002001FB02F14FF4FA7291FB42
:103B0000F2F211460AB2414B1A802F4A128911462D
:103B10003F4AB2F9002001FB02F14FF4FA7291FB27
:103B2000F2F211460AB23B4B1A804FF000023A4BB8
:103B30001A803A4B1A8010461AE000EBC00202EBE2
:103B400000122F4B03EB8202D278052A0CDA00EB2D
:103B5000C00202EB001203EB8202526A2F4B1B8859
:103B60001A4412B22D4B1A8000F10102D2B2104653
:103B7000244AB2F900209042DFDB274A1288274B03
:103B80001B881A4412B2244B1A801A46B2F900203C
:103B9000002A02DA4FF000021A804FF000021146AC
:103BA00010460DE000EBC00202EB0012144B03EBD9
:103BB0008202526A0A44114600F10102D2B2104652
:103BC000104A2DE0840100206E170020D000002054
:103BD00030000020D200002032000020D40000205D
:103BE000340000205C0100202C0000203600002062
:103BF00078050020BC000020D40200200103002032
:103C00005C060020480100200E0000204E0000202D
:103C1000D60000204C000020560000208602002024
:103C2000B2F900209042BDDB0AB2FF4B1A80FF4A76
:103C3000B2F90020FE4B1A8010BD2DE9F041FD487D
:103C400000780A2810DAFB48007800F10100F949F1
:103C50000870084600780A2806DB4FF0000008705C
:103C60004FF00100F44908704FF00000F34908805C
:103C7000F34908804FF0CD0002F079FD00287DD097
:103C8000F0480068CE2803D14FF6FF70EC49088059
:103C9000EC480068CF2803D1EA484068E84908802A
:103CA000E8480068D12803D1E6484068E349088025
:103CB000E4480068D22803D14FF6FF70DF4908803E
:103CC000E0480068D02809D1DE484068DB49088018
:103CD000DC4840686FEA0000D94908804FF00004D2
:103CE00062E0012000FA04F0D5490988084215D0A5
:103CF00004EBC40000EB0410D34901EB8000B0F8E2
:103D0000400000F1010000B204EBC40101EB04111A
:103D1000CD4A02EB8101A1F840000AE04FF000001B
:103D200004EBC40101EB0411C74A02EB8101A1F8C5
:103D3000400004EBC40101EB0411C34A02EB810112
:103D40004031084632220021FEF734FC04EBC40067
:103D500000EB0410BC4901EB8000B0F940001428CE
:103D60000ADD4FF0010004EBC40101EB0411B64A77
:103D700002EB810181F82C00012000E01AE000FA3A
:103D800004F0AE49098808420AD04FF0000004EB65
:103D9000C40101EB0411AC4A02EB810181F82C0053
:103DA00004F10100C0B20446A848B0F90000844202
:103DB00097DDD4E0A04800780028FAD04FF0000644
:103DC00034460EE04FF0010004EBC40101EB041196
:103DD0009D4A02EB810181F82C0004F10100C0B280
:103DE00004469A48B0F900008442EBDB4FF0000033
:103DF000044642E0954A1288D2B21146202902DDDB
:103E00004FF020021146924A1078904AB2F90020F1
:103E1000904202DB4FF00002104600EB0402D2B2E7
:103E2000104690FBF1F201FB1202D2B2104600EBF9
:103E3000C00202EB0012844B03EB82029278022A4A
:103E400008D000EBC00202EB001203EB8202927872
:103E5000012A0ED14FF0000200EBC00303EB001368
:103E6000794F07EB830383F82C2006F10102D2B2CD
:103E7000164604F10100C0B204467448B0F90000CF
:103E8000844204DA7348B0F900008642B2DB4FF096
:103E900000007149097801EBC10202EB01116A4A85
:103EA00002EB810181F82C006C48B0F900003C283D
:103EB00017DA4FF0000004460EE04FF0000004EB6C
:103EC000C40101EB0411604A02EB810181F82C006E
:103ED00004F10100C0B204465C48B0F9000084421D
:103EE000EBDD5F480088B8B14FF0000004460EE0FB
:103EF0004FF0010004EBC40101EB0411524A02EB44
:103F0000810181F82C0004F10100C0B204464F4841
:103F1000B0F900008442EBDD4FF00000044619E0E8
:103F200004EBC40000EB0410474901EB800090F85B
:103F30002C0001280AD16FF0310004EBC40101EB21
:103F40000411414A02EB8101A1F8540004F101007F
:103F5000C0B204463D48B0F900008442E0DD4FF0B5
:103F60000000044628E004EBC40000EB04103649CE
:103F700001EB8000C06BD8B14FF0630004EBC401CB
:103F800001EB0411304A02EB810181F82C0004EBB3
:103F9000C40000EB0410114601EB8000C06BA0F1DF
:103FA000010004EBC40101EB041102EB8101C863C1
:103FB00004F10100C0B204462448B0F90000844274
:103FC000D1DB4FF000001C490870264908700546F7
:103FD000044625E004EBC40000EB04101A4901EB91
:103FE00080008078012817D11E48007800F1010078
:103FF0001C49087004EBC40000EB0410124901EBEB
:104000008000C069A84207DD04EBC40000EB041087
:1040100001EB8000C06985B204F10100C0B2044622
:104020000A48B0F900001FE05000002048000020BE
:104030008203002064030020650300205E0300204B
:1040400060030020440400205C060020480100209A
:104050007A030020700300207B030020260000204C
:10406000AC030020580300208442B3DBF9480580EC
:104070004FF00000F84908704FF00100F749087050
:104080004FF00000044626E004EBC40000EB0410EF
:10409000F34901EB8000806AF249B1F900108842CF
:1040A00003DB4FF00100EC49087004EBC40000EBA7
:1040B0000410EB4901EB8000816AEA48B0F9000086
:1040C000401F814203DB4FF00000E449087004F117
:1040D0000100C0B20446E448B0F900008442D3DBDA
:1040E000DD480078012802D1E049087009E0DF4886
:1040F000007830B1D948007818B14FF00000DB49A2
:104100000870DB480088D8B34FF0000004460EE08A
:104110004FF0010004EBC40101EB0411D04A02EBA3
:10412000810181F82C0004F10100C0B20446CE48A0
:10413000B0F900008442EBDD4FF00201CC48B0F949
:104140000000A0F1010000EBC00202EB0010C44A25
:1041500002EB800080F82C10C648008801280FD19F
:104160004FF00301C248B0F90000A0F1010000EBDC
:10417000C00202EB0010BA4A02EB800080F82C105B
:10418000BD48008838B34FF0000004460EE04FF001
:10419000000004EBC40101EB0411B14A02EB810100
:1041A00081F82C0004F10100C0B20446AE48B0F919
:1041B00000008442EBDD4FF00101AF48B0F9000090
:1041C000A0F1010000EBC00202EB0010A44A02EBD8
:1041D000800080F82C10A948008810F0010F17D03B
:1041E0004FF0000004460EE04FF0010004EBC40164
:1041F00001EB04119A4A02EB810181F82C0004F1D1
:104200000100C0B204469848B0F900008442EBDDDA
:10421000BDE8F08170B5044604EBC40000EB041067
:104220008F4911F82000032800D070BD04EBC400B2
:1042300000EB04108A4901EB800090F8425015F021
:10424000020F45D004EBC40000EB041001EB80002A
:10425000B0F94600B0F5966F74DA04EBC40000EBD9
:10426000041001EB8000B0F8460000F1010000B23C
:1042700004EBC40101EB0411794A02EB8101A1F8BE
:10428000460004EBC40000EB0410114601EB800073
:10429000B0F94600B0F5966F54DB4FF4966004EB2E
:1042A000C40101EB041102EB8101A1F8460004EB0B
:1042B000C40000EB0410114601EB8000407810F0C0
:1042C000010F3FD101220021204603F01EF939E001
:1042D00015F0020F36D104EBC40000EB0410604966
:1042E00001EB8000B0F8460060B304EBC40000EBC3
:1042F000041001EB8000B0F84600A0F1010000B20C
:1043000004EBC40101EB0411554A02EB8101A1F851
:10431000460004EBC40000EB0410114601EB8000E2
:10432000B0F8460070B904EBC40000EB041001EBD8
:104330008000407810F0010F04D000221146204682
:1043400003F0E3F815F0080F47D004EBC40000EBCE
:104350000410434901EB8000B0F948000A283BDA19
:1043600004EBC40000EB041001EB8000B0F848003F
:1043700000F1010000B204EBC40101EB0411384A62
:1043800002EB8101A1F8480004EBC40000EB04102B
:10439000114601EB8000B0F948000A281CDB4FF001
:1043A0000A0004EBC40101EB041102EB8101A1F846
:1043B000480004EBC40000EB0410114601EB800040
:1043C000407810F0020F04D101221146204603F07C
:1043D0009CF82046FFF785F968E015F0080F65D1D5
:1043E00004EBC40000EB04101D4901EB8000B0F9A0
:1043F0004800002844DD04EBC40000EB041001EB8E
:104400008000B0F84800A0F1010000B204EBC40144
:1044100001EB0411124A02EB8101A1F8480004EB00
:10442000C40000EB0410114601EB8000B0F8480016
:10443000E0BB4FF0000004EBC40101EB041102EB00
:104440008101A1F8480002464FF00101204603F027
:104450005CF82BE096030020D9030020D80300204D
:104460005C060020E200002048010020DA03002062
:1044700014050020120500200E050020B8020020BF
:1044800004EBC40000EB0410F94901EB8000B0F923
:10449000480000280ADA4FF0000004EBC40101EBE9
:1044A0000411F34A02EB8101A1F8480015F0100F46
:1044B00047D004EBC40000EB0410ED4901EB800091
:1044C000B0F94A000A283BDA04EBC40000EB041000
:1044D00001EB8000B0F84A0000F1010000B204EBEB
:1044E000C40101EB0411E24A02EB8101A1F84A0088
:1044F00004EBC40000EB0410114601EB8000B0F99E
:104500004A000A2878DB4FF00A0004EBC40101EBF3
:10451000041102EB8101A1F84A0004EBC40000EB96
:104520000410114601EB8000407810F0040F04D114
:1045300001220221204602F0E8FF2046FFF7D1F8D1
:104540005AE015F0100F57D104EBC40000EB041033
:10455000C74901EB8000B0F84A0070B304EBC40017
:1045600000EB041001EB8000B0F84A00A0F101005C
:1045700000B204EBC40101EB0411BD4A02EB81015E
:10458000A1F84A0004EBC40000EB0410114601EB53
:104590008000B0F84A0078BB4FF0000004EBC40183
:1045A00001EB041102EB8101A1F84A0002464FF031
:1045B0000201204602F0A9FF1EE004EBC40000EB5C
:1045C0000410AB4901EB8000B0F94A000A2813DD62
:1045D00004EBC40000EB041001EB8000B0F84A00CB
:1045E000A0F1010000B204EBC40101EB0411A04AE8
:1045F00002EB8101A1F84A0004EBC40000EB0410B7
:104600009B4901EB8000C0699A49B1F900109A4AB0
:10461000B2F90020891A88424FDA04EBC40000EB9B
:104620000410934901EB80008078012845D104EB08
:10463000C40000EB041001EB8000B0F94C00B0F5B1
:10464000967F39DA04EBC40000EB041001EB800024
:10465000B0F84C0000F1010000B204EBC40101EB22
:104660000411834A02EB8101A1F84C0004EBC40061
:1046700000EB0410114601EB8000B0F94C00B0F5DE
:10468000967F7BDB4FF4967004EBC40101EB0411C1
:1046900002EB8101A1F84C0004EBC40000EB041014
:1046A000114601EB8000407810F0040F66D1012222
:1046B0000221204602F029FF60E004EBC40000EB79
:1046C00004106B4901EB8000C1696A48B0F9000031
:1046D000694AB2F90020801A81424FDB04EBC40022
:1046E00000EB0410624901EB8000B0F84C0070B39D
:1046F00004EBC40000EB041001EB8000B0F84C00A8
:10470000A0F1010000B204EBC40101EB0411584A0E
:1047100002EB8101A1F84C0004EBC40000EB041093
:10472000114601EB8000B0F84C0038BB4FF00000A0
:1047300004EBC40101EB041102EB8101A1F84C0070
:1047400002464FF00201204602F0DFFE16E004EBC5
:10475000C40000EB0410464901EB8000B0F94C00A6
:10476000B0F5967F0ADD4FF4967004EBC40101EBBF
:1047700004113F4A02EB8101A1F84C0004EBC40094
:1047800000EB04103A4901EB8000407810F00F0F65
:104790000AD04FF0210004EBC40101EB0411344AAC
:1047A00002EB8101887042E034480078A0B104EB4C
:1047B000C40000EB04102E4901EB8000C0781428DF
:1047C0000ADD4FF0220004EBC40101EB0411284A7A
:1047D00002EB810188702AE004EBC40000EB0410B6
:1047E000234901EB800090F8420010F0200F0AD01E
:1047F0004FF0020004EBC40101EB04111C4A02EB70
:104800008101887013E004EBC40000EB0410184928
:1048100001EB8000C078142809DA4FF0010004EBA6
:10482000C40101EB0411124A02EB8101887004EB10
:10483000C40000EB04100E4901EB8000B0F95400F5
:104840000F49B1F90010084404EBC40101EB041155
:10485000074A02EB810108634FF47A7004EBC4014C
:1048600001EB041102EB8101486300BFDDE40000AD
:104870005C060020DE00002006010020440000202D
:10488000D802002070B5FF48008828B9FE48B0F96A
:104890000000FE4908803FE0FD48007B20B14FF05A
:1048A0001400FC49088003E0F9484089F949088070
:1048B000F848B0F90000002803DAF748B0F90050D2
:1048C00024E0F448B0F90000282803DD4FF0280068
:1048D000F0490880EC48B0F90000EF49B1F9001048
:1048E000A0EB010000EB80004FEA40000546E948DC
:1048F000B0F9000005FB00F54FF0C80095FBF0F0A3
:104900000546E548B0F9000028440546E34800881C
:10491000284400B2DD490880BE2001F028FF40B1E4
:10492000DF480068BF2804D1DD48406800B2D7499D
:104930000880D648B0F9000004464FF0620004FB3E
:1049400000F44FF0640094FBF0F0044620B2D54927
:104950000880CE48B0F9000004464FF0660004FB22
:1049600000F44FF0640094FBF0F0044620B2CE490E
:104970000880CE48008810F0100F04D0CC48008882
:1049800000B2C249088070BD10B5CA48008830B175
:10499000C8480088A0F1010000B2C6490880C64896
:1049A000B0F90000C5490880B948B0F908000028EE
:1049B00012DAB749B1F90810081E01DB014601E01F
:1049C000C0F100014FF00A0291FBF2F1BB4A1288DC
:1049D000114409B2B94A1180AD48B0F95400002819
:1049E00012DAAB49B1F95410081E01DB014601E0AF
:1049F000C0F100014FF00A0291FBF2F1AF4A1288B8
:104A0000114409B2AD4A1180AC48B0F90000AC497C
:104A1000B1F9001090FBF1F000F10100A949087014
:104A2000A648B0F90000A849B1F9001090FBF1F0D8
:104A300000F10100A5490870A2480078A449B1F925
:104A40000010884208DD9F480078A14908804FF097
:104A50003C009849088011E09C4800789C49B1F9D5
:104A6000001088420ADA9348008838B997480078DD
:104A7000974908804FF03C008E490880954800888F
:104A800020B19548B0F9000091490880934800781A
:104A900020B19148B0F900008D4908809048007815
:104AA0000A2804D18C48B0F90000894908808D4853
:104AB00000780A2803D08B4800780B2804D1864858
:104AC000B0F90000824908808348B0F90020012134
:104AD0007F48FDF76FFD10BD10B58348B0F90000A9
:104AE0008249B1F90010884235DA814890F9000016
:104AF0000A2819DA7F48B0F900000F2814DD7C4835
:104B0000007800F1010040B279490870084690F938
:104B100000000A2811DB7448B0F9000076490880CB
:104B2000012002F00DF908E0714890F900000A2810
:104B300003DB4FF00A006E4908706B48B0F90000C3
:104B40006D49B1F9001088422DDA6748B0F90000CC
:104B50006949088027E06448B0F900006349B1F969
:104B6000001088421FDD6248007898B160480078E4
:104B7000A0F1010040B25E490870084690F90000BB
:104B8000002810DC002002F0DBF84FF00A005B493F
:104B9000087008E0564890F90000002803DA4FF04A
:104BA0000000534908705648B0F900005549B1F962
:104BB0000010884235DD544890F900000A2819DABF
:104BC0004C48B0F900000F2814DD4F48007800F180
:104BD000010040B24C490870084690F900000A28CC
:104BE00011DB4748B0F9000043490880022002F079
:104BF000A7F808E0444890F900000A2803DB4FF0CA
:104C00000A00414908703E48B0F900003A49B1F93C
:104C1000001088422DDD3A48B0F90000364908807E
:104C200027E03748B0F900003649B1F90010884252
:104C30001FDA3548007898B133480078A0F10100B8
:104C400040B231490870084690F90000002810DC95
:104C5000002002F075F84FF00A002849087008E0BB
:104C6000294890F90000002803DA4FF00000264997
:104C700008702248007820B120480078A0F1010097
:104C800044E045E034010020DE00002066030020FF
:104C90007805002078030020DC000020BC02002002
:104CA000440400206C0300206A030020B8020020A6
:104CB000BE020020F40200208602002088020020AC
:104CC000F400002062030020F600002063030020AF
:104CD000700300200801002048010020DA030020B2
:104CE000DC020020DE0200202C000020E800002072
:104CF00042000020260000202E000020E8030020B3
:104D000036000020EA00002043000020FF49087020
:104D100010BD10B5029C10BD4FF0000108463BE0ED
:104D2000FB49896811F40071F94A916018D1F94979
:104D300009560A290FDAF749095C01F1010149B264
:104D4000F44A1154114609560A2921DB4FF001019A
:104D5000F14A11541CE04FF00A01EE4A115417E0D9
:104D6000EC49095600290FDDEA49095CA1F101016E
:104D700049B2E84A115411460956002908DC4FF09F
:104D80000001E54A115403E04FF00001E14A1154DB
:104D900000F10101C9B208460128C1DB4FF0000152
:104DA000084643E0DD4931F8101019B9DA49095CC9
:104DB000012906D0D94931F81010D9B1D649095C7A
:104DC000C1B9D74909560A290FDAD549095C01F159
:104DD000010149B2D24A1154114609560A2921DB70
:104DE0004FF00101CF4A11541CE04FF00A01CC4AA8
:104DF000115417E0CA49095600290FDBC849095C5C
:104E0000A1F1010149B2C64A1154114609560029BF
:104E100008DC4FF00001C34A115403E04FF00001D9
:104E2000BF4A115400F10101C9B208460128B9DB9B
:104E30007047BD480088B0F5967F0FDABA48008801
:104E400000F10100B849088008460088B0F5967F57
:104E500008D14FF00000B549088003E04FF4967088
:104E6000B1490880B2480088B2490988884273D0A5
:104E7000AF480088AF49098880EA0100AE49088040
:104E80000846008810F0010F17D0A948008810F0DC
:104E9000010F06D0A948008840F00100A74908800A
:104EA0005AE0A348008810F0010F55D1A3480088AC
:104EB00020F00100A14908804EE09F48008810F0D2
:104EC000020F17D09A48008810F0020F06D09B48B6
:104ED000008840F00200994908803DE0944800882D
:104EE00010F0020F38D19548008820F00200934955
:104EF000088031E09048008810F0040F05D08C48FD
:104F0000008810F0040F27D126E08B48008810F0AD
:104F1000080F05D08648008810F0080F1CD11BE050
:104F20008548008810F0100F16D08148008810F0D6
:104F3000100F06D08148008840F010007F4908809B
:104F40000AE07B48008810F0100F05D17B480088EC
:104F500020F010007949088075480088754908805C
:104F6000704708B57648407800F1010074494870F0
:104F70007448007860B14FF00000724908704FF03B
:104F80000A0002F0BDFE4FF00A006D4948701FE0B4
:104F90004FF014006A4948706B48008878B96B4834
:104FA000007860B96A48007848B96A48007830B932
:104FB0004FF001006349087002F0A2FE08E04FF4D0
:104FC000FA6065A36AA270A1009075A0FFF7A1FE28
:104FD00008BD10B57848B0F900007849B1F9001063
:104FE00088421DDD7648B0F900007649B1F900101D
:104FF000884228DA7248008800F1010000B2704946
:1050000008800846B0F900006E49B1F900108842E6
:1050100019D16D480078B0B9022002F0EDF812E025
:105020006748008878B166480088A0F1010000B2A6
:10503000634908800846008828B96348007810B1A1
:10504000002002F0D9F85C48B0F900005F49B1F9DE
:10505000001088421DDA5E48B0F900005949B1F9E4
:105060000010884228DA5A48008800F1010000B296
:10507000574908800846B0F900005249B1F90010BC
:10508000884219D150480078B0B9012002F0B4F834
:1050900012E04F48008878B14D480088A0F1010027
:1050A00000B24B4908800846008828B94648007875
:1050B00010B1002002F0A0F84648B0F9000000EB63
:1050C00080003D49B1F90010B1EB400F08DA4248C9
:1050D000007828B9142301227221D22001F002FBAA
:1050E00010BD08B51748007801280ED13B4800785C
:1050F0001449097888427ED04FF00500384908806D
:105100003848008800B96FE075E08DE0E8030020C2
:10511000001001401A040020E40200201C020020BC
:105120001E040020EC020020BA020020BC02002075
:10513000B2020020B4020020B6020020B802002013
:105140006E00002008000020680000207C00002085
:10515000DC020020DE020020202020202020202051
:1051600020202020202020202020202000000000BF
:1051700020202020E7E0E1EBEEEAE8F0EEE2E0EDCF
:10518000212020200000000020202020202020E7D7
:10519000E0F0FFE42020202020202020000000005C
:1051A0002020202020D3F1EAEEF0E5EDEDFBE92010
:1051B00020202020000000004E0000205E01002082
:1051C0003E04002062010020420400206001002013
:1051D00040040020E6000020AD0400207000002004
:1051E000720000206C0000204FF0000008804FF09B
:1051F0000200FF490870FF48008868B1FD48008838
:10520000A0F1010000B2FB4908800846008818B9E7
:105210004FF00300F6490870F7480078012803D1E1
:105220004FF00200F2490870F1480078022832D1AC
:10523000F2480078EE49097888420CD0F048B0F97D
:1052400000004FF4616100FB01F0EE4908604FF08F
:105250000000ED490860EB480068A0F10100E94951
:105260000860E948006800F10100E7490860E54886
:10527000006828B94FF00000DD49087002F040FDD9
:10528000DD48007838B9E1480088012803D14FF0A3
:105290000400D7490870D6480078032824D1D7489D
:1052A0000078D3490978884202D1D248008818B9D9
:1052B0004FF00A00CF490880CE480088A0F10100D5
:1052C00000B2CC490880084600880A2803D0084666
:1052D0000088092808D141F28830CDA3D2A2D8A1F4
:1052E0000090DDA0FFF715FDC148007804282CD1FF
:1052F000C2480078BE490978884202D1BD4800887A
:1053000018B94FF00A00BB490880BA480088A0F1DC
:10531000010000B2B7490880084600880A2803D077
:1053200008460088092808D141F28830D0A3D6A2C7
:10533000DBA10090C8A0FFF7ECFCAF480078012883
:1053400003D14FF00200AA490870A9480078AB4980
:105350000870D948008801284DD1A5480078E8BBDD
:10536000D6480078D0BBD6480078B8BBD54800787E
:10537000A0BBD549B1F90010D44AB2F9002091423E
:1053800030DAD249B1F90010CF4AB2F90020891AB7
:10539000CF4AB2F90020914224DDCE49B1F9001084
:1053A0000A2291FBF2F1CC4AB2F90020881A01D40A
:1053B000014600E04142052914DAC849098889B943
:1053C000C748007800F10100C54908700846007818
:1053D0003C2810DBFFF7C5FD052000E007E002F0E8
:1053E0008FFC08E04FF00000BD49087003E04FF06B
:1053F0000000BB49087008BD10B5BA48007850B32A
:10540000B8480078A0F10100B64908700846007855
:1054100018B94FF00000B4490870B448007800F0A3
:10542000FE00B2490870B0480078012804D108464F
:10543000007840F001000870AD48007840F00100AD
:10544000AB490870A848007888B90846007800F091
:10545000FE0008700BE0A548007800F0FE00A349AC
:105460000870A348007800F0FE00A1490870A14828
:10547000007850B39F480078A0F101009D49087062
:105480000846007818B94FF000009B49087097480B
:10549000007800F0FD0095490870974800780128D1
:1054A00004D10846007840F0020008709048007867
:1054B00040F002008E4908708F48007888B908468D
:1054C000007800F0FD0008700BE08848007800F0DC
:1054D000FD00864908708648007800F0FD00844988
:1054E00008708648007850B384480078A0F1010025
:1054F000824908700846007818B94FF000008049CA
:1055000008707A48007800F0FB00784908707C4801
:105510000078012804D10846007840F004000870A3
:105520007348007840F004007149087074480078AE
:1055300088B90846007800F0FB0008700BE06B4863
:10554000007800F0FB00694908706948007800F0B5
:10555000FB00674908706B48007850B369480078D1
:10556000A0F10100674908700846007818B94FF0AB
:105570000000654908705D48007800F0F7005B495D
:10558000087061480078012804D10846007840F08E
:10559000080008705648007840F008005449087028
:1055A0005948007888B90846007800F0F70008707C
:1055B0000BE04E48007800F0F7004C4908704C486A
:1055C000007800F0F7004A49087050480088002829
:1055D0000DD04E480088A0F1010000B24B49088070
:1055E0000846008810B94FF0000091E095E0E2E035
:1055F0000800002072000020E4020020700000205B
:105600005C00002074000020D40300206C00002007
:105610002020C1C5C720C2C5CDD2C8CBDFD6C8C8DF
:105620002121202000000000202020202020C2CAAC
:10563000CBDED7C5CD202020202020200000000078
:10564000202020CDC520CCCEC6C5D220C1DBD2DCE7
:1056500020202020000000002020D3D1CACED0C5B9
:10566000CDCDDBC920C7C0D0DFC4202000000000A2
:1056700020202020C2C5CDD2C8CBDFD6C8DF212153
:1056800021202020000000002020202020CDC5C89F
:10569000D1CFD0C0C2CDC0202020202000000000EB
:1056A00020202020C7C0C1CBCECAC8D0CEC2C0CD1A
:1056B00020202020000000005E0000207C00002050
:1056C000DC020020DE0200205400002066030020DF
:1056D0006000002048000020FA0000206800002040
:1056E00009000020960200209502002012000020F0
:1056F0001300002098020020970200209A02002048
:10570000990200209C0200209B020020A0020020A1
:10571000FF490870FF490870C1E0FD480078FF2884
:105720004AD1FC48007801280DD10A23821ED021DD
:10573000CD2000F0D7FF0A234FF47F72E521E1204E
:1057400000F0D0FFABE0F348007802280CD10A2328
:10575000C21ED021CD2000F0C5FF0A231E22E52164
:10576000E12000F0BFFF9AE0EA480078032812D158
:105770000A23021FD021CD2000F0B4FF0A231E22ED
:10578000E521E12000F0AEFF0A230022E621E1201E
:1057900000F0A8FF83E0DF48007804287FD10A23C7
:1057A000421FD021CD2000F09DFF0A23012222219B
:1057B000212000F097FF72E0D648007868B9D448FD
:1057C0000078401E01218140C84300B202460A23EE
:1057D000D021CD2000F086FF61E0CE48007801287E
:1057E00013D1CB480078401E0121814008B2024607
:1057F0000A23D021CD2000F075FF0A234FF47F72D9
:10580000E521E12000F06EFF49E0C248007802285F
:1058100012D1BF480078401E0121814008B20246E3
:105820000A23D021CD2000F05DFF0A231E22E521AE
:10583000E12000F057FF32E0B6480078032818D185
:10584000B3480078401E0121814008B202460A2375
:10585000D021CD2000F046FF0A231E22E521E120C1
:1058600000F040FF0A230022E621E12000F03AFF89
:1058700015E0A8480078042811D1A5480078401EFA
:105880000121814008B202460A23D021CD2000F038
:1058900029FF0A2301222221212000F023FF10BD2D
:1058A0009D48007810F0010F06D09C48C06840F079
:1058B00010009A49C86005E09848C06820F01000C0
:1058C0009649C8609448007810F0020F07D09448B9
:1058D000006840F002009349C1F80C0C06E09048C3
:1058E000006820F002008F49C1F80C0C8A4800784B
:1058F00010F0040F07D08A48006840F00100894981
:10590000C1F80C0C06E08648006820F001008549CB
:10591000C1F80C0C8048007810F0080F06D07F48C2
:10592000C06840F020007D49C86005E07B48C06841
:1059300020F020007949C86070470CB57A4AB2F966
:105940000020ADF80020794AB2F90020ADF802201D
:10595000774AB2F90020ADF804204FF0000211465A
:10596000104654E0734A1278012A0CD13DF81020F9
:1059700012F0020F07D04FF0010202FA00F242EAE1
:105980000102D2B211466B4A1278022A0CD13DF8BC
:10599000102012F0040F07D04FF0010202FA00F2BB
:1059A00042EA0102D2B21146634A1278012A0CD1AE
:1059B0003DF8102012F0800F07D04FF0010202FADC
:1059C00000F242EA0102D2B211465B4A1278022A80
:1059D0000CD13DF8102012F4807F07D04FF0010267
:1059E00002FA00F242EA0102D2B211463DF810205A
:1059F00012F0010F07D04FF0010202FA00F282EA22
:105A00000102D2B2114600F10102D2B210460328BF
:105A1000A8DB414A11701278484B1B7822EA030236
:105A20003D4B1A70464A1278444B1B7802EA030237
:105A3000394B1B7842EA0302374B1A700CBD10B584
:105A400040480088404908804048008818B94048CC
:105A50000078022803D13F4800883B4908803E482F
:105A600000780A2803D13D480088374908803C481F
:105A700000780A2803D13B48008833490880384819
:105A800000780B2803D1384800882F490880374810
:105A9000008810F0100F03D0354800882A4908808C
:105AA0003448008830B133480088A0F1010000B2CA
:105AB000304908803048008830B12F480088A0F174
:105AC000010000B22C4908802C4890F83F0010F0EB
:105AD000030F05D1294890F88B0010F0030F07D071
