:020000040800F2
:10000000082A002001010008050100080701000876
:10001000090100080B0100080D01000800000000A4
:100020000000000000000000000000000F010008B8
:10003000110100080000000013010008750D000800
:100040001701000817010008170100081701000830
:100050001701000817010008170100081701000820
:100060001701000817010008170100081701000810
:100070001701000817010008170100081701000800
:1000800017010008170100081701000817010008F0
:1000900017010008170100081701000817010008E0
:1000A00017010008170100081701000817010008D0
:1000B00017010008170100081701000817010008C0
:1000C00017010008170100081701000817010008B0
:1000D000170100081DA4000837A600081701000832
:1000E000170100081701000817010008DFF80CD0FD
:1000F0000DF0F2FE00480047330F0008082A0020E8
:1001000005480047FEE7FEE7FEE7FEE7FEE7FEE7FD
:10011000FEE7FEE7FEE7FEE7ED000008D448806951
:1001200040F00100D2498861D248406820F00400C4
:10013000D0494860CE48806940F00400CC498861CD
:10014000CD48006820F47F60CA49C1F80408084619
:10015000D0F8040840F0B000C1F804080846D0F810
:10016000040840F48060C1F80408C148806940F484
:100170008040BF49886141F66A00C04908804FF05D
:10018000000001F104010880BD49A1F81008BD4834
:100190000088BC4908804FF00000B949A1F8140854
:1001A0000846B0F80C0840F00C00A1F80C0808460E
:1001B000B0F80C0840F0E000A1F80C08B248008844
:1001C000A1F81008B1480088B04908804FF020001D
:1001D0004FF0E021C1F80401A948B0F80C0840F440
:1001E0000050A749A1F80C08A148806940F001001F
:1001F0009F4988619F48406820F008009D494860F9
:100200009B48806940F00400994988619948D0F87A
:10021000000820F47F409749C1F800080846D0F84C
:10022000000840F43060C1F800080846D0F8000823
:1002300040F48040C1F800088D48C06940F40030A7
:100240008B49C8614FF07500914908804FF000005C
:1002500001F1040108804FF04021A1F810048D48FD
:1002600000888C4908804FF000004FF04021A1F831
:1002700014040846B0F80C0440F00C00A1F80C047B
:100280000846B0F80C0440F0E000A1F80C048248E5
:100290000088A1F8100481480088804908804FF048
:1002A00040004FF0E021C1F804014FF04020B0F8C9
:1002B0000C0440F400504FF04021A1F80C047047AA
:1002C00010B500BF4FF012007549086000BF00BFB5
:1002D0007448674948607448086000BF00BF6448BC
:1002E000006810F4003FFAD000BF6148006810F0C9
:1002F000007FFAD000BF5E48406800F00C0008287C
:10030000F9D100BF00BF4EF65F204FF0E0214861F9
:100310004FF0060008614FF0000088610846006950
:1003200040F00100086100BF00F052F800BF5048E3
:10033000806940F400604E4988614FF000005B49DD
:10034000088041F26F705A49A1F82C0C4FF0000060
:1003500058490880584908805549A1F8040C0846B6
:10036000B0F8000C40F00100A1F8000C00BF00BF85
:100370003F48806940F004003D4988614FF000002B
:100380004E4908604FF440503A49C1F804083848D3
:10039000806940F008003649886149484949086049
:1003A00049483449C1F8040C3148806940F01000D4
:1003B0002F4988614548464908604FF04000486031
:1003C00000BFFFF7ABFE10BD424870474248704780
:1003D0002748C06940F080502549C8610846C06977
:1003E00040F00060C8613D48006840F480703B49BF
:1003F00008601F48006A40F001001D49086200BF04
:100400001B48006A10F0020FFAD01948006A40F445
:100410000140174908623248008840F01000314915
:10042000A1F804084FF000002F49088047F6FF703C
:1004300001F1040108804FF000002C4908804FF0C2
:100440003C002849A1F824080846B0F8040820F028
:100450001000A1F8040800BF2148008810F0200F08
:10046000FAD01E48006820F480701C49086070476C
:10047000001002400000014004080140083801401B
:10048000003001400C380140103801401438014060
:10049000084400400C440040104400401444004014
:1004A000002002400284110082000901282C014032
:1004B00000200140302C0140002C01400008014088
:1004C000110000EE000C01404011810040001111AC
:1004D0000010014080C3C9010087930300700040F1
:1004E0000428004000200040082800402028004048
:1004F00010B50446E0B20AF02FF8002010BD70B528
:1005000004460D462046FFF7F3FF70BDFF490988FA
:1005100008464FEA00410846FD49B1F81C1801445D
:1005200008469AE04FF01F010A46FA49A0EB010184
:100530000846F949098804290BD0F7490988062992
:1005400007D0F5490988092903D0F34909880B29FF
:1005500002D14FF01E010A46EF490988022913D142
:10056000ED4B1B1F1B8819464FEAE37301EB937396
:100570004FEAA303B1EB830303D04FF01C010A46FB
:1005800002E04FF01D010A46E4490988914213DA5E
:10059000E349096841F48071E14B1960DF4909883A
:1005A00001F10101DF4BA3F80C1CDD49096821F4BE
:1005B0008071DB4B196028E0D949096841F48071EA
:1005C000D74B19604FF00101D44B1980D549B1F8D0
:1005D000081C01F10101D34BA3F8081C1946B1F81E
:1005E000081C0C290BDD4FF00101CB4B1980CD49C4
:1005F000B1F8041C01F10101A3F104031980C849F9
:10060000096821F48071C64B1960C549096841F435
:100610008071C34B1960C449098841F01001BC4B7B
:10062000A3F804184FEA1041B84B1980B84BA3F84F
:100630001C081946B1F8041821F01001A3F8041899
:1006400000BFB949098811F0200FFAD0B4490968F0
:1006500021F48071B24B196000BFAE498842BFF6E9
:1006600061AF704710B5B1480088AE49B1F8101CB1
:10067000A0EB010000B20446072C19DD0E2C17DA9E
:10068000AB480088A0B9A648006840F48070A4492F
:1006900008604FF00100A6490880A148006820F4D6
:1006A00080709F4908604FF00800A249087044E03C
:1006B000072C1ADD0E2C18DA9D480088012814D169
:1006C0009748006840F48070954908604FF0020038
:1006D000974908809248006820F48070904908602B
:1006E0004FF008009349087027E0072C25DD0E2CF9
:1006F00023DA8F48008802281FD18948006840F417
:100700008070874908604FF0030089490880844859
:10071000006820F48070824908604FF001014FF4B6
:10072000457000F07BFF4FF4707140F2163000F01E
:1007300075FF4FF00600804908707948006840F462
:10074000807077490860794800887649A1F8100CD4
:100750007348006820F48070714908607748B0F9E8
:100760000000B0F57A7F06DA7448008800F10100D5
:1007700000B2724908807148008864280FD1684827
:10078000006840F48070664908604FF000006849D6
:1007900008806348006820F480706149086010BDDB
:1007A00070B588B06648008800F10100644908808F
:1007B0006448008800287EDB624800883F287ADC95
:1007C0004FF4606000F0D5FD06B25E480088A6EBED
:1007D000000005B2002D03DA05F13F0000B2054626
:1007E0004FF4806000EB451000B204466946204695
:1007F00000F04FFE04F1040000B2044601A92046B7
:1008000000F047FE04F1040000B2044602A92046AD
:1008100000F03FFE04F1040000B2044603A92046A4
:1008200000F037FE04F1040000B2044604A920469B
:1008300000F02FFE04F1040000B2044605A9204692
:1008400000F027FE04F1040000B2044606A9204689
:1008500000F01FFE04F1040000B2044607A9204680
:1008600000F017FE9DF80000374908809DF8010050
:1008700048809DF8020088809DF809009DF80810C6
:1008800000EB01203049C8809DF80C009DF80A104B
:1008900000EB01202C4908819DF80E009DF80D10F9
:1008A00000EB0120284948819DF809009DF80810B7
:1008B00000EB012000E053E0234988819DF80C0003
:1008C0009DF80A1000EB01201F49C8819DF80E0019
:1008D0009DF80D1000EB01201B4908829DF80400D3
:1008E0009DF8051000EB0120174948829DF818007B
:1008F0009DF8191000EB0120134988829DF806002D
:100900009DF8071000EB01200F491FE01828004058
:100910000020004080510100086C00400C6C004039
:100920000070004000600040042800401C28004087
:10093000146C00408C0200208D0200208A020020EE
:10094000AE020020AC020020E4150020C8829DF811
:100950000F009DF80B1000EB0120F949088378E0A7
:10096000F8480088B0F5FA6F0AD140F6026000F04E
:1009700000FDF54908804FF00000F249088068E06A
:10098000F0480088B0F57A7F14D1002140F602606B
:1009900000F0FCFD00214FF4606000F0F7FD40F630
:1009A000026000F0E6FCE84908804FF00000E549ED
:1009B00008804EE0E3480088A0F51C5111390DD1A4
:1009C000012006F04FFE40F6026000F0D2FCDE4946
:1009D00008804FF00000DB4908803AE0D9480088E1
:1009E000A0F59C4121390DD1002006F03BFE40F6D8
:1009F000026000F0BEFCD44908804FF00000D149ED
:100A0000088026E0CF480088A0F51C5112390DD18E
:100A1000022006F027FE40F6026000F0AAFCCA4958
:100A200008804FF00000C749088012E0C5480088E0
:100A3000A0F59C4122390CD1002006F013FE40F6AF
:100A4000026000F096FCC04908804FF00000BD49EC
:100A5000088008B070BD2DE9F0410646C6F30720B6
:100A60000746F0B20546012F24D11C2000F081FC7E
:100A700000B20446112D04D104F1010000B2044675
:100A800013E0122D04D104F10A0000B204460CE078
:100A9000212D04D1A4F1010000B2044605E0222D6D
:100AA00003D1A4F10A0000B2044621461C2000F044
:100AB000B5FD00BFBDE8F0811FB54FF02000A34990
:100AC0000870A348008800F1010000B2A049088026
:100AD0009E490978884203DD6FF003009C49088035
:100AE0009B48B0F9000000287DDB9948B0F9000070
:100AF000202878DC212006F02CF920B195480068E8
:100B0000222800D11FBD94480078F0BB9048B0F96E
:100B1000000000EBC00101EB0010904901EB8000E8
:100B200090F835008A49B1F9001001EBC10202EBDF
:100B300001118A4A02EB810191F83410844AB2F91A
:100B4000002002EBC20303EB0212844B03EB820290
:100B500092F831207E4BB3F9003003EBC30404EB71
:100B600003137E4C04EB830393F83030CDE900325D
:100B7000CDE902107648B0F9000000EBC00101EBAE
:100B80000010214601EB800000E00BE090F82C0003
:100B90000346ED226E480088C1B26D480088C0B29D
:100BA00006F0DAFA6A48B0F9000020287CDC6848D0
:100BB000B0F9000000EBC00101EB0010674901EB48
:100BC0008000C0783C281ADA6148B0F9000000EBD8
:100BD000C00101EB0010614901EB8000C07800F119
:100BE00001005B4900E060E0B1F9001001EBC102D7
:100BF00002EB0111594A02EB8101C8700CE04FF081
:100C00003C005349B1F9001001EBC10202EB0111A4
:100C1000524A02EB8101C8704D48B0F9000000EB68
:100C2000C00101EB00104D4901EB8000C0780328A2
:100C300024DB4748B0F9000000EBC00101EB0010D5
:100C4000464901EB80000079032817DA4048B0F9E3
:100C5000000000EBC00101EB0010404901EB8000F7
:100C6000407900F101003A49B1F9001001EBC102ED
:100C700002EB0111394A02EB810148713448B0F9A5
:100C8000000000EBC00101EB0010344901EB8000D3
:100C9000C0782F49B1F9001001EBC10202EB01113C
:100CA0002E4A02EB8101087147E02948B0F90000A3
:100CB000001D42D02648B0F90000401C3DD0244819
:100CC00000880C2814D124480078A0BB00232448B5
:100CD00041780078234A527801AC0BC40092214835
:100CE000007803466222FF21084606F035FA24E028
:100CF000174800880D2820D0154800880E281CD0E1
:100D0000134800880F2817D11348007898B916485F
:100D10000088C1B2154842780078154B5B78CDE960
:100D20000030CDE902211248007803462622FF2137
:100D3000084606F011FA00E000BF00BFE2E600003E
:100D4000E4150020AC020020AA0200207A00002056
:100D500078000020340400207B000020440600209E
:100D600006010020DA000020FE000020E200002042
:100D7000E000002010B54FF00100EF490870EF4887
:100D8000806810F00200ED49886004D04FF0010047
:100D9000EB49087003E04FF00000E9490870E848AB
:100DA0000078E8490978884206D0E748008800F1D1
:100DB000010000B2E4490880E1480078E149087088
:100DC000E2480078401CC0B2E0490870142806DBF5
:100DD0004FF0000008704FF00100DD490870DD4859
:100DE0000078401CC0B2DB4908700A287EDB4FF057
:100DF000000008704FF00100D7490870D74800780C
:100E000000F10100C0B2D54908700A2808DB4FF094
:100E1000000008704FF00100D149087009F092F805
:100E2000D0480078401CC0B2CE490870142812DBAC
:100E30004FF0000008704FF00100CB490870CB481C
:100E4000007820B14FF00000C849087003E04FF06F
:100E50000100C6490870C6480078401CC0B2C449A9
:100E60000870322812DB4FF0000008704FF00100CC
:100E7000C0490870C048007820B14FF00000BE495A
:100E8000087003E04FF00100BB490870BB480078D0
:100E9000401CC0B2B9490870642820DB4FF0000044
:100EA00008704FF00100B6490870B648007820B1CC
:100EB0004FF00000B349087003E04FF00100B14962
:100EC0000870B148B0F9000042F21071884206DAA9
:100ED000AD48008800F1010000B2AB490880AB4882
:100EE000008800F1010000B2A84900E012E008808B
:100EF0000846B0F90000B0F5FA7F0BDB4FF00000B8
:100F000008809148B0F90000A14908804FF0000026
:100F10008D4908809F48007850B19E480078A0F124
:100F200001009C4908700846007808B90BF06EF87B
:100F300010BD86B0FFF7C4F900F073F94FF001005F
:100F40009549087009F026F900F034FC00F04BFCDC
:100F50009249096801EB81014900084609F01CF932
:100F60006421102000F05AFB01F004FF06F051F854
:100F700005F080FCFFF776FBFFF7C8FADAE0884857
:100F8000007808B10BF042F86B48007828B14FF0B8
:100F900000006949087006F051F98148007808B1ED
:100FA0000BF034F86C48007838B14FF000006A4913
:100FB000087001F051FEFFF77FFD7948007808B115
:100FC0000BF024F86648007850B34FF000006449F5
:100FD000087004F031FA03F0F2FF05F027F84FF043
:100FE0000000044606E0204603F0B1FC04F10100D5
:100FF000C0B204466B48B0F900008442F3DB03F052
:10100000CCF901F0BBFC01F0D1FD04F08DFF04F040
:101010003EFF04F0EBFC05F02FFE04F0EDF800BFFE
:1010200051480078E0B14FF000004F49087000F0DF
:10103000DAFB02F08EFF5C480088C0B25B49497859
:101040005A4A12785A4B5B78CDE90032CDE902104A
:101050005748007803462622FF21084606F07CF810
:101060004448007828B14FF000004249087001F070
:10107000DEFE43480078F0B34FF0000040490870AE
:1010800004F012F805F002FC04F09BFA49480078DD
:1010900000F10100474908704748B0F9001047A027
:1010A0000CF04AFF4748B0F900004149B1F900107F
:1010B000454AB2F90020454BB3F90030CDE9023280
:1010C000CDE904104248B0F900004249B1F90010DE
:1010D000CDE900104048B0F900304048B0F9002098
:1010E0003F48B0F900103F480CF026FF01F0DEFA4F
:1010F00008F09AFF00E003E0FFF7B4FA04F0E9FA21
:101100002748007808B10AF081FF3748007828B1F5
:101110004FF00000344908700CF032FD334800787D
:1011200040B14FF00000314908703148017831A0DA
:101130000CF002FF23E700001A000020001001401D
:1011400036000020370000203A0000201400002064
:101150001C000020150000201B00002016000020AD
:101160001E000020170000201F0000202300002088
:10117000180000202000002022000020190000207C
:101180001D00002021000020260000203C0000203F
:1011900038000020D2040020B20200200400002009
:1011A000D304002048010020FE000020E2000020BF
:1011B000E0000020B302002000000020253564205C
:1011C0000D0A0000EC0000205C01002062010020FC
:1011D000600100205E01002008010020F6000020D0
:1011E000F400002004E300083F040020BD020020BA
:1011F000BC02002025643B0D0A000000014600BF30
:10120000FD48008810F0020FFAD0FC48018000BFB2
:10121000F948008810F0010FFAD0F8480088C0B2F1
:101220007047F748C06940F08050F549C8610846EA
:10123000806940F0190088610846C06940F4804028
:10124000C861F0484068EF494860EF48006880B2E4
:10125000C1F8040CEC480068EC4940EA0100E94997
:10126000C1F8040CEA48406820F47060E84948601E
:101270000846406840F44070486040F26F30E549ED
:1012800008804FF00000E449A1F804087047DC48EA
:10129000C06920F48060DA49C861704700B5FFF783
:1012A000C0FFDB48C06820F48060D949C8604FF0B7
:1012B0000600FFF7A3FFD648C06840F48060D44919
:1012C000C860FFF7E4FF00BD00B5FFF7AAFFD048F4
:1012D000C06820F48060CE49C8604FF00500FFF779
:1012E0008DFFFF20FFF78AFF0246C948C06840F41F
:1012F0008060C749C860FFF7CAFF104600BD01B54E
:101300004FF00000034600BFFFF7DEFF10F0010FB3
:10131000FAD1FFF786FFBE48C06820F48060BC4960
:10132000C8600846C06820F48060C8604FF00300C1
:10133000FFF764FF9DF8010003461846FFF75EFFC4
:101340009DF8000003461846FFF758FFFF20FFF7FF
:1013500055FF0346AE48C06840F48060AC49C860A1
:101360000846C06840F48060C860FFF790FF1846E8
:1013700008BD11B500BFFFF7A7FF10F0010FFAD1AC
:10138000FFF74FFFA248C06820F48060A049C86002
:101390004FF00300FFF732FF9DF80100044620469E
:1013A000FFF72CFF9DF8000004462046FFF726FFBC
:1013B000FF20FFF723FF04464FF0FF00FFF71EFF5B
:1013C00003464FEA0320034603EB0400034690481C
:1013D000C06840F480608E49C8600846C06840F428
:1013E0008060C860FFF753FF184618BD71B500BF95
:1013F000FFF76AFF10F0010FFAD1FFF712FF8448E0
:10140000C06820F480608249C8604FF00300FFF795
:10141000F5FE9DF8010004462046FFF7EFFE9DF81B
:10142000000004462046FFF7E9FEFF20FFF7E6FE36
:1014300004464FF0FF00FFF7E1FE06464FF0FF00C5
:10144000FFF7DCFE05464FF0FF00FFF7D7FE03462F
:101450004FEA0320034603EB050003464FEA03204F
:10146000034603EB060003464FEA0320034603EB63
:10147000040003466648C06840F480606449C86060
:101480000846C06840F48060C860FFF700FF184657
:1014900078BD13B50B4600BFFFF716FF10F0010F24
:1014A000FAD1FFF7BEFE5A48C06820F48060584960
:1014B000C8604FF00300FFF7A1FE9DF8010004464D
:1014C0002046FFF79BFE9DF8000004462046FFF7EC
:1014D00095FEFF20FFF792FE1870FF20FFF78EFEAB
:1014E0005870FF20FFF78AFE9870FF20FFF786FEF6
:1014F000D8704748C06840F480604549C8600846D5
:10150000C06840F48060C860FFF7C1FE1CBD77B5BD
:101510000B46154600BFFFF7D7FE10F0010FFAD1BA
:10152000FFF77FFE3A48C06820F480603849C86001
:101530004FF00300FFF762FE9DF8010006463046BB
:10154000FFF75CFE9DF8000006463046FFF756FEAA
:101550004FF000040AE0FF20FFF750FE187003F17F
:101560000100034604F10100C0B20446AC42F2DBC4
:101570002748C06840F480602549C8600846C068B4
:1015800040F48060C860FFF782FE7EBD13B50B4655
:1015900000BFFFF799FE10F0010FFAD1FFF77EFEB2
:1015A000FFF73FFE1A48C06820F480601849C86001
:1015B0004FF00200FFF722FE9DF80100044620468E
:1015C000FFF71CFE9DF8000004462046FFF716FEBC
:1015D0001846FFF713FE04460D48C06840F48060CB
:1015E0000B49C8600846C06840F48060C860FFF7D7
:1015F0004EFE20461CBD0000083800400C3800405C
:101600000010024000000140040C01400000B3B88B
:1016100000100140003800400030004003B500BF1A
:10162000FFF752FE10F0010FFAD1FFF737FEFFF778
:10163000F8FD5F48C06820F480605D49C8604FF0E5
:101640000200FFF7DBFD9DF8010003461846FFF797
:10165000D5FD9DF8000003461846FFF7CFFD9DF825
:10166000040003461846FFF7C9FD9DF80500034630
:101670001846FFF7C3FD4E48C06840F480604C49EF
:10168000C8600846C06840F48060C860FFF7FFFD8E
:1016900018460CBD03B500BFFFF716FE10F0010F92
:1016A000FAD1FFF7FBFDFFF7BCFD4148C06820F40D
:1016B00080603F49C8604FF00200FFF79FFD9DF832
:1016C000010003461846FFF799FD9DF80000034608
:1016D0001846FFF793FD9DF8040003461846FFF7F0
:1016E0008DFD9DF8050003461846FFF787FD9DF820
:1016F000060003461846FFF781FD9DF807000346E4
:101700001846FFF77BFD2A48C06840F480602849EE
:10171000C8600846C06840F48060C860FFF7B7FD45
:1017200018460CBD13B50B4600BFFFF7CDFD10F0FA
:10173000010FFAD1FFF7B2FDFFF773FD1C48C06837
:1017400020F480601A49C8604FF00200FFF756FD90
:101750009DF8010004462046FFF750FD9DF800006B
:1017600004462046FFF74AFD187804462046FFF756
:1017700045FD587804462046FFF740FD987804461A
:101780002046FFF73BFDD87804462046FFF736FD9C
:101790000748C06840F480600549C8600846C068D2
:1017A00040F48060C860FFF772FD20461CBD000059
:1017B0000010014010B50420FFF7DBFDA0F59051AB
:1017C00034390FD001214FF44570FFF727FF4FF454
:1017D000707140F21630FFF721FF41F234210420EE
:1017E000FFF71CFF10BD10B51020FFF7C2FD00B2BF
:1017F000FF4908801220FFF7BCFD00B2FC49488079
:101800002C20FFF7B6FD00B2FA4908802E20FFF722
:10181000B0FD00B2F74948801420FFF7AAFDF64951
:1018200008801620FFF7A5FDF34948801820FFF730
:10183000A0FD00B2F14908801A20FFF79AFD00B21E
:10184000EE4948801C20FFF794FD00B2EC49088067
:101850001E20FFF78EFD00B2E94948802020FFF7E7
:1018600088FD00B2E74908802420FFF782FD00B21E
:10187000E54908802620FFF77CFD00B2E349088097
:101880002820FFF776FD00B2E04948802A20FFF7C4
:1018900070FD00B2DD4988803C20FFF76AFD00B290
:1018A000DB4908803E20FFF764FD00B2D94908807B
:1018B0004020FFF75EFD00B2D74908804220FFF7C5
:1018C00058FD00B2D54908804420FFF752FD00B210
:1018D000D3490880A620FFF74CFD00B2D14908800B
:1018E000A820FFF746FD00B2CE494880AA20FFF7A6
:1018F00040FD00B2CB4988807620FFF73AFD00B268
:10190000C94908807820FFF734FD00B2C749088034
:101910007A20FFF72EFD00B2C54908807C20FFF732
:1019200028FD00B2C34908807E20FFF722FD00B2E7
:10193000C1490880C620FFF71CFD00B2BF490880DE
:10194000C820FFF716FD00B2BD4908808220FFF7CE
:1019500010FD00B2BB4908808420FFF70AFD00B2E9
:10196000B94908804FF48270FFF703FD00B2B74910
:1019700008808620FFF7FDFC00B2B549088088206A
:10198000FFF7F7FC00B2B3490880DE20FFF7F1FC57
:1019900000B2B14908804FF4D270FFF7EAFC00B200
:1019A000AE4908804FF4D370FFF7E3FC00B2AC49B6
:1019B00008808C20FFF7DDFC00B2AA4908808E2049
:1019C000FFF7D7FC00B2A84908809020FFF7D1FCB0
:1019D00000B2A64908804FF4AD70FFF7CAFC00B210
:1019E000A34908804FF4C470FFF7C3FC00B2A149BB
:1019F00008804FF4C570FFF7BCFC00B29E49088018
:101A00004FF4C670FFF7B5FC00B29C4908804FF454
:101A1000C770FFF7AEFC00B2994908804FF4C87058
:101A2000FFF7A7FC00B2974908804FF4CB70FFF78F
:101A3000A0FC00B2944908804FF4CC70FFF799FCE9
:101A400000B2924908804FF4CD70FFF792FC00B2CB
:101A50008F4908804FF4CE70FFF78BFC00B28D49A0
:101A600008804FF4CF70FFF784FC00B28A490880E9
:101A70004FF4D070FFF77DFC00B2884908804FF426
:101A8000D170FFF776FC00B2854908804FF4B27040
:101A9000FFF76FFC00B2834908809220FFF769FCD2
:101AA00000B2814908809420FFF763FC00B27F49AF
:101AB00008809620FFF75DFC00B27D4908809820E1
:101AC000FFF757FC00B27B4908804FF49B70FFF78B
:101AD00050FC00B2784908809A20FFF74AFC00B217
:101AE000764908800F220021744800F0BFFD4FF4B2
:101AF0001770FFF73EFC00B27149088040F25E208B
:101B0000FFF737FC00B26F49088040F26620FFF70C
:101B100030FC00B26C4908804FF41A70FFF729FCC2
:101B200000B26A4908806648008866490988084406
:101B300000B2674908804FF41B70FFF71AFC00B22F
:101B4000644908804FF48850FFF713FC00B26249E3
:101B5000088041F20210FFF70CFC00B25F490880D8
:101B60008020FFF706FC00B25D490880C420FFF723
:101B700000FC00B25B490880CA20FFF7FAFB00B204
:101B800059490880CC20FFF7F4FB00B25749088080
:101B9000CE20FFF7EEFB00B2554908804FF41970D4
:101BA000FFF7E7FB00B25349088040F26A20FFF7D5
:101BB000E0FB00B250490880D020FFF7DAFB00B20A
:101BC0004E490880D220FFF7D4FB00B24C49088070
:101BD000D420FFF7CEFB00B24A490880D620FFF799
:101BE000C8FB00B248490880D820FFF7C2FB8DE04F
:101BF000AC000020B0000020B4000020B80000209D
:101C0000BC000020C0000020CE000020C200002048
:101C1000D0000020D2000020D4000020D6000020F8
:101C20000E000020C8000020D8000020DA000020AC
:101C3000DC000020DE000020E0000020E2000020A8
:101C400006010020E6000020E8000020EA00002055
:101C5000EC000020EE000020F0000020F200002048
:101C600010000020F4000020F6000020F800002002
:101C7000860100208C0100208E01002096010020AA
:101C8000980100209A0100209C0100209E01002064
:101C9000A0010020A2010020A4010020A601002034
:101CA000A801002088010020FA000020FC0000208C
:101CB000FE00002048010020460100204A010020CB
:101CC0004E0100204C010020520100205401002050
:101CD00050010020580100205A0100205C01002022
:101CE000E400002004010020080100200A01002077
:101CF0000C0100200E010020100100201201002024
:101D000014010020160100201801002000B2FF4934
:101D10000880DA20FFF72DFB00B2FD490880DC20A7
:101D2000FFF727FB00B2FB490880E220FFF721FB09
:101D300000B2F9490880E420FFF71BFB00B2F74925
:101D40000880FE20FFF715FB00B2F54908804FF42C
:101D50008070FFF70EFB00B2F2490880E620FFF723
:101D600008FBF1490870E820FFF703FBEF49087012
:101D7000EA20FFF7FEFAEE490870EC20FFF7F9FAC7
:101D800000B2EC490880EE20FFF7F3FA00B2EA490E
:101D90000880F020FFF7EDFA00B2E84908804FF420
:101DA000B670FFF7E6FA00B2E5490880F220FFF7C7
:101DB000E0FA00B2E3490880F420FFF7DAFA00B253
:101DC000E1490880F620FFF7D4FA00B2DF49088025
:101DD000F820FFF7CEFA00B2DD490880FA20FFF7BD
:101DE000C8FA00B2DB490880FC20FFF7C2FA00B253
:101DF000D94908804FF48170FFF7BBFA00B2D74988
:101E000008804FF48B70FFF7B4FA00B2D449088011
:101E10004FF48C70FFF7ADFA00B2D24908804FF44E
:101E20008D70FFF7A6FA00B2CF4908804FF48E708C
:101E3000FFF79FFA00B2CD4908804FF48F70FFF78B
:101E400098FA00B2CA4908804FF4E770FFF791FA98
:101E500000B2C84908804FF49270FFF78AFA00B2C6
:101E6000C54908804FF49370FFF783FA00B2C34965
:101E700008804FF49570FFF77CFA00B2C0490880E3
:101E80004FF49670FFF775FA00B2BE4908804FF420
:101E90009770FFF76EFA00B2BB4908804FF4987054
:101EA000FFF767FA00B2B94908804FF49C70FFF75A
:101EB00060FA00B2B64908804FF49D70FFF759FAF6
:101EC00000B2B44908804FF4B770FFF752FA00B27D
:101ED000B14908804FF4B870FFF74BFA00B2AF4930
:101EE00008804FF4BA70FFF744FA00B2AC4908809A
:101EF0004FF4B970FFF73DFA00B2AA4908804FF4D9
:101F0000BB70FFF736FA00B2A74908804FF4BC70E7
:101F1000FFF72FFA00B2A54908804FF4BD70FFF714
:101F200028FA00B2A24908804FF4BE70FFF721FAE8
:101F300000B2A04908804FF4BF70FFF71AFA00B250
:101F40009D4908804FF4C070FFF713FA00B29B4917
:101F500008804FF4C170FFF70CFA00B2984908806E
:101F60004FF4C270FFF705FA00B2964908804FF4AB
:101F7000C370FFF7FEF900B2934908804FF4E9708F
:101F8000FFF7F7F9914908704FF4F870FFF7F1F98E
:101F90008E4948704FF000008D4908808B480078CA
:101FA000552805D10846008800F1010000B20880DC
:101FB00086484078552806D18548008800F1010000
:101FC00000B2834908804FF4EA70FFF7D2F900B2FB
:101FD000804908804FF4EB70FFF7CBF900B27E49DF
:101FE00008804FF4EC70FFF7C4F900B27B49088019
:101FF0004FF4ED70FFF7BDF900B2794908804FF456
:10200000F170FFF7B6F900B2764908804FF4EE7030
:10201000FFF7AFF900B2744908804FF4F970FFF789
:10202000A8F900B26B4948804FF4FA70FFF7A1F9A4
:1020300000B2694948804FF4FB70FFF79AF900B28B
:10204000664948804FF4FC70FFF793F900B2644989
:10205000488040F20220FFF78CF900B261494880C5
:102060004FF4FD70FFF785F900B25F4948804FF4E7
:102070004670FFF77EF900B25C490880A020FFF7A8
:1020800078F95B490870A220FFF773F95949087085
:10209000A420FFF76EF900B257490880C020FFF76F
:1020A00068F900B255490880C220FFF762F900B212
:1020B000534908804FF4AA70FFF75BF95149088033
:1020C0004FF4AB70FFF792F94F4908604FF4AC70D2
:1020D000FFF78CF94D4908604FF40170FFF749F99B
:1020E00000B24B49088040F20620FFF742F900B2E7
:1020F000484908804FF40270FFF73BF900B24649A7
:10210000088040F20A20FFF734F987E01A01002026
:102110001C0100201E0100202001002022010020BF
:102120002401002026010020280100203201002087
:10213000330100202C0100202E0100202A01002064
:102140003001002034010020360100203801002039
:102150003A0100203C010020560100203E010020F1
:1021600056000020580000205A0000205C0000208B
:102170005E0000206C000020400100204201002091
:102180005E01002060010020620100206401002047
:1021900066010020680100206A0100206C01002017
:1021A0006E01002070010020280000207201002034
:1021B0007401002076010020780100207A010020BF
:1021C0007C0100207E01002080010020AA01002067
:1021D00044010020AC010020B0010020B401002027
:1021E000C0010020B8010020BC01002056020020E0
:1021F00082010020830100208401002000010020D2
:1022000002010020C4010020C8010020D8010020E4
:10221000EC010020F2010020F801002000B2DB49AF
:1022200008804FF40370FFF7A4F800B2D849088083
:1022300040F20E20FFF79DF800B2D64908804FF417
:102240000470FFF796F800B2D349088040F21220DC
:10225000FFF78FF800B2D14908804FF40D70FFF7F7
:1022600088F800B2CE49088040F23620FFF781F8A6
:1022700000B2CC4908804FF40E70FFF77AF800B234
:10228000C949088040F23A20FFF773F800B2C74905
:1022900008804FF40F70FFF76CF800B2C449088053
:1022A00040F23E20FFF765F800B2BD4948804FF488
:1022B0001070FFF75EF800B2BA49488040F2422041
:1022C000FFF757F800B2B84948804FF41170FFF794
:1022D00050F800B2B549488040F24620FFF749F86F
:1022E00000B2B34948804FF41270FFF742F800B2D1
:1022F000AB49888040F24A20FFF73BF800B2A94979
:1023000088804FF41370FFF734F800B2A649888034
:1023100040F24E20FFF72DF800B2A44988804FF418
:102320001470FFF726F800B2A149888040F25220CD
:10233000FFF71FF800B29A49C8804FF41570FFF7F5
:1023400018F800B29749C88040F25620FFF711F8FC
:1023500000B29549C8804FF41670FFF70AF800B232
:102360009249C88040F25A20FFF703F800B2904922
:10237000C880E020FEF7FDFF00B28E490880BA2039
:10238000FEF7F7FF8C490870AC20FEF7F2FF8B498F
:102390000880AE20FEF7EDFF89490880B020FEF7E7
:1023A000E8FF88490880B220FEF7E3FF86490880ED
:1023B000B420FEF7DEFF85490880B620FEF7D9FF7E
:1023C0008349088008460088002803DD0846008805
:1023D0000D2803DB4FF000007D490880B820FEF790
:1023E000C8FF7C4908804FF44570FEF7C2FF00B279
:1023F0007949088040F21630FEF7BBFF7749086044
:102400004FF4AE70FEF7B5FF00B2754908804FF487
:10241000AF70FEF7AEFF00B2724908804FF4B070A3
:10242000FEF7A7FF00B2704908804FF4B370FEF7C3
:10243000A0FF00B26D4908804FF4D470FEF799FFF9
:1024400000B26B4908804FF4D570FEF792FF00B2DE
:10245000684908804FF4D670FEF78BFF00B26649DA
:1024600008804FF4D770FEF784FF00B263490880FC
:102470004FF4D870FEF77DFF00B2614908804FF439
:10248000D970FEF776FF00B25E4908804FF4DA702B
:10249000FEF76FFF00B25C4908804FF4DC70FEF776
:1024A00068FF00B2594908804FF4DD70FEF761FF04
:1024B00000B2574908804FF4DE70FEF75AFF00B2B1
:1024C000544908804FF4DF70FEF753FF00B25249C1
:1024D00008804FF4E070FEF74CFF00B24F490880CF
:1024E0004FF4E170FEF745FF00B24D4908804FF40C
:1024F000E270FEF73EFF00B24A4908804FF4E570F3
:10250000FEF737FF00B2484908804FF4E670FEF747
:1025100030FF00B2454908804FF0000403E004F1A9
:102520000100C0B20446402CF9DB4FF00000044625
:1025300003E004F10100C0B204460A2CF9DB4FF0BD
:102540000000044603E004F10100C0B20446402C40
:10255000F9DB4FF42770FEF70CFF00B23449088016
:1025600040F29A20FEF705FF00B23249088040F29F
:102570009E20FEF7FEFE00B22F4908804FF428701F
:10258000FEF7F7FE00B22D49088010BDFE010020C5
:10259000040200200A02002010020020160200207F
:1025A0001C020020240200202C0200203402002003
:1025B0003C0200205402002044020020520200206D
:1025C00046020020480200204A0200204C0200205F
:1025D0004E020020500200200000002004000020D5
:1025E0009001002092010020940100208A01002027
:1025F000580200205A0200205C0200205E020020E7
:1026000060020020620200206402002066020020B6
:10261000680200206A0200206C0200206E02002086
:102620007002002072020020740200207602002056
:102630009400002096000020980000209A000020BE
:1026400090F900308B4200DA027090F9003093422A
:1026500000DD0170704790F900308B4200DA0170A4
:1026600090F90030934200DD02707047B0F90030FD
:102670008B4200DA0180B0F90030934200DD028025
:102680007047B0F900308B4200DA0280B0F90030B8
:10269000934200DD0180704703688B4200DA0260DC
:1026A0000368934200DD016070470000FF4909881C
:1026B00039B1FE490988A1F1010109B2FB4A118033
:1026C00070474FF00501F94A11804FF00001F84AB8
:1026D000117008461CE000EBC00101EB0011F54A47
:1026E00002EB8101897801290ED100EBC00101EBD9
:1026F000001102EB8101C978142905DAEC49097847
:1027000001F10101EA4A117000F10101C9B2084664
:10271000E949B1F900108842DDDBE849097821B1C7
:102720004FF00001E54A117003E04FF00101E34A68
:102730001170DF490978022900DAC1E741F28831D6
:10274000DF4A11604FF00001DE4A1160DE4A11607D
:10275000084645E000EBC00101EB0011D54A02EB51
:1027600081018978012937D100EBC00101EB00110B
:1027700002EB8101496AD34A1268914209DD00EBFC
:10278000C00101EB0011CB4A02EB8101496ACD4A3D
:10279000116000EBC00101EB0011C64A02EB8101A0
:1027A000496AC74A1268914209DA00EBC00101EB9D
:1027B0000011C04A02EB8101496AC14A116000EB75
:1027C000C00101EB0011BB4A02EB8101496ABE4A1C
:1027D00012681144BC4A116000F10101C9B20846F7
:1027E000B549B1F900108842B4DBB7490968B04A6D
:1027F000127891FBF2F1B54A1160B149096819B933
:102800004FF00101AE4A1160AE490968B04A11604B
:10281000114609684FF0640201FB02F1AC4A1160F5
:1028200011460968A64A126891FBF2F1A84A1160A4
:1028300011460968822903DD4FF00101A54A117094
:10284000A34909686E2903DA4FF00001A14A11700B
:10285000A049097801297ED14FF00001084684E0A3
:1028600000EBC00101EB0011924A02EB8101897873
:10287000012976D100EBC00101EB001102EB8101CF
:10288000496A924A1268914217DD8C490978A1B9C8
:1028900000EBC00101EB0011864A02EB8101B1F8A7
:1028A0005410A1F1010109B200EBC00202EB0012C9
:1028B000804B03EB8202A2F8541000EBC00101EB45
:1028C00000117C4A02EB8101496A804A12689142F8
:1028D00017DA7A490978A1B100EBC00101EB0011C8
:1028E000744A02EB8101B1F8541001F1010109B2FF
:1028F00000EBC00202EB00126E4B03EB8202A2F867
:10290000541000EBC00101EB00116A4A02EB810197
:10291000B1F9541011F1320F0ADA6FF0310100EB06
:10292000C00202EB0012634B03EB8202A2F85410C8
:1029300000EBC00101EB00115E4A02EB8101B1F92D
:10294000541032290DDD4FF0320100EBC00202EBD2
:102950000012584B01E00EE003E003EB8202A2F804
:10296000541000F10101C9B208465349B1F90010F1
:102970008842FFF675AF00BF00BFA1E64FF0000030
:102980005549087055490870554908704FF00100C5
:10299000544908705448007810B95348007818B169
:1029A0004FF001004C4908705048007818B94FF0BA
:1029B00001004B4908704E48007801280ED14FF0B5
:1029C000000045490870454908704FF0010044492E
:1029D00008704FF000004349087042E04448007816
:1029E00002280ED14FF000003B4908704FF0010063
:1029F0003A4908704FF000003949087039490870A9
:102A00002FE03B48007803280CD14FF001003249F9
:102A100008704FF0000031490870314908703149A1
:102A200008701EE03248007804280CD14FF00000F6
:102A30002949087029490870294908704FF0010098
:102A4000284908700DE02A480078052809D14FF080
:102A50000000214908702149087021490870214966
:102A600008702448007860B122480078A0F1010085
:102A7000204908700846007818B94FF000001C493A
:102A800008701D48007878B11B480078A0F101005B
:102A9000194908704FF000000F4908700F4908707D
:102AA0000F4908700F490870134827E0D202002030
:102AB000F20300204406002048010020F303002018
:102AC000E0030020DC030020E4030020E8030020F2
:102AD000EC030020F0030020A8020020A702002041
:102AE000A6020020A902002042000020320400209B
:102AF000A4020020A50200208C02002000780728F4
:102B000003D0FF480078012804D14FF00100FD49AF
:102B1000087021E0FA480078062803D0F8480078C9
:102B2000022804D14FF00100F749087014E0F4487E
:102B30000078052803D0F2480078032804D14FF02C
:102B40000100F249087007E0ED480078042803D13D
:102B50004FF00100EE490870EE48007878B1ED487A
:102B60000078A0F10100EB4908704FF00000E74940
:102B70000870E5490870E3490870E5490870E548C0
:102B80000078052807D0E3480078032803D0E148FF
:102B90000078012809D14FF00100DC490870DA49BA
:102BA0000870D8490870DA4908707047DA48007828
:102BB00000F10100D84908700846007800F00F00C5
:102BC0000870D0480078012806D1D448C06820F0A9
:102BD0004000D249C86005E0D048C06840F04000DD
:102BE000CE49C860C8480078012807D1CC480068A1
:102BF00020F48050CB49C1F80C0C06E0C8480068AE
:102C000040F48050C749C1F80C0CC0480078012836
:102C100007D1C348006820F40060C249C1F80C0C19
:102C200006E0BF48006840F40060BE49C1F80C0CE3
:102C3000B7480078012807D1B948006820F48060BF
:102C4000B849C1F80C0C06E0B548006840F4806053
:102C5000B449C1F80C0C704730B5B34B1B68B34C8A
:102C6000B34D2D7804EB4514B24D2D7824F8153072
:102C7000AF4B1B7803F10103AD4C237023461B7847
:102C8000082B60DB4FF000032370AA4B1B7803F185
:102C90000103A84C237023461B78102B04DB4FF054
:102CA00000032370A44C2370A34B1B785BB34FF03D
:102CB000000025E04FF000031A4619460AE09B4B3E
:102CC00003EB401333F8113013441A4601F10103AA
:102CD000DBB21946974B1B789942F0DB954B1B787A
:102CE0003BB1944B1B7892FBF3F3944C24F81030D7
:102CF00002E0924C24F8102000F10103DBB21846E8
:102D00000828D7DB1FE04FF000001AE04FF0000367
:102D10001A4619460AE0854B03EB401333F811308D
:102D200013441A4601F10103DBB219461029F2DB04
:102D3000C2F30F13814C24F8103000F10103DBB211
:102D400018460828E2DB7E4B1B6823F4A0037D4C69
:102D5000C4F808347C4B764C247853F82430794CF2
:102D6000C4F834342346D3F8083443F4A003744C35
:102D7000236030BD4FF000006D49087073488069D2
:102D800040F40070714988614FF00000704908609C
:102D90006D486749097850F821006A49C1F8340440
:102DA0004FF480706B4908606B486649C1F80804AD
:102DB0000846D0F8080440F4A000C1F808047047A1
:102DC0004FF0000065490870654908704FF0010038
:102DD0006449087070474FF0000063490870634908
:102DE00008704FF001006249087070474FF0000012
:102DF00060490870604908704FF001005F49087031
:102E000070474FF000005E4908705E4908704FF04F
:102E100001005D49087070474FF000005B49087081
:102E20005B4908704FF001005A49087070471FB5A0
:102E300059480078401CC0B257490870042802DB8A
:102E40004FF0000008705548007878B15448007879
:102E5000A0F1010000EBC00101EB0010514901EBB2
:102E60008000C06900B25049088037E04F480078C0
:102E700078B14F480078A0F1010000EBC00101EBF0
:102E80000010484901EB8000006A00B249490880FF
:102E900024E04948007878B148480078A0F1010062
:102EA00000EBC00101EB00103E4901EB8000406ADD
:102EB00000B24349088011E04248007870B14248AE
:102EC0000078A0F1010000EBC00101EB00103549D2
:102ED00001EB8000806A00B23C4908803248B0F9BA
:102EE00000003B49B1F90010401A42F2107148430A
:102EF0002D49098819B12C49B1F900106CE069E03D
:102F00008C020020A6020020A7020020A8020020B8
:102F1000A90200208D020020E202002000100140E2
:102F20000C0C0140000001404C240140161600200A
:102F3000F0020020F1020020C402002056170020F9
:102F400008240140002001407CE3000800100240FA
:102F50002C2401400424014003000E000203002041
:102F600001030020F3020020380300203403002076
:102F70003C03002039030020350300203D030020DE
:102F80003A030020360300203E0300203B030020CC
:102F9000370300203F030020030300200403002028
:102FA0001803002044060020080300200503002029
:102FB000190300200A030020060300201A03002042
:102FC0000C030020070300201B0300200E03002039
:102FD000100300204FF0010190FBF1F0F949086067
:102FE0004FF00100F8490870F6480068002802DA3E
:102FF0004FF0FF000870F548007818B9F2480078E3
:10300000F2490870F248B0F90000F249B1F9001035
:10301000401A42F210714843ED49098819B1EC4950
:10302000B1F9001001E04FF0010190FBF1F0EA4925
:1030300008604FF00100E9490870E748006800287F
:1030400002DA4FF0FF000870E548007818B9E3484D
:103050000078E3490870E348B0F90000E249B1F9AB
:103060000010401A42F210714843DE49098819B134
:10307000DC49B1F9001001E04FF0010190FBF1F0E3
:10308000DA4908604FF00100D9490870D748006854
:10309000002802DA4FF0FF000870D648007818B90F
:1030A000D3480078D3490870D348B0F90000D34919
:1030B000B1F90010401A42F210714843CE49098814
:1030C00019B1CD49B1F9001001E04FF0010190FBB9
:1030D000F1F0CB4908604FF00100CA490870C848B8
:1030E0000068002802DA4FF0FF000870C648007838
:1030F00018B9C4480078C4490870C4480078022848
:103100002DD1B0490968081E01DB014600E04142AB
:1031100005290CDA4FF00000BD490870BD49087060
:10312000BD49BE4AB2F9002021F8120028E0A548A6
:103130000068002807DDBA48007820B94FF0040085
:10314000B84908701CE09F480068002818DAB448A5
:103150000078A8B94FF00200B249087010E0994811
:103160000068002804DD4FF00500AE49087007E054
:1031700094480068002803DA4FF00300A94908705A
:10318000A948007802282DD193490968081E01DB5F
:10319000014600E0414205290CDA4FF00000A34946
:1031A0000870A34908709C49A24AB2F9002021F88E
:1031B000120028E088480068002807DD9848007859
:1031C00020B94FF004009C4908701CE08248006858
:1031D000002818DA92480078A8B94FF00200964902
:1031E000087010E07C480068002804DD4FF00500FE
:1031F0009149087007E078480068002803DA4FF02A
:1032000003008D4908708D48007802282ED1774937
:103210000968081E01DB014600E0414205290DDA7C
:103220004FF00000864908708649087001467A48C8
:10323000854AB2F9002020F8121028E06B48006897
:10324000002807DD7648007820B94FF004007F4958
:1032500008701CE065480068002818DA704800789B
:10326000A8B94FF002007949087010E05F48006883
:10327000002804DD4FF005007449087007E05B4842
:103280000068002803DA4FF00300704908707048A6
:10329000007802282ED15A490968081E01DB014630
:1032A00000E0414205290DDA4FF00000694908703D
:1032B0006949087001465848684AB2F9002020F868
:1032C000121028E04E480068002807DD54480078B6
:1032D00020B94FF00400624908701CE048480068BB
:1032E000002818DA4E480078A8B94FF002005C496F
:1032F000087010E042480068002804DD4FF0050027
:103300005749087007E03E480068002803DA4FF08C
:103310000300534908703E48007848B12A480078B5
:103320002A490978884203D04FF0020037490870D3
:1033300025480078254908703C48007848B127485E
:10334000007827490978884203D04FF002003649B7
:10335000087022480078224908703948007848B13E
:103360002348007823490978884203D04FF00200AF
:10337000324908701E4800781E49087035480078A8
:1033800048B12048007820490978884203D04FF09E
:1033900002002F4908701B4800781B4908701D481F
:1033A0000078012804D14FF000002E49087087E012
:1033B00018480078022857D14FF0010029490870B9
:1033C0007EE00000240300203403002038030020A6
:1033D0000A030020120300202803002035030020E8
:1033E000390300200C030020140300202C030020CC
:1033F000360300203A0300200E03002016030020AD
:1034000030030020370300203B0300203C03002052
:10341000040300201803002004050020F20400200B
:10342000F4020020400300203D030020050300209B
:1034300019030020F4040020410300203E03002073
:10344000060300201A030020F60400204203002097
:103450003F030020070300201B030020F804002086
:103460004303002044030020FB480078032804D1D4
:103470004FF00200F949087022E0F748007804286C
:1034800004D14FF00300F549087019E0F2480078C4
:10349000052804D14FF00400F049087010E0EE4810
:1034A0000078062804D14FF00500EC49087007E0C9
:1034B000E9480078072803D14FF00600E749087073
:1034C000E7480078012804D14FF00000E549087072
:1034D00034E0E3480078022804D14FF00100E149CC
:1034E00008702BE0DE480078032804D14FF002007A
:1034F000DC49087022E0DA480078042804D14FF053
:103500000300D849087019E0D5480078052804D18F
:103510004FF00400D349087010E0D1480078062825
:1035200004D14FF00500CF49087007E0CC4800787F
:10353000072803D14FF00600CA490870CA4800782E
:10354000012804D14FF00000C849087034E0C64893
:103550000078022804D14FF00100C44908702BE024
:10356000C1480078032804D14FF00200BF49087019
:1035700022E0BD480078042804D14FF00300BB4985
:10358000087019E0B8480078052804D14FF004000D
:10359000B649087010E0B4480078062804D14FF00E
:1035A0000500B249087007E0AF480078072803D14A
:1035B0004FF00600AD490870AD480078012804D1ED
:1035C0004FF00000AB49087034E0A94800780228A9
:1035D00004D14FF00100A74908702BE0A4480078FF
:1035E000032804D14FF00200A249087022E0A0484D
:1035F0000078042804D14FF003009E49087019E0B8
:103600009B480078052804D14FF0040099490870C0
:1036100010E097480078062804D14FF0050095493E
:10362000087007E092480078072803D14FF00600A1
:103630009049087090480078012806D08E4800789C
:10364000022815D18D48007890B98D48007878B15E
:1036500000218C480078CDE900010291894803914E
:1036600000780346EE227D480178007803F074FD6F
:1036700085480078012806D083480078022817D1B1
:103680007E480078A0B98148007888B10021804840
:1036900000781030CDE9000102917D480391007857
:1036A00010300346EE226F480178007803F054FD95
:1036B00078480078012806D076480078022817D18B
:1036C0006E480078A0B97448007888B1002173482A
:1036D00000782030CDE90001029170480391007814
:1036E00020300346EE2261480178007803F034FD73
:1036F0006B480078012806D069480078022817D165
:103700005E480078A0B96748007888B10021664813
:1037100000783030CDE900010291634803910078D0
:1037200030300346EE2253480178007803F014FD50
:103730001FBD10B586B051480078401CC0B24F493B
:103740000870042802DB4FF000000870574800782A
:1037500001280FD156480078A0F1010000EBC0010C
:1037600001EB0010534901EB8000C06900B25249DF
:1037700008803AE04D48007804280FD14C48007882
:10378000A0F1010000EBC00101EB0010494901EB81
:103790008000006A00B24849088026E0434800786B
:1037A00002280FD142480078A0F1010000EBC001CF
:1037B00001EB00103F4901EB8000406A00B23E4936
:1037C000088012E03948007803280ED13848007884
:1037D000A0F1010000EBC00101EB0010354901EB45
:1037E0008000806A00B2344908803348B0F9000094
:1037F0003249B1F90010401A42F2107148432E4983
:10380000098819B12C49B1F9001001E04FF001010C
:1038100090FBF1F000B22A4908804FF001002949DD
:1038200008702748B0F90000002802DA4FF0FF00C6
:1038300008702548007818B9224800782249087095
:103840002248007802286DD11D49B1F90010081EE8
:103850003EDB01463DE00000180300204403002049
:1038600019030020450300201A030020460300200E
:103870001B030020470300203C030020F40200202B
:1038800004030020400300203D0300200503002026
:10389000410300203E0300200603002042030020D5
:1038A0003F0300200703002043030020C50200203F
:1038B000F202002044060020F6020020F802002058
:1038C000FC0200200103002002030020F30200207C
:1038D000414205290CDA4FF00000FF490870FF490A
:1038E0000870FF49FF4AB2F9002021F812002CE0CD
:1038F000FD48B0F90000002807DDFC48007820B939
:103900004FF00400FA4908701FE0F748B0F90000D2
:1039100000281ADAF5480078B8B94FF00200F449E7
:10392000087012E0F048B0F90000002804DD4FF004
:103930000500EF49087008E0EB48B0F900000028E6
:1039400003DA4FF00300EA490870E348007850B109
:10395000E8480078E8490978884204D04FF002002E
:10396000E649087000BFE3480078E3490870DA4888
:103970000078012803D14FF00000E1490870D648D3
:103980000078042803D14FF00100DD490870D248C7
:103990000078022801D1DA490870CF48007803285E
:1039A00001D1D7490870CD480078012804D14FF0E3
:1039B0000000D449087010E0C8480078022804D1FB
:1039C0004FF00100CF49087007E0C4480078032891
:1039D00003D14FF00200CB490870CB48008878B182
:1039E000C9480088A0F1010000B2C7490880084614
:1039F000008828B94FF00000B7490870B74908702F
:103A0000BE480078012806D0BC48007802281DD1A5
:103A1000B6480078D0B9B0480078B8B10021B848AD
:103A20000078B34C247804EB0010CDE9000102913A
:103A3000B34803910078AE49097801EB00100346C2
:103A4000EE22B0480178007803F086FBAE48B0F96A
:103A50000000A549B1F90010AC4AB2F90020AC4B06
:103A6000B3F90030CDE90132CDE903109F48007869
:103A70000090A24803789948027897480178A548B1
:103A80000AF05AFA06B010BD00EBC00101EB0011BC
:103A9000A14A02EB810191F85E10A1BB00EBC001CD
:103AA00001EB001102EB810191F85F1059BB00EBB3
:103AB000C00101EB001102EB8101B1F8601011BBF4
:103AC0004FF03C0100EBC00202EB0012924B03EB03
:103AD000820282F85E104FF0030100EBC00202EB9D
:103AE000001203EB820282F85F108C4909884FF4C0
:103AF000616201FB02F100EBC00202EB001203EB7A
:103B00008202A2F8601070474FF0000100EBC00283
:103B100002EB0012804B03EB820282F85E1000EB96
:103B2000C00202EB001203EB820282F85F1000EB8E
:103B3000C00202EB001203EB8202A2F86010704791
:103B400000B54FF0000076490870F9E1754800783B
:103B500010BB4FF000007249097801EBC10202EB83
:103B600001116D4A02EB810181F85E006C49097810
:103B700001EBC10202EB0111674A02EB810181F8FE
:103B80005F006749097801EBC10202EB0111624A4B
:103B900002EB8101A1F860006348007860B94FF042
:103BA00000005F49097801EBC10202EB01115A4A9A
:103BB00002EB8101A1F860005948007800EBC001D8
:103BC00001EB0010544901EB800090F85E00B8B999
:103BD0005348007800EBC00101EB00104E4901EBA7
:103BE000800090F85F0058B94D48007800EBC001A4
:103BF00001EB0010484901EB8000B0F86000F0B321
:103C00004748007800EBC00101EB0010424901EB8E
:103C100080008078012838D14148007800EBC0014D
:103C200001EB00103C4901EB800090F863003C2858
:103C300038DA3B48007800EBC00101EB0010364950
:103C400001EB800090F8630000F10100344909782D
:103C500001EBC10202EB01112F4A02EB810181F855
:103C600063002F48007800EBC00101EB0010114603
:103C700001EB800090F863003C2813DB00E011E0CA
:103C800027480078FFF740FF0CE04FF00000244980
:103C9000097801EBC10202EB01111F4A02EB81011D
:103CA00081F863001E48007800EBC00101EB0010B2
:103CB000194901EB800090F85E0000287ED04FF09B
:103CC00000001749097801EBC10202EB0111124A09
:103CD00002EB81012AE00000C5020020F202002070
:103CE00004050020F0040020FC020020F402002063
:103CF000000300200103002002030020F302002043
:103D0000FF020020FE020020FA020020F80200203C
:103D1000F60200209CE300084406002084010020F5
:103D2000790300208201002083010020A1F86000B7
:103D3000FF48007800EBC00101EB0010114601EBD9
:103D4000800090F85E00A0F10100F949097801EBCC
:103D5000C10202EB0111F74A02EB810181F85E001A
:103D6000F348007800EBC00101EB0010114601EBB5
:103D7000800090F85E0000286ED1ED48007800EBDE
:103D8000C00101EB0010114601EB800090F85F00CC
:103D9000A0B3E748007800EBC00101EB001011462A
:103DA00001EB800090F85F00A0F10100E049097884
:103DB00001EBC10202EB0111DE4A00E04CE002EB34
:103DC000810181F85F004FF03C00D949097801EB8F
:103DD000C10202EB0111D74A02EB810181F85E00BA
:103DE0004FF00200D249097801EBC10202EB011148
:103DF000D04A02EB810181F862002DE0FFE7CE4856
:103E00000078012828D14FF00000C949097801EB5A
:103E1000C10202EB0111C74A02EB810181F85E0089
:103E2000C349097801EBC10202EB0111C14A02EB5F
:103E3000810181F85F00C14800884FF4616100FB97
:103E400001F0BB49097801EBC10202EB0111B94A4B
:103E500002EB8101A1F86000B548007800EBC001D9
:103E600001EB0010B34901EB8000B0F86000E8B34B
:103E7000AF48007800EBC00101EB0010AD4901EB49
:103E80008000B0F86000A0F10100A949097801EBB9
:103E9000C10202EB0111A74A02EB8101A1F8600007
:103EA000A348007800EBC00101EB0010114601EBC4
:103EB0008000B0F86000C8B94FF002009C49097852
:103EC00001EBC10202EB01119A4A02EB810181F878
:103ED0005F004FF03C009649097801EBC10202EB0C
:103EE0000111944A02EB810181F85E00904800784C
:103EF00000EBC00101EB00108E4901EB800090F84F
:103F00006200B8B18A48007800EBC00101EB0010F4
:103F1000884901EB800090F86200A0F1010084491B
:103F2000097801EBC10202EB0111824A02EB810127
:103F300081F862007E48007800F101007C49087039
:103F40007B4800787E49B1F900108842FFF6FEAD4B
:103F500000BD10B57B4A128811467B4AB2F9002099
:103F600001FB02F141F2707291FBF2F211460AB2CA
:103F7000764B1A80734A52881146754AB2F900206E
:103F800001FB02F141F2707291FBF2F211460AB2AA
:103F9000704B1A806B4A928811466F4AB2F9002022
:103FA00001FB02F141F2707291FBF2F211460AB28A
:103FB0006A4B1A806A4A1288012A0AD1634AB2F906
:103FC0000020684B1A801A46B2F90020664B1A800E
:103FD0003FE0634A1288032A3BD15C4AB2F90020D1
:103FE000604B1A805B4AB2F90020B3F900309A4264
:103FF00004DA584AB2F900205A4B1A80574AB2F9EB
:104000000020584BB3F900309A4204DA534AB2F90F
:104010000020544B1A804D4AB2F90020524B1A80AE
:104020004C4AB2F90020B3F900309A4204DD494A03
:10403000B2F900204C4B1A80484AB2F900204A4B92
:10404000B3F900309A4204DD444AB2F90020464BED
:104050001A803C4AD288B2F5487F0ADD394AD288B4
:1040600040F6D8639A4204DA4FF000023F4B1A73CD
:1040700003E04FF001023D4B1A73324AD2881146D9
:104080003B4AB2F9002001FB02F144F6206291FBA9
:10409000F2F21146A1F2111211460AB2334B5A81C3
:1040A000344A12781A81344A12785A804FF000004C
:1040B000F4E000EBC00202EB00121E4B03EB8202A5
:1040C000D278192A7EDA00EBC00202EB001203EB71
:1040D0008202937900EBC00202EB0012154C04EB54
:1040E0008202D27903EB022200EBC00303EB001340
:1040F00004EB83035A6200EBC00202EB001223467A
:1041000003EB8202137A00EBC00202EB001204EB15
:104110008202527A03EB022200EBC00303EB00138E
:1041200004EB83031A6200EBC00202EB001225E0ED
:104130007903002044060020830100208401002030
:104140004801002056170020D00000202E0000203B
:10415000D200002030000020D400002032000020D7
:104160005C0100202A0000203400002060050020AF
:10417000BC000020C4020020F1020020234603EB13
:104180008202937A00EBC00202EB001204EB82027F
:10419000D27A03EB022200EBC00303EB001304EB23
:1041A0008303DA6100EBC00202EB0012234603EB4B
:1041B0008202127B00EBC00303EB001304EB8303CA
:1041C0009A6200E038E000EBC00202EB00122346E6
:1041D00003EB8202527B00EBC00303EB001304EB02
:1041E000830383F8562000EBC00202EB0012234643
:1041F00003EB8202927B00EBC00303EB001304EBA2
:10420000830383F8422000EBC00202EB0012234636
:1042100003EB8202137C00EBC00202EB001204EB02
:104220008202527C03EB022200EBC00303EB00137B
:1042300004EB83031A652DE04FF0000200EBC0038E
:1042400003EB0013FF4C04EB8303DA6100EBC003C4
:1042500003EB001304EB83035A6200EBC00303EB90
:10426000001304EB83031A6200EBC00303EB00139B
:1042700004EB83039A6200EBC00303EB001304EB2F
:10428000830383F8422000EBC00303EB001304EB2D
:1042900083031A6500F10102D2B21046EA4AB2F96C
:1042A00000209042FFF605AFE84A52891146E84ADD
:1042B000B2F9002001FB02F14FF4FA7291FBF2F225
:1042C00011460AB2E34B1A80E04A12891146E24ACB
:1042D000B2F9002001FB02F14FF4FA7291FBF2F205
:1042E00011460AB2DD4B1A804FF00002DC4B1A80F7
:1042F000DC4B1A8010461AE000EBC00202EB001201
:10430000D04B03EB8202D278052A0CDA00EBC00214
:1043100002EB001203EB8202526AD24B1B881A4452
:1043200012B2D04B1A8000F10102D2B21046C64A36
:10433000B2F900209042DFDBC94A1288C94B1B88C2
:104340001A4412B2C64B1A801A46B2F90020002A4B
:1043500002DA4FF000021A804FF0000211461046B8
:104360000DE000EBC00202EB0012B64B03EB820241
:10437000526A0A44114600F10102D2B21046B24A12
:10438000B2F900209042ECDB0AB2B74B1A80B74A70
:10439000B2F90020B64B1A8010BD2DE9F041B548A6
:1043A00000780A2810DAB348007800F10100B1491A
:1043B0000870084600780A2806DB4FF000000870F5
:1043C0004FF00100AC4908704FF00000AB49088085
:1043D000AB4908804FF0CD0002F0BBFC00287DD037
:1043E000A8480068CE2803D14FF6FF70A449088082
:1043F000A4480068CF2803D1A2484068A04908809B
:10440000A0480068D12803D19E4840689B49088095
:104410009C480068D22803D14FF6FF709749088066
:1044200098480068D02809D1964840689349088088
:10443000944840686FEA0000914908804FF00004FA
:1044400062E0012000FA04F08D490988084215D085
:1044500004EBC40000EB04107A4901EB8000B0F8D3
:10446000400000F1010000B204EBC40101EB0411B3
:10447000744A02EB8101A1F840000AE04FF000000D
:1044800004EBC40101EB04116E4A02EB8101A1F8B7
:10449000400004EBC40101EB04116A4A02EB810104
:1044A0004031084632220021FEF7E0F804EBC40058
:1044B00000EB0410634901EB8000B0F940001428C0
:1044C0000ADD4FF0010004EBC40101EB04115D4A69
:1044D00002EB810181F82C00012000E01AE000FAD3
:1044E00004F06649098808420AD04FF0000004EB46
:1044F000C40101EB0411534A02EB810181F82C0045
:1045000004F10100C0B204464F48B0F900008442F3
:1045100097DDFFE0584800780028FAD04FF00006F9
:1045200034460EE04FF0010004EBC40101EB04112E
:10453000444A02EB810181F82C0004F10100C0B271
:1045400004464148B0F900008442EBDB4FF0000024
:10455000044642E03C4A1288D2B21146202902DDCC
:104560004FF020021146484A1078374AB2F900202D
:10457000904202DB4FF00002104600EB0402D2B280
:10458000104690FBF1F201FB1202D2B2104600EB92
:10459000C00202EB00122B4B03EB82029278022A3C
:1045A00008D000EBC00202EB001203EB820292780B
:1045B000012A0ED14FF0000200EBC00303EB001301
:1045C000204F07EB830383F82C2006F10102D2B2BF
:1045D000164604F10100C0B204461B48B0F90000C1
:1045E000844204DA2948B0F900008642B2DB4FF079
:1045F00000002749097801EBC10202EB0111114AC1
:1046000002EB810181F82C002248B0F900003C281F
:1046100017DA4FF0000004460EE04FF0000004EB04
:10462000C40101EB0411074A02EB810181F82C005F
:1046300004F10100C0B204460348B0F9000084420E
:10464000EBDD29E044060020480100205617002039
:104650000E0000204C000020D60000204A00002060
:1046600054000020860200204E000020460000205A
:104670007203002054030020550300204E03002045
:1046800050030020340400206A030020600300204F
:104690006B03002026000020FF480088B8B14FF0CF
:1046A000000004460EE04FF0010004EBC40101EBF2
:1046B0000411FA4A02EB810181F82C0004F1010097
:1046C000C0B20446F648B0F900008442EBDD4FF07A
:1046D0000000044619E004EBC40000EB0410EF49AD
:1046E00001EB800090F82C0001280AD16FF0310016
:1046F00004EBC40101EB0411E84A02EB8101A1F8CB
:10470000540004F10100C0B20446E548B0F90000CD
:104710008442E0DD4FF00000044628E004EBC400D2
:1047200000EB0410DD4901EB8000C06BD8B14FF005
:10473000630004EBC40101EB0411D84A02EB8101D0
:1047400081F82C0004EBC40000EB0410114601EBCF
:104750008000C06BA0F1010004EBC40101EB041167
:1047600002EB8101C86304F10100C0B20446CC48E9
:10477000B0F900008442D1DB4FF00000C949087055
:10478000C94908700546044625E004EBC40000EB67
:104790000410C24901EB80008078012817D1C2487B
:1047A000007800F10100C049087004EBC40000EB80
:1047B0000410BA4901EB8000C069A84207DD04EB90
:1047C000C40000EB041001EB8000C06985B204F165
:1047D0000100C0B20446B248B0F900008442D4DB04
:1047E000B24805804FF00000B14908704FF0010059
:1047F000B04908704FF00000044626E004EBC40006
:1048000000EB0410A54901EB8000806AAA49B1F9C8
:104810000010884203DB4FF00100A549087004EB4B
:10482000C40000EB04109D4901EB8000816AA2489E
:10483000B0F90000401F814203DB4FF000009D49AA
:10484000087004F10100C0B204469548B0F90000B8
:104850008442D3DB96480078012802D1974908703A
:1048600009E09648007830B19248007818B14FF0CE
:1048700000009249087092480088D8B34FF00000B9
:1048800004460EE04FF0010004EBC40101EB0411FB
:10489000824A02EB810181F82C0004F10100C0B2D0
:1048A00004467F48B0F900008442EBDD4FF002017E
:1048B0008348B0F90000A0F1010000EBC00202EB58
:1048C0000010764A02EB800080F82C107D480088AA
:1048D00001280FD14FF003017948B0F90000A0F191
:1048E000010000EBC00202EB00106C4A02EB8000FA
:1048F00080F82C107448008838B34FF0000004464C
:104900000EE04FF0000004EBC40101EB0411634A18
:1049100002EB810181F82C0004F10100C0B20446D1
:104920005F48B0F900008442EBDD4FF001016648BA
:10493000B0F90000A0F1010000EBC00202EB001092
:10494000564A02EB800080F82C10BDE8F08170B56B
:10495000044604EBC40000EB0410504911F8200099
:10496000032800D070BD04EBC40000EB04104B49D9
:1049700001EB800090F8425015F0020F45D004EB97
:10498000C40000EB041001EB8000B0F94600B0F564
:10499000966F74DA04EBC40000EB041001EB8000A6
:1049A000B0F8460000F1010000B204EBC40101EBD5
:1049B00004113A4A02EB8101A1F8460004EBC4005D
:1049C00000EB0410114601EB8000B0F94600B0F591
:1049D000966F54DB4FF4966004EBC40101EB0411B5
:1049E00002EB8101A1F8460004EBC40000EB0410C7
:1049F000114601EB8000407810F0010F3FD10122F9
:104A00000021204603F034FA39E015F0020F36D1C8
:104A100004EBC40000EB0410204901EB8000B0F867
:104A2000460060B304EBC40000EB041001EB80000F
:104A3000B0F84600A0F1010000B204EBC40101EBA4
:104A40000411164A02EB8101A1F8460004EBC400F0
:104A500000EB0410114601EB8000B0F8460070B97D
:104A600004EBC40000EB041001EB8000407810F070
:104A7000010F04D000221146204603F0F9F915F089
:104A8000080F62D004EBC40000EB0410034901EBF3
:104A90008000B0F9480019E09C0300204406002083
:104AA0004801002055030020480300208603002011
:104AB000C9030020C8030020E2000020CA03002030
:104AC00000050020FE040020FA0400200A283BDA3A
:104AD00004EBC40000EB041001EB8000B0F84800C8
:104AE00000F1010000B204EBC40101EB0411FF4A24
:104AF00002EB8101A1F8480004EBC40000EB0410B4
:104B0000114601EB8000B0F948000A2870DB4FF035
:104B10000A0004EBC40101EB041102EB8101A1F8CE
:104B2000480004EBC40000EB0410114601EB8000C8
:104B3000407810F0020F04D101221146204603F004
:104B400097F92046FEF7A0FF52E015F0080F4FD16D
:104B500004EBC40000EB0410E44901EB8000B0F961
:104B6000480000282EDD04EBC40000EB041001EB2C
:104B70008000B0F84800A0F1010000B204EBC401CD
:104B800001EB0411D94A02EB8101A1F8480004EBC2
:104B9000C40000EB0410114601EB8000B0F848009F
:104BA00030BB4FF0000004EBC40101EB041102EB39
:104BB0008101A1F8480002464FF00101204603F0B0
:104BC00057F915E004EBC40000EB0410C74901EBF2
:104BD0008000B0F9480000280ADA4FF0000004EB2A
:104BE000C40101EB0411C14A02EB8101A1F84800A4
:104BF00015F0100F47D004EBC40000EB0410BB49C4
:104C000001EB8000B0F94A000A283BDA04EBC4004B
:104C100000EB041001EB8000B0F84A0000F1010045
:104C200000B204EBC40101EB0411B04A02EB8101B4
:104C3000A1F84A0004EBC40000EB0410114601EB9C
:104C40008000B0F94A000A2878DB4FF00A0004EB34
:104C5000C40101EB041102EB8101A1F84A0004EB4D
:104C6000C40000EB0410114601EB8000407810F006
:104C7000040F04D101220221204603F0F9F8204656
:104C8000FEF702FF5AE015F0100F57D104EBC400F5
:104C900000EB0410954901EB8000B0F84A0070B3B6
:104CA00004EBC40000EB041001EB8000B0F84A00F4
:104CB000A0F1010000B204EBC40101EB04118B4A26
:104CC00002EB8101A1F84A0004EBC40000EB0410E0
:104CD000114601EB8000B0F84A0078BB4FF00000AD
:104CE00004EBC40101EB041102EB8101A1F84A00BD
:104CF00002464FF00201204603F0BAF81EE004EB32
:104D0000C40000EB0410794901EB8000B0F94A00BF
:104D10000A2813DD04EBC40000EB041001EB800053
:104D2000B0F84A00A0F1010000B204EBC40101EBAD
:104D300004116E4A02EB8101A1F84A0004EBC400A1
:104D400000EB0410694901EB8000C0696849B1F9C2
:104D50000010684AB2F90020891A88424FDA04EB41
:104D6000C40000EB0410614901EB80008078012849
:104D700045D104EBC40000EB041001EB8000B0F956
:104D80004C00B0F5967F39DA04EBC40000EB041058
:104D900001EB8000B0F84C0000F1010000B204EB20
:104DA000C40101EB0411514A02EB8101A1F84C004E
:104DB00004EBC40000EB0410114601EB8000B0F9D5
:104DC0004C00B0F5967F7BDB4FF4967004EBC4018A
:104DD00001EB041102EB8101A1F84C0004EBC400CB
:104DE00000EB0410114601EB8000407810F0040F36
:104DF00066D101220221204603F03AF860E004EB7C
:104E0000C40000EB0410394901EB8000C169384847
:104E1000B0F90000374AB2F90020801A81424FDB16
:104E200004EBC40000EB0410304901EB8000B0F843
:104E30004C0070B304EBC40000EB041001EB8000E5
:104E4000B0F84C00A0F1010000B204EBC40101EB8A
:104E50000411264A02EB8101A1F84C0004EBC400C6
:104E600000EB0410114601EB8000B0F84C0038BB99
:104E70004FF0000004EBC40101EB041102EB8101CF
:104E8000A1F84C0002464FF00201204602F0F0FF6C
:104E900016E004EBC40000EB0410144901EB8000A1
:104EA000B0F94C00B0F5967F0ADD4FF4967004EB34
:104EB000C40101EB04110D4A02EB8101A1F84C0081
:104EC00004EBC40000EB0410084901EB80004078BB
:104ED00010F00F0F10D04FF0210004EBC40101EBD4
:104EE0000411024A02EB8101887048E04406002068
:104EF000DE00002006010020FF480078A0B104EB8E
:104F0000C40000EB0410FD4901EB8000C0781428B8
:104F10000ADD4FF0220004EBC40101EB0411F74A53
:104F200002EB810188702AE004EBC40000EB04105E
:104F3000F24901EB800090F8420010F0200F0AD0F7
:104F40004FF0020004EBC40101EB0411EB4A02EB49
:104F50008101887013E004EBC40000EB0410E74902
:104F600001EB8000C078142809DA4FF0010004EB4F
:104F7000C40101EB0411E14A02EB8101887004EBEA
:104F8000C40000EB0410DD4901EB8000B0F95400CF
:104F9000DB49B1F90010084404EBC40101EB041132
:104FA000D64A02EB810108634FF47A7004EBC40126
:104FB00001EB041102EB8101486300BFD2E470B53C
:104FC000D048008828B9D048B0F90000CF490880FF
:104FD0003CE0CF48007B20B14FF01400CD49088061
:104FE00003E0CB484089CB490880CA48B0F90000AB
:104FF000002803DAC848B0F9005024E0C548B0F9E9
:105000000000282803DD4FF02800C2490880BE4870
:10501000B0F90000C049B1F90010A0EB010000EBAD
:1050200080004FEA40000546BA48B0F9000005FB91
:1050300000F54FF0C80095FBF0F00546B648B0F912
:1050400000002844054628B2B0490880BE2001F07F
:1050500080FE40B1B1480068BF2804D1AF48406825
:1050600000B2AA490880A948B0F9000004464FF0F0
:10507000620004FB00F44FF0640094FBF0F004467F
:1050800020B2A7490880A148B0F9000004464FF0BB
:10509000660004FB00F44FF0640094FBF0F004465B
:1050A00020B2A049088070BD10B59F48008830B17B
:1050B0009D480088A0F1010000B29B4908809B48F0
:1050C000B0F900009A4908809148B0F9080000281A
:1050D00012DA8F49B1F90810081E01DB014601E020
:1050E000C0F100014FF00A0291FBF2F1904A1288E0
:1050F000114409B28E4A11808548B0F95400002845
:1051000012DA8349B1F95410081E01DB014601E0AF
:10511000C0F100014FF00A0291FBF2F1844A1288BB
:10512000114409B2824A11808148B0F900008149D6
:10513000B1F9001090FBF1F000F101007E49087018
:105140007B48B0F900007D49B1F9001090FBF1F007
:1051500000F101007A490870774800787949B1F97F
:105160000010884208DD74480078764908804FF0C6
:105170003C006D49088011E0714800787149B1F92F
:10518000001088420ADA6848008838B96C4800780C
:105190006C4908804FF03C00634908806A480088E9
:1051A00020B16A48B0F90000664908806848007874
:1051B00020B16648B0F9000062490880654800786F
:1051C0000A2804D16148B0F900005E4908806248AD
:1051D00000780A2803D0604800780B2804D15B4887
:1051E000B0F90000574908805848B0F90020012163
:1051F0005448FDF73BFA10BD10B55848B0F900000F
:105200005749B1F90010884235DA564890F9000044
:105210000A2819DA5448B0F900000F2814DD514863
:10522000007800F1010040B24E490870084690F93C
:1052300000000A2811DB4948B0F900004B490880FA
:10524000012002F00FFA08E0464890F900000A2811
:1052500003DB4FF00A00434908704048B0F90000F2
:105260004249B1F9001088422DDA3C48B0F90000FB
:105270003E49088027E03948B0F900003849B1F9C3
:10528000001088421FDD3748007898B13548007813
:10529000A0F1010040B233490870084690F90000BF
:1052A000002810DC002002F0DDF94FF00A00304940
:1052B000087008E02B4890F90000002803DA4FF04E
:1052C0000000284908702B48B0F900002A49B1F9BC
:1052D000001088427BDD294890F900000A285EDA38
:1052E0002148B0F900000F2859DD2448007800F16A
:1052F000010040B2214943E0420000204406002062
:10530000C802002034010020DE00002056030020E7
:105310006005002068030020DC0000203404002029
:105320005C0300205A030020E402002086020020D3
:1053300088020020F400002052030020F600002024
:1053400053030020600300200801002048010020D2
:10535000CA030020CC020020CE0200202A00002038
:10536000E800002040000020260000202C00002043
:10537000D803002034000020EA0000204100002073
:105380000870084690F900000A2811DBFF48B0F9C0
:105390000000FF490880022002F064F908E0FD489F
:1053A00090F900000A2803DB4FF00A00F949087061
:1053B000F648B0F90000F649B1F9001088422EDD38
:1053C000F248B0F90000F249088028E0FFE7EF4812
:1053D000B0F90000F049B1F9001088421FDAED4839
:1053E000007898B1EB480078A0F1010040B2E9499B
:1053F0000870084690F90000002810DC002002F038
:1054000031F94FF00A00E549087008E0E14890F9E9
:105410000000002803DA4FF00000DE490870DF4882
:10542000007828B1DD480078A0F10100DB49087060
:1054300010BD10B5029C10BD4FF0000108463BE0C6
:10544000D749896811F40071D54A916018D1D549BE
:1054500009560A290FDAD349095C01F1010149B261
:10546000D04A1154114609560A2921DB4FF0010197
:10547000CD4A11541CE04FF00A01CA4A115417E0FA
:10548000C849095600290FDDC649095CA1F101018F
:1054900049B2C44A115411460956002908DC4FF09C
:1054A0000001C14A115403E04FF00001BD4A1154FC
:1054B00000F10101C9B208460128C1DB4FF000012B
:1054C000084643E0B94931F8101019B9B649095CEA
:1054D000012906D0B54931F81010D9B1B249095C9B
:1054E000C1B9B34909560A290FDAB149095C01F17A
:1054F000010149B2AE4A1154114609560A2921DB6D
:105500004FF00101AB4A11541CE04FF00A01A84AC8
:10551000115417E0A649095600290FDBA449095C7C
:10552000A1F1010149B2A24A1154114609560029BC
:1055300008DC4FF000019F4A115403E04FF00001D6
:105540009B4A115400F10101C9B208460128B9DB98
:10555000704708B59848407800F1010096494870B6
:105560009648007860B14FF00000944908704FF001
:105570000A0003F04BFE4FF00A008F4948701FE00D
:105580004FF014008C4948708D48008878B98D48D8
:10559000007860B98C48007848B98C48007830B9F8
:1055A0004FF001008549087003F030FE08E04FF429
:1055B000FA6087A38CA292A1009097A0FFF739FF11
:1055C00008BD10B59A48B0F900009A49B1F9001029
:1055D00088421DDD9848B0F900009849B1F90010E3
:1055E000884228DA9448008800F1010000B292490C
:1055F00008800846B0F900009049B1F900108842CF
:1056000019D18F480078B0B9022002F093FA12E065
:105610008948008878B188480088A0F1010000B26C
:10562000854908800846008828B98548007810B167
:10563000002002F07FFA7E48B0F900008149B1F9FC
:10564000001088421DDA8048B0F900007B49B1F9AA
:105650000010884228DA7C48008800F1010000B27E
:10566000794908800846B0F900007449B1F9001082
:10567000884219D172480078B0B9012002F05AFA74
:1056800012E07148008878B16F480088A0F10100ED
:1056900000B26D4908800846008828B9684800783B
:1056A00010B1002002F046FA6848B0F9000000EBA3
:1056B00080005F49B1F90010B1EB400F08DA64488F
:1056C000007828B9142301227221D22001F0FCFABB
:1056D00010BD08B53948007801282CD15D48007804
:1056E0003649097888420DD04FF005005A490880A4
:1056F0005A48008830B94FF0000008804FF002008F
:105700002E4908705448008868B153480088A0F1B9
:10571000010000B2504908800846008818B94FF0CF
:1057200003002649087020480078012803D14FF073
:1057300002002249087021480078022825D14548F6
:1057400000781E49097888420CD04548B0F900001D
:105750004FF4616100FB01F0424908604FF0000026
:10576000414908603F480068A0F101003D490860D8
:105770003D48006800F101003B4908603948006875
:1057800010B94FF0000071E074E07EE034000020BA
:105790002C00002041000020EA000020D803002057
:1057A000001001400A040020D40200201C02002046
:1057B0000E040020DC0200206E0000200800002003
:1057C000680000207C000020CC020020CE020020D7
:1057D00020202020202020202020202020202020C9
:1057E000202020200000000020202020E7E0E1EB26
:1057F000EEEAE8F0EEE2E0ED2120202000000000DB
:1058000020202020202020E7E0F0FFE4202020209E
:1058100020202020000000002020202020D3F1EABA
:10582000EEF0E5EDEDFBE920202020200000000057
:105830004C0000205E0100202E04002062010020A8
:10584000320400206001002030040020E600002027
:105850009D04002070000020720000206C000020D9
:105860005A00002074000020C4030020FE49087084
:1058700003F0CCFCFD48007838B9FD4800880128C9
:1058800003D14FF00400F8490870F7480078032866
:1058900024D1F8480078F4490978884202D1F648C2
:1058A000008818B94FF00A00F3490880F2480088D0
:1058B000A0F1010000B2F0490880084600880A28DB
:1058C00003D008460088092808D141F28830EBA3AC
:1058D000F0A2F6A10090FBA0FFF7ABFDE248007834
:1058E00004282CD1E3480078DF490978884202D1A6
:1058F000E148008818B94FF00A00DF490880DE4807
:105900000088A0F1010000B2DB4908800846008849
:105910000A2803D008460088092808D141F28830B7
:10592000EEA3F4A2F9A10090E6A0FFF782FDCF4814
:105930000078012803D14FF00200CB490870CA4813
:105940000078CC490870F748008801284DD1C64836
:105950000078E8BBF4480078D0BBF4480078B8BBC6
:10596000F3480078A0BBF349B1F90010F24AB2F94C
:105970000020914230DAF049B1F90010ED4AB2F955
:105980000020891AED4AB2F90020914224DDEC4949
:10599000B1F900100A2291FBF2F1EA4AB2F90020B3
:1059A000881A01D4014600E04142052914DAE6498B
:1059B000098889B9E548007800F10100E3490870D9
:1059C000084600783C2810DBFFF7C3FD052000E007
:1059D00007E003F01BFC08E04FF00000DB49087013
:1059E00003E04FF00000D949087008BD10B5D84851
:1059F000007850B3D6480078A0F10100D44908706F
:105A00000846007818B94FF00000D2490870D24813
:105A1000007800F0FE00D0490870CE4800780128D8
:105A200004D10846007840F001000870CB480078A7
:105A300040F00100C9490870C648007888B9084696
:105A4000007800F0FE0008700BE0C348007800F01A
:105A5000FE00C1490870C148007800F0FE00BF494F
:105A60000870BF48007850B3BD480078A0F101002D
:105A7000BB4908700846007818B94FF00000B949D2
:105A80000870B548007800F0FD00B3490870B548CB
:105A90000078012804D10846007840F00200087020
:105AA000AE48007840F00200AC490870AD4800787C
:105AB00088B90846007800F0FD0008700BE0A648A1
:105AC000007800F0FD00A4490870A448007800F0B8
:105AD000FD00A2490870A448007850B3A24800789D
